:020000040800F2
:102000008055002041220008492200084B22000888
:102010004D2200084F220008512200080000000055
:102020000000000000000000000000005322000833
:1020300055220008000000004F230008F186000828
:102040005B2200085B2200085B2200085B2200087C
:102050005B2200085B2200085B2200085B2200086C
:102060005B2200085B2200085B220008C5490008CB
:102070005B2200085B2200085B2200085B2200084C
:102080005B2200085B2200085B2200085B2200083C
:102090005B2200085B2200085B2200085B2200082C
:1020A0005B2200085B2200085B2200085B2200081C
:1020B0005B220008F1B600085B2200085B220008E2
:1020C0005B2200085B2200085B2200085B220008FC
:1020D0005B2200085B2200085B2200085B220008EC
:1020E0005B2200085B2200085B2200085B220008DC
:1020F0005B2200085B2200085B2200085B220008CC
:102100005B2200085B2200085B2200085B220008BB
:102110001DBC00085B2200085B2200085B2200084F
:102120005B2200085B2200085B2200085B2200089B
:1021300000F002F800F05AF80AA090E8000C82447F
:102140008344AAF10107DA4501D100F04FF8AFF25C
:10215000090EBAE80F0013F0010F18BFFB1A43F085
:102160000103184740C4000060C400000A444FF057
:10217000000C10F8013B13F0070408BF10F8014BE6
:102180001D1108BF10F8015B641E05D010F8016B2B
:10219000641E01F8016BF9D113F0080F1EBF10F88F
:1021A000014BAD1C0C1B09D16D1E58BF01F801CBB2
:1021B000FAD505E014F8016B01F8016B6D1EF9D535
:1021C0009142D6D37047000000230024002500264A
:1021D000103A28BF78C1FBD8520728BF30C148BF8A
:1021E0000B6070471FB51FBD10B510BD00F05EF845
:1021F0001146FFF7F7FF0AF0C1FB00F07CF803B4CB
:10220000FFF7F2FF03BC00F07FF8000072B67047E2
:1022100062B67047EFF3108072B6704780F3108893
:10222000704730BF704720BF7047B0FA80F07047EA
:1022300090FAA0F0B0FA80F0704790FAA0F07047E2
:102240000948804709480047FEE7FEE7FEE7FEE74A
:10225000FEE7FEE7FEE7FEE7FEE7FEE70448054986
:10226000054A064B7047000021B6000831210008DE
:10227000804F002080550020805100208051002098
:1022800070477047704710B500F008F8006810BD3F
:1022900010B5044600F002F8046010BD0048704715
:1022A000204F002000487047204F00207546FFF760
:1022B000F9FFAE4605006946534620F00700854603
:1022C00018B020B5FFF7CAFFBDE820404FF0000668
:1022D0004FF000074FF000084FF0000B21F007010E
:1022E000AC46ACE8C009ACE8C009ACE8C009ACE851
:1022F000C0098D46704710B50446AFF300802046F4
:10230000BDE81040FFF77BBF01491820ABBEFEE7D8
:1023100026000200704700001D484FF0FF010170C9
:10232000002080F309881B48016881F308881A4857
:102330004FF08051016062B6FEE717484FF08051C0
:102340000160704714484FF080510160704772B6C9
:10235000EFF3098028B1203880E8F00F0F490968B1
:10236000086000B50E4880475DF804EB0D480E4943
:102370000A78027009480D490A680260106890E8FE
:10238000F00F203080F309884EF0F40E62B67047EB
:1023900022ED00E06400002004ED00E05C0000207D
:1023A000718500083000002031000020600000200E
:1023B00010B502210F4800F0F5F800210E4802F098
:1023C000A1FB32200C490839C86001210A4802F0FB
:1023D00099FB0121074800F0F3F80648083000682F
:1023E00040F002000349083108600121014800F073
:1023F00086F910BD002401400800024000B591B0EC
:102400000121480207F066FD0121082007F062FD66
:102410000121102007F05EFD4FF4004007F02EFD73
:102420000120ADF8400000208DF8430010A9584865
:1024300002F066FF0220ADF8400000208DF8430056
:1024400010A9534802F05CFF0120ADF840000020C5
:102450008DF8430010A94F4802F052FF0820ADF854
:10246000400000208DF8430010A94A4802F048FFC0
:102470000420ADF8400000208DF8430010A9454825
:1024800002F03EFF0121084607F004FD424800909B
:1024900042480190002002903220039000200490D6
:1024A0008020059040000690800007900020089052
:1024B0004FF40050099000200A906946384802F015
:1024C0004CFB0121364802F01DFB01220221344859
:1024D00002F03AFB00200B9001208DF830008DF8BF
:1024E00031004FF460200D9000200E9005208DF8F3
:1024F0003C000BA928484C3800F078F8072301224B
:10250000082125484C3800F099F8072302220921B8
:1025100021484C3800F092F8072303220A211E4874
:102520004C3800F08BF8072304220C211A484C3851
:1025300000F084F8072305220D2117484C3800F0DD
:102540007DF8012114484C3800F03AF80121124876
:102550004C3800F02AF810484C3800F0CBF800BF97
:102560000D484C3800F037F80028F9D10A484C38AB
:1025700000F0D0F800BF08484C3800F02CF80028D4
:10258000F9D1012104484C3800F0B9F811B000BD70
:10259000000C0140001001404C240140904E0020EE
:1025A00008000240CA430260704721B1826842F0CD
:1025B0000102826003E0826822F0010282607047BB
:1025C00021B1826842F48072826003E0826822F462
:1025D000807282607047014600208A6802F004021F
:1025E0000AB1012000E000207047000030B502462B
:1025F0000020002350680F4C20400D790C6844EAFD
:1026000005242043506090680B4C2040D1E90254CF
:102610002C434D7944EA450420439060D06A20F46D
:1026200070000C7C641EE4B2234340EA0350D06285
:1026300030BD0000FFFEF0FFFDF7F1FFF0B50446EE
:102640000D4600200021092D11DDE068A5F10A06E4
:1026500006EB4607072606FA07F18843A5F10A06A6
:1026600006EB460603FA06F10843E0600CE0206939
:1026700005EB4507072606FA07F1884305EB4506F3
:1026800003FA06F108432061072A0FDA606B561E31
:1026900006EB86071F2606FA07F18843561E06EB4F
:1026A000860605FA06F10843606322E00D2A0FDA78
:1026B000206BD61F06EB86071F2606FA07F1884314
:1026C000D61F06EB860605FA06F10843206310E0E4
:1026D000E06AA2F10D0606EB86071F2606FA07F14F
:1026E0008843A2F10D0606EB860605FA06F10843BB
:1026F000E062F0BD816841F008018160704721B15E
:10270000826842F4A002826003E0826822F4A002A0
:1027100082607047816841F0040181607047000069
:1027200053485449086054484860544888605448A5
:10273000C860544808615448486154488861544806
:10274000C8615448086254484862544888625448F2
:10275000C8625448086354484863544888635448DE
:10276000C8655448086654484866544888665448C2
:10277000C866544808675448C1F884005348C1F8F3
:1027800088005348C1F898005248C1F89C0052484C
:10279000C1F8A0005148C1F8AC005148C1F8B000E0
:1027A0005048C1F8B4005048C1F8B8004F48C1F8CB
:1027B000BC004F48C1F8C0004E48C1F8C4004E48A4
:1027C000C1F8C8004D48C1F8CC004D48C1F8D00050
:1027D0004C48C1F8DC004C48C1F8E0004B48C1F857
:1027E000E4004B48C1F8E8004A48C1F8EC004A4808
:1027F000C1F844014948C1F848014948C1F85001AD
:102800004848C1F854014848C1F864014748C1F834
:1028100068014748C1F86C014648C1F87001464854
:10282000C1F874014548C1F878014548C1F88C01E8
:102830004448C1F890014448C1F894014348C1F8A4
:1028400098014348C1F89C014248C1F8A0014248A0
:10285000C1F8A4014148C1F8A8014148C1F8BC0130
:102860004048C1F8C0014048C1F8C40170470000A9
:10287000C99F000858470020E5AE000805AF0008D2
:1028800069B0000889B00008ED9F000879A300082E
:102890000DA000081DA000089D9D0008AD9D00082A
:1028A0003DA200084DA20008D5A00008E5A0000840
:1028B000BDAC0008E5AB0008C5AA000825AB0008C0
:1028C00085AB000845AC000809AA0008E5A200088D
:1028D0007DA00008D1A200082DA000088DA9000845
:1028E000A9A9000875A6000891A6000889A50008F6
:1028F000A5A500081DAD000839AD0008B9A4000861
:10290000D5A4000855A000083D9E0008ED9D0008D4
:10291000559E0008BD9D0008E9A300085DA90008B8
:10292000ADA30008D9A7000819A8000835A8000819
:10293000ADA80008C9A8000849AA000865AA0008AF
:10294000E1AD0008ADAD000895A7000861A700083B
:1029500021A400083DA4000811AE00082DAE000817
:1029600015A3000851A50008A9AE000870B5002401
:10297000304890F84C0000F0F000802805D12D4838
:1029800090F84C0000F00F0030B100202A49088078
:102990002A482B49086070BD0020264981F8B00103
:1029A0000021244880F8B11123480088401C2249A6
:1029B000088008460088B0F5967F00DAEBE7002033
:1029C0001D4908801B4890F8F801C0F3401058BB1F
:1029D000184890F8F801C0F3001028BB1548D0F84B
:1029E000B81118480BF09EFC0546124801682846AD
:1029F0000BF006F90446144920460BF09FFA07D263
:102A0000124920460BF09AFB02D20A48046002E009
:102A10000020084908600748D0F8FC0120F00100B8
:102A2000401C0449C1F8FC0100210248C16400BFF8
:102A3000B1E70000B0090020A8000020F1660008FE
:102A4000980000200000B44200002041000020C196
:102A50001CB5002400BF00F027F821E069460020E3
:102A600002F034FD48B90F48016800980BF0C8F82F
:102A70000C49C1F8B80100240DE0142C02DA601CE6
:102A800084B208E00748D0F8F80120F010001030B8
:102A90000449C1F8F80101AA0021022005F0B0FDA7
:102AA000DCE70000B009002008B508F06FFB03F078
:102AB000C1FF6946182008F013FB9DF80000382874
:102AC00001D1002008BD4FF0FF30FBE708B500BF83
:102AD0000BE000F0B5FC02F04FFD0449C1F8F40131
:102AE0006A4600211E2005F08BFDF2E7B0090020A8
:102AF00010B5204890F84C00282803D01E481F49E4
:102B0000086010BD00201B4981F8B001486B4FF0F0
:102B10007E510BF075F804461648816D20460BF087
:102B20000DFB08D21349486B4FF07E510BF068F84B
:102B30001049486518E00F49886B4FF07E510BF043
:102B4000F1FB04460B48816D20460BF0F7F908D2E3
:102B50000849886B4FF07E510BF0E4FB054948654E
:102B600002E00448816D41650121024880F8B111FD
:102B700000BFC6E7B0090020252C00089C000020FB
:102B800010B50C4890F84C00252803D00A480B4992
:102B9000086010BD0020074981F8B001888F0BF054
:102BA000B9F9044948650121024880F8B11100BF14
:102BB000EFE70000B0090020252C00089C00002051
:102BC00010B5144890F84C0000F0F000202818D1FF
:102BD0001048D0F8F801C0F3807068B90D48D0F8FB
:102BE000F801C0F3006038B909F05CF900F082FA2E
:102BF0000948006880470BE00021064880F8B111C1
:102C000006E00648064908600021024880F8B11134
:102C100010BD0000B00900209C000020F1660008F3
:102C20009800002000211F4880F8B11190F84C0056
:102C3000242803D11C481D49086032E0194890F847
:102C40004C00252803D11A481849086029E0154886
:102C500090F84C00282806D1164814490860002135
:102C60001048C1651DE00F4890F84C00212803D1A1
:102C700011480E49086014E00A4890F84C002228D8
:102C800003D10E48094908600BE0064890F84C0053
:102C9000202803D10A480549086002E009480A498A
:102CA00008607047B0090020F12F00089C00002048
:102CB000812B0008F12A0008CD2C0008E52E000821
:102CC000592F0008F16600089800002010B57C48D4
:102CD00090F84C00212808D000207A4908707A49E1
:102CE00008807A487A49086010BD0020744981F84C
:102CF000B0017448007805287ED2DFE800F0032D8B
:102D00006581B80073496E484165012180F8B111B1
:102D1000014608696F490AF073FF04466848D0F815
:102D2000B81120460BF00AFA15D8654801696948C0
:102D30000BF0F8FA04466248D0F8B81120460BF0C0
:102D4000FDF808D80120644908705E490870002128
:102D50005B4880F8B111B0E00121594880F8B11109
:102D60005D49097801EB8101490001F13C000BF05C
:102D7000B9F853494865486D58490BF0DFF90AD84E
:102D800001205549087003204E49087000214C4825
:102D900080F8B11117E04A49486D4FF07E510BF0B1
:102DA000C1FA04464648D0F8B81120460BF0C6F8E0
:102DB00009D20220434908700020434908800021BD
:102DC0003F4880F8B11178E000213D4880F8B1110A
:102DD0003D4801880088401C3B4A108042F6E06074
:102DE00081420CDB00201146088001203549087023
:102DF00039480078401C00E053E0374908705CE037
:102E000001212F4880F8B1113349097801EB810184
:102E10004900C1F178000BF065F829494865486D13
:102E20002F490BF08BF809D801202B490870254950
:102E300008700021224880F8B11117E02049486D40
:102E40004FF07E510AF0DCFE04461D48D0F8B81160
:102E500020460BF073F909D804201A4908700020A5
:102E6000194908800021164880F8B11125E0002199
:102E7000134880F8B111144801880088401C124A98
:102E8000108042F6E06081420ADB00201146088093
:102E900003200C49087010480078401C0E49087047
:102EA0000BE0002007490870074908800A490870AC
:102EB0000021034880F8B11100BF00BF00BF13E735
:102EC000B0090020AA000020AC000020252C00083A
:102ED0009C00002000007042AE0000200000F44280
:102EE0000000684210B5174890F84C00222803D023
:102EF00015481649086010BD0020124981F8B0013C
:102F0000D1F8B80112490BF00DFA044611490BF043
:102F100015F908D20B49886B4FF080410BF002FA8B
:102F20000849486507E00749486B4FF080410AF0BF
:102F300067FE044948650121024880F8B11100BFCD
:102F4000D9E70000B0090020252C00089C000020D3
:102F50000000B442CDCCCC3D10B5224890F84C00D6
:102F6000202803D020482149086010BD01201D49B8
:102F700081F8B001886B4FF07E510BF0D3F9044615
:102F80001848D0F8F41120460AF0D8FF08D815499F
:102F9000886B4FF07E510BF0C5F9124948651AE075
:102FA0001049486B4FF07E510AF02AFE04460D4846
:102FB000D0F8F41120460BF0C1F808D80949486B45
:102FC0004FF07E510AF01CFE0649486503E00548B3
:102FD000D0F8F41141650121024880F8B11100BF19
:102FE000C3E70000B0090020252C00089C00002049
:102FF00010B50C4890F84C00242803D00A480B491F
:10300000086010BD0020074981F8B001888F0AF0E0
:1030100081FF044948650121024880F8B11100BFD1
:10302000EFE70000B0090020252C00089C000020DC
:1030300010B501214FF0C05006F03CFF012006F012
:1030400077FA002000F042F8002000F02BF800F0A2
:103050001FF8002006F06CFA10BD10B5042000F037
:1030600027F84AF6AA21884201D1002010BD4FF06E
:10307000FF30FBE710B5012006F05AFA4AF6AA2104
:10308000042000F029F8002006F052FA10BD0000DC
:103090000348008840F001000149088070470000A3
:1030A000346C0040014908607047000088860D427A
:1030B00008B501460020009003480090009808449D
:1030C00000900098008808BD006C0040014908602D
:1030D0007047000000860D4208B500220092044AA5
:1030E0000092009A02440092009A116008BD00000C
:1030F000006C00400E4890F84C00242817D00C4873
:1031000090F84C00252809D10948D0F8F801C0F3FF
:10311000007060B920210648C16408E00448D0F876
:10312000F801C0F3007010B125210148C164704757
:10313000B009002070B5044600250C4920460AF06D
:1031400031FF06460A490BF0EDF805464FF07E5177
:1031500028460AF0F3FF01D84FF07E55054928466E
:103160000AF0ECFE00D8034D284670BDF7E4213E7E
:10317000666666400AD7233C70B50024002503F03C
:10318000BBF8184818490861001588820820C860F3
:1031900014484860C014088108200860084603F0FD
:1031A00022F900F02DF802F0D5FD05464DB90F4883
:1031B0000F4908600F4848600F4888600F48C86092
:1031C00009E00A480A4908600A4848600A488860D5
:1031D0000A48C86000BF00BF01F026FB0446204635
:1031E00070BD0000000C014094490020333353406F
:1031F00084490020333383401283C03E35310008B8
:1032000008B50121202006F065FE4020ADF8000041
:1032100004208DF8030002208DF80200694605485D
:1032200002F06EF88020ADF800006946014802F017
:1032300067F808BD0014014001460846044A1268B8
:10324000904203D9024A1268801A00E000207047B9
:103250007800002070B5002500BFFEF7DBFF0546B3
:1032600000BF0648046800BF2846FEF7D7FF00BF2E
:103270002046FFF7E1FF0646304670BD7C00002087
:1032800070B50025FFF7E6FF044600BFFEF7C2FF5A
:10329000054600BF00200449086000BF2846FEF72D
:1032A000BDFF00BF204670BD7C00002000B509486E
:1032B0000088401C074908800748008818B900F0BA
:1032C00039F80649086004480088401C0249088013
:1032D00000BD00006C0000206E0000207000002087
:1032E00000B50F480088401E0D4A10801046008827
:1032F000A0B900F01FF80B4A1060104600680A4A97
:103300001268811A09480068884201D207480160A2
:1033100007480068884201D20548016000BD0000EE
:103320006E00002074000020700000207C0000204F
:10333000800000200148406870470000001000E055
:1033400030B502460B46002100244FF6FF7000BF47
:1033500012E0555C684000240AE000F0010525B148
:1033600040104AF20105684000E04010651CECB2D4
:10337000082CF2DB4D1CA9B29942EADB30BD0000FB
:103380002DE9F74F82B08946144648460AF00CFCF6
:103390000746224A224B0AF083F9054609F042FE0D
:1033A0008146204920460AF0FDFD82460AF0FCFBDA
:1033B00007461A4A1A4B0AF073F9054609F032FE1D
:1033C00004461948016802980AF0ACFF82460AF0E8
:1033D000EBFB0746154A164B0AF062F9054609F061
:1033E00021FE02902146484609F0DCF800900AF0E0
:1033F000DBFB05460F4A104B0AF052F90746002244
:103400000E4B09F041FE824609F00CFE0190DDE909
:10341000011003F0B7F905B0BDE8F08FD5CC5A0A1A
:1034200048FB0F3F000080BFD8000020EC51B81EC1
:1034300085EB713FD3DEE00B93A94C4000805640F2
:1034400000B5C3B0002042900021419140913F91CE
:103450003E913D913C913B913A9139913891379110
:1034600036913591349133913291319130912F9140
:103470002E912D912C912B912A9129912891279170
:1034800026912591249123912291219120911F91A0
:103490001E911D911C911B911A91FE48B0F8641069
:1034A0003E91B0F866103D91B0F868103C91DDE9AE
:1034B0003C213E9802F088FC409040F26C714191B2
:1034C00029E04FF4C871419890FBF1F201FB120022
:1034D00010B94FF4B77118E04198C217199000EB7A
:1034E000927082101998A0EB820060B96421419813
:1034F00090FBF1F201FB120010B14FF4B77104E040
:1035000040F26D1101E040F26D113F9801443F918E
:103510004198401C41903E9941988842D1DBDDE9B9
:103520003F1001443F91DB484168389181683791F1
:10353000C1683691B0F86A103B91B0F86C103A91BE
:10354000B0F86E10399139980AF0CCFC35903A9861
:103550000AF03FF8CDE9160135980AF025FB002264
:10356000CD4BCDE9120109F043FECDE91401DDE9AF
:10357000162309F089FDCDE9180109F053FD3590B6
:103580003B980AF026F8CDE9140135980AF00CFBB7
:103590000022C14BCDE9100109F02AFECDE912014C
:1035A000DDE9142309F070FD0022BC4BCDE91601C2
:1035B00009F01EFECDE9180109F034FD35903F9861
:1035C000401C0AF08FFC3490B54936980AF08CFB09
:1035D0000F900AF0E9FACDE9120135980AF0E4FA01
:1035E0004FF08042AF4BCDE90E0109F04DFDCDE922
:1035F0001001DDE912230AF0EDF9CDE91601349846
:103600000AF0D2FACDE91401DDE9162309F03CFDF8
:10361000CDE9180109F006FD3490A34934980AF069
:1036200081FEA24919900AF05FFB339033980AF0AB
:10363000BBFA9F4A9F4BCDE90E010AF031F89E4A32
:103640009E4BCDE9100109F01FFDCDE9140133981F
:103650000AF0AAFACDE91201DDE914230AF020F8F4
:10366000974A984BCDE9160109F00EFDCDE91801F6
:1036700009F0D8FC32904FF4B471329803F0AEFBED
:10368000329033980AF090FA8F4A904BCDE90E01B0
:103690000AF006F88E4A894B373BCDE910010AF053
:1036A0008DF9CDE9140133980AF07EFACDE91201C3
:1036B000DDE9142309F0F4FF864A874BCDE91601B2
:1036C00009F0E2FCCDE9180109F0ACFC3190339827
:1036D0000AF06AFA814A824BCDE90E0109F0E0FF57
:1036E000804A814BCDE9100109F0CEFCCDE91401EF
:1036F00033980AF059FACDE91201DDE9142309F0F3
:10370000CFFF7A4A7A4BCDE916010AF057F9CDE995
:10371000180109F087FC3090764831990AF042FC94
:1037200075490A900AF0E0FA0B900AF03DFA734AE4
:10373000734BCDE90C0109F0B3FFCDE90E0109F09F
:1037400071FC109009F0DAFA11900AF02DFA6D4A26
:103750006D4BCDE9120109F0A3FFCDE916013398B5
:103760000AF022FA694A6A4BCDE9080109F098FF8C
:10377000684A694BCDE90A010AF020F9CDE90E014A
:103780004FF0804031990AF00DFC5B4904900AF03B
:10379000ABFA05900AF008FA584A594BCDE90601F0
:1037A00009F07EFFCDE9080109F03CFC0A9009F020
:1037B000A5FA0B900AF0F8F9CDE90C01DDE90E232A
:1037C00009F06EFFCDE9120133980AF0EDF9534A82
:1037D000534BCDE9020109F063FF524A524BCDE948
:1037E000040109F051FCCDE9080133980AF0DCF935
:1037F000CDE90601DDE9082309F052FF4B4A4C4BA5
:10380000CDE90A010AF0DAF8CDE90E013A4931981A
:103810000AF06AFA05900AF0C7F9384A384BCDE940
:10382000060109F03DFFCDE9080109F0FBFB0A9014
:1038300009F064FA0B900AF0B7F9CDE90C01DDE963
:103840000E2309F02DFFCDE91001DDE9122309F067
:103850001BFCCDE91401DDE9162309F015FCCDE9C7
:10386000180109F0DFFB2F902F9932980AF0C8F960
:103870002E9033980AF098F92E4A2F4BCDE9140177
:1038800009F00EFF2D4A2E4BCDE916010AF096F8ED
:1038900058E00000B009002000004E400000384011
:1038A0000000C041D56C424164A1154A00AD0E47ED
:1038B000C0AB8A15DADE333F2F8672A21894E1403E
:1038C00046CEC29E768771400CDB60F25025243FC5
:1038D0002AC6F99BC91F0C3C7758764000D864FC77
:1038E0006001813E03E35F521C0A063F80035D7264
:1038F000111C913F00004040000034434AD8124D53
:10390000FB2109402C616D8C9DF0323FE31A9FC969
:10391000FE791A3F958098840B79943FB75F3E59A2
:10392000315CED3EAEF36F97FDBA733FF6B2EDB486
:1039300035A2FE3F068195438B389E40C3F5285C37
:103940008F425F40CDE9180109F06CFB4290FE49BF
:1039500042980AF0C9F90B900AF026F9FB4AFC4B91
:10396000CDE90C0109F09CFECDE90E0109F05AFBEE
:10397000109009F0C3F911900AF016F9F54AF64BC8
:10398000CDE9120109F08CFECDE916012E980AF05E
:103990000BF9F24AF24BCDE912010AF01BF8CDE91E
:1039A0001401DDE916230AF015F8CDE9180109F034
:1039B00039FB2D9033980AF0F7F8EA4AEA4BCDE943
:1039C000000109F06DFEE94AE94BCDE9020109F079
:1039D000F5FFCDE9060133980AF0E6F8CDE90401D8
:1039E000DDE9062309F05CFEE24AE34BCDE908017C
:1039F00009F04AFBCDE90C0133980AF0D5F8CDE97E
:103A00000A01DDE90C2309F04BFEDC4ADC4BCDE971
:103A10000E0109F0D3FF0022DA4BCDE9100109F0C5
:103A2000E7FB0022D84BCDE9120109F02DFB002263
:103A3000D44BCDE9140109F0DBFB0022D34BCDE9D7
:103A4000160109F021FBCDE9180109F0EBFA2C90E1
:103A5000BD4942980AF048F90B900AF0A5F8BB4A14
:103A6000BB4BCDE90C0109F01BFECDE90E0109F0BD
:103A7000D9FA109008F0C4FE11900AF095F8C44AE3
:103A8000C44BCDE9120109F00BFECDE916012C98CB
:103A90000AF08AF8CDE91401DDE9162309F0F4FAF9
:103AA000CDE9180109F0BEFA2B90A7492D980AF02C
:103AB0001BF909900AF078F8A44AA54BCDE90A0150
:103AC00009F0EEFDCDE90C0109F0ACFA0F9009F018
:103AD00015F99D4911902B980AF006F909900AF002
:103AE00063F89A4A9A4BCDE90A0109F0D9FDCDE96C
:103AF0000C0109F097FA0F9009F000F91090119954
:103B00000AF050FA129008F0BBFC13900AF04CF83F
:103B10008E4A8F4BCDE9140109F06AFB00229E4BBF
:103B2000CDE9160109F0BCFDCDE9180109F07AFADA
:103B30002A904FF080412B980AF0D6F882491090D5
:103B40000AF0D2F811900AF02FF8804A804BCDE9A4
:103B5000120109F0A5FDCDE9140109F063FA1790EF
:103B600009F0A6F94FF0804119902B980AF0BCF8A3
:103B7000754910900AF0B8F811900AF015F8734AD8
:103B8000734BCDE9120109F08BFDCDE9140109F069
:103B900049FA179009F08CF9189019990AF002FA6D
:103BA0002990694931980AF09FF8079009F0FCFFC5
:103BB000664A674BCDE9080109F072FD00224FF01B
:103BC0008043CDE90A0109F06BFDCDE90C0109F054
:103BD00029FA0E9009F092F80F9009F0E5FFCDE96F
:103BE0001201309809F0E0FFCDE90E01309809F09C
:103BF000DBFF0022694BCDE90A0109F051FDCDE957
:103C00000C01DDE90E2309F04BFDCDE91001DDE9E2
:103C1000122309F045FDCDE916014B4932980AF00F
:103C200063F8039009F0C0FF484A494BCDE904010D
:103C300009F036FD00225A4BCDE9060109F030FDAE
:103C4000CDE9080109F0EEF90A9009F057F80B9058
:103C500009F0AAFFCDE90E01299809F0A5FFCDE9E9
:103C60000A01299809F0A0FF00224E4BCDE9060178
:103C700009F016FDCDE90801DDE90A2309F010FD80
:103C8000CDE90C01DDE90E2309F00AFDCDE91201B1
:103C90002D4932980AF028F8039009F085FF2B4A45
:103CA0002B4BCDE9040109F0FBFC00224FF08043CF
:103CB000CDE9060109F0F4FCCDE9080109F0B2F9FB
:103CC0000A9008F09DFD20490C9031980AF00CF8FC
:103CD000039009F069FF1D4A1D4BCDE9040109F06D
:103CE000DFFCCDE9060109F09DF9089009F006F81E
:103CF0000A904FF0814030990AF054F908902999C0
:103D00000AF050F909900A990AF04CF90B900C99B5
:103D10000AF048F90C490E90319809F0E5FF03903C
:103D200009F042FF094A0A4BCDE9040109F0B8FC49
:103D3000CDE9060109F076F9089008F0DFFF0A9056
:103D40004FF0804030992FE0000034434AD8124DA4
:103D5000FB210940F94ECC7A3194733F1FBAA0BEC3
:103D6000654E773FD61A4AED45B45D3FBEA4315A41
:103D70004755433FB81E85EB51684740A69BC4207A
:103D8000B072354000004E4000003A40000037401D
:103D9000F168E388B5F8643F008066400000F43FB6
:103DA000000010400000E03F0AF0FCF809900A997A
:103DB0000AF0F8F8FE490C90329809F095FF01904E
:103DC00009F0F2FEFB4AFC4BCDE9020109F068FC68
:103DD00000224FF08043CDE9040109F061FCCDE9F8
:103DE000060109F01FF9099008F088FF0A90299947
:103DF0000AF0D8F80B900C990AF094FA0D900E99ED
:103E000009F0FEFE0F9009F0CFFECDE91001DDE9CB
:103E1000122309F0DFFDCDE91401DDE9162309F0D5
:103E2000D9FDCDE9180109F0FDF84290429809F05A
:103E3000BBFEE04AE04BCDE9120109F0D9F90022BE
:103E4000DE4BCDE9140109F02BFC0022DC4BCDE95F
:103E5000160109F025FCCDE9180109F0E3F82890D6
:103E6000D3492A9809F040FF079009F09DFED14AF6
:103E7000D14BCDE9080109F013FCCDE90A0109F0A5
:103E8000D1F80D9009F014F8C9490F90379809F04E
:103E90002BFF079009F088FEC64AC74BCDE9080101
:103EA00009F0FEFBCDE90A0109F0BCF80D9008F01D
:103EB000FFFF0E900F990AF075F8BD4911902A98EE
:103EC00009F012FF059009F06FFEBA4ABA4BCDE92E
:103ED000060109F0E5FBCDE9080109F0A3F80B9014
:103EE00008F08EFCB2490D90379809F0FDFE059060
:103EF00009F05AFEAF4AB04BCDE9060109F0D0FBFC
:103F0000CDE9080109F08EF80B9008F079FC0C90CF
:103F10000D990AF047F80F90AA4808F071FC0E902E
:103F20000F9909F0E1FE109011990AF0FBF9129037
:103F300008F018FA139009F037FE9E4A9E4BCDE91F
:103F4000140109F055F900229C4BCDE9160109F046
:103F5000A7FBCDE9180109F065F827909A49369832
:103F60000AF020F818904FF0814038990AF01AF8BA
:103F7000964915900AF044F9169028990AF0D2F95A
:103F80001790189909F03CFE9149199009F0ACFE80
:103F900026904FF0814127980AF004F88C49189038
:103FA00009F0A2FE199026990AF02AF925904FF0FF
:103FB0008141279809F0F6FF8549189009F094FE91
:103FC0001990269909F01CFE24907F48369909F033
:103FD000E9FF19904FF08140389909F0E3FF7C49DF
:103FE0001790359809F0DEFF1590289909F008FE22
:103FF0001690179909F004FE189019990AF092F991
:1040000023904FF4B461239802F0E8FE239000213E
:10401000239809F093FF09D24FF08141239809F0CA
:1040200063FE634919900AF07DF908E04FF0814181
:10403000239809F059FE5E4919900AF073F922900D
:104040005B49229809F050FE079009F0ADFD594AEE
:10405000594BCDE9080109F023FBCDE90A0108F02D
:10406000E1FF0D9008F0CCFB51490F902A9809F020
:104070003BFE059009F098FD4E4A4F4BCDE90601F5
:1040800009F00EFBCDE9080108F0CCFF0B9008F019
:10409000B7FB47490D90379809F026FE059009F0C7
:1040A00083FD444A444BCDE9060109F0F9FACDE914
:1040B000080108F0B7FF0B9008F0A2FB0C900D99D7
:1040C00009F070FF0E900F9909F06CFF38491190BC
:1040D0002A9809F009FE079009F066FD354A364B2B
:1040E000CDE9080109F0DCFACDE90A0108F09AFFF0
:1040F0000D9008F003FE2E490F90379809F0F4FD5B
:10410000079009F051FD2B4A2B4BCDE9080109F02E
:10411000C7FACDE90A0108F085FF0D9008F0EEFD21
:104120000E900F9909F03EFF1090119909F068FD6B
:10413000129008F017F9139009F036FD1D4A1E4B36
:10414000CDE9140109F054F800221C4BCDE9160109
:1041500009F0A6FACDE9180108F064FF21901D4886
:1041600021990AF0DFF820901149209809F0BCFD50
:10417000139009F019FD0F4A0F4BCDE9140109F016
:104180008FFACDE9160108F04DFF199008F090FE66
:104190001F901F99084609F005FF19901F9909F013
:1041A00001FF1E90DDE91E0109F0FCFE199013E0ED
:1041B000000034434AD8124DFB210940008066407C
:1041C0000000104041ECCA3F00007042000034443F
:1041D0000000B4440000B4421F9909F0E3FE1D90B2
:1041E000FE49209809F0AAFF02D200200146B8E05B
:1041F000FB49209809F0A2FF45D21D9809F0D4FC94
:1042000002460B46CDE91001F648F74908F0F0FFE9
:10421000CDE914011E9809F0C7FC02460B46CDE912
:104220000C01F248F24908F0E3FFCDE91001F14931
:10423000209809F059FD059009F0B6FCEE4AEF4BC5
:10424000CDE9060109F02CFACDE9080108F0EAFEF3
:104250000A9008F02DFE0B9009F0A6FC02460B46D2
:10426000CDE90C01E648E74908F0C2FFCDE90E01AF
:10427000DDE9102309F0AEFBCDE91201DDE91423DD
:1042800008F002FF6DE0209809F08EFC4FF06632D6
:10429000DD4BCDE9140109F001FB43D2209809F070
:1042A00083FCDA4ADA4BCDE9000109F0F9F9CF4A8B
:1042B0005242D84BCDE9020108F0E6FECDE90601F5
:1042C000209809F071FCCDE90401DDE9062309F02D
:1042D000E7F9D14AD14BCDE9080108F0D5FECDE987
:1042E0000C01209809F060FCCDE90A01DDE90C23FE
:1042F00009F0D6F9C84ACA4BCDE90E0108F0C4FE50
:10430000CDE91201209809F04FFCCDE91001DDE95B
:10431000122309F0C5F90022C24BCDE9140108F0BF
:10432000B3FE1EE0B349209809F0DEFC0D9009F0C1
:104330003BFCB14AB14BCDE90E0109F0B1F9CDE931
:10434000100108F06FFE129008F0B2FD139009F012
:104350002BFC02460B46CDE91401B348B34908F0E3
:1043600047FF0022B24BCDE9160108F041FFCDE92D
:10437000180108F057FE1C901C99209809F040FC89
:104380001B900021229809F0D9FE7CD299492198EE
:1043900009F0AAFC039009F007FC974A974BCDE976
:1043A000040109F07DF9CDE9060108F03BFE099012
:1043B00008F0A4FC8F490B90379809F095FC039006
:1043C00009F0F2FB8C4A8D4BCDE9040109F068F944
:1043D000CDE9060108F026FE099008F011FA0A90CE
:1043E0000B9909F0DFFD83490D902A9809F07CFCB8
:1043F000039009F0D9FB804A804BCDE9040109F014
:104400004FF9CDE9060108F00DFE099008F076FCA1
:1044100078490B90219809F067FC019009F0C4FBE2
:10442000754A764BCDE9020109F03AF9CDE904016C
:1044300008F0F8FD079008F0E3F96E490990379805
:1044400009F052FC019009F0AFFB6B4A6B4BCDE9D0
:10445000020109F025F9CDE9040108F0E3FD079018
:1044600008F04CFC0890099909F09CFD0A900B9902
:1044700009F058FF0C900D9909F036FC0E9007F0EA
:1044800071FF0F9000E01DE009F08EFB5A4A5B4B74
:10449000CDE9100108F0ACFE0022664BCDE9120117
:1044A00009F0FEF80022634BCDE9140108F0ECFDA1
:1044B000CDE9160108F0B6FD4FF4B471199002F081
:1044C0008DFCC7E04B49219809F00EFC039009F0E0
:1044D0006BFB494A494BCDE9040109F0E1F8CDE90C
:1044E000060108F09FFD099008F008FC41490B9077
:1044F000379809F0F9FB039009F056FB3E4A3F4B11
:10450000CDE9040109F0CCF8CDE9060108F08AFDF7
:10451000099008F075F90A900B9909F043FD3549A7
:104520000D902A9809F0E0FB039009F03DFB324A18
:10453000324BCDE9040109F0B3F8CDE9060108F0EA
:1045400071FD099008F0DAFB2A490B90219809F0D7
:10455000CBFB019009F028FB274A284BCDE902014B
:1045600009F09EF8CDE9040108F05CFD079008F021
:1045700047F920490990379809F0B6FB019009F0F6
:1045800013FB1D4A1D4BCDE9020109F089F8CDE965
:10459000040108F047FD079008F0B0FB0890099966
:1045A00009F000FD0A900B9909F0BCFE0C900D99E2
:1045B00009F09AFB0E9007F0D5FE0F9009F0F4FA7F
:1045C0000D4A0E4BCDE9100108F012FE0022194BE6
:1045D000CDE9120109F064F800222DE00000AA42A2
:1045E0000000A0403677F4BF5C8B163FEC51B81E3C
:1045F00085EBB13F000034434AD8124DFB210940FE
:10460000CDCCCCCCCC0C4D406666E2BF8D976E1203
:1046100083C0E63F7A9429C09A99999999D95940CB
:10462000993180C0001C9B401283C0CAA1C534C010
:104630000020AC4000806640214BCDE9140109F018
:10464000BDF9CDE9160108F0EDFC4FF4B4711990F5
:1046500002F0C4FB1A901B49259809F0A3FC1A49E3
:10466000C1F8E4011749249809F09CFC1649C1F8E7
:10467000E8011A98C1F8F0011B9809F095FA002298
:10468000124BCDE9180109F009F904D810490E4878
:10469000C0F8EC1112E01B9809F086FA00220D4BCD
:1046A000CDE9180108F0C0FF04D20B490648C0F854
:1046B000EC1103E004491B98C1F8EC0143B000BDC4
:1046C00000E080400000C041B0090020004056409A
:1046D0000000B242004056C00000B2C210B504460D
:1046E000012C0DD04448007800F0010008B900F01A
:1046F00013F9002001F0EEFD00204049087010BDC4
:104700003F48007830B101281ED0022844D0032849
:104710006BD159E03B49D1F8DC013B4909F00EFC73
:104720000ED83849D1F8C801384909F007FD03D837
:1047300001203349087006E003203149087002E087
:1047400002202F49087054E02B48007800F0010047
:1047500008B900F0E1F82B49D1F8DC014FF08241B3
:1047600009F0ECFC06D92749D1F8C801284909F01D
:10477000E5FB08D8002001F0ADFD00201F490870BE
:104780001F49087007E0012001F0A4FD01201B492A
:1047900008701B4908702CE0002001F09BFD0020F0
:1047A000164908701448007800F0010008B100F0C4
:1047B00031F811480078C0F3001008B100F098F803
:1047C00000200F49087014E0002001F083FD002054
:1047D0000A4908700848007800F0010008B900F0A4
:1047E0009BF800200649087003E000200449087087
:1047F00000BF00BF00BF82E7B0000020B100002072
:10480000BC000020B00900200000A0400000F041E2
:104810000000E04110B510231422D021014801F01E
:10482000FBFE10BD944900202DE9F04100242C48E6
:10483000C06810B9601EBDE8F0814FF4887314227F
:10484000D021284801F0E8FE044600232922D02187
:10485000244801F0E1FE044411231522D02121480F
:1048600001F0DAFE04441E4988684FF0834109F0E4
:1048700099FB07464FF07E5109F054FD064609F0BA
:1048800011FB85B22B461A22D021164801F0C4FE36
:10489000044413494868144909F044FD0746134984
:1048A00009F080FB064609F0FDFA85B22B461B2273
:1048B000D0210C4801F0B0FE04444FF461631D2286
:1048C000D021084801F0A8FE044445F260431E22AE
:1048D000D021044801F0A0FE04442046ABE70000CC
:1048E0008449002094490020000074400000A04248
:1048F00010B54FF488731422D021064801F08CFEC5
:10490000142000F055F910231422D021014801F0A1
:1049100083FE10BD9449002010B54FF48873142213
:10492000D021024801F078FE10BD0000944900201B
:1049300010B54FF48071024800F0C1FD10BD0000B9
:104940000008014001201749888200200860A1F872
:1049500044005A2088872D20A1F84200124848635D
:10496000124888635A20C887A1F8400040070861B0
:104970000F4888600F4848604FF08240C8600E487A
:1049800048620E480862002088623C20C8851220D8
:1049900088854FF4967048860E20088608488861FE
:1049A00070470000B00900200000344200000743B7
:1049B0000000F0410000F242CDCC8C409A99F93FC2
:1049C0000000404010B5022000F0A8F8002864D094
:1049D0003248006820F002003049086000212F486A
:1049E0000838FDF78CFE00212C480838FDF7E8FD5B
:1049F000022000F079F800202949087031E00021F8
:104A00002848274A127840F82210002026490870CA
:104A10001EE02549097801EB8101214A12781144F1
:104A2000224A32F8110009F075FA04461D481C4A62
:104A3000127850F82210204609F0E2F81949184A75
:104A4000127841F8220018480078401C1649087076
:104A5000154800780A28DCDB11480078401C104912
:104A600008700F4800780528C9DB0E480068104917
:104A700008600C4840680F4908600A4880680E4981
:104A800008600848C0680D490860064800690C497C
:104A9000086000210B4800F035F810BD08240140E3
:104AA00024010020F44E002025010020904E00201B
:104AB000280100202C0100203001002038010020B6
:104AC000340100200800024010B5044600210548CA
:104AD00000F018F80348001D04600121001F00F0D9
:104AE00011F810BD5804024000F0805111B1034983
:104AF000086001E002494860704700000404024079
:104B00000000024021B1026842F00102026004E0AC
:104B100002684FF6FE731A4002607047014600209B
:104B2000002201F0805313B1054B1A6801E0054BD8
:104B30001A6802EA01030BB1012000E0002070476F
:104B400000040240000002401AB103680B430360F6
:104B500002E003688B430360704710B500220268CF
:104B600047F6F0739A430C6A8B6823430C6923431E
:104B70004C6923438C692343CC6923434C6A234308
:104B80008C6A23431A430260CB6843600B688360DE
:104B90004B68C36010BD0C2105E00C2100BF0A1E4C
:104BA000A1F10101FBD1021EA0F10100F5D1704776
:104BB00006E0482100BF0A1EA1F1010359B2FADA4A
:104BC000021EA0F1010358B2F3DA704710B5144980
:104BD000D1F8CC01134909F0B1F915D81248007881
:104BE000401C1149087008460078142817DB002083
:104BF00008700B48D0F8F80120F0806000F1806068
:104C00000749C1F8F8010AE0002007490870044884
:104C1000D0F8F80120F080600149C1F8F80110BD1A
:104C2000B009002000007041D200002038B58B4848
:104C300090F8B301012877D100208949088089487C
:104C40000088401C8749088008460088052804DA47
:104C50008248D0F8B8018449086082480088B0F5DD
:104C6000167F45DD00207F4908807C48D0F8B811C8
:104C70007D48006809F056FB04464FF03F4109F0BB
:104C80005DF909D27548D0F8F80120F00200801CC7
:104C90007249C1F8F80107E07048D0F8F80120F037
:104CA00002006E49C1F8F8016C48D0F8B8116E489E
:104CB000006809F037FB04464FF07E5109F03EFAD8
:104CC0000BD36648D0F8B8116748006809F02AFB92
:104CD0000446664909F032F90BD26048D0F8F80171
:104CE00020F020005D49C1F8F801002060490880EB
:104CF000B2E05F480088C0B95848D0F8F801C0F366
:104D0000407090B901205A4908805448D0F8F80101
:104D100020F020005149C1F8F8016B460022022121
:104D2000544802F063FF97E009E04C48D0F8F801DE
:104D300020F0200020304949C1F8F8018CE04748B4
:104D400090F8B301022877D10020464908804448F2
:104D50000088401C4249088008460088052804DA7B
:104D60003E48D0F8B801404908603D480088B0F599
:104D7000167F71DD00203A4908803848D0F8B81114
:104D80003948006809F0CEFA04464FF07C5109F02A
:104D9000D5F909D23148D0F8F80120F00200801C82
:104DA0002E49C1F8F80107E02C48D0F8F80120F0AE
:104DB00002002A49C1F8F8012848D0F8B8112A4859
:104DC000006809F0AFFA04464FF07E5109F0B6F9D9
:104DD0000BD32248D0F8B8112348006809F0A2FA92
:104DE0000446224909F0AAF80BD21C48D0F8F80171
:104DF00020F020001949C1F8F80100201C49088062
:104E00002AE01B480088C0B91448D0F8F801C0F364
:104E1000407090B90120164908801048D0F8F80178
:104E200020F020000D49C1F8F8016B460022022154
:104E3000104802F0DBFE0FE009E00848D0F8F80166
:104E400020F0200020300549C1F8F80104E00020DE
:104E5000044908800249088038BD0000B0090020DC
:104E6000CE000020CC000020C8000020000080BF41
:104E7000D0000020E844002070B54D4890F8B20101
:104E8000002864DD4A4A9169D2F8BC0109F056F95C
:104E90000CD94748D0F8BC11464809F083F80446BD
:104EA00043488169204609F049F91DD8002042494C
:104EB000087042480078401C404908700846007855
:104EC00008F09EFB044600223D4B08F0E7FC0BD2A5
:104ED00000203A4908703648D0F8F80120F0010067
:104EE000401C3349C1F8F80131498869354909F056
:104EF00059F804462E48D0F8BC11204609F01EF996
:104F00002AD82B498869304909F04CF804462848CA
:104F1000D0F8BC11204609F011F81DD826480078B9
:104F2000401C2549087008460078642814DD0020DC
:104F30000870224908701E48D0F8F80120F00100DE
:104F40001B49C1F8F80100202049087004E0002046
:104F50001949087019490870154890F8F80100F0CF
:104F6000010008B31A480088401C19490880084607
:104F70000088B0F5966F1ADD00200880134800788D
:104F8000401C1249087008460078082808DA0848CA
:104F9000D0F8F80120F001000549C1F8F80106E059
:104FA00009200A49087002E000200949088070BD04
:104FB000B0090020000080BFC0000020C100002018
:104FC00000002C406666663F666666BFC200002031
:104FD000C400002010B53A49886B4FF0804108F0BA
:104FE0000FFE04463648D0F8B811204608F0A6FF58
:104FF00014D234480078401C3249087008460078C2
:1050000032285CDD342008702D48D0F8F80120F0FB
:10501000080008302A49C1F8F80150E02849486BD7
:105020004FF0804109F07EF904462548D0F8B811C8
:10503000204609F083F814D222480078401C214908
:10504000087008460078322839DD342008701C4882
:10505000D0F8F80120F00400001D1949C1F8F8014A
:105060002DE01749886B4FF07E5109F05BF904463B
:105070001348D0F8B811204609F060F81FD2104943
:10508000486B4FF07E5108F0BBFD04460C48D0F849
:10509000B811204608F052FF11D2002009490870CB
:1050A0000748D0F8F80120F004000549C1F8F801DC
:1050B0000846D0F8F80120F00800C1F8F80110BD4A
:1050C000B0090020C600002010B500F0E1F835203E
:1050D00000F01EF800240AE00B4901EBC42000F0A8
:1050E0001DF800BF00F05AF80128FBD0641C502CBA
:1050F000F2D3064800F012F800BF00F04FF8012884
:10510000FBD000F065F810BD00A0020800F0070811
:105110000149C860704700000020024030B50446D5
:1051200004254FF4302000F0BFF80546042D17D1B8
:105130000C48006940F002000A49086108464461D1
:10514000006940F0400008614FF4302000F0ACF8F6
:1051500005460448006941F6FD71084001490861AF
:10516000284630BD0020024004200B49C96801F0E8
:10517000010109B101200EE00749C96801F00401ED
:1051800009B1022007E00449C96801F0100109B122
:10519000032000E0042070470020024004200B4957
:1051A000C96801F0010109B101200EE00749C96891
:1051B00001F0040109B1022007E00449C96801F0C7
:1051C000100109B1032000E00420704700200240D4
:1051D0000348006940F08000014908617047000001
:1051E0000020024070B504460D460426F00200F08F
:1051F0005BF80646042E11D10948006940F0010011
:10520000074908612580F00200F04EF80646044880
:10521000006941F6FE71084001490861304670BDE1
:105220000020024078B506460C4604250020009078
:10523000E80200F039F80546042D24D1134800692E
:1052400040F00100114908613480E80200F02CF8B8
:105250000546042D10D1B01C0090200C0099088048
:10526000E80200F021F805460848006941F6FE71A1
:1052700008400649086106E00448006941F6FE71ED
:10528000084002490861284678BD0000002002401D
:105290000248034948600348486070472301674556
:1052A00000200240AB89EFCD00B502460423FFF792
:1052B0005BFF034603E0FFF757FF0346521E012B37
:1052C00001D1002AF7D102B90523184600BD00001C
:1052D00010B500F073FF4FF4E8500849A1F8AC0195
:1052E00000F0D0FD0549B1F8AC1108430349A1F81D
:1052F000AC0109210148A0F8AE1110BDB009002091
:105300002DE9F0410246002500260020002300245C
:10531000002791F803C00CF00F0591F803C00CF0C2
:10532000100CBCF1000F03D091F802C04CEA050547
:1053300091F800C0BCF1000F31D0146800202BE0C0
:105340004FF0010C0CFA00F3B1F800C00CEA0306B0
:105350009E4220D183004FF00F0C0CFA03F7BC43A0
:1053600005FA03FC4CEA040491F803C0BCF1280FD1
:1053700006D14FF0010C0CFA00FCC2F814C00AE090
:1053800091F803C0BCF1480F05D14FF0010C0CFAA5
:1053900000FCC2F810C0401C0828D1D31460B1F83A
:1053A00000C0BCF1FF0F34DD546800202EE000F196
:1053B000080C4FF0010808FA0CF3B1F800C00CEA31
:1053C00003069E4221D183004FF00F0C0CFA03F725
:1053D000BC4305FA03FC4CEA040491F803C0BCF199
:1053E000280F05D100F1080C08FA0CF8C2F8148057
:1053F00091F803C0BCF1480F07D100F1080C4FF041
:10540000010808FA0CF8C2F81080401C0828CED316
:105410005460BDE8F0810000F0B50A460023002486
:105420000021002500F00046B6F1004F02D11D4ECC
:10543000F16901E01B4E7168C0F3034583B200F4CB
:105440004016B6F5401F08D121F07061154E766800
:1054500026F07066134F7E6012E000F48016B6F5F9
:10546000801F06D1032606FA05F4A14341F07061BE
:1054700006E0460D360103FA06F6B14341F07061CD
:1054800022B1460D360103FA06F6314300F000461C
:10549000B6F1004F02D1034EF16101E0014E71609F
:1054A000F0BD0000000001400246002093680B4060
:1054B0000BB1012000E0002070474161704701619D
:1054C0007047000000487047584700202DE9F84F0A
:1054D00083460F460024002500266946232005F058
:1054E000FFFD9DF8000004436946222005F0F8FD09
:1054F000200204B29DF80000044369462B2005F009
:10550000EFFD9DF80000054369462A2005F0E8FDFF
:10551000280205B29DF80000054369462D2005F0DC
:10552000DFFD9DF80000064369462C2005F0D8FDFC
:10553000300206B29DF8000006436946182005F0C7
:10554000CFFD9DF80000382813D1304608F0CAFC82
:105550008046284608F0C6FC8146204608F0C2FC7A
:10556000824642464946FDF70BFF38600020BDE801
:10557000F88F4FF0FF30FAE72DE9F04F91B04FF080
:10558000000AB549D1F8EC0108F00EFB0446B34A15
:10559000B34B08F083F97DD8AF49D1F8F001B14998
:1055A00008F0C0FEB0490E9008F09EFB834608F05C
:1055B000FBFA0646AD4AAE4B08F072F8044607F017
:1055C00031FD814607F01CF98046A349D1F8EC0172
:1055D000A54908F089FB834608F0E6FA0646A34A87
:1055E000A34B08F05DF8044607F01CFD814607F068
:1055F0005FFC41460F9006F0D5FF8246504608F00A
:10560000D3FA8046994A9A4B07F0F2FD06460022EB
:10561000984B08F045F8044607F004FD82468E4991
:10562000D1F8F00108F0C0FA04460022914B07F0CF
:10563000FBFF7DD88848816A504608F07FFD79D20B
:105640008D49504608F07AFD74D28348816A5046ED
:1056500008F068FE84490E9008F046FB0F9008F0B1
:10566000A3FA0646814A824B08F01AF8044607F06E
:10567000D9FC834607F042FB81467748416A484699
:1056800008F090FC80467448016A404608F056FDD8
:1056900005D800E0DBE0504611B0BDE8F08F6E4861
:1056A000816A504608F03EFE6F49029008F01CFBEC
:1056B000039008F079FA6D4A6D4BCDE9040107F0CB
:1056C000EFFFCDE9060107F0ADFC089007F016FBEF
:1056D00083466148416A584608F064FC09905E4878
:1056E000016A099808F000FB0A9006F0C9FE0B90C9
:1056F00008F05AFA5D4A5E4BCDE90C0107F078FDDF
:10570000064600225B4B07F0CBFF04460D46554989
:10571000504608F075FA064608F046FA22462B462F
:10572000CDE90E0108F056F9804607F07BFCB3E79F
:1057300005E0FFE74849888F08F0ECFBACE74648F6
:10574000816A494808F05CFA0446514608F0F6FCC4
:1057500078D24A49504608F0F1FB73D23E4A516A6A
:10576000106A08F0C1FA51460F903F4808F0DAFD80
:105770000D903948816A0D9808F042FA83463A49FB
:1057800008F0B2FA0E9008F00FFA0646374A384B86
:1057900007F086FF044607F045FC814607F0AEFAA5
:1057A00080460F9908F0CAFC01D8504674E72A4891
:1057B000816A504608F0B6FD2B49019008F094FA32
:1057C000834608F0F1F9294A294BCDE9020107F097
:1057D00067FFCDE9040107F025FC814607F08EFA4A
:1057E00007901D48416A079808F0DCFB08901A48AA
:1057F000016A089808F078FA804606F041FE0990A0
:1058000008F0D2F9194A1A4BCDE90A0107F0F0FC69
:1058100006460022174B07F043FF04460D46114988
:10582000504608F07FFD064608F0BEF922462B469A
:10583000CDE90C0107F028FCCDE90E0107F0F2FBE1
:105840002AE7FFE70449888F08F064FB24E7024950
:10585000888F08F05FFB1FE7B00900209A9999999B
:105860009999B93F0000B442000034434AD8124D20
:10587000FB210940008066400000404000003143A9
:1058800038B5044600256B463422D0213F4800F04D
:10589000D1FD054615B14FF0FF3038BDBDF8000011
:1058A00000F4807088B1207820F00100401C207046
:1058B000207820F002002070207820F00400207072
:1058C000207820F00800207030E0207820F00100DF
:1058D0002070BDF8000000F0800028B1207820F092
:1058E0000200801C207003E0207820F0020020706D
:1058F000BDF8000000F0400028B1207820F004003E
:10590000001D207003E0207820F004002070BDF816
:10591000000000F0180028B1207820F008000830BE
:10592000207003E0207820F008002070BDF800000F
:1059300000F0040028B1207820F010001030207012
:1059400003E0207820F010002070BDF8000000F087
:10595000020028B1207820F020002030207003E0E1
:10596000207820F020002070BDF8000000F0010039
:1059700028B1207820F040004030207003E02078EB
:1059800020F040002070002087E7000094490020AC
:105990002DE9F843044600256B463D22D0210D48F1
:1059A00000F048FD05468DB9BDF9000008F09AFAEF
:1059B0008046094908F0F6FA07464FF0834108F09F
:1059C00093F90646054908F08FF920602846BDE89E
:1059D000F883000094490020DC80BB3F00007A443B
:1059E00010B50024694800F0C7F904446748001F57
:1059F000FFF7CEFF04446548083000F0E9F804449E
:105A00006348FFF73DFF04445CB90020614908701A
:105A10006148D0F8F80120F000405F49C1F8F80172
:105A20001AE05C4801780078401C5A4A1070052939
:105A300012DD0520114608705748D0F8F80120F013
:105A4000004000F100405449C1F8F80100215248DB
:105A5000C0F8D411C0F8D0114D480078C0F3401000
:105A600058B94B480078C0F3801030B94A49D1F892
:105A7000D4014A4908F062FA18D800204849088041
:105A800048480088401C4749088008460088142878
:105A900029DB002008804048D0F8F80120F00050B1
:105AA00000F100503C49C1F8F8011CE03A49D1F836
:105AB000D4013D4908F042FB15D80020394908803F
:105AC00037480088401C364908800846008864280A
:105AD00009DB002008803048D0F8F80120F00050A1
:105AE0002D49C1F8F8012C4890F8B201002844D1A2
:105AF0002949D1F8D4012D4908F020FA19D80020FD
:105B00002B4908802B480088401C2A4908800846F9
:105B10000088B0F5167F30DB002008801E48D0F8E2
:105B2000F80120F0805000F180501B49C1F8F801C5
:105B300023E01949D1F8D4011F4908F0FFFA17D81A
:105B400000201C4908801A480088401C1849088019
:105B500008460088B0F5967F0FDB002008800E48CD
:105B6000D0F8F80120F080500B49C1F8F80104E0AA
:105B700000200F4908800F4908800749D1F8D40157
:105B800000F01CF80449C1F8D80110BD840B0020B6
:105B9000B0000020B2000020B00900200000B04199
:105BA000B8000020BA0000200000BC410000C44141
:105BB000B6000020B40000200000D44110B5044617
:105BC0000248C1682046884710BD00008449002073
:105BD0002DE9FE4F04464FF0000A02AB4022D021CF
:105BE000484800F027FC8246BAF1000F23D1BDF9E6
:105BF000080008F077F90746434908F001FB05461D
:105C0000BDF9080008F06EF90746404908F0CAF9E6
:105C10000646294608F068F881463D49484608F09E
:105C20008DF909D849463B4808F0BCF905463A4980
:105C300007F0E6FF206062E03549484608F07EFA4A
:105C40000ED23249484608F079F909D84946334816
:105C500008F0A8F90546324907F0D2FF20604EE06F
:105C60002A49484608F06AFA18D22E49484608F0F0
:105C700065F913D8484607F097FF07462A4A2B4B89
:105C800007F00EFD05464FF00042294B07F0FCF9E6
:105C9000CDE9000107F0C6F9206030E0214948460F
:105CA00008F04CFA0ED22349484608F047F909D8C3
:105CB0004946214808F076F90546204907F0A0FF3B
:105CC00020601CE01B49484608F038FA0ED21C49F7
:105CD000484608F033F909D849461A4808F062F9ED
:105CE0000546194907F08CFF206008E0494617482F
:105CF00008F058F90546164907F082FF2060504623
:105D0000BDE8FE8F9449002000AAAA460000204169
:105D10009A999940B0031CC19358B44213F271C0D0
:105D2000E9A67642CDCC644164CC5D4BC88700C007
:105D3000E9A646403333B3418885A2BFDB790642EA
:105D40000000E441D34D62BF1D5AC9414F1EB6BE8B
:105D5000DD24EC4010B5002440210648FFF7A4FBE9
:105D600004436006040E80210248FFF79DFB0443B4
:105D7000204610BD001401402DE9F84304460025DB
:105D80006B463A22D0210C4800F054FB054685B9F9
:105D9000BDF9000008F0A6F88046084908F002F9AD
:105DA0000746074908F0FEF80646064907F09CFF3B
:105DB00020602846BDE8F883944900200000E040B8
:105DC000DBE0443E00007A44F0B50346144620462A
:105DD0006FF00105DE1703EB9676B610A3EB86068F
:105DE0002EB9642693FBF6F706FB173636B94FF447
:105DF000C87693FBF6F706FB17360EB94FF0FF3562
:105E0000032906DA012901D1002200E01F221044F3
:105E10001BE007290BDC0A4601EBD27677104E1EF9
:105E2000C6EB061607EB46062E4430440DE005F19E
:105E3000D606A1F10807C7EB071706EB4707CA1FED
:105E400002EBD27607EB66063044F0BD70B5074929
:105E50000748006808F0A6F80546064908F0A2F8C9
:105E60000446054907F040FF70BD0000333353403E
:105E700030010020BE9F4E4100002047004870477F
:105E80002049002010B500244FF400710A48FFF7A4
:105E90000BFB04436006040E4FF480710648FFF7C5
:105EA00003FB04436006040E80210348FFF7FCFA5D
:105EB0000443204610BD00000018014070B5094998
:105EC0000948006808F06EF806464FF08B4107F06D
:105ED0000BFF0546054908F025FA0446044907F07A
:105EE00003FF70BD0000044228010020000025438C
:105EF000000030410146C1EBC100024A02EB8000C4
:105F0000007E7047AC4900200146C1EBC100024A47
:105F100002EB8000807E7047AC49002070B50749D5
:105F20000748006808F03EF80546064908F03AF8C8
:105F30000446054907F0D8FE70BD000033335340D6
:105F40002C010020BE9F4E410000204770B509493A
:105F50000948006808F026F806464FF08B4107F024
:105F6000C3FE0546054908F0DDF90446044907F07B
:105F7000BBFE70BD00000442380100200000254334
:105F80000000304170B509490948006808F00AF876
:105F900006464FF08B4107F0A7FE0546054908F07D
:105FA000C1F90446044907F09FFE70BD0000044299
:105FB000340100200000254300003041F8B50446BC
:105FC00000266B46002292210F4800F033FA064665
:105FD000BEB99DF80150BDF80000000200B200906B
:105FE000BDF8000000F47F4000B20090BDF9000051
:105FF00028430090BDF90000C11700EB11610912A0
:1060000021803046F8BD0000084F00202DE9FC47F4
:1060100005460E4617469846DDE90A9A00240020F8
:10602000009001904FF480716348FFF746FA4FF4F7
:1060300000716148FFF743FA80215F48FFF73DFA9E
:106040000A20FEF7A8FD00BF5BE04FF480715A48BC
:10605000FFF735FA0A20FEF79EFD182C18DA4021CA
:106060005548FFF721FA012841D12046E11704EBFA
:106070005171C910A4EBC102012191406A4602EBA3
:10608000E402127811436A4602EBE40211702EE03A
:106090001C2C10DA40214848FFF706FA012826D1C7
:1060A0009DF80300A4F1180101228A401043C0B2F8
:1060B0008DF803001BE0342C19DA40213E48FFF72D
:1060C000F3F9012813D1201DC11700EB5171C9103C
:1060D000A0EBC102012191406B46221D03EBE202BD
:1060E00012781143CAB2211D03EBE1010A704FF48B
:1060F00080713148FFF7E1F90A20FEF74CFD601C82
:10610000C4B2342CA1DB4FF400712B48FFF7D5F952
:106110009DF8000000F00F009DF80010C1F302117F
:1061200001EB810100EB410028809DF8010000F0A7
:106130000F009DF80110C1F3021101EB810100EB8A
:10614000410030809DF8020000F00F009DF8021021
:10615000C1F3011101EB810100EB410038809DF892
:10616000040000F00F009DF80410C1F3011101EBD1
:10617000810100EB4100A8F800009DF8050000F047
:106180000F009DF80510C1F3001101EB810100EB38
:106190004100A9F800009DF8060000F00F009DF8EE
:1061A0000610090901EB810100EB410000F2DA70F1
:1061B000AAF80000BDE8FC870010014008B50121E5
:1061C000402003F087FE8020ADF8000004208DF809
:1061D000030002208DF8020069460A48FFF790F894
:1061E0004FF48070ADF8000069460648FFF788F864
:1061F0004FF40070ADF8000069460248FFF780F8E0
:1062000008BD00000018014018B9054A12880A802C
:1062100004E0012802D10A88014B1A80704700006F
:10622000D4000020174818490860184848601848EA
:1062300088601848C86018480861184848611848BC
:1062400088611848C861184808624862174888621F
:106250001748C86217480863174848631748886397
:106260001748C86310480864164848640E48886494
:10627000C86415480865154848651548C8650A4842
:1062800008667047D99F000820490020E39F000856
:10629000FD9F000811A8000805A7000819A600081E
:1062A0009DAF000829AA000809620008EDAC0008AB
:1062B00015AC0008F5AA000855AB0008B5AB0008FE
:1062C00081AC00085DA2000879B0000899B0000810
:1062D000F5A0000810B50446012C04D18102054840
:1062E000FFF7EDF804E04FF480610248FFF7E5F8AE
:1062F00010BD00000018014008B50121402003F046
:10630000E9FD4FF48060ADF8000010208DF8030027
:1063100002208DF8020069460448FEF7F1FF4FF4B1
:1063200080610248FFF7C9F808BD0000001801406D
:1063300070B504460025A18A2069FFF7BEF82189BF
:106340006068FFF7BCF80120FEF732FCA18A2069E3
:10635000FFF7B5F80320FEF72BFC21896068FFF7F3
:10636000A3F8012800D10125A18A2069FFF7A5F82B
:106370000120FEF71DFC284670BD70B504460D4691
:10638000A18A2069FFF799F80120FEF711FC218905
:106390006068FFF794F800202870072620E0A18AA3
:1063A0002069FFF78AF80120FEF702FCA18A206924
:1063B000FFF785F80320FEF7FBFB21896068FFF7F4
:1063C00073F8012803D12978B04001432970A18ACC
:1063D0002069FFF772F80220FEF7EAFB701E46B252
:1063E000002EDCDA70BD38B504460121206803F0C8
:1063F00071FD0121E06803F06DFD2089ADF800001A
:1064000014208DF8030003208DF8020069466068AF
:10641000FEF776FF21896068FFF751F8A08AADF892
:10642000000069462069FEF76BFFA18A2069FFF72B
:1064300046F838BD2DE9F84380460E4617461C46FF
:1064400000250020208006F0FE06404600F0ADF852
:106450003146404600F03EF84046FFF769FF00B184
:106460006D1E3946404600F035F84046FFF760FFA4
:1064700000B16D1E46F00106404600F096F8314628
:10648000404600F027F84046FFF752FF00B16D1E6E
:1064900069464046FFF771FF20889DF800100843C9
:1064A0002080404600F049F869464046FFF765FF06
:1064B00020889DF800104FF47F4202EA0121084332
:1064C0002080404600F055F8404600F086F8284607
:1064D000BDE8F8832DE9F04104460E460127072563
:1064E00027E0A18A2069FEF7E8FF0120FEF760FBA4
:1064F00046FA05F000F0010020B121896068FEF73E
:10650000DEFF03E021896068FEF7D7FF0120FEF778
:106510004FFBA18A2069FEF7D2FF0520FEF748FB5A
:10652000A18A2069FEF7C9FF0120FEF741FB681E22
:1065300045B2002DD5DABDE8F08110B50446A18A38
:106540002069FEF7BAFF21896068FEF7B6FF0120D7
:10655000FEF72EFBA18A2069FEF7B1FF0520FEF7AA
:1065600027FBA18A2069FEF7A8FF0120FEF720FB88
:1065700010BD10B50446A18A2069FEF79EFF21894F
:106580006068FEF79CFF0120FEF712FBA18A2069DC
:10659000FEF795FF0520FEF70BFBA18A2069FEF7A9
:1065A0008CFF0120FEF704FB10BD10B504462189C5
:1065B0006068FEF784FF0220FEF7FAFAA18A2069DC
:1065C000FEF77DFF0220FEF7F3FA21896068FEF7EF
:1065D00074FF0220FEF7ECFA10BD10B50446A18A44
:1065E0002069FEF76AFF0120FEF7E2FA2189606860
:1065F000FEF763FF0120FEF7DBFAA18A2069FEF7B0
:106600005EFF0220FEF7D4FA21896068FEF757FF8B
:106610000120FEF7CDFA10BD2DE9F04180460E466F
:1066200017461D46002406F0FE064046FFF7BDFF54
:1066300031464046FFF74EFF4046FFF779FE00B176
:10664000641E39464046FFF745FF4046FFF770FE9F
:1066500000B1641EE9B24046FFF73CFF4046FFF739
:1066600067FE00B1641E290A4046FFF733FF40462B
:10667000FFF75EFE00B1641E4046FFF7AEFF204606
:10668000BDE8F0812DE9F04180460D4616461F46D3
:10669000002405F0FE054046FFF787FF29464046E7
:1066A000FFF718FF4046FFF743FE00B1641E314676
:1066B0004046FFF70FFF4046FFF73AFE00B1641E69
:1066C00039464046FFF706FF4046FFF731FE00B16E
:1066D000641E4046FFF781FF2046BDE8F0810000C0
:1066E0004AF6AA20014908607047000000300040C7
:1066F00000211E4880F8B111C06CFF2802D11B4850
:10670000C16431E0194890F84C0000F0F0002028F6
:1067100003D117481749086026E0144890F84C0048
:1067200000F0F000102803D11348124908601BE064
:106730000E4890F84C0000F0F000402803D10F48BC
:106740000C49086010E0094890F84C0000F0F00097
:10675000802803D10A480749086005E00021034862
:10676000C164D0F8F411416570470000B009002001
:10677000C12B000898000020556D00089D6C000892
:106780006D2900082DE9FE4F05460C46DFF8D4912F
:10679000DFF8D4A1DFF8D4B14946284607F002FC5F
:1067A000074673480168484607F0FCFB804671487D
:1067B0000168404607F024FD0646394607F020FAF6
:1067C0006D4908606A4800686C4908606C48016857
:1067D0006C4807F0E7FB02906B480168484607F0F9
:1067E000E1FB019069480168484607F0DBFB009037
:1067F00067480168009807F003FD8046019907F09B
:1068000091FD0746029907F0FBF90646514607F04D
:10681000F7F9604908605A480168484607F0C2FB2A
:10682000064659480168304607F0EAFC5A490860B4
:1068300053480168484607F0B5FB064653480168CF
:10684000304607F0DDFC5549086051464C48006869
:1068500007F0D6F95249086059464E48006807F0DB
:10686000CFF9064631464B48006807F03DFA4D49DE
:10687000086059464748006807F0C2F906463146A5
:106880004648006807F030FA474908603A4801680E
:10689000204607F047FD074642480168384607F0A2
:1068A00081FB064634480168304607F0A9F93149B2
:1068B000086031480168204607F034FD07463A4831
:1068C0000168384607F06EFB06462C4801683046E2
:1068D00007F096F926490860324801684FF07E506B
:1068E00007F020FD06462B480168304607F05AFBAA
:1068F000274908602B4801684FF07E5007F012FDD1
:10690000064625480168304607F04CFB1E490860E2
:1069100025480168254807F045FB07461D480168E2
:10692000384607F03FFB06461C480168304607F032
:1069300067F9164908601C4801681C4807F032FBDB
:10694000074615480168384607F02CFB06461448F0
:106950000168304607F054F90949086005480068A5
:10696000BDE8FE8F0AD7A33C0AD7233C0000204194
:10697000E8000020E4000020DC000020E00000200F
:106980000801002017B7D1390001002004010020C0
:10699000FC000020EC000020F0000020F4000020AB
:1069A000F80000200C01002010010020000080BF32
:1069B00010B50948007838B901200749087002214C
:1069C0000648FEF77AFD06E0002003490870022120
:1069D0000248FEF774FD10BD1A01002000180140A6
:1069E00008B50121402003F075FA0220ADF800003F
:1069F00010208DF8030002208DF80200694604483B
:106A0000FEF77EFC02210248FEF759FD08BD00009A
:106A10000018014010B502210148FEF750FD10BDDD
:106A20000018014010B502210148FEF746FD10BDD7
:106A300000180140F8B569460F2004F051FB0EE044
:106A400069460F2004F04CFB9DF80000692800D136
:106A500006E0002401E0601CC4B2322CFBDBEFE74F
:106A600000BF0021112005F029FB7021102005F046
:106A700025FB0121122005F021FB11E000200090F0
:106A80006946122004F02CFB9DF8000000F0010084
:106A900000B906E0002401E0601CC4B2322CFBDB2C
:106AA000ECE700BF0021012005F008FB20210B20AE
:106AB00005F004FB00210D2005F000FB00210E2055
:106AC00005F0FCFA4321102005F0F8FA42211120CC
:106AD00005F0F4FA7421122005F0F0FA8C2113204D
:106AE00005F0ECFA0021142005F0E8FA0021152049
:106AF00005F0E4FA0021162005F0E0FAC421172081
:106B000005F0DCFA1021582005F0D8FA38211820B9
:106B100005F0D4FA3821192005F0D0FA002400201D
:106B20003C49086037E00020009069461E2004F0D0
:106B3000D7FA9DF8000000F0020002281DD10025C0
:106B40006946232004F0CCFA9DF80000054369460D
:106B5000222004F0C5FA280205B29DF80000054382
:106B6000284607F0BFF906462A480168304607F074
:106B700047F828490860601CC4B2052C0BDD20468C
:106B800007F0C8F9064631462248006807F0ACF81D
:106B90002049086000E0C6E700BF002437E000207D
:106BA000009069461E2004F09BFA9DF8000000F05A
:106BB000020002281DD100256946232004F090FA26
:106BC0009DF8000005436946222004F089FA280256
:106BD00005B29DF800000543284607F083F90646F4
:106BE0000C480168304607F00BF80A490860601C41
:106BF000C4B21E2C0BDD204607F08CF90646314648
:106C00000448006807F070F80249086000E0C6E731
:106C100000BFF8BDD800002008B5002400BFFFF772
:106C2000DFFE24E0601CC4B21148006D28B9062CB8
:106C300016DD0024FFF7BCFE12E00D48006D0128B0
:106C400002D1FFF7EFFE0BE00948006D022805D1E5
:106C5000022C05DB0024FFF7ABFE01E0FFF7DAFEB4
:106C6000FFF73EFD6A4600210A2001F0C9FCD9E782
:106C7000B009002010B54FF400410248FEF71FFC98
:106C800010BD00000008014010B54FF4004102485B
:106C9000FEF713FC10BD00000008014070B52A4843
:106CA00090F84C0000F0F000402805D1264890F8FC
:106CB0004C0000F00F0018B124482549086070BD51
:106CC0000020214981F8B001486B4FF07E5106F059
:106CD00097FF04461C49B1F8420007F01BF905462E
:106CE000214607F02BF908D21749486B4FF07E5127
:106CF00006F086FF1449486520E01349886B4FF081
:106D00007E5107F00FFB04460F49B1F8420007F02F
:106D100001F90546214607F011FA08D20A49886BA5
:106D20004FF07E5107F0FEFA0749486506E0064934
:106D3000B1F8420007F0EEF8034948650121024826
:106D400080F8B11100BFBAE7B0090020F166000871
:106D50009800002010B51E4890F84C0000F0F0009C
:106D6000102803D01B481C49086010BD002018499A
:106D700081F8B001084690F84C0018280CD1012188
:106D8000134880F8B1110146486B4FF0804106F07E
:106D900037FF0F49486518E00D4890F84C0014285B
:106DA0000CD101210A4880F8B1110146886B4FF0DF
:106DB000804107F0B7FA0649486506E0002104481B
:106DC00080F8B111D0F8F411416500BFCDE70000A3
:106DD000B0090020F1660008980000202DE9F04F6E
:106DE00089B082460C464FF0000BD9460021504630
:106DF00007F0A4F92FD8504606F0D6FE074605F056
:106E00007BFF054606F088FB8146504606F0CCFE27
:106E1000CDE9000105F070FF05460E46504606F02C
:106E2000C3FE07462A46334606F0D4FDCDE90401E9
:106E300099FBF4F004FB1095284606F0CAFBCDE957
:106E40000201DDE9042306F01FF9CDE9060106F091
:106E5000E9F8834656E02AF0004B584606F0A4FEB7
:106E6000074605F049FF054606F056FB814699FBAB
:106E7000F4F004FB1099584606F096FECDE90001A7
:106E800005F03AFFCDE90201584606F08DFE0746AF
:106E9000DDE9022306F09EFD05460E46484606F053
:106EA00098FB2A463346CDE9040106F0EDF80022AE
:106EB0001346CDE9060106F0F3FA02D14FF0000BBC
:106EC00020E0204607F00EF806463146584606F008
:106ED0000BFF054606F0CAFF00F10109504606F017
:106EE00063FE21F00048074609FB04F006F071FB41
:106EF0003A464346CDE9060106F06CFD054606F02C
:106F000091F88346584609B0BDE8F08F08B50020D7
:106F100000F06EF802F030FF5CE02F4A2F490020AD
:106F200000F08CF800283AD12B4800782C49898A47
:106F3000884202D028480078D0B90020294908802A
:106F400029490880254802882849234802F004FD81
:106F50002549088008460088002836DD1E4800784C
:106F600098B3224A08460188002000F0BFF82CE0C0
:106F70001C4801880088401C1A4A108047F2305093
:106F8000814222DBFFF776FE6A460021642001F091
:106F900037FBFFF779FE00201249088015E0114801
:106FA00001880088401C0F4A108047F2305081420F
:106FB0000BDBFFF75FFE6A460021642001F020FB37
:106FC000FFF762FE0020074908806A460021012081
:106FD00001F016FBA1E700002C46002088000020ED
:106FE000B00900208A000020860000200045002013
:106FF00010B5044614B1012C14D109E004F058FD79
:107000000A480B4908600B480968C1F860020AE0A9
:1070100004F04EFD08480649486006484968C1F832
:10702000600200E000BF00BF10BD0000C8490020A2
:107030001C010020C94A00082C4C00202DE9F04119
:1070400004460E469046284850F824000079AB28A4
:1070500042D1254850F824004179234850F82400B3
:107060004079401C204A52F824205071062938DB10
:1070700056201D4951F82410087100201A4951F872
:1070800024104871184850F82400008830800020EF
:10709000154951F8241008803188134A52F82420E9
:1070A000901DFCF74DF90746DFB900250EE00E48AC
:1070B00050F82400801D405D08F80500FF210A48B3
:1070C00050F82400801D4155681C85B23088A842C4
:1070D000EDDC0020BDE8F0810020034951F82410C8
:1070E00048714FF0FF30F5E71C0100202DE9F04119
:1070F00005460E469046002406E000BF00BF00BFD4
:1071000000BF00BF601C84B24CF250308442F4DBFC
:10711000002406E000BF00BF00BF00BF00BF601C2E
:1071200084B24CF250308442F4DB002409E018F8B9
:107130000410154850F8250000F599700155601CA1
:1071400084B2B442F3DB104951F8251001F599706F
:107150003146FCF7F5F807460B4850F8250000F5D6
:10716000997087553A0A084850F8250000F599703B
:10717000711C4254B21C90B2034A52F82520D2F836
:1071800060128847BDE8F0811C01002010B504F0B2
:107190007DFC002411E00221204600F093F900203C
:1071A000C4EBC401064A02EB81010876C4EBC401BA
:1071B00002EB81018876601CC4B2012CEBDB10BDB0
:1071C000AC49002008B5002400BF00F01BFA69E1BB
:1071D000B54890F8B10100287ED0B34890F8F80186
:1071E000C0F34010002877D1AF4890F8F801C0F301
:1071F00000100028F7D1AC4890F8F80100F0010029
:107200000028F0D1A84890F8F801C0F34000002809
:10721000E9D1A548D0F8F801C0F340700028E2D1C8
:10722000A148D0F8F801C0F380600028DBD19E4867
:1072300090F8B001012807D19B4908694FF08041BF
:1072400006F052FD044600E000249848007820B182
:10725000012854D0022874D174E0934AD2F8B811AE
:10726000506D07F05FF806468F480169304606F01A
:1072700065FF12D202218C4880F8B4118C48017845
:107280000078401C8A4A1070C82937DD02208749DF
:10729000087000201146087030E083480169854875
:1072A00006F080FE0646804AD2F8B811506D07F00D
:1072B00039F80746314606F041FE14D201217A48DA
:1072C00080F8B4117A4801780078401C784A107030
:1072D000C82913DD012000E05FE074490870002038
:1072E000114608700AE0FFF751FF00206F4908704F
:1072F0006F49087000216C4880F8B4114CE06A4A6C
:10730000D2F8B811506D07F00DF80646214606F088
:1073100015FF05D9644890F8F801C0F3800038B132
:10732000FFF734FF0020614908706349088007E0D7
:1073300061480088401C60490880002000F07AF90C
:107340002AE021E0584A516DD2F8B80106F0EAFF70
:107350000646214606F0F2FE05D9534890F8F8019A
:10736000C0F3C00038B1FFF711FF00204F4908708B
:107370005149088007E050480088401C4E49088069
:10738000002000F07DF907E0FFF700FF00204749EB
:1073900008704949088000BF0BE0FFF7F7FE0020A6
:1073A000424908700021404880F8B4110020424949
:1073B000088041480088B0F5FA6F08DD00203E499A
:1073C00008806B46002202213C4800F00FFC374841
:1073D000007870BB344890F8B40150B3324890F84C
:1073E0004C0020280BD0304890F84C00282806D0BC
:1073F0006B4600220221314800F0F8FB41E02A48A8
:1074000090F8B401022815D12749D1F8B8012C49C8
:1074100006F094FD06D26B4600220221274800F0B8
:10742000E5FB2EE06B4600220121244800F0DEFB44
:1074300027E019E01C4890F8B401012821D11A492D
:10744000D1F8B8011E4906F079FE06D26B4600223B
:1074500002211A4800F0CAFB13E06B46002201210A
:10746000164800F0C3FB0CE01048007848B90E48FD
:1074700090F8B40128B96B46002201210F4800F0B2
:10748000B5FB0020FEF740FD074981F8B20100205E
:10749000FEF730FD044981F8B3016A46002101205E
:1074A00001F0AEF894E60000B00900208C00002046
:1074B0008D000020000080BF8E000020E8440020E6
:1074C0000000B44270B504460D46012D0DD1C4EB49
:1074D000C4020D4B03EB82021189C4EBC40203EB1F
:1074E00082025068FDF7EBFF0CE0C4EBC402064BD0
:1074F00003EB82021189C4EBC40203EB82025068E1
:10750000FDF7DBFF70BD0000AC49002070B50446FC
:107510000D46012D1FD12148B0F8440068B9C4EBD5
:10752000C4021F4B03EB8202918AC4EBC40203EB3B
:1075300082021069FDF7C3FF2EE0C4EBC402184BB2
:1075400003EB8202918AC4EBC40203EB820210694E
:10755000FDF7B3FF20E0022D1ED11048B0F8440023
:1075600068B9C4EBC4020E4B03EB8202918AC4EBF0
:10757000C40203EB82021069FDF79FFF0CE0C4EB2D
:10758000C402074B03EB8202918AC4EBC40203EBF3
:1075900082021069FDF793FF70BD0000B009002062
:1075A000AC49002008B50121202002F093FC4FF4E3
:1075B0004040ADF8000010208DF8030003208DF846
:1075C000020069460D48FDF79BFE4FF400410B4851
:1075D000FDF773FF09480A4948604FF400400881ED
:1075E00020200860054808614FF4804088822020F0
:1075F000C86000200876887608BD000000140140AD
:10760000AC49002010B5FFF7CDFF04F039F810BDEC
:1076100008B500BF0CE0FDF72FFCFDF7DBFCFDF724
:1076200005FBFDF7D3FA6A460021052000F0E8FFCC
:10763000F1E7000010B50446012C1CDC0E48007870
:10764000A04207D1C4EBC4000C4901EB8000007ECE
:10765000012810D0FFF79AFD0120C4EBC401074AAE
:1076600002EB810108760448047001210078FFF7DD
:107670004DFF04F0F9F910BD14010020AC490020C1
:1076800010B50446012C1CDC0E480078A04207D13E
:10769000C4EBC4000C4901EB8000007E022810D02E
:1076A000FFF774FD0220C4EBC401074A02EB81011D
:1076B00008760448047002210078FFF727FF04F0E1
:1076C000D3F910BD14010020AC49002008B54FF4D7
:1076D000A06000F065F81D208DF8000000208DF8F6
:1076E000010001208DF802008DF80300684600F0CB
:1076F0001FF80B208DF8000000208DF801000220FB
:107700008DF8020001208DF80300684600F010F8A3
:1077100034208DF8000001208DF8010000208DF844
:10772000020001208DF80300684600F001F808BD52
:1077300070B5002100230F22C47804B3154C2468CF
:1077400004F4E064C4F5E064210AC1F10403CA4012
:10775000447804FA03F184781440214309010E4C63
:107760000678A155047804F01F050124AC40057883
:107770006D11AD0005F1E025C5F8004109E0047880
:1077800004F01F050124AC40044D0678761145F83D
:10779000264070BD0CED00E000E400E080E100E078
:1077A00002490143024A1160704700000000FA05D7
:1077B0000CED00E0704700002DE9F04104468846DA
:1077C00016461D46002718480078002804DD42F6BA
:1077D000E1602880BDE8F0811CB945F6C3502880DF
:1077E000F8E700BF00BFFAF715FD074600BFFBF73B
:1077F0005DFD00BF0D482060266100206061201DF6
:1078000001F057F90A480088401C0949088000BF68
:10781000FBF766FD00BF3846FAF700FD00BF00BF6A
:107820000020288000BFD5E724000020464C4147B7
:107830002E0000202DE9FF4F8BB005468946984663
:10784000DDE9186400200290E4480078002806DD95
:1078500046F2AE10208000200FB0BDE8F08F25B9B1
:1078600045F6C35020800020F6E748F20101A8EB5E
:107870000100884536D01ADC40F20111A8EB010066
:1078800088452BD00CDCB8F1010F23D0B8F1020FE2
:1078900021D0B8F1040F1FD0B8F1080F2AD11CE095
:1078A00001281CD003281BD0072823D119E0B0F5EC
:1078B000807F1BD006DC012815D0032814D00728B0
:1078C00018D112E0A0F2011088B1022810D00628C9
:1078D00010D10EE000BF00BF00BF00BF00BF00BF5F
:1078E00000BF00BF00BF00BF00BF00BF00BF00BFA0
:1078F00000BF04E045F6256020800020ACE700BF13
:10790000B7492868884204D045F6C450208000203A
:10791000A2E708F4807010B14FF0010A01E04FF0C7
:10792000000A0EB10020306008F00F0B00BF00BF4E
:10793000FAF770FC029000BFFBF7B8FC00BFBBF188
:10794000040F03D0BBF1080F70D152E0286900EAA0
:1079500009074F4518D1BAF1010F02D12869B84380
:107960002861A048006807640EB16869306000BFF4
:10797000FBF7B6FC00BF0298FAF750FC00BF00BF4F
:1079800000202080384667E708F4004068B100BF57
:10799000FBF7A6FC00BF0298FAF740FC00BF00BF4F
:1079A00046F2B0102080002056E78F48007800286B
:1079B0000DDD00BFFBF794FC00BF0298FAF72EFC28
:1079C00000BF00BF46F663502080002044E70D98BA
:1079D00043464A462946009003A800F0C1FE00BF76
:1079E000FBF77EFC00BF0298FAF718FC00BF00BF4F
:1079F00060E0286900EA0907CFB1BAF1010F02D1AE
:107A00002869B84328617748006807640EB168693F
:107A1000306000BFFBF764FC00BF0298FAF7FEFB82
:107A200000BF00BF00202080384615E734E008F48E
:107A3000004068B100BFFBF753FC00BF0298FAF7A3
:107A4000EDFB00BF00BF46F2B0102080002003E72E
:107A50006548007800280DDD00BFFBF741FC00BF42
:107A60000298FAF7DBFB00BF00BF46F663502080A8
:107A70000020F1E60D9843464A462946009003A8A7
:107A800000F06EFE00BFFBF72BFC00BF0298FAF778
:107A9000C5FB00BF00BF0DE000BFFBF721FC00BF2E
:107AA0000298FAF7BBFB00BF00BF45F625602080B7
:107AB0000020D1E600BF00F0E9F900BF00BFFAF7EF
:107AC000A9FB029000BFFBF7F1FB00BF454800682F
:107AD00090F8210030B101280CD002282CD00328C6
