:020000040800F2
:10200000F054002021220008292200082B22000879
:102010002D2200082F2200083122000800000000B5
:102020000000000000000000000000003322000853
:1020300035220008000000002F230008358000082A
:102040003B2200083B2200083B2200083B220008FC
:102050003B2200083B2200083B2200083B220008EC
:102060003B2200083B2200083B220008954900085B
:102070003B2200083B2200083B2200083B220008CC
:102080003B2200083B2200083B2200083B220008BC
:102090003B2200083B2200083B2200083B220008AC
:1020A0003B2200083B2200083B2200083B2200089C
:1020B0003B220008C5AD00083B2200083B22000877
:1020C0003B2200083B2200083B2200083B2200087C
:1020D0003B2200083B2200083B2200083B2200086C
:1020E0003B2200083B2200083B2200083B2200085C
:1020F0003B2200083B2200083B2200083B2200084C
:102100003B2200083B2200083B2200083B2200083B
:1021100085B100083B2200083B2200083B22000852
:102120003B2200083B2200083B2200083B2200081B
:1021300000F002F800F04AF80AA090E8000C82448F
:102140008344AAF10107DA4501D100F03FF8AFF26C
:10215000090EBAE80F0013F0010F18BFFB1A43F085
:102160000103184738B9000058B900000A4410F8B4
:10217000014B14F00F0508BF10F8015B240908BFDC
:1021800010F8014B6D1E05D010F8013B6D1E01F8D3
:10219000013BF9D1641E03D0641E01F8015BFBD141
:1021A0009142E4D37047000000230024002500265C
:1021B000103A28BF78C1FBD8520728BF30C148BFAA
:1021C0000B6070471FB51FBD10B510BD00F05EF865
:1021D0001146FFF7F7FF09F08BFE00F07CF803B41F
:1021E000FFF7F2FF03BC00F07FF8000072B6704703
:1021F00062B67047EFF3108072B6704780F31088B4
:10220000704730BF704720BF7047B0FA80F070470A
:1022100090FAA0F0B0FA80F0704790FAA0F0704702
:102220000948804709480047FEE7FEE7FEE7FEE76A
:10223000FEE7FEE7FEE7FEE7FEE7FEE704480549A6
:10224000054A064B70470000F5AC00083121000834
:10225000F04E0020F0540020F0500020F0500020FC
:1022600070477047704710B500F008F8006810BD5F
:1022700010B5044600F002F8046010BD0048704735
:102280008C4E0020004870478C4E00207546FFF7AA
:10229000F9FFAE4605006946534620F00700854623
:1022A00018B020B5FFF7CAFFBDE820404FF0000688
:1022B0004FF000074FF000084FF0000B21F007012E
:1022C000AC46ACE8C009ACE8C009ACE8C009ACE871
:1022D000C0098D46704710B50446AFF30080204614
:1022E000BDE81040FFF77BBF01491820ABBEFEE7F9
:1022F00026000200704700001D484FF0FF010170EA
:10230000002080F309881B48016881F308881A4877
:102310004FF08051016062B6FEE717484FF08051E0
:102320000160704714484FF080510160704772B6E9
:10233000EFF3098028B1203880E8F00F0F490968D1
:10234000086000B50E4880475DF804EB0D480E4963
:102350000A78027009480D490A680260106890E81E
:10236000F00F203080F309884EF0F40E62B670470B
:1023700022ED00E06000002004ED00E058000020A5
:10238000B57E00082D0000202E0000205C000020FB
:1023900010B502210F4800F0F5F800210E4802F0B8
:1023A000A1FB32200C490839C86001210A4802F01B
:1023B00099FB0121074800F0F3F80648083000684F
:1023C00040F002000349083108600121014800F093
:1023D00086F910BD002401400800024000B591B00C
:1023E0000121480207F0D8F80121082007F0D4F8AD
:1023F0000121102007F0D0F84FF4004007F0A0F8BA
:102400000120ADF8400000208DF8430010A9584885
:1024100002F024FF0220ADF8400000208DF84300B8
:1024200010A9534802F01AFF0120ADF84000002027
:102430008DF8430010A94F4802F010FF0820ADF8B6
:10244000400000208DF8430010A94A4802F006FF22
:102450000420ADF8400000208DF8430010A9454845
:1024600002F0FCFE0121084607F076F84248009091
:1024700042480190002002903220039000200490F6
:102480008020059040000690800007900020089072
:102490004FF40050099000200A906946384802F035
:1024A0004CFB0121364802F01DFB01220221344879
:1024B00002F03AFB00200B9001208DF830008DF8DF
:1024C00031004FF460200D9000200E9005208DF813
:1024D0003C000BA928484C3800F078F8072301226B
:1024E000082125484C3800F099F8072302220921D9
:1024F00021484C3800F092F8072303220A211E4895
:102500004C3800F08BF8072304220C211A484C3871
:1025100000F084F8072305220D2117484C3800F0FD
:102520007DF8012114484C3800F03AF80121124896
:102530004C3800F02AF810484C3800F0CBF800BFB7
:102540000D484C3800F037F80028F9D10A484C38CB
:1025500000F0D0F800BF08484C3800F02CF80028F4
:10256000F9D1012104484C3800F0B9F811B000BD90
:10257000000C0140001001404C240140FC4D0020A3
:1025800008000240CA430260704721B1826842F0ED
:102590000102826003E0826822F0010282607047DB
:1025A00021B1826842F48072826003E0826822F482
:1025B000807282607047014600208A6802F004023F
:1025C0000AB1012000E000207047000030B502464B
:1025D0000020002350680F4C20400D790C6844EA1D
:1025E00005242043506090680B4C2040D1E90254F0
:1025F0002C434D7944EA450420439060D06A20F48E
:1026000070000C7C641EE4B2234340EA0350D062A5
:1026100030BD0000FFFEF0FFFDF7F1FFF0B504460E
:102620000D4600200021092D11DDE068A5F10A0604
:1026300006EB4607072606FA07F18843A5F10A06C6
:1026400006EB460603FA06F10843E0600CE0206959
:1026500005EB4507072606FA07F1884305EB450613
:1026600003FA06F108432061072A0FDA606B561E51
:1026700006EB86071F2606FA07F18843561E06EB6F
:10268000860605FA06F10843606322E00D2A0FDA98
:10269000206BD61F06EB86071F2606FA07F1884334
:1026A000D61F06EB860605FA06F10843206310E004
:1026B000E06AA2F10D0606EB86071F2606FA07F16F
:1026C0008843A2F10D0606EB860605FA06F10843DB
:1026D000E062F0BD816841F008018160704721B17E
:1026E000826842F4A002826003E0826822F4A002C1
:1026F00082607047816841F004018160704700008A
:1027000051485249086052484860524888605248CF
:10271000C86052480861524848615248886152482E
:10272000C86152480862524848625248886252481A
:10273000C862524808635248486352488863524806
:10274000C8655248086652484866524888665248EA
:10275000C866524808675248C1F884005148C1F819
:1027600088005148C1F898005048C1F89C00504872
:10277000C1F8A0004F48C1F8AC004F48C1F8B00004
:102780004E48C1F8B4004E48C1F8B8004D48C1F8F1
:10279000BC004D48C1F8C0004C48C1F8C4004C48CA
:1027A000C1F8C8004B48C1F8CC004B48C1F8D00074
:1027B0004A48C1F8DC004A48C1F8E0004948C1F87D
:1027C000E4004948C1F8E8004848C1F8EC0048482E
:1027D000C1F844014748C1F848014748C1F85001D1
:1027E0004648C1F864014648C1F868014548C1F847
:1027F0006C014548C1F870014448C1F8740144486F
:10280000C1F878014348C1F88C014348C1F89001F0
:102810004248C1F894014248C1F898014148C1F8C2
:102820009C014148C1F8A0014048C1F8A4014048BA
:10283000C1F8A8013F48C1F8BC013F48C1F8C00138
:102840003E48C1F8C4017047D5960008C446002030
:10285000B9A50008D9A500083DA700085DA7000894
:10286000F9960008859A000819970008299700082A
:10287000619400087194000849990008599900086A
:10288000E1970008F197000891A30008B9A2000899
:1028900099A10008F9A1000859A2000819A300088D
:1028A000DDA00008F199000889970008DD9900086B
:1028B0003997000861A000087DA00008819D0008EC
:1028C0009D9D0008959C0008B19C0008F1A300089C
:1028D0000DA40008C59B0008E19B00086197000853
:1028E00001950008B194000819950008819400082A
:1028F000F59A000831A00008B99A0008ED9E00087A
:10290000099F0008819F00089D9F00081DA10008E5
:1029100039A10008B5A4000881A40008A19E000800
:102920006D9E00082D9B0008499B0008E5A4000847
:1029300001A50008219A00085D9C00087DA50008FB
:1029400070B50024304890F8480000F0F00080286E
:1029500005D12D4890F8480000F00F0030B100205C
:102960002A4908802A482B49086070BD0020264962
:1029700081F8AC010021244880F8AD11234800887B
:10298000401C2249088008460088B0F5967F00DA8E
:10299000EBE700201D4908801B4890F8F401C0F3C4
:1029A000401058BB184890F8F401C0F3001028BB41
:1029B0001548D0F8B41118480AF030FF05461248FF
:1029C000016828460AF098FB0446144920460AF09C
:1029D00031FD07D2124920460AF02CFE02D20A48E5
:1029E000046002E00020084908600748D0F8F801B8
:1029F00020F00100401C0449C1F8F8010021024800
:102A0000816400BFB1E7000094090020A00000200D
:102A1000B5660008900000200000B442000020418C
:102A2000000020C11CB5002400BF00F027F821E001
:102A30006946002002F0F8FC48B90F480168009888
:102A40000AF05AFB0C49C1F8B40100240DE0142C23
:102A500002DA601C84B208E00748D0F8F40120F0E4
:102A6000100010300449C1F8F40101AA002102202D
:102A700005F068FADCE700009409002008B507F0CB
:102A8000EFFE03F0B9FF6946182007F093FE9DF8AA
:102A90000000382801D1002008BD4FF0FF30FBE7CF
:102AA00008B500BF0BE000F0B5FC02F013FD0449CF
:102AB000C1F8F0016A4600211E2005F043FAF2E752
:102AC0009409002010B5204890F84800282803D029
:102AD0001E481F49086010BD00201B4981F8AC0149
:102AE000486B4FF07E510AF007FB04461648416DD3
:102AF00020460AF09FFD08D21349486B4FF07E51E3
:102B00000AF0FAFA1049086518E00F49886B4FF08F
:102B10007E510AF083FE04460B48416D20460AF0C0
:102B200089FC08D20849886B4FF07E510AF076FE86
:102B30000549086502E00448416D0165012102482C
:102B400080F8AD1100BFC6E794090020F92B0008FA
:102B50009400002010B50C4890F84800252803D0B8
:102B60000A480B49086010BD0020074981F8AC01F4
:102B7000888F0AF04BFC044908650121024880F85F
:102B8000AD1100BFEFE7000094090020F92B000809
:102B90009400002010B5144890F8480000F0F000B0
:102BA000202818D11048D0F8F401C0F3807068B91B
:102BB0000D48D0F8F401C0F3006038B908F02CFCDF
:102BC00000F082FA0948006880470BE000210648BF
:102BD00080F8AD1106E00648064908600021024869
:102BE00080F8AD1110BD0000940900209400002071
:102BF000B56600089000002000211F4880F8AD1144
:102C000090F84800242803D11C481D49086032E090
:102C1000194890F84800252803D11A481849086037
:102C200029E0154890F84800282806D1164814498C
:102C300008600021104881651DE00F4890F84800A9
:102C4000212803D111480E49086014E00A4890F881
:102C50004800222803D10E48094908600BE00648C5
:102C600090F84800202803D10A480549086002E08E
:102C700009480A490860704794090020C52F0008D8
:102C800094000020552B0008C52A0008A12C00083C
:102C9000B92E00082D2F0008B5660008900000200E
:102CA00010B57C4890F84800212808D000207A49C7
:102CB00008707A4908807A487A49086010BD002077
:102CC000744981F8AC017448007805287ED2DFE8A9
:102CD00000F0032D6581B80073496E48016501213C
:102CE00080F8AD11014608696F490AF005FA0446FB
:102CF0006848D0F8B41120460AF09CFC15D8654805
:102D0000016969480AF08AFD04466248D0F8B411A6
:102D100020460AF08FFB08D80120644908705E49FC
:102D2000087000215B4880F8AD11B0E001215948DE
:102D300080F8AD115D49097801EB8101490001F18D
:102D40003C000AF04BFB53490865086D58490AF0EE
:102D500071FC0AD801205549087003204E490870BB
:102D600000214C4880F8AD1117E04A49086D4FF03A
:102D70007E510AF053FD04464648D0F8B41120466F
:102D80000AF058FB09D20220434908700020434949
:102D9000088000213F4880F8AD1178E000213D48CF
:102DA00080F8AD113D4801880088401C3B4A1080E6
:102DB00042F6E06081420CDB0020114608800120D1
:102DC0003549087039480078401C00E053E0374925
:102DD00008705CE001212F4880F8AD113349097873
:102DE00001EB81014900C1F178000AF0F7FA2949A5
:102DF0000865086D2F490AF01DFB09D801202B49F1
:102E00000870254908700021224880F8AD1117E0AC
:102E10002049086D4FF07E510AF06EF904461D48B6
:102E2000D0F8B41120460AF005FC09D804201A494C
:102E300008700020194908800021164880F8AD115B
:102E400025E00021134880F8AD111448018800885E
:102E5000401C124A108042F6E06081420ADB0020EA
:102E60001146088003200C49087010480078401C67
:102E70000E4908700BE000200749087007490880D8
:102E80000A4908700021034880F8AD1100BF00BF57
:102E900000BF13E794090020A2000020A400002036
:102EA000F92B00089400002000007042A6000020CA
:102EB0000000F4420000684210B5174890F848003E
:102EC000222803D015481649086010BD0020124979
:102ED00081F8AC01D1F8B40112490AF09FFC044614
:102EE00011490AF0A7FB08D20B49886B4FF08041CB
:102EF0000AF094FC0849086507E00749486B4FF061
:102F000080410AF0F9F8044908650121024880F877
:102F1000AD1100BFD9E7000094090020F92B00088B
:102F2000940000200000B442CDCCCC3D10B5224826
:102F300090F84800202803D020482149086010BD9F
:102F400001201D4981F8AC01886B4FF07E510AF0D9
:102F500065FC04461848D0F8F01120460AF06AFAD9
:102F600008D81549886B4FF07E510AF057FC12497A
:102F700008651AE01049486B4FF07E510AF0BCF822
:102F800004460D48D0F8F01120460AF053FB08D84B
:102F90000949486B4FF07E510AF0AEF806490865C2
:102FA00003E00548D0F8F01101650121024880F8DE
:102FB000AD1100BFC3E7000094090020F92B000801
:102FC0009400002010B50C4890F84800242803D045
:102FD0000A480B49086010BD0020074981F8AC0180
:102FE000888F0AF013FA044908650121024880F825
:102FF000AD1100BFEFE7000094090020F92B000895
:103000009400002010B501214FF0C05006F0B4FA32
:10301000012005F015FE002000F042F8002000F02D
:103020002BF800F01FF8002005F00AFE10BD10B5C7
:10303000042000F027F84AF6AA21884201D1002096
:1030400010BD4FF0FF30FBE710B5012005F0F8FD93
:103050004AF6AA21042000F029F8002005F0F0FD2E
:1030600010BD00000348008840F0010001490880BD
:1030700070470000346C0040014908607047000050
:1030800088860D4208B50146002000900348009054
:103090000098084400900098008808BD006C00402B
:1030A000014908607047000000860D4208B5002203
:1030B0000092044A0092009A02440092009A116021
:1030C00008BD0000006C00400E4890F8480024281D
:1030D00017D00C4890F84800252809D10948D0F8A5
:1030E000F401C0F3007060B920210648816408E053
:1030F0000448D0F8F401C0F3007010B12521014854
:10310000816470479409002070B5044600250C497D
:1031100020460AF0C3F906460A490AF07FFB054635
:103120004FF07E5128460AF085FA01D84FF07E55BF
:10313000054928460AF07EF900D8034D284670BD9F
:10314000F7E4213E666666400AD7233C70B500244A
:10315000002503F07FF81848184908610015888297
:103160000820C86014484860C0140881082008601E
:10317000084603F0E6F800F02DF802F099FD054648
:103180004DB90F480F4908600F4848600F488860E4
:103190000F48C86009E00A480A4908600A484860C0
:1031A0000A4888600A48C86000BF00BF01F026FBDB
:1031B0000446204670BD0000000C0140004900207C
:1031C00033335340F0480020333383401283C03EF2
:1031D0000931000808B50121202006F0DDF9402062
:1031E000ADF8000004208DF8030002208DF80200E5
:1031F0006946054802F032F88020ADF800006946C3
:10320000014802F02BF808BD0014014001460846B1
:10321000044A1268904203D9024A1268801A00E0F8
:10322000002070477400002070B5002500BFFEF735
:10323000E1FF054600BF0648046800BF2846FEF7C8
:10324000DDFF00BF2046FFF7E1FF0646304670BDB8
:103250007800002070B50025FFF7E6FF044600BFA8
:10326000FEF7C8FF054600BF00200449086000BF04
:103270002846FEF7C3FF00BF204670BD780000203F
:1032800000B509480088401C0749088007480088A5
:1032900018B900F039F80649086004480088401C55
:1032A0000249088000BD0000680000206A0000207C
:1032B0006C00002000B50F480088401E0D4A1080A9
:1032C00010460088A0B900F01FF80B4A10601046A5
:1032D00000680A4A1268811A09480068884201D2C7
:1032E0000748016007480068884201D2054801602C
:1032F00000BD00006A000020700000206C0000206B
:10330000780000207C0000200148406870470000E1
:10331000001000E030B502460B46002100244FF6B5
:10332000FF7000BF12E0555C684000240AE000F026
:10333000010525B140104AF20105684000E0401047
:10334000651CECB2082CF2DB4D1CA9B29942EADBF9
:1033500030BD00002DE9F74F82B08946144648463B
:1033600009F09EFE0746224A224B09F015FC05464D
:1033700009F002F98146204920460AF08FF882467A
:1033800009F08EFE07461A4A1A4B09F005FC05465D
:1033900009F0F2F804461948016802980AF03EFA6A
:1033A000824609F07DFE0746154A164B09F0F4FBEC
:1033B000054609F0E1F802902146484608F0ACFBCA
:1033C000009009F06DFE05460F4A104B09F0E4FB32
:1033D000074600220E4B09F001F9824609F0CCF8AD
:1033E0000190DDE9011003F0AFF905B0BDE8F08F01
:1033F000D5CC5A0A48FB0F3F000080BFCC0000200C
:10340000EC51B81E85EB713FD3DEE00B93A94C4025
:103410000080564000B5C3B0002042900021419189
:1034200040913F913E913D913C913B913A91399130
:103430003891379136913591349133913291319160
:1034400030912F912E912D912C912B912A91299190
:1034500028912791269125912491239122912191C0
:1034600020911F911E911D911C911B911A91FE4854
:10347000B0F860103E91B0F862103D91B0F8641061
:103480003C91DDE93C213E9802F04CFC409040F23A
:103490006C71419129E04FF4C871419890FBF1F2B1
:1034A00001FB120010B94FF4B77118E04198C21730
:1034B000199000EB927082101998A0EB820060B90D
:1034C0006421419890FBF1F201FB120010B14FF41E
:1034D000B77104E040F26D1101E040F26D113F98C8
:1034E00001443F914198401C41903E994198884247
:1034F000D1DBDDE93F1001443F91DB484168389161
:1035000081683791C1683691B0F866103B91B0F888
:1035100068103A91B0F86A103991399809F05EFF55
:1035200035903A9809F0D1FACDE91601359809F0AD
:10353000B7FD0022CD4BCDE9120109F003F9CDE929
:103540001401DDE9162309F049F8CDE9180109F065
:1035500013F835903B9809F0B8FACDE91401359885
:1035600009F09EFD0022C14BCDE9100109F0EAF8F7
:10357000CDE91201DDE9142309F030F80022BC4B3B
:10358000CDE9160109F0DEF8CDE9180108F0F4FFE5
:1035900035903F98401C09F021FF3490B54936988A
:1035A00009F01EFE0F9009F07BFDCDE91201359860
:1035B00009F076FD4FF08042AF4BCDE90E0109F0E6
:1035C0000DF8CDE91001DDE9122309F07FFCCDE90A
:1035D0001601349809F064FDCDE91401DDE91623E4
:1035E00008F0FCFFCDE9180108F0C6FF3490A349AC
:1035F00034980AF013F9A249199009F0F1FD3390BB
:10360000339809F04DFD9F4A9F4BCDE90E0109F01B
:10361000C3FA9E4A9E4BCDE9100108F0DFFFCDE9C9
:103620001401339809F03CFDCDE91201DDE91423C2
:1036300009F0B2FA974A984BCDE9160108F0CEFF8F
:10364000CDE9180108F098FF32904FF4B471329828
:1036500003F092FB3290339809F022FD8F4A904B91
:10366000CDE90E0109F098FA8E4A894B373BCDE936
:10367000100109F01FFCCDE91401339809F010FD89
:10368000CDE91201DDE9142309F086FA864A874B59
:10369000CDE9160108F0A2FFCDE9180108F06CFF92
:1036A0003190339809F0FCFC814A824BCDE90E0140
:1036B00009F072FA804A814BCDE9100108F08EFFC3
:1036C000CDE91401339809F0EBFCCDE91201DDE9F5
:1036D000142309F061FA7A4A7A4BCDE9160109F010
:1036E000E9FBCDE9180108F047FF309076483199A1
:1036F00009F0D4FE75490A9009F072FD0B9009F0AB
:10370000CFFC734A734BCDE90C0109F045FACDE9C2
:103710000E0108F031FF109008F09AFD119009F0A9
:10372000BFFC6D4A6D4BCDE9120109F035FACDE9C8
:103730001601339809F0B4FC694A6A4BCDE90801D7
:1037400009F02AFA684A694BCDE90A0109F0B2FB8F
:10375000CDE90E014FF08040319909F09FFE5B49A1
:10376000049009F03DFD059009F09AFC584A594B28
:10377000CDE9060109F010FACDE9080108F0FCFED8
:103780000A9008F065FD0B9009F08AFCCDE90C0168
:10379000DDE90E2309F000FACDE91201339809F0B2
:1037A0007FFC534A534BCDE9020109F0F5F9524A27
:1037B000524BCDE9040108F011FFCDE9080133981F
:1037C00009F06EFCCDE90601DDE9082309F0E4F912
:1037D0004B4A4C4BCDE90A0109F06CFBCDE90E01D7
:1037E0003A49319809F0FCFC059009F059FC384A37
:1037F000384BCDE9060109F0CFF9CDE9080108F011
:10380000BBFE0A9008F024FD0B9009F049FCCDE9BD
:103810000C01DDE90E2309F0BFF9CDE91001DDE966
:10382000122308F0DBFECDE91401DDE9162308F0D0
:10383000D5FECDE9180108F09FFE2F902F99329800
:1038400009F05AFC2E90339809F02AFC2E4A2F4B8F
:10385000CDE9140109F0A0F92D4A2E4BCDE916014E
:1038600009F028FB58E000009409002000004E40B9
:10387000000038400000C041D56C424164A1154AA7
:1038800000AD0E47C0AB8A15DADE333F2F8672A239
:103890001894E14046CEC29E768771400CDB60F200
:1038A0005025243F2AC6F99BC91F0C3C7758764007
:1038B00000D864FC6001813E03E35F521C0A063FAE
:1038C00080035D72111C913F0000404000003443B2
:1038D0004AD8124DFB2109402C616D8C9DF0323F7E
:1038E000E31A9FC9FE791A3F958098840B79943F1B
:1038F000B75F3E59315CED3EAEF36F97FDBA733F53
:10390000F6B2EDB435A2FE3F068195438B389E405A
:10391000C3F5285C8F425F40CDE9180108F02CFE0A
:103920004290FE49429809F05BFC0B9009F0B8FB0D
:10393000FB4AFC4BCDE90C0109F02EF9CDE90E0153
:1039400008F01AFE109008F083FC119009F0A8FB13
:10395000F54AF64BCDE9120109F01EF9CDE9160141
:103960002E9809F09DFBF24AF24BCDE9120109F0C5
:10397000ADFACDE91401DDE9162309F0A7FACDE986
:10398000180108F0F9FD2D90339809F089FBEA4AF7
:10399000EA4BCDE9000109F0FFF8E94AE94BCDE92E
:1039A000020109F087FACDE90601339809F078FBA6
:1039B000CDE90401DDE9062309F0EEF8E24AE34B24
:1039C000CDE9080108F00AFECDE90C01339809F0B1
:1039D00067FBCDE90A01DDE90C2309F0DDF8DC4ADB
:1039E000DC4BCDE90E0109F065FA0022DA4BCDE996
:1039F000100108F0A7FE0022D84BCDE9120108F013
:103A0000EDFD0022D44BCDE9140108F09BFE00220D
:103A1000D34BCDE9160108F0E1FDCDE9180108F01E
:103A2000ABFD2C90BD49429809F0DAFB0B9009F0F0
:103A300037FBBB4ABB4BCDE90C0109F0ADF8CDE932
:103A40000E0108F099FD109008F094F9119009F01A
:103A500027FBC44AC44BCDE9120109F09DF8CDE91A
:103A600016012C9809F01CFBCDE91401DDE91623A1
:103A700008F0B4FDCDE9180108F07EFD2B90A749B0
:103A80002D9809F0ADFB099009F00AFBA44AA54B5B
:103A9000CDE90A0109F080F8CDE90C0108F06CFDD0
:103AA0000F9008F0D5FB9D4911902B9809F098FBD9
:103AB000099009F0F5FA9A4A9A4BCDE90A0109F002
:103AC0006BF8CDE90C0108F057FD0F9008F0C0FB32
:103AD0001090119909F0E2FC129007F08BFF1390FF
:103AE00009F0DEFA8E4A8F4BCDE9140108F02AFE68
:103AF00000229E4BCDE9160109F04EF8CDE91801E0
:103B000008F03AFD2A904FF080412B9809F068FBAD
:103B10008249109009F064FB119009F0C1FA804AC3
:103B2000804BCDE9120109F037F8CDE9140108F016
:103B300023FD179008F066FC4FF0804119902B98F8
:103B400009F04EFB7549109009F04AFB119009F0FD
:103B5000A7FA734A734BCDE9120109F01DF8CDE9BC
:103B6000140108F009FD179008F04CFC1890199901
:103B700009F094FC29906949319809F031FB0790CC
:103B800009F08EFA664A674BCDE9080109F004F89E
:103B900000224FF08043CDE90A0108F0FDFFCDE996
:103BA0000C0108F0E9FC0E9008F052FB0F9009F0B0
:103BB00077FACDE91201309809F072FACDE90E01D9
:103BC000309809F06DFA0022694BCDE90A0108F03E
:103BD000E3FFCDE90C01DDE90E2308F0DDFFCDE9BF
:103BE0001001DDE9122308F0D7FFCDE916014B499A
:103BF000329809F0F5FA039009F052FA484A494B15
:103C0000CDE9040108F0C8FF00225A4BCDE90601B6
:103C100008F0C2FFCDE9080108F0AEFC0A9008F0F8
:103C200017FB0B9009F03CFACDE90E01299809F039
:103C300037FACDE90A01299809F032FA00224E4BF1
:103C4000CDE9060108F0A8FFCDE90801DDE90A2366
:103C500008F0A2FFCDE90C01DDE90E2308F09CFF7E
:103C6000CDE912012D49329809F0BAFA039009F012
:103C700017FA2B4A2B4BCDE9040108F08DFF0022E7
:103C80004FF08043CDE9060108F086FFCDE9080139
:103C900008F072FC0A9008F06DF820490C903198F9
:103CA00009F09EFA039009F0FBF91D4A1D4BCDE97E
:103CB000040108F071FFCDE9060108F05DFC0890F1
:103CC00008F0C6FA0A904FF08140309909F0E6FBFF
:103CD0000890299909F0E2FB09900A9909F0DEFBA6
:103CE0000B900C9909F0DAFB0C490E90319809F011
:103CF00077FA039009F0D4F9094A0A4BCDE9040197
:103D000008F04AFFCDE9060108F036FC089008F0FB
:103D10009FFA0A904FF0804030992FE00000344322
:103D20004AD8124DFB210940F94ECC7A3194733FA9
:103D30001FBAA0BE654E773FD61A4AED45B45D3F27
:103D4000BEA4315A4755433FB81E85EB51684740E2
:103D5000A69BC420B072354000004E4000003A409F
:103D600000003740F168E388B5F8643F00806640A2
:103D70000000F43F000010400000E03F09F08EFB1F
:103D800009900A9909F08AFBFE490C90329809F0D3
:103D900027FA019009F084F9FB4AFC4BCDE90201B6
:103DA00008F0FAFE00224FF08043CDE9040108F04C
:103DB000F3FECDE9060108F0DFFB099008F048FAB0
:103DC0000A90299909F06AFB0B900C9909F026FDDD
:103DD0000D900E9909F090F90F9009F061F9CDE975
:103DE0001001DDE9122309F071F8CDE91401DDE9D4
:103DF000162309F06BF8CDE9180108F0BDFB4290DD
:103E0000429809F04DF9E04AE04BCDE9120108F083
:103E100099FC0022DE4BCDE9140108F0BDFE002222
:103E2000DC4BCDE9160108F0B7FECDE9180108F02A
:103E3000A3FB2890D3492A9809F0D2F9079009F0FA
:103E40002FF9D14AD14BCDE9080108F0A5FECDE903
:103E50000A0108F091FB0D9008F0D4FAC9490F90BF
:103E6000379809F0BDF9079009F01AF9C64AC74B0F
:103E7000CDE9080108F090FECDE90A0108F07CFBCD
:103E80000D9008F0BFFA0E900F9909F007FBBD499D
:103E900011902A9809F0A4F9059009F001F9BA4A9D
:103EA000BA4BCDE9060108F077FECDE9080108F02C
:103EB00063FB0B9007F05EFFB2490D90379809F055
:103EC0008FF9059009F0ECF8AF4AB04BCDE9060147
:103ED00008F062FECDE9080108F04EFB0B9007F0F8
:103EE00049FF0C900D9909F0D9FA0F90AA4807F0F4
:103EF00041FF0E900F9909F073F91090119909F094
:103F00008DFC129007F0E8FC139009F0C9F89E4A66
:103F10009E4BCDE9140108F015FC00229C4BCDE925
:103F2000160108F039FECDE9180108F025FB2790AD
:103F30009A49369809F0B2FA18904FF081403899B2
:103F400009F0ACFA9649159009F0D6FB169028991D
:103F500009F064FC1790189909F0CEF8914919906E
:103F600009F03EF926904FF08141279809F096FA22
:103F70008C49189009F034F91990269909F0BCFB86
:103F800025904FF08141279809F088FA85491890CB
:103F900009F026F91990269909F0AEF824907F4887
:103FA000369909F07BFA19904FF08140389909F061
:103FB00075FA7C491790359809F070FA1590289990
:103FC00009F09AF81690179909F096F8189019992F
:103FD00009F024FC23904FF4B461239802F0CCFE46
:103FE00023900021239809F025FA09D24FF081414E
:103FF000239809F0F5F86349199009F00FFC08E0DF
:104000004FF08141239809F0EBF85E49199009F0CF
:1040100005FC22905B49229809F0E2F8079009F02C
:104020003FF8594A594BCDE9080108F0B5FDCDE9F3
:104030000A0108F0A1FA0D9007F09CFE51490F907B
:104040002A9809F0CDF8059009F02AF84E4A4F4B0E
:10405000CDE9060108F0A0FDCDE9080108F08CFAD1
:104060000B9007F087FE47490D90379809F0B8F894
:10407000059009F015F8444A444BCDE9060108F0D3
:104080008BFDCDE9080108F077FA0B9007F072FE7E
:104090000C900D9909F002FA0E900F9909F0FEF9B3
:1040A000384911902A9809F09BF8079008F0F8FF1A
:1040B000354A364BCDE9080108F06EFDCDE90A011D
:1040C00008F05AFA0D9008F0C3F82E490F9037986F
:1040D00009F086F8079008F0E3FF2B4A2B4BCDE957
:1040E000080108F059FDCDE90A0108F045FA0D90E4
:1040F00008F0AEF80E900F9909F0D0F910901199D0
:1041000008F0FAFF129007F0E7FB139008F0C8FFE1
:104110001D4A1E4BCDE9140108F014FB00221C4B74
:10412000CDE9160108F038FDCDE9180108F024FAB0
:1041300021901D48219909F071FB20901149209888
:1041400009F04EF8139008F0ABFF0F4A0F4BCDE982
:10415000140108F021FDCDE9160108F00DFA1990BF
:1041600008F050F91F901F99084609F097F9199027
:104170001F9909F093F91E90DDE91E0109F08EF9EF
:10418000199013E0000034434AD8124DFB21094036
:10419000008066400000104041ECCA3F00007042C1
:1041A000000034440000B4440000B4421F9909F0F8
:1041B00075F91D90FE49209809F03CFA02D20020C2
:1041C0000146B8E0FB49209809F034FA45D21D9821
:1041D00008F066FF02460B46CDE91001F648F749A4
:1041E00008F0B0FACDE914011E9808F059FF024614
:1041F0000B46CDE90C01F248F24908F0A3FACDE9EB
:104200001001F149209808F0EBFF059008F048FFF5
:10421000EE4AEF4BCDE9060108F0BEFCCDE90801FE
:1042200008F0AAF90A9008F0EDF80B9008F038FFB2
:1042300002460B46CDE90C01E648E74908F082FA50
:10424000CDE90E01DDE9102308F040FECDE91201B1
:10425000DDE9142308F0C2F96DE0209808F020FF92
:104260004FF06632DD4BCDE9140108F093FD43D2E7
:10427000209808F015FFDA4ADA4BCDE9000108F082
:104280008BFCCF4A5242D84BCDE9020108F0A6F987
:10429000CDE90601209808F003FFCDE90401DDE92E
:1042A000062308F079FCD14AD14BCDE9080108F08A
:1042B00095F9CDE90C01209808F0F2FECDE90A014C
:1042C000DDE90C2308F068FCC84ACA4BCDE90E01B1
:1042D00008F084F9CDE91201209808F0E1FECDE95B
:1042E0001001DDE9122308F057FC0022C24BCDE992
:1042F000140108F073F91EE0B349209808F070FF2C
:104300000D9008F0CDFEB14AB14BCDE90E0108F099
:1043100043FCCDE9100108F02FF9129008F072F873
:10432000139008F0BDFE02460B46CDE91401B348D8
:10433000B34908F007FA0022B24BCDE9160108F0A4
:1043400001FACDE9180108F017F91C901C99209882
:1043500008F0D2FE1B900021229809F06BF97CD264
:104360009949219808F03CFF039008F099FE974A7C
:10437000974BCDE9040108F00FFCCDE9060108F0E8
:10438000FBF8099007F064FF8F490B90379808F00D
:1043900027FF039008F084FE8C4A8D4BCDE9040181
:1043A00008F0FAFBCDE9060108F0E6F8099007F0FD
:1043B000E1FC0A900B9909F071F883490D902A9855
:1043C00008F00EFF039008F06BFE804A804BCDE9A9
:1043D000040108F0E1FBCDE9060108F0CDF80990F1
:1043E00007F036FF78490B90219808F0F9FE01900C
:1043F00008F056FE754A764BCDE9020108F0CCFB79
:10440000CDE9040108F0B8F8079007F0B3FC6E4955
:104410000990379808F0E4FE019008F041FE6B4ADD
:104420006B4BCDE9020108F0B7FBCDE9040108F0C0
:10443000A3F8079007F00CFF0890099909F02EF8EF
:104440000A900B9909F0EAF90C900D9908F0C8FE52
:104450000E9007F041FA0F9000E01DE008F020FEFA
:104460005A4A5B4BCDE9100108F06CF90022664B0B
:10447000CDE9120108F090FB0022634BCDE9140155
:1044800008F0ACF8CDE9160108F076F84FF4B471F5
:10449000199002F071FCC7E04B49219808F0A0FE8A
:1044A000039008F0FDFD494A494BCDE9040108F0AD
:1044B00073FBCDE9060108F05FF8099007F0C8FE2C
:1044C00041490B90379808F08BFE039008F0E8FD07
:1044D0003E4A3F4BCDE9040108F05EFBCDE9060101
:1044E00008F04AF8099007F045FC0A900B9908F08B
:1044F000D5FF35490D902A9808F072FE039008F018
:10450000CFFD324A324BCDE9040108F045FBCDE93D
:10451000060108F031F8099007F09AFE2A490B903D
:10452000219808F05DFE019008F0BAFD274A284B5B
:10453000CDE9020108F030FBCDE9040108F01CF8D8
:10454000079007F017FC20490990379808F048FEBB
:10455000019008F0A5FD1D4A1D4BCDE9020108F0B0
:104560001BFBCDE9040108F007F8079007F070FE87
:104570000890099908F092FF0A900B9909F04EF9FA
:104580000C900D9908F02CFE0E9007F0A5F90F90F5
:1045900008F086FD0D4A0E4BCDE9100108F0D2F867
:1045A0000022194BCDE9120108F0F6FA00222DE0A5
:1045B0000000AA420000A0403677F4BF5C8B163F93
:1045C000EC51B81E85EBB13F000034434AD8124D80
:1045D000FB210940CDCCCCCCCC0C4D406666E2BF73
:1045E0008D976E1283C0E63F7A9429C09A99999963
:1045F00099D95940993180C0001C9B401283C0CA90
:10460000A1C534C00020AC4000806640214BCDE9FC
:10461000140108F04FFCCDE9160107F0ADFF4FF48F
:10462000B471199002F0A8FB1A901B49259808F064
:1046300035FF1A49C1F8E0011749249808F02EFF08
:104640001649C1F8E4011A98C1F8EC011B9808F06A
:1046500027FD0022124BCDE9180108F09BFB04D87E
:1046600010490E48C0F8E81112E01B9808F018FD38
:1046700000220D4BCDE9180108F052FA04D20B4983
:104680000648C0F8E81103E004491B98C1F8E801A6
:1046900043B000BD00E080400000C041940900200C
:1046A000004056400000B242004056C00000B2C276
:1046B00010B50446012C0DD04448007800F00100EC
:1046C00008B900F013F9002001F0B2FD00204049C4
:1046D000087010BD3F48007830B101281ED0022874
:1046E00044D003286BD159E03B49D1F8D8013B496C
:1046F00008F0A0FE0ED83849D1F8C401384908F0B6
:1047000099FF03D801203349087006E0032031499E
:10471000087002E002202F49087054E02B4800780E
:1047200000F0010008B900F0E1F82B49D1F8D801F8
:104730004FF0824108F07EFF06D92749D1F8C40125
:10474000284908F077FE08D8002001F071FD00200C
:104750001F4908701F49087007E0012001F068FD3B
:1047600001201B4908701B4908702CE0002001F053
:104770005FFD0020164908701448007800F0010021
:1047800008B100F031F811480078C0F3001008B10A
:1047900000F098F800200F49087014E0002001F0A4
:1047A00047FD00200A4908700848007800F0010021
:1047B00008B900F09BF800200649087003E00020CB
:1047C0000449087000BF00BF00BF82E7A8000020B6
:1047D000A9000020B4000020940900200000A0409F
:1047E0000000F0410000E04110B510231422D02158
:1047F000014801F0BFFE10BD004900202DE9F04145
:1048000000242C48C06810B9601EBDE8F0814FF448
:1048100088731422D021284801F0ACFE04460023FE
:104820002922D021244801F0A5FE04441123152299
:10483000D021214801F09EFE04441E4988684FF0B3
:10484000834108F02BFE07464FF07E5108F0E6FF4B
:10485000064608F0A3FD85B22B461A22D021164841
:1048600001F088FE044413494868144908F0D6FF53
:104870000746134908F012FE064608F08FFD85B280
:104880002B461B22D0210C4801F074FE04444FF447
:1048900061631D22D021084801F06CFE044445F2FA
:1048A00060431E22D021044801F064FE04442046E7
:1048B000ABE70000F04800200049002000007440F1
:1048C0000000A04210B54FF488731422D02106488E
:1048D00001F050FE142000F05BF910231422D021C7
:1048E000014801F047FE10BD0049002010B54FF40B
:1048F00088731422D021024801F03CFE10BD000054
:104900000049002010B54FF48071024800F085FD89
:1049100010BD0000000801400120164988820020D7
:1049200008605A2088872D20A1F842001248486369
:10493000124888635A20C887A1F8400040070861E0
:104940000F4888600F4848604FF08240C8600E48AA
:1049500048620E480862002088623C20C885122008
:1049600088854FF4967048860E200886084888612E
:104970007047000094090020000034420000074303
:104980000000F0410000F242CDCC8C409A99F93FF2
:104990000000404010B5022000F0B0F8002864D0BC
:1049A0003248006820F002003049086000212F489A
:1049B0000838FDF794FE00212C480838FDF7F0FD7B
:1049C000022000F081F800202949087031E0002120
:1049D0002848274A127840F82210002026490870FB
:1049E0001EE02549097801EB8101214A1278114422
:1049F000224A32F8110008F009FD04461D481C4AFD
:104A0000127850F82210204608F076FB1949184A0F
:104A1000127841F8220018480078401C16490870A6
:104A2000154800780A28DCDB11480078401C104942
:104A300008700F4800780528C9DB0E480068104947
:104A400008600C4840680F4908600A4880680E49B1
:104A500008600848C0680D490860064800690C49AC
:104A6000086000210B4800F03DF810BD082401400B
:104A700018010020604E002019010020FC4D00208C
:104A80001C01002020010020240100202C01002016
:104A9000280100200800024010B504464FF40041F0
:104AA000074800F0BAFC0021064800F01BF8054852
:104AB000001D04600121001F00F014F810BD00006B
:104AC000000801405804024000F0805111B1034930
:104AD000086001E002494860704700000404024099
:104AE0000000024021B1026842F00102026004E0CD
:104AF00002684FF6FE731A400260704701460020BC
:104B0000002201F0805313B1054B1A6801E0054BF8
:104B10001A6802EA01030BB1012000E0002070478F
:104B200000040240000002401AB103680B43036016
:104B300002E003688B430360704710B500220268EF
:104B400047F6F0739A430C6A8B6823430C6923433E
:104B50004C6923438C692343CC6923434C6A234328
:104B60008C6A23431A430260CB6843600B688360FE
:104B70004B68C36010BD0C2105E00C2100BF0A1E6C
:104B8000A1F10101FBD1021EA0F10100F5D1704796
:104B900006E0482100BF0A1EA1F1010359B2FADA6A
:104BA000021EA0F1010358B2F3DA704710B51449A0
:104BB000D1F8C801134908F03DFC15D81248007817
:104BC000401C1149087008460078142817DB0020A3
:104BD00008700B48D0F8F40120F0806000F180608C
:104BE0000749C1F8F4010AE00020074908700448A9
:104BF000D0F8F40120F080600149C1F8F40110BD43
:104C00009409002000007041C800002010B56C48D5
:104C100090F8AF01012863D100206A4908806A48F2
:104C20000088401C6849088008460088052804DA86
:104C30006348D0F8B4016549086063480088B0F55E
:104C4000167F42DD0020604908805D48D0F8B4112D
:104C50005E48006808F0E2FD04464FF03F4108F06E
:104C6000E9FB09D25648D0F8F40120F00200801C7C
:104C70005349C1F8F40107E05148D0F8F40120F09D
:104C800002004F49C1F8F4014D48D0F8B4114F4823
:104C9000006808F0C3FD04464FF07E5108F0CAFCDE
:104CA0000BD34748D0F8B4114848006808F0B6FD67
:104CB0000446474908F0BEFB08D24148D0F8F40149
:104CC00020F020003E49C1F8F40177E03C48D0F8DC
:104CD000F40120F0200020303949C1F8F4016DE0E2
:104CE000374890F8AF01022863D100203649088088
:104CF00034480088401C334908800846008805284D
:104D000004DA2F48D0F8B401304908602D480088F3
:104D1000B0F5167F52DD00202A4908802848D0F8D7
:104D2000B4112A48006808F079FD04464FF07C5120
:104D300008F080FC09D22248D0F8F40120F00200EB
:104D4000801C1F49C1F8F40107E01D48D0F8F401A8
:104D500020F002001A49C1F8F4011948D0F8B41142
:104D60001A48006808F05AFD04464FF07E5108F0DA
:104D700061FC0BD31248D0F8B4111448006808F055
:104D80004DFD0446124908F055FB08D20C48D0F8F6
:104D9000F40120F020000A49C1F8F4010EE00848AF
:104DA000D0F8F40120F0200020300549C1F8F401CA
:104DB00004E00020044908800249088010BD00007A
:104DC00094090020C6000020C4000020C00000207C
:104DD000000080BF70B54D4890F8AE01002864DD3A
:104DE0004A4A9169D2F8B80108F024FC0CD9474826
:104DF000D0F8B811464808F051FB04464348816991
:104E0000204608F017FC1DD800204249087042488F
:104E10000078401C404908700846007807F06CFE96
:104E2000044600223D4B07F0B5FF0BD200203A4963
:104E300008703648D0F8F40120F00100401C3349D6
:104E4000C1F8F40131498869354908F027FB044667
:104E50002E48D0F8B811204608F0ECFB2AD82B4990
:104E60008869304908F01AFB04462848D0F8B81180
:104E7000204608F0DFFA1DD826480078401C254956
:104E8000087008460078642814DD00200870224964
:104E900008701E48D0F8F40120F001001B49C1F849
:104EA000F40100202049087004E00020194908702E
:104EB00019490870154890F8F40100F0010008B392
:104EC0001A480088401C1949088008460088B0F537
:104ED000966F1ADD0020088013480078401C1249A4
:104EE000087008460078082808DA0848D0F8F40165
:104EF00020F001000549C1F8F40106E009200A4943
:104F0000087002E000200949088070BD9409002063
:104F1000000080BFB8000020B900002000002C4035
:104F20006666663F666666BFBA000020BC00002069
:104F300010B53A49886B4FF0804108F0DDF804461F
:104F40003648D0F8B411204608F074FA14D2344828
:104F50000078401C324908700846007832285CDD31
:104F6000342008702D48D0F8F40120F008000830F3
:104F70002A49C1F8F40150E02849486B4FF08041BC
:104F800008F04CFC04462548D0F8B411204608F03F
:104F900051FB14D222480078401C21490870084671
:104FA0000078322839DD342008701C48D0F8F4012C
:104FB00020F00400001D1949C1F8F4012DE0174943
:104FC000886B4FF07E5108F029FC04461348D0F856
:104FD000B411204608F02EFB1FD21049486B4FF049
:104FE0007E5108F089F804460C48D0F8B4112046E8
:104FF00008F020FA11D20020094908700748D0F8BB
:10500000F40120F004000549C1F8F4010846D0F885
:10501000F40120F00800C1F8F40110BD940900204B
:10502000BE00002010B500F0E1F8352000F01EF8B9
:1050300000240AE00B4901EBC42000F01DF800BF7A
:1050400000F05AF80128FBD0641C502CF2D306481B
:1050500000F012F800BF00F04FF80128FBD000F07C
:1050600065F810BD00A0020800F007080149C860FB
:10507000704700000020024030B5044604254FF47C
:10508000302000F0BFF80546042D17D10C48006908
:1050900040F002000A49086108464461006940F096
:1050A000400008614FF4302000F0ACF80546044899
:1050B000006941F6FD71084001490861284630BD8C
:1050C0000020024004200B49C96801F0010109B128
:1050D00001200EE00749C96801F0040109B102206E
:1050E00007E00449C96801F0100109B1032000E09C
:1050F000042070470020024004200B49C96801F0D9
:10510000010109B101200EE00749C96801F004015D
:1051100009B1022007E00449C96801F0100109B192
:10512000032000E00420704700200240034800698B
:1051300040F08000014908617047000000200240F3
:1051400070B504460D460426F00200F05BF80646F2
:10515000042E11D10948006940F001000749086197
:105160002580F00200F04EF806460448006941F63A
:10517000FE71084001490861304670BD00200240C0
:1051800078B506460C46042500200090E80200F0A1
:1051900039F80546042D24D11348006940F0010078
:1051A000114908613480E80200F02CF80546042D0E
:1051B00010D1B01C0090200C00990880E80200F08B
:1051C00021F805460848006941F6FE710840064985
:1051D000086106E00448006941F6FE710840024992
:1051E0000861284678BD00000020024002480349BB
:1051F000486003484860704723016745002002402B
:10520000AB89EFCD00B502460423FFF75BFF0346F1
:1052100003E0FFF757FF0346521E012B01D1002A7E
:10522000F7D102B90523184600BD000010B500F003
:1052300073FF4FF4D0500849A1F8A80100F0D0FD49
:105240000549B1F8A81108430349A1F8A8010921AB
:105250000148A0F8AA1110BD940900202DE9F041E1
:10526000024600250026002000230024002791F894
:1052700003C00CF00F0591F803C00CF0100CBCF14A
:10528000000F03D091F802C04CEA050591F800C068
:10529000BCF1000F31D0146800202BE04FF0010C5E
:1052A0000CFA00F3B1F800C00CEA03069E4220D1CC
:1052B00083004FF00F0C0CFA03F7BC4305FA03FC14
:1052C0004CEA040491F803C0BCF1280F06D14FF05A
:1052D000010C0CFA00FCC2F814C00AE091F803C0FB
:1052E000BCF1480F05D14FF0010C0CFA00FCC2F8DC
:1052F00010C0401C0828D1D31460B1F800C0BCF124
:10530000FF0F34DD546800202EE000F1080C4FF050
:10531000010808FA0CF3B1F800C00CEA03069E423B
:1053200021D183004FF00F0C0CFA03F7BC4305FAB0
:1053300003FC4CEA040491F803C0BCF1280F05D12A
:1053400000F1080C08FA0CF8C2F8148091F803C0B8
:10535000BCF1480F07D100F1080C4FF0010808FA22
:105360000CF8C2F81080401C0828CED35460BDE869
:10537000F0810000F0B50A4600230024002100253A
:1053800000F00046B6F1004F02D11D4EF16901E078
:105390001B4E7168C0F3034583B200F44016B6F5A6
:1053A000401F08D121F07061154E766826F07066B6
:1053B000134F7E6012E000F48016B6F5801F06D110
:1053C000032606FA05F4A14341F0706106E0460D9C
:1053D000360103FA06F6B14341F0706122B1460D81
:1053E000360103FA06F6314300F00046B6F1004FED
:1053F00002D1034EF16101E0014E7160F0BD000089
:10540000000001400246002093680B400BB10120D0
:1054100000E0002070474161704701617047000063
:1054200000487047C44600202DE9F84F83460F46D8
:105430000024002500266946232005F0BBF99DF8CD
:10544000000004436946222005F0B4F9200204B2AA
:105450009DF80000044369462B2005F0ABF99DF848
:105460000000054369462A2005F0A4F9280205B288
:105470009DF80000054369462D2005F09BF99DF835
:105480000000064369462C2005F094F9300206B26C
:105490009DF8000006436946182005F08BF99DF839
:1054A0000000382813D1304607F098FF8046284680
:1054B00007F094FF8146204607F090FF824642465F
:1054C0004946FDF747FF38600020BDE8F88F4FF0F0
:1054D000FF30FAE72DE9F04F91B04FF0000AB549DF
:1054E000D1F8E80107F0DCFD0446B34AB34B07F0FE
:1054F00051FC7DD8AF49D1F8EC01B14908F08EF9E3
:10550000B0490E9007F06CFE834607F0C9FD0646D1
:10551000AD4AAE4B07F040FB044607F02DF881463C
:1055200006F028FC8046A349D1F8E801A54907F018
:1055300057FE834607F0B4FD0646A34AA34B07F087
:105540002BFB044607F018F8814606F05BFF414646
:105550000F9006F0E1FA8246504607F0A1FD804622
:10556000994A9A4B07F0EEF806460022984B07F04E
:1055700013FB044607F000F882468E49D1F8EC018F
:1055800007F08EFD04460022914B07F0C9FA7DD842
:105590008848816A504608F04DF879D28D495046C6
:1055A00008F048F874D28348816A504608F036F90A
:1055B00084490E9007F014FE0F9007F071FD064627
:1055C000814A824B07F0E8FA044606F0D5FF83468D
:1055D00006F03EFE81467748416A484607F05EFF86
:1055E00080467448016A404608F024F805D800E077
:1055F000DBE0504611B0BDE8F08F6E48816A50463E
:1056000008F00CF96F49029007F0EAFD039007F0EB
:1056100047FD6D4A6D4BCDE9040107F0BDFACDE9B8
:10562000060106F0A9FF089006F012FE83466148C5
:10563000416A584607F032FF09905E48016A0998AE
:1056400007F0CEFD0A9006F0D5F90B9007F028FD83
:105650005D4A5E4BCDE90C0107F074F80646002266
:105660005B4B07F099FA04460D465549504607F042
:1056700043FD064607F014FD22462B46CDE90E01F8
:1056800007F024FC804606F077FFB3E705E0FFE76C
:105690004849888F07F0BAFEACE74648816A494816
:1056A00007F02AFD0446514607F0C4FF78D24A4964
:1056B000504607F0BFFE73D23E4A516A106A07F0A7
:1056C0008FFD51460F903F4808F0A8F80D903948DB
:1056D000816A0D9807F010FD83463A4907F080FD76
:1056E0000E9007F0DDFC0646374A384B07F054FAB7
:1056F000044606F041FF814606F0AAFD80460F9958
:1057000007F098FF01D8504674E72A48816A50464E
:1057100008F084F82B49019007F062FD834607F0FA
:10572000BFFC294A294BCDE9020107F035FACDE942
:10573000040106F021FF814606F08AFD07901D480E
:10574000416A079807F0AAFE08901A48016A08986B
:1057500007F046FD804606F04DF9099007F0A0FCE1
:10576000194A1A4BCDE90A0106F0ECFF0646002261
:10577000174B07F011FA04460D461149504608F040
:105780004DF8064607F08CFC22462B46CDE90C016D
:1057900006F024FFCDE90E0106F0EEFE2AE7FFE752
:1057A0000449888F07F032FE24E70249888F07F00A
:1057B0002DFE1FE7940900209A9999999999B93F6C
:1057C0000000B442000034434AD8124DFB21094086
:1057D00000806640000040400000314338B5044678
:1057E00000256B463422D0213F4800F0D1FD05460C
:1057F00015B14FF0FF3038BDBDF8000000F48070E7
:1058000088B1207820F00100401C2070207820F022
:1058100002002070207820F004002070207820F012
:105820000800207030E0207820F001002070BDF8E2
:10583000000000F0800028B1207820F00200801CD9
:10584000207003E0207820F002002070BDF80000F6
:1058500000F0400028B1207820F00400001D2070E6
:1058600003E0207820F004002070BDF8000000F074
:10587000180028B1207820F008000830207003E0DC
:10588000207820F008002070BDF8000000F004002F
:1058900028B1207820F010001030207003E020782C
:1058A00020F010002070BDF8000000F0020028B1C8
:1058B000207820F020002030207003E0207820F0B5
:1058C00020002070BDF8000000F0010028B1207811
:1058D00020F040004030207003E0207820F04000AD
:1058E0002070002087E70000004900202DE9F843E0
:1058F000044600256B463D22D0210D4800F048FDAE
:1059000005468DB9BDF9000007F068FD80460949DC
:1059100007F0C4FD07464FF0834107F061FC0646DF
:10592000054907F05DFC20602846BDE8F8830000CB
:1059300000490020DC80BB3F00007A4410B5002401
:10594000694800F0C7F904446748001FFFF7CEFF1D
:1059500004446548083000F0E9F804446348FFF760
:105960003DFF04445CB90020614908706148D0F8EB
:10597000F40120F000405F49C1F8F4011AE05C48EE
:1059800001780078401C5A4A1070052912DD052064
:10599000114608705748D0F8F40120F0004000F19B
:1059A00000405449C1F8F40100215248C0F8D01118
:1059B000C0F8CC114D480078C0F3401058B94B489E
:1059C0000078C0F3801030B94A49D1F8D0014A4973
:1059D00007F030FD18D80020484908804848008862
:1059E000401C4749088008460088142829DB00200D
:1059F00008804048D0F8F40120F0005000F1005039
:105A00003C49C1F8F4011CE03A49D1F8D0013D49C4
:105A100007F010FE15D80020394908803748008863
:105A2000401C3649088008460088642809DB0020AD
:105A300008803048D0F8F40120F000502D49C1F81A
:105A4000F4012C4890F8AE01002844D12949D1F83E
:105A5000D0012D4907F0EEFC19D800202B49088011
:105A60002B480088401C2A49088008460088B0F569
:105A7000167F30DB002008801E48D0F8F40120F0AB
:105A8000805000F180501B49C1F8F40123E019490E
:105A9000D1F8D0011F4907F0CDFD17D800201C49CF
:105AA00008801A480088401C184908800846008869
:105AB000B0F5967F0FDB002008800E48D0F8F40187
:105AC00020F080500B49C1F8F40104E000200F4998
:105AD00008800F4908800749D1F8D00100F01CF870
:105AE0000449C1F8D40110BD640B0020A8000020B7
:105AF000AA000020940900200000B041B00000205E
:105B0000B20000200000BC410000C441AE000020F3
:105B1000AC0000200000D44110B504460248C16822
:105B20002046884710BD0000F04800202DE9FE4FB8
:105B300004464FF0000A02AB4022D021484800F052
:105B400027FC8246BAF1000F23D1BDF9080007F007
:105B500045FC0746434907F0CFFD0546BDF908005F
:105B600007F03CFC0746404907F098FC06462946EA
:105B700007F036FB81463D49484607F05BFC09D8F3
:105B800049463B4807F08AFC05463A4907F0B4FA13
:105B9000206062E03549484607F04CFD0ED232499C
:105BA000484607F047FC09D84946334807F076FCD9
:105BB0000546324907F0A0FA20604EE02A494846DF
:105BC00007F038FD18D22E49484607F033FC13D8A9
:105BD000484607F065FA07462A4A2B4B06F0DCFFD9
:105BE00005464FF00042294B06F0F8FCCDE90001D4
:105BF00006F0C2FC206030E02149484607F01AFD5B
:105C00000ED22349484607F015FC09D849462148D9
:105C100007F044FC0546204907F06EFA20601CE0BE
:105C20001B49484607F006FD0ED21C49484607F0BE
:105C300001FC09D849461A4807F030FC05461949C5
:105C400007F05AFA206008E04946174807F026FC9A
:105C50000546164907F050FA20605046BDE8FE8F11
:105C60000049002000AAAA46000020419A999940C4
:105C7000B0031CC19358B44213F271C0E9A6764236
:105C8000CDCC644164CC5D4BC88700C0E9A64640DA
:105C90003333B3418885A2BFDB7906420000E4417B
:105CA000D34D62BF1D5AC9414F1EB6BEDD24EC4024
:105CB00010B5002440210648FFF7A4FB044360060A
:105CC000040E80210248FFF79DFB0443204610BDCF
:105CD000001401402DE9F843044600256B463A22A2
:105CE000D0210C4800F054FB054685B9BDF90000F1
:105CF00007F074FB8046084907F0D0FB07460749C8
:105D000007F0CCFB0646064907F06AFA20602846F1
:105D1000BDE8F883004900200000E040DBE0443E9D
:105D200000007A44F0B50346144620466FF00105A2
:105D3000DE1703EB9676B610A3EB86062EB9642623
:105D400093FBF6F706FB173636B94FF4C87693FB8C
:105D5000F6F706FB17360EB94FF0FF35032906DAC2
:105D6000012901D1002200E01F2210441BE0072975
:105D70000BDC0A4601EBD27677104E1EC6EB0616F8
:105D800007EB46062E4430440DE005F1D606A1F19E
:105D90000807C7EB071706EB4707CA1F02EBD276C7
:105DA00007EB66063044F0BD70B507490748006848
:105DB00007F074FB0546064907F070FB04460549E9
:105DC00007F00EFA70BD0000333353402401002069
:105DD000BE9F4E4100002047004870478C4800207D
:105DE00010B500244FF400710A48FFF70BFB044381
:105DF0006006040E4FF480710648FFF703FB04436E
:105E00006006040E80210348FFF7FCFA0443204695
:105E100010BD00000018014070B50949094800682C
:105E200007F03CFB06464FF08B4107F0D9F90546D9
:105E3000054907F0F3FC0446044907F0D1F970BDA9
:105E4000000004421C0100200000254300003041F6
:105E50000146C1EBC100024A02EB8000007E7047A0
:105E6000184900200146C1EBC100024A02EB800044
:105E7000807E70471849002070B5074907480068C0
:105E800007F00CFB0546064907F008FB04460549E8
:105E900007F0A6F970BD0000333353402001002005
:105EA000BE9F4E410000204770B50949094800686F
:105EB00007F0F4FA06464FF08B4107F091F90546DA
:105EC000054907F0ABFC0446044907F089F970BDA9
:105ED000000004422C010020000025430000304156
:105EE00070B509490948006807F0D8FA06464FF02E
:105EF0008B4107F075F90546054907F08FFC04460C
:105F0000044907F06DF970BD00000442280100202B
:105F10000000254300003041F8B5044600266B46DA
:105F2000002292210F4800F033FA0646BEB99DF8D0
:105F30000150BDF80000000200B20090BDF8000062
:105F400000F47F4000B20090BDF9000028430090AB
:105F5000BDF90000C11700EB116109122180304624
:105F6000F8BD0000744E00202DE9FC4705460E46A2
:105F700017469846DDE90A9A002400200090019017
:105F80004FF480716348FFF746FA4FF4007161489F
:105F9000FFF743FA80215F48FFF73DFA0A20FEF73A
:105FA000EAFD00BF5BE04FF480715A48FFF735FA15
:105FB0000A20FEF7E0FD182C18DA40215548FFF7BB
:105FC00021FA012841D12046E11704EB5171C91093
:105FD000A4EBC102012191406A4602EBE40212786F
:105FE00011436A4602EBE40211702EE01C2C10DA19
:105FF00040214848FFF706FA012826D19DF8030002
:10600000A4F1180101228A401043C0B28DF80300A8
:106010001BE0342C19DA40213E48FFF7F3F9012840
:1060200013D1201DC11700EB5171C910A0EBC102A3
:10603000012191406B46221D03EBE20212781143CD
:10604000CAB2211D03EBE1010A704FF4807131489F
:10605000FFF7E1F90A20FEF78EFD601CC4B2342C74
:10606000A1DB4FF400712B48FFF7D5F99DF8000034
:1060700000F00F009DF80010C1F3021101EB810147
:1060800000EB410028809DF8010000F00F009DF812
:106090000110C1F3021101EB810100EB41003080DE
:1060A0009DF8020000F00F009DF80210C1F30111ED
:1060B00001EB810100EB410038809DF8040000F005
:1060C0000F009DF80410C1F3011101EB810100EBF9
:1060D0004100A8F800009DF8050000F00F009DF8B1
:1060E0000510C1F3001101EB810100EB4100A9F89B
:1060F00000009DF8060000F00F009DF80610090949
:1061000001EB810100EB410000F2DA70AAF8000017
:10611000BDE8FC870010014008B50121402003F0D4
:106120003BFA8020ADF8000004208DF80300022027
:106130008DF8020069460A48FFF790F84FF4807026
:10614000ADF8000069460648FFF788F84FF4007084
:10615000ADF8000069460248FFF780F808BD00006E
:106160000018014018B9054A12880A8004E0012885
:1061700002D10A88014B1A8070470000CA00002033
:106180001748184908601848486018488860184837
:10619000C86018480861184848611848886118485C
:1061A000C861184808624862174888621748C86280
:1061B0001748086317484863174888631748C86337
:1061C00010480864164848640E488864C864154836
:1061D0000865154848651548C8650A480866704747
:1061E000E59600088C480020EF9600080997000803
:1061F000E59E0008119E0008259D000871A6000874
:10620000FDA0000865610008C1A30008E9A200081C
:10621000C9A1000829A2000889A2000855A3000806
:10622000699900084DA700086DA7000801980008AB
:1062300010B50446012C04D181020548FFF7EDF8A2
:1062400004E04FF480610248FFF7E5F810BD00005C
:106250000018014008B50121402003F09DF94FF4DA
:106260008060ADF8000010208DF8030002208DF84A
:10627000020069460448FEF7F1FF4FF480610248CE
:10628000FFF7C9F808BD00000018014070B50446CA
:106290000025A18A2069FFF7BEF821896068FFF711
:1062A000BCF80120FEF774FCA18A2069FFF7B5F85D
:1062B0000320FEF76DFC21896068FFF7A3F8012831
:1062C00000D10125A18A2069FFF7A5F80120FEF77A
:1062D0005FFC284670BD70B504460D46A18A206952
:1062E000FFF799F80120FEF753FC21896068FFF75A
:1062F00094F800202870072620E0A18A2069FFF783
:106300008AF80120FEF744FCA18A2069FFF785F88E
:106310000320FEF73DFC21896068FFF773F8012830
:1063200003D12978B04001432970A18A2069FFF781
:1063300072F80220FEF72CFC701E46B2002EDCDA4A
:1063400070BD38B504460121206803F025F901210C
:10635000E06803F021F92089ADF8000014208DF8E1
:10636000030003208DF8020069466068FEF776FF9F
:1063700021896068FFF751F8A08AADF800006946EE
:106380002069FEF76BFFA18A2069FFF746F838BD48
:106390002DE9F84380460E4617461C46002500208E
:1063A000208006F0FE06404600F0ADF8314640463B
:1063B00000F03EF84046FFF769FF00B16D1E394618
:1063C000404600F035F84046FFF760FF00B16D1E13
:1063D00046F00106404600F096F83146404600F08F
:1063E00027F84046FFF752FF00B16D1E6946404650
:1063F000FFF771FF20889DF8001008432080404679
:1064000000F049F869464046FFF765FF20889DF88F
:1064100000104FF47F4202EA0121084320804046E9
:1064200000F055F8404600F086F82846BDE8F883AD
:106430002DE9F04104460E460127072527E0A18AF1
:106440002069FEF7E8FF0120FEF7A2FB46FA05F0FF
:1064500000F0010020B121896068FEF7DEFF03E053
:1064600021896068FEF7D7FF0120FEF791FBA18A22
:106470002069FEF7D2FF0520FEF78AFBA18A20697A
:10648000FEF7C9FF0120FEF783FB681E45B2002D11
:10649000D5DABDE8F08110B50446A18A2069FEF77F
:1064A000BAFF21896068FEF7B6FF0120FEF770FB96
:1064B000A18A2069FEF7B1FF0520FEF769FBA18ADA
:1064C0002069FEF7A8FF0120FEF762FB10BD10B5A2
:1064D0000446A18A2069FEF79EFF21896068FEF7C5
:1064E0009CFF0120FEF754FBA18A2069FEF795FF6F
:1064F0000520FEF74DFBA18A2069FEF78CFF0120E5
:10650000FEF746FB10BD10B5044621896068FEF712
:1065100084FF0220FEF73CFBA18A2069FEF77DFF85
:106520000220FEF735FB21896068FEF774FF022028
:10653000FEF72EFB10BD10B50446A18A2069FEF7B8
:106540006AFF0120FEF724FB21896068FEF763FFE4
:106550000120FEF71DFBA18A2069FEF75EFF0220E5
:10656000FEF716FB21896068FEF757FF0120FEF752
:106570000FFB10BD2DE9F04180460E4617461D4623
:10658000002406F0FE064046FFF7BDFF31464046B8
:10659000FFF74EFF4046FFF779FE00B1641E394613
:1065A0004046FFF745FF4046FFF770FE00B1641E0E
:1065B000E9B24046FFF73CFF4046FFF767FE00B1F7
:1065C000641E290A4046FFF733FF4046FFF75EFE90
:1065D00000B1641E4046FFF7AEFF2046BDE8F081E3
:1065E0002DE9F04180460D4616461F46002405F071
:1065F000FE054046FFF787FF29464046FFF718FF94
:106600004046FFF743FE00B1641E31464046FFF7A7
:106610000FFF4046FFF73AFE00B1641E3946404680
:10662000FFF706FF4046FFF731FE00B1641E40460B
:10663000FFF781FF2046BDE8F08110B5012003F08F
:1066400043F800BF612003F021F80028FAD045F29A
:10665000555000F029F8042000F01AF84FF47A6041
:1066600000F01CF800F00CF800F002F810BD00007B
:106670004CF6CC40014908607047000000300040F3
:106680004AF6AA2001490860704700000030004027
:1066900001494860704700000030004001498860AF
:1066A000704700000030004001490860704700005A
:1066B0000030004000211E4880F8AD11806CFF289A
:1066C00002D11B48816431E0194890F8480000F07D
:1066D000F000202803D117481749086026E0144825
:1066E00090F8480000F0F000102803D11348124938
:1066F00008601BE00E4890F8480000F0F0004028C9
:1067000003D10F480C49086010E0094890F8480090
:1067100000F0F000802803D10A480749086005E02E
:10672000002103488164D0F8F01101657047000032
:1067300094090020952B000890000020F16C0008BF
:10674000396C0008412900082DE9FE4F05460C462A
:10675000DFF8D491DFF8D4A1DFF8D4B14946284658
:1067600006F09CFE074673480168484606F096FE10
:10677000804671480168404606F0BEFF064639462D
:1067800006F0BAFC6D4908606A4800686C49086008
:106790006C4801686C4806F081FE02906B48016805
:1067A000484606F07BFE019069480168484606F0BD
:1067B00075FE009067480168009806F09DFF8046CE
:1067C000019907F02BF80746029906F095FC06465A
:1067D000514606F091FC604908605A4801684846F5
:1067E00006F05CFE064659480168304606F084FF14
:1067F0005A49086053480168484606F04FFE06466D
:1068000053480168304606F077FF55490860514605
:106810004C48006806F070FC5249086059464E48E2
:10682000006806F069FC064631464B48006806F0F1
:10683000D7FC4D49086059464748006806F05CFCA3
:10684000064631464648006806F0CAFC47490860DB
:106850003A480168204606F0E1FF074642480168D1
:10686000384606F01BFE064634480168304606F0FE
:1068700043FC3149086031480168204606F0CEFFEC
:1068800007463A480168384606F008FE06462C4896
:106890000168304606F030FC26490860324801683D
:1068A0004FF07E5006F0BAFF06462B48016830468E
:1068B00006F0F4FD274908602B4801684FF07E5030
:1068C00006F0ACFF064625480168304606F0E6FDB6
:1068D0001E49086025480168254806F0DFFD074687
:1068E0001D480168384606F0D9FD06461C48016877
:1068F000304606F001FC164908601C4801681C4837
:1069000006F0CCFD074615480168384606F0C6FD7E
:10691000064614480168304606F0EEFB0949086057
:1069200005480068BDE8FE8F0AD7A33C0AD7233C80
:1069300000002041DC000020D8000020D000002012
:10694000D4000020FC00002017B7D139F40000204B
:10695000F8000020F0000020E0000020E40000200B
:10696000E8000020EC0000200001002004010020CD
:10697000000080BF10B50948007838B901200749E8
:10698000087002210648FEF746FD06E00020034994
:10699000087002210248FEF740FD10BD0C010020E6
:1069A0000018014008B50121402002F0F5FD022049
:1069B000ADF8000010208DF8030002208DF80200D1
:1069C00069460448FEF74AFC02210248FEF725FD0D
:1069D00008BD00000018014010B502210148FEF773
:1069E0001CFD10BD0018014010B502210148FEF742
:1069F00012FD10BD00180140F8B569460F2003F0E4
:106A0000D9FE0EE069460F2003F0D4FE9DF8000089
:106A1000692800D106E0002401E0601CC4B2322CD9
:106A2000FBDBEFE700BF0021112004F001FE702125
:106A3000102004F0FDFD0121122004F0F9FD11E009
:106A4000002000906946122003F0B4FE9DF800007B
:106A500000F0010000B906E0002401E0601CC4B2AF
:106A6000322CFBDBECE700BF0021012004F0E0FD4D
:106A700020210B2004F0DCFD00210D2004F0D8FDC6
:106A800000210E2004F0D4FD4321102004F0D0FD9D
:106A90004221112004F0CCFD7421122004F0C8FD25
:106AA0008C21132004F0C4FD0021142004F0C0FD4B
:106AB0000021152004F0BCFD0021162004F0B8FDD3
:106AC000C421172004F0B4FD1021582004F0B0FDBB
:106AD0003821182004F0ACFD3821192004F0A8FD5D
:106AE000002400203C49086037E0002000906946FF
:106AF0001E2003F05FFE9DF8000000F00200022857
:106B00001DD100256946232003F054FE9DF80000A6
:106B100005436946222003F04DFE280205B29DF888
:106B200000000543284606F059FC06462A4801683D
:106B3000304606F0E1FA28490860601CC4B2052C12
:106B40000BDD204606F062FC06463146224800680E
:106B500006F046FB2049086000E0C6E700BF0024BD
:106B600037E00020009069461E2003F023FE9DF8C8
:106B7000000000F0020002281DD1002569462320F4
:106B800003F018FE9DF8000005436946222003F03B
:106B900011FE280205B29DF800000543284606F0C4
:106BA0001DFC06460C480168304606F0A5FA0A4965
:106BB0000860601CC4B21E2C0BDD204606F026FCCB
:106BC000064631460448006806F00AFB02490860A0
:106BD00000E0C6E700BFF8BDCC00002008B50024E7
:106BE00000BFFFF7DFFE24E0601CC4B21148C06C98
:106BF00028B9062C16DD0024FFF7BCFE12E00D4874
:106C0000C06C012802D1FFF7EFFE0BE00948C06C11
:106C1000022805D1022C05DB0024FFF7ABFE01E0C2
:106C2000FFF7DAFEFFF72CFD6A4600210A2001F08B
:106C300089F9D9E79409002070B52A4890F84800EE
:106C400000F0F000402805D1264890F8480000F0F8
:106C50000F0018B124482549086070BD0020214963
:106C600081F8AC01486B4FF07E5106F045FA0446BE
:106C70001C49B1F8420006F0C9FB0546214606F062
:106C8000D9FB08D21749486B4FF07E5106F034FA11
:106C90001449086520E01349886B4FF07E5106F0D7
:106CA000BDFD04460F49B1F8420006F0AFFB0546B2
:106CB000214606F0BFFC08D20A49886B4FF07E518E
:106CC00006F0ACFD0749086506E00649B1F8420048
:106CD00006F09CFB034908650121024880F8AD11CC
:106CE00000BFBAE794090020B566000890000020B4
:106CF00010B51E4890F8480000F0F000102803D0AE
:106D00001B481C49086010BD0020184981F8AC01DF
:106D1000084690F8480018280CD10121134880F843
:106D2000AD110146486B4FF0804106F0E5F90F497F
:106D3000086518E00D4890F8480014280CD101218E
:106D40000A4880F8AD110146886B4FF0804106F08B
:106D500065FD0649086506E00021044880F8AD118C
:106D6000D0F8F011016500BFCDE7000094090020C4
:106D7000B5660008900000202DE9F04F89B08246EA
:106D80000C464FF0000BD9460021504606F052FC4D
:106D90002FD8504606F084F9074605F057FA054605
:106DA00005F064FE8146504606F07AF9CDE900010F
:106DB00005F04CFA05460E46504606F071F90746B6
:106DC0002A46334606F082F8CDE9040199FBF4F037
:106DD00004FB1095284605F078FECDE90201DDE9B7
:106DE000042305F0FBFBCDE9060105F0C5FB834656
:106DF00056E02AF0004B584606F052F9074605F0D7
:106E000025FA054605F032FE814699FBF4F004FBB5
:106E10001099584606F044F9CDE9000105F016FA3C
:106E2000CDE90201584606F03BF90746DDE90223A9
:106E300006F04CF805460E46484605F046FE2A4642
:106E40003346CDE9040105F0C9FB00221346CDE924
:106E5000060105F0CFFD02D14FF0000B20E02046E7
:106E600006F0BCFA06463146584606F0B9F9054622
:106E700006F078FA00F10109504606F011F921F008
:106E80000048074609FB04F005F01FFE3A4643465A
:106E9000CDE9060106F01AF8054605F06DFB8346BC
:106EA000584609B0BDE8F08F08B5002000F03AF868
:106EB00002F0C4FA2BE0164A1649002000F058F8F8
:106EC00000BB134800781449898A884202D01048D0
:106ED0000078B8B90020114908800E48028810498E
:106EE0000B4802F09BF80D490880084600880028EE
:106EF00008DD0748007828B1094A084601880020C3
:106F000000F08EF86A460021012001F01BF8D2E75C
:106F10009845002084000020940900208200002071
:106F20006C44002010B5044614B1012C14D109E0C2
:106F300004F06EF80A480B4908600B480968C1F86C
:106F400060020AE004F064F8084806494860064810
:106F50004968C1F8600200E000BF00BF10BD00003A
:106F60003449002010010020994A0008984B002065
:106F70002DE9F04104460E469046284850F824007A
:106F80000079AB2842D1254850F8240041792348A4
:106F900050F824004079401C204A52F824205071B7
:106FA000062938DB56201D4951F8241008710020AD
:106FB0001A4951F824104871184850F824000088E4
:106FC00030800020154951F8241008803188134A78
:106FD00052F82420901DFCF79DF90746DFB90025E3
:106FE0000EE00E4850F82400801D405D08F80500B2
:106FF000FF210A4850F82400801D4155681C85B2C5
:107000003088A842EDDC0020BDE8F0810020034973
:1070100051F8241048714FF0FF30F5E710010020BF
:107020002DE9F04105460E4690464FF400412648B2
:10703000FEF7F3F9002406E000BF00BF00BF00BF69
:1070400000BF601C84B24CF250308442F4DB002458
:1070500006E000BF00BF00BF00BF00BF601C84B2DD
:107060004CF250308442F4DB002409E018F804109C
:10707000164850F8250000F599700155601C84B23F
:10708000B442F3DB114951F8251001F599703146EE
:10709000FCF740F907460D4850F8250000F59970B7
:1070A00087553A0A094850F8250000F59970711C77
:1070B0004254B21C90B2054A52F82520D2F8601210
:1070C0008847BDE8F0810000000801401001002061
:1070D00010B503F08FFF002411E00221204600F0DC
:1070E00013F90020C4EBC401064A02EB81010876C3
:1070F000C4EBC40102EB81018876601CC4B2012C90
:10710000EBDB10BD1849002008B5002400BF00F0DB
:1071100075F9EFE0784890F8AD0100287ED0764808
:1071200090F8F401C0F34010002877D1724890F82D
:10713000F401C0F300100028F7D16F4890F8F40173
:1071400000F001000028F0D16B4890F8F401C0F382
:1071500040000028E9D16848D0F8F401C0F340703D
:107160000028E2D16448D0F8F401C0F38060002820
:10717000DBD1614890F8AC01012807D15E4908696C
:107180004FF0804106F02CF8044600E000245B48F4
:10719000007820B1012854D002287CD16CE0564AF6
:1071A000D2F8B411106D06F039FB06465248016959
:1071B000304606F03FFA12D202214F4880F8B01153
:1071C0004F4801780078401C4D4A1070C82937DDBF
:1071D00002204A49087000201146087030E04648F5
:1071E0000169484806F05AF90646434AD2F8B411F4
:1071F000106D06F013FB0746314606F01BF914D25A
:1072000001213D4880F8B0113D4801780078401CCC
:107210003B4A1070C82913DD012000E050E03749D7
:1072200008700020114608700AE0FFF751FF0020A7
:10723000324908703249087000212F4880F8B01197
:107240003DE02D4AD2F8B411106D06F0E7FA06467B
:10725000214606F0EFF905D9274890F8F401C0F36C
:10726000800028B1FFF734FF00202449087002E0B5
:10727000002000F0DBF822E01F4A116DD2F8B401C3
:1072800006F0CCFA0646214606F0D4F907D91A488A
:1072900090F8F40100E00CE0C0F3C00028B1FFF763
:1072A00017FF00201549087002E0002000F0E4F804
:1072B00005E0FFF70DFF00201049087000BF08E04F
:1072C000FFF706FF00200D49087000210A4880F8EA
:1072D000B0110020FEF7C6FD074981F8AE0100207D
:1072E000FEF7B6FD044981F8AF016A46002101208E
:1072F00000F028FE0EE70000940900208600002020
:1073000087000020000080BF70B504460D46012DA7
:107310000DD1C4EBC4020D4B03EB82021189C4EB07
:10732000C40203EB82025068FEF777F80CE0C4EB6E
:10733000C402064B03EB82021189C4EBC40203EBC7
:1073400082025068FEF767F870BD000018490020FF
:1073500070B504460D46012D0DD1C4EBC4020E4B91
:1073600003EB8202918AC4EBC40203EB8202106930
:10737000FEF753F80EE0022D0CD1C4EBC402064B0D
:1073800003EB8202918AC4EBC40203EB8202106910
:10739000FEF741F870BD00001849002008B5012132
:1073A000202002F0F9F84FF44040ADF80000102022
:1073B0008DF8030003208DF8020069460D48FDF7A3
:1073C0004DFF4FF400410B48FEF725F809480A49E4
:1073D00048604FF40040088120200860054808619B
:1073E0004FF4804088822020C8600020087688768C
:1073F00008BD0000001401401849002010B5FFF737
:10740000CDFF03F0A7FC10BD08B500BF0CE0FDF7F1
:10741000E1FCFDF78DFDFDF7F9FBFDF7C7FB6A46C3
:107420000021052000F08EFDF1E7000010B50446B4
:10743000012C1CDC0E480078A04207D1C4EBC4002C
:107440000C4901EB8000007E012810D0FFF740FEC0
:107450000120C4EBC401074A02EB8101087604480D
:10746000047001210078FFF773FF03F0B1FD10BD38
:10747000080100201849002010B50446012C1CDC2E
:107480000E480078A04207D1C4EBC4000C4901EBC0
:107490008000007E022810D0FFF71AFE0220C4EB05
:1074A000C401074A02EB81010876044804700221F6
:1074B0000078FFF74DFF03F08BFD10BD08010020A1
:1074C0001849002008B54FF4A06000F065F81D20B1
:1074D0008DF8000000208DF8010001208DF80200D9
:1074E0008DF80300684600F01FF80B208DF80000AF
:1074F00000208DF8010002208DF8020001208DF897
:107500000300684600F010F834208DF800000120D8
:107510008DF8010000208DF8020001208DF8030095
:10752000684600F001F808BD70B5002100230F2265
:10753000C47804B3154C246804F4E064C4F5E06432
:10754000210AC1F10403CA40447804FA03F18478A3
:107550001440214309010E4C0678A155047804F02B
:107560001F050124AC4005786D11AD0005F1E02543
:10757000C5F8004109E0047804F01F050124AC407F
:10758000044D0678761145F8264070BD0CED00E0FC
:1075900000E400E080E100E002490143024A11609A
:1075A000704700000000FA050CED00E07047000095
:1075B00010B50348006810B101480068804710BD4D
:1075C0001000002070B5044600F082F800202B491E
:1075D00008702B4908702B4908702B4908602B490B
:1075E00008602B4908702B4908702B4908702B49FB
:1075F00008602B4908602B4908602B48006858B187
:107600002A48056845B12848066803E0761E002030
:1076100028602D1D002EF9D100202549086025493C
:107620000860254908602549086025490860254902
:107630000860254908602549087000F0BDFE00F08B
:10764000EBFE204600F07CFF208800B170BD204694
:1076500000F094FF208800B1F8E7204600F040FDDC
:10766000208800B1F2E7204601F066FA208800B1D8
:10767000ECE7FFF79BFF00BFE8E7000024000020D5
:107680002C0000203C000020580000205C0000205E
:107690002D0000202E0000202F00002030000020B0
:1076A000340000203800002018DA000814DA00083E
:1076B00004000020080000200C0000201000002022
:1076C00014000020180000201C00002046000020AC
:1076D000064800680649096800EB81000549086012
:1076E0000846006820F007000860704714DA0008B8
:1076F00018DA00086000002010B500242C4800783B
:10770000012800D010BD00BFFAF774FD044600BF89
:107710002848007828B900BF2046FAF76FFD00BF5F
:10772000F0E724480078401E224908700846007897
:10773000002805DD00BF2046FAF760FD00BFE1E745
:107740001D480078002805DD00BF2046FAF756FDE9
:1077500000BFD7E700F01CFE184908700846007803
:1077600000EB4000164951F8200016490860084611
:10777000006815490968884205D100BF2046FAF71C
:107780003DFD00BFBEE70F480068406C401C0D493E
:10779000096848640D480068401C0C490860FAF705
:1077A000C1FD00BF2046FAF729FD00BF00BFA9E7D1
:1077B0002C000020240000203C0000202E0000208F
:1077C000AC0700205C000020580000204000002092
:1077D00010B500241E480078002800DD10BD1D48AB
:1077E0000078002800DDF9E700BFFAF703FD044642
:1077F00000BF00F0CDFD184908700846007800EB86
:107800004000164951F820001549086008460068F4
:1078100014490968884205D100BF2046FAF7EEFCFA
:1078200000BFDBE70E480068406C401C0C4909684B
:1078300048640D480068401C0B490860FAF76DFD6C
:1078400000BF2046FAF7DAFC00BF00BFC6E7000021
:10785000240000203C0000202E000020AC07002067
:107860005C000020580000204000002010B50446B5
:1078700012480078E8B900F08BFD114908700846FD
:107880000078104908700E48007800EB40000E495F
:1078900051F820000D490860084600680C4908604E
:1078A000012006490870FAF727FD43F69920208049
:1078B00002E045F68A60208010BD00002C00002008
:1078C0002E0000202D000020AC0700205C000020CE
:1078D000580000202DE9FF4F85B004469346DDE9AE
:1078E0001985159F139E00200290564800780028A5
:1078F00005DD47F24A10288009B0BDE8F08F1CB9B9
:1079000047F2AD102880F7E7BBF1000F03D147F233
:107910004F102880F0E71EB946F62F602880EBE76D
:1079200049480068874203D246F630602880E3E782
:107930001498B84203D346F631602880DCE71298E9
:10794000202803D346F273202880D5E712981F28F9
:1079500006D13E48844203D046F273202880CBE70C
:10796000204600F017FE0020288008F0010088B1B2
:1079700008F0020070B1B2460020049007E0002039
:10798000CAF800000AF1040A0498401C0490049804
:10799000B842F4D3149806EB80000390CDE9007848
:1079A00032465846039B089900F022FA8246129804
:1079B00084F82300C4F800A018986060A4F824801C
:1079C0004FF0000908E0002104F1380040F82910C8
:1079D00009F1010000F0FF09B9F1000FF3D02046D2
:1079E00000F03AF800BF00BFFAF704FC029000BFB5
:1079F000FBF746FC00BF94F8230000F0E9FC2046AA
:107A000000F052FD12480088401C114908801148BE
:107A10000078012809D000BFFBF74CFC00BF02989A
:107A2000FAF7ECFB00BF00BF66E700BFFBF742FCC4
:107A300000BF0298FAF7E2FB00BF00BFFFF7C8FEE5
:107A400000BF59E72400002044DA00084407002062
:107A5000440000202C00002010B5044603480068B4
:107A600018B1204601490968884710BD040000206C
:107A700070B504460D46002644480078002803DD12
:107A800047F24E10288070BD4148844203D147F22E
:107A90004C102880F7E79CB900BF00BFFAF7AAFB9B
:107AA000064600BFFBF7ECFB00BF3A48046800BF86
:107AB000FBF700FC00BF3046FAF7A0FB00BF00BF99
:107AC00000BF00BFFAF796FB064600BFFBF7D8FBE6
:107AD00000BF94F8220008282DD2DFE800F0040946
