:020000040800F2
:10200000F054002021220008292200082B22000879
:102010002D2200082F2200083122000800000000B5
:102020000000000000000000000000003322000853
:1020300035220008000000002F2300083D80000822
:102040003B2200083B2200083B2200083B220008FC
:102050003B2200083B2200083B2200083B220008EC
:102060003B2200083B2200083B220008954900085B
:102070003B2200083B2200083B2200083B220008CC
:102080003B2200083B2200083B2200083B220008BC
:102090003B2200083B2200083B2200083B220008AC
:1020A0003B2200083B2200083B2200083B2200089C
:1020B0003B22000885AD00083B2200083B220008B7
:1020C0003B2200083B2200083B2200083B2200087C
:1020D0003B2200083B2200083B2200083B2200086C
:1020E0003B2200083B2200083B2200083B2200085C
:1020F0003B2200083B2200083B2200083B2200084C
:102100003B2200083B2200083B2200083B2200083B
:102110003DB100083B2200083B2200083B2200089A
:102120003B2200083B2200083B2200083B2200081B
:1021300000F002F800F04AF80AA090E8000C82448F
:102140008344AAF10107DA4501D100F03FF8AFF26C
:10215000090EBAE80F0013F0010F18BFFB1A43F085
:1021600001031847E0B8000000B900000A4410F865
:10217000014B14F00F0508BF10F8015B240908BFDC
:1021800010F8014B6D1E05D010F8013B6D1E01F8D3
:10219000013BF9D1641E03D0641E01F8015BFBD141
:1021A0009142E4D37047000000230024002500265C
:1021B000103A28BF78C1FBD8520728BF30C148BFAA
:1021C0000B6070471FB51FBD10B510BD00F05EF865
:1021D0001146FFF7F7FF09F061FE00F07CF803B449
:1021E000FFF7F2FF03BC00F07FF8000072B6704703
:1021F00062B67047EFF3108072B6704780F31088B4
:10220000704730BF704720BF7047B0FA80F070470A
:1022100090FAA0F0B0FA80F0704790FAA0F0704702
:102220000948804709480047FEE7FEE7FEE7FEE76A
:10223000FEE7FEE7FEE7FEE7FEE7FEE704480549A6
:10224000054A064B70470000B5AC00083121000874
:10225000F04E0020F0540020F0500020F0500020FC
:1022600070477047704710B500F008F8006810BD5F
:1022700010B5044600F002F8046010BD0048704735
:10228000904E002000487047904E00207546FFF7A2
:10229000F9FFAE4605006946534620F00700854623
:1022A00018B020B5FFF7CAFFBDE820404FF0000688
:1022B0004FF000074FF000084FF0000B21F007012E
:1022C000AC46ACE8C009ACE8C009ACE8C009ACE871
:1022D000C0098D46704710B50446AFF30080204614
:1022E000BDE81040FFF77BBF01491820ABBEFEE7F9
:1022F00026000200704700001D484FF0FF010170EA
:10230000002080F309881B48016881F308881A4877
:102310004FF08051016062B6FEE717484FF08051E0
:102320000160704714484FF080510160704772B6E9
:10233000EFF3098028B1203880E8F00F0F490968D1
:10234000086000B50E4880475DF804EB0D480E4963
:102350000A78027009480D490A680260106890E81E
:10236000F00F203080F309884EF0F40E62B670470B
:1023700022ED00E06000002004ED00E058000020A5
:10238000BD7E00082D0000202E0000205C000020F3
:1023900010B502210F4800F0F5F800210E4802F0B8
:1023A00099FB32200C490839C86001210A4802F023
:1023B00091FB0121074800F0F3F806480830006857
:1023C00040F002000349083108600121014800F093
:1023D00086F910BD002401400800024000B591B00C
:1023E0000121480207F0DCF80121082007F0D8F8A5
:1023F0000121102007F0D4F84FF4004007F0A4F8B2
:102400000120ADF8400000208DF8430010A9584885
:1024100002F01CFF0220ADF8400000208DF84300C0
:1024200010A9534802F012FF0120ADF8400000202F
:102430008DF8430010A94F4802F008FF0820ADF8BE
:10244000400000208DF8430010A94A4802F0FEFE2B
:102450000420ADF8400000208DF8430010A9454845
:1024600002F0F4FE0121084607F07AF84248009095
:1024700042480190002002903220039000200490F6
:102480008020059040000690800007900020089072
:102490004FF40050099000200A906946384802F035
:1024A00044FB0121364802F015FB01220221344889
:1024B00002F032FB00200B9001208DF830008DF8E7
:1024C00031004FF460200D9000200E9005208DF813
:1024D0003C000BA928484C3800F078F8072301226B
:1024E000082125484C3800F099F8072302220921D9
:1024F00021484C3800F092F8072303220A211E4895
:102500004C3800F08BF8072304220C211A484C3871
:1025100000F084F8072305220D2117484C3800F0FD
:102520007DF8012114484C3800F03AF80121124896
:102530004C3800F02AF810484C3800F0CBF800BFB7
:102540000D484C3800F037F80028F9D10A484C38CB
:1025500000F0D0F800BF08484C3800F02CF80028F4
:10256000F9D1012104484C3800F0B9F811B000BD90
:10257000000C0140001001404C240140004E00209E
:1025800008000240CA430260704721B1826842F0ED
:102590000102826003E0826822F0010282607047DB
:1025A00021B1826842F48072826003E0826822F482
:1025B000807282607047014600208A6802F004023F
:1025C0000AB1012000E000207047000030B502464B
:1025D0000020002350680F4C20400D790C6844EA1D
:1025E00005242043506090680B4C2040D1E90254F0
:1025F0002C434D7944EA450420439060D06A20F48E
:1026000070000C7C641EE4B2234340EA0350D062A5
:1026100030BD0000FFFEF0FFFDF7F1FFF0B504460E
:102620000D4600200021092D11DDE068A5F10A0604
:1026300006EB4607072606FA07F18843A5F10A06C6
:1026400006EB460603FA06F10843E0600CE0206959
:1026500005EB4507072606FA07F1884305EB450613
:1026600003FA06F108432061072A0FDA606B561E51
:1026700006EB86071F2606FA07F18843561E06EB6F
:10268000860605FA06F10843606322E00D2A0FDA98
:10269000206BD61F06EB86071F2606FA07F1884334
:1026A000D61F06EB860605FA06F10843206310E004
:1026B000E06AA2F10D0606EB86071F2606FA07F16F
:1026C0008843A2F10D0606EB860605FA06F10843DB
:1026D000E062F0BD816841F008018160704721B17E
:1026E000826842F4A002826003E0826822F4A002C1
:1026F00082607047816841F004018160704700008A
:1027000051485249086052484860524888605248CF
:10271000C86052480861524848615248886152482E
:10272000C86152480862524848625248886252481A
:10273000C862524808635248486352488863524806
:10274000C8655248086652484866524888665248EA
:10275000C866524808675248C1F884005148C1F819
:1027600088005148C1F898005048C1F89C00504872
:10277000C1F8A0004F48C1F8AC004F48C1F8B00004
:102780004E48C1F8B4004E48C1F8B8004D48C1F8F1
:10279000BC004D48C1F8C0004C48C1F8C4004C48CA
:1027A000C1F8C8004B48C1F8CC004B48C1F8D00074
:1027B0004A48C1F8DC004A48C1F8E0004948C1F87D
:1027C000E4004948C1F8E8004848C1F8EC0048482E
:1027D000C1F844014748C1F848014748C1F85001D1
:1027E0004648C1F864014648C1F868014548C1F847
:1027F0006C014548C1F870014448C1F8740144486F
:10280000C1F878014348C1F88C014348C1F89001F0
:102810004248C1F894014248C1F898014148C1F8C2
:102820009C014148C1F8A0014048C1F8A4014048BA
:10283000C1F8A8013F48C1F8BC013F48C1F8C00138
:102840003E48C1F8C401704795960008C84600206C
:1028500079A5000899A50008FDA600081DA7000895
:10286000B9960008459A0008D9960008E99600082C
:1028700069940008799400080999000819990008DA
:10288000A1970008B197000851A3000879A2000899
:1028900059A10008B9A1000819A20008D9A200088E
:1028A0009DA00008B1990008499700089D9900086B
:1028B000F996000821A000083DA00008419D0008ED
:1028C0005D9D0008559C0008719C0008B1A300089C
:1028D000CDA30008859B0008A19B00082197000854
:1028E00009950008B994000821950008899400080A
:1028F000B59A0008F19F0008799A0008AD9E00087B
:10290000C99E0008419F00085D9F0008DDA00008E7
:10291000F9A0000875A4000841A40008619E000801
:102920002D9E0008ED9A0008099B0008A5A4000848
:10293000C1A40008E19900081D9C00083DA50008FD
:1029400070B50024304890F8480000F0F00080286E
:1029500005D12D4890F8480000F00F0030B100205C
:102960002A4908802A482B49086070BD0020264962
:1029700081F8AC010021244880F8AD11234800887B
:10298000401C2249088008460088B0F5967F00DA8E
:10299000EBE700201D4908801B4890F8F401C0F3C4
:1029A000401058BB184890F8F401C0F3001028BB41
:1029B0001548D0F8B41118480AF004FF054612482B
:1029C000016828460AF06CFB0446144920460AF0C8
:1029D00005FD07D2124920460AF000FE02D20A483D
:1029E000046002E00020084908600748D0F8F801B8
:1029F00020F00100401C0449C1F8F8010021024800
:102A0000816400BFB1E7000098090020A400002005
:102A10003D660008940000200000B4420000204100
:102A2000000020C11CB5002400BF00F027F821E001
:102A30006946002002F0F0FC48B90F480168009890
:102A40000AF02EFB0C49C1F8B40100240DE0142C4F
:102A500002DA601C84B208E00748D0F8F40120F0E4
:102A6000100010300449C1F8F40101AA002102202D
:102A700005F06CFADCE700009809002008B507F0C3
:102A8000CFFE03F07DFF6946182007F073FE9DF826
:102A90000000382801D1002008BD4FF0FF30FBE7CF
:102AA00008B500BF0BE000F0B5FC02F00BFD0449D7
:102AB000C1F8F0016A4600211E2005F047FAF2E74E
:102AC0009809002010B5204890F84800282803D025
:102AD0001E481F49086010BD00201B4981F8AC0149
:102AE000486B4FF07E510AF0DBFA04461648416D00
:102AF00020460AF073FD08D21349486B4FF07E510F
:102B00000AF0CEFA1049086518E00F49886B4FF0BB
:102B10007E510AF057FE04460B48416D20460AF0EC
:102B20005DFC08D20849886B4FF07E510AF04AFEDE
:102B30000549086502E00448416D0165012102482C
:102B400080F8AD1100BFC6E798090020F92B0008F6
:102B50009800002010B50C4890F84800252803D0B4
:102B60000A480B49086010BD0020074981F8AC01F4
:102B7000888F0AF01FFC044908650121024880F88B
:102B8000AD1100BFEFE7000098090020F92B000805
:102B90009800002010B5144890F8480000F0F000AC
:102BA000202818D11048D0F8F401C0F3807068B91B
:102BB0000D48D0F8F401C0F3006038B908F002FC09
:102BC00000F082FA0948006880470BE000210648BF
:102BD00080F8AD1106E00648064908600021024869
:102BE00080F8AD1110BD0000980900209800002069
:102BF0003D6600089400002000211F4880F8AD11B8
:102C000090F84800242803D11C481D49086032E090
:102C1000194890F84800252803D11A481849086037
:102C200029E0154890F84800282806D1164814498C
:102C300008600021104881651DE00F4890F84800A9
:102C4000212803D111480E49086014E00A4890F881
:102C50004800222803D10E48094908600BE00648C5
:102C600090F84800202803D10A480549086002E08E
:102C700009480A490860704798090020C52F0008D4
:102C800098000020552B0008C52A0008A12C000838
:102C9000B92E00082D2F00083D6600089400002082
:102CA00010B57C4890F84800212808D000207A49C7
:102CB00008707A4908807A487A49086010BD002077
:102CC000744981F8AC017448007805287ED2DFE8A9
:102CD00000F0032D6581B80073496E48016501213C
:102CE00080F8AD11014608696F490AF0D9F9044628
:102CF0006848D0F8B41120460AF070FC15D8654831
:102D0000016969480AF05EFD04466248D0F8B411D2
:102D100020460AF063FB08D80120644908705E4928
:102D2000087000215B4880F8AD11B0E001215948DE
:102D300080F8AD115D49097801EB8101490001F18D
:102D40003C000AF01FFB53490865086D58490AF01A
:102D500045FC0AD801205549087003204E490870E7
:102D600000214C4880F8AD1117E04A49086D4FF03A
:102D70007E510AF027FD04464648D0F8B41120469B
:102D80000AF02CFB09D20220434908700020434975
:102D9000088000213F4880F8AD1178E000213D48CF
:102DA00080F8AD113D4801880088401C3B4A1080E6
:102DB00042F6E06081420CDB0020114608800120D1
:102DC0003549087039480078401C00E053E0374925
:102DD00008705CE001212F4880F8AD113349097873
:102DE00001EB81014900C1F178000AF0CBFA2949D1
:102DF0000865086D2F490AF0F1FA09D801202B491E
:102E00000870254908700021224880F8AD1117E0AC
:102E10002049086D4FF07E510AF042F904461D48E2
:102E2000D0F8B41120460AF0D9FB09D804201A4979
:102E300008700020194908800021164880F8AD115B
:102E400025E00021134880F8AD111448018800885E
:102E5000401C124A108042F6E06081420ADB0020EA
:102E60001146088003200C49087010480078401C67
:102E70000E4908700BE000200749087007490880D8
:102E80000A4908700021034880F8AD1100BF00BF57
:102E900000BF13E798090020A6000020A80000202A
:102EA000F92B00089800002000007042AA000020C2
:102EB0000000F4420000684210B5174890F848003E
:102EC000222803D015481649086010BD0020124979
:102ED00081F8AC01D1F8B40112490AF073FC044640
:102EE00011490AF07BFB08D20B49886B4FF08041F7
:102EF0000AF068FC0849086507E00749486B4FF08D
:102F000080410AF0CDF8044908650121024880F8A3
:102F1000AD1100BFD9E7000098090020F92B000887
:102F2000980000200000B442CDCCCC3D10B5224822
:102F300090F84800202803D020482149086010BD9F
:102F400001201D4981F8AC01886B4FF07E510AF0D9
:102F500039FC04461848D0F8F01120460AF03EFA31
:102F600008D81549886B4FF07E510AF02BFC1249A6
:102F700008651AE01049486B4FF07E510AF090F84E
:102F800004460D48D0F8F01120460AF027FB08D877
:102F90000949486B4FF07E510AF082F806490865EE
:102FA00003E00548D0F8F01101650121024880F8DE
:102FB000AD1100BFC3E7000098090020F92B0008FD
:102FC0009800002010B50C4890F84800242803D041
:102FD0000A480B49086010BD0020074981F8AC0180
:102FE000888F0AF0E7F9044908650121024880F852
:102FF000AD1100BFEFE7000098090020F92B000891
:103000009800002010B501214FF0C05006F0B8FA2A
:10301000012005F019FE002000F042F8002000F029
:103020002BF800F01FF8002005F00EFE10BD10B5C3
:10303000042000F027F84AF6AA21884201D1002096
:1030400010BD4FF0FF30FBE710B5012005F0FCFD8F
:103050004AF6AA21042000F029F8002005F0F4FD2A
:1030600010BD00000348008840F0010001490880BD
:1030700070470000346C0040014908607047000050
:1030800088860D4208B50146002000900348009054
:103090000098084400900098008808BD006C00402B
:1030A000014908607047000000860D4208B5002203
:1030B0000092044A0092009A02440092009A116021
:1030C00008BD0000006C00400E4890F8480024281D
:1030D00017D00C4890F84800252809D10948D0F8A5
:1030E000F401C0F3007060B920210648816408E053
:1030F0000448D0F8F401C0F3007010B12521014854
:10310000816470479809002070B5044600250C4979
:1031100020460AF097F906460A490AF053FB05468D
:103120004FF07E5128460AF059FA01D84FF07E55EB
:10313000054928460AF052F900D8034D284670BDCB
:10314000F7E4213E666666400AD7233C70B500244A
:10315000002503F077F8184818490861001588829F
:103160000820C86014484860C0140881082008601E
:10317000084603F0DEF800F02DF802F091FD054658
:103180004DB90F480F4908600F4848600F488860E4
:103190000F48C86009E00A480A4908600A484860C0
:1031A0000A4888600A48C86000BF00BF01F026FBDB
:1031B0000446204670BD0000000C01400449002078
:1031C00033335340F4480020333383401283C03EEE
:1031D0000931000808B50121202006F0E1F940205E
:1031E000ADF8000004208DF8030002208DF80200E5
:1031F0006946054802F02AF88020ADF800006946CB
:10320000014802F023F808BD0014014001460846B9
:10321000044A1268904203D9024A1268801A00E0F8
:10322000002070477400002070B5002500BFFEF735
:10323000E1FF054600BF0648046800BF2846FEF7C8
:10324000DDFF00BF2046FFF7E1FF0646304670BDB8
:103250007800002070B50025FFF7E6FF044600BFA8
:10326000FEF7C8FF054600BF00200449086000BF04
:103270002846FEF7C3FF00BF204670BD780000203F
:1032800000B509480088401C0749088007480088A5
:1032900018B900F039F80649086004480088401C55
:1032A0000249088000BD0000680000206A0000207C
:1032B0006C00002000B50F480088401E0D4A1080A9
:1032C00010460088A0B900F01FF80B4A10601046A5
:1032D00000680A4A1268811A09480068884201D2C7
:1032E0000748016007480068884201D2054801602C
:1032F00000BD00006A000020700000206C0000206B
:10330000780000207C0000200148406870470000E1
:10331000001000E030B502460B46002100244FF6B5
:10332000FF7000BF12E0555C684000240AE000F026
:10333000010525B140104AF20105684000E0401047
:10334000651CECB2082CF2DB4D1CA9B29942EADBF9
:1033500030BD00002DE9F74F82B08946144648463B
:1033600009F072FE0746224A224B09F0E9FB0546A6
:1033700009F0D6F88146204920460AF063F88246D3
:1033800009F062FE07461A4A1A4B09F0D9FB0546B6
:1033900009F0C6F804461948016802980AF012FAC2
:1033A000824609F051FE0746154A164B09F0C8FB44
:1033B000054609F0B5F802902146484608F082FB20
:1033C000009009F041FE05460F4A104B09F0B8FB8A
:1033D000074600220E4B09F0D5F8824609F0A0F806
:1033E0000190DDE9011003F073F905B0BDE8F08F3D
:1033F000D5CC5A0A48FB0F3F000080BFD000002008
:10340000EC51B81E85EB713FD3DEE00B93A94C4025
:103410000080564000B5C3B0002042900021419189
:1034200040913F913E913D913C913B913A91399130
:103430003891379136913591349133913291319160
:1034400030912F912E912D912C912B912A91299190
:1034500028912791269125912491239122912191C0
:1034600020911F911E911D911C911B911A91FE4854
:10347000B0F860103E91B0F862103D91B0F8641061
:103480003C91DDE93C213E9802F044FC409040F242
:103490006C71419129E04FF4C871419890FBF1F2B1
:1034A00001FB120010B94FF4B77118E04198C21730
:1034B000199000EB927082101998A0EB820060B90D
:1034C0006421419890FBF1F201FB120010B14FF41E
:1034D000B77104E040F26D1101E040F26D113F98C8
:1034E00001443F914198401C41903E994198884247
:1034F000D1DBDDE93F1001443F91DB484168389161
:1035000081683791C1683691B0F866103B91B0F888
:1035100068103A91B0F86A103991399809F032FF81
:1035200035903A9809F0A5FACDE91601359809F0D9
:103530008BFD0022CD4BCDE9120109F0D7F8CDE982
:103540001401DDE9162309F01DF8CDE9180108F092
:10355000E7FF35903B9809F08CFACDE914013598D6
:1035600009F072FD0022C14BCDE9100109F0BEF84F
:10357000CDE91201DDE9142309F004F80022BC4B67
:10358000CDE9160109F0B2F8CDE9180108F0C8FF3D
:1035900035903F98401C09F0F5FE3490B5493698B7
:1035A00009F0F2FD0F9009F04FFDCDE912013598B9
:1035B00009F04AFD4FF08042AF4BCDE90E0108F013
:1035C000E1FFCDE91001DDE9122309F053FCCDE95B
:1035D0001601349809F038FDCDE91401DDE9162310
:1035E00008F0D0FFCDE9180108F09AFF3490A34904
:1035F00034980AF0E7F8A249199009F0C5FD339014
:10360000339809F021FD9F4A9F4BCDE90E0109F047
:1036100097FA9E4A9E4BCDE9100108F0B3FFCDE921
:103620001401339809F010FDCDE91201DDE91423EE
:1036300009F086FA974A984BCDE9160108F0A2FFE7
:10364000CDE9180108F06CFF32904FF4B471329854
:1036500003F06AFB3290339809F0F6FC8F4A904BE6
:10366000CDE90E0109F06CFA8E4A894B373BCDE962
:10367000100109F0F3FBCDE91401339809F0E4FCE3
:10368000CDE91201DDE9142309F05AFA864A874B85
:10369000CDE9160108F076FFCDE9180108F040FFEA
:1036A0003190339809F0D0FC814A824BCDE90E016C
:1036B00009F046FA804A814BCDE9100108F062FF1B
:1036C000CDE91401339809F0BFFCCDE91201DDE921
:1036D000142309F035FA7A4A7A4BCDE9160109F03C
:1036E000BDFBCDE9180108F01BFF309076483199F9
:1036F00009F0A8FE75490A9009F046FD0B9009F003
:10370000A3FC734A734BCDE90C0109F019FACDE91A
:103710000E0108F005FF109008F06EFD119009F001
:1037200093FC6D4A6D4BCDE9120109F009FACDE920
:103730001601339809F088FC694A6A4BCDE9080103
:1037400009F0FEF9684A694BCDE90A0109F086FBE8
:10375000CDE90E014FF08040319909F073FE5B49CD
:10376000049009F011FD059009F06EFC584A594B80
:10377000CDE9060109F0E4F9CDE9080108F0D0FE31
:103780000A9008F039FD0B9009F05EFCCDE90C01C0
:10379000DDE90E2309F0D4F9CDE91201339809F0DF
:1037A00053FC534A534BCDE9020109F0C9F9524A7F
:1037B000524BCDE9040108F0E5FECDE9080133984C
:1037C00009F042FCCDE90601DDE9082309F0B8F96A
:1037D0004B4A4C4BCDE90A0109F040FBCDE90E0103
:1037E0003A49319809F0D0FC059009F02DFC384A8F
:1037F000384BCDE9060109F0A3F9CDE9080108F03D
:103800008FFE0A9008F0F8FC0B9009F01DFCCDE942
:103810000C01DDE90E2309F093F9CDE91001DDE992
:10382000122308F0AFFECDE91401DDE9162308F0FC
:10383000A9FECDE9180108F073FE2F902F99329858
:1038400009F02EFC2E90339809F0FEFB2E4A2F4BE8
:10385000CDE9140109F074F92D4A2E4BCDE916017A
:1038600009F0FCFA58E000009809002000004E40E2
:10387000000038400000C041D56C424164A1154AA7
:1038800000AD0E47C0AB8A15DADE333F2F8672A239
:103890001894E14046CEC29E768771400CDB60F200
:1038A0005025243F2AC6F99BC91F0C3C7758764007
:1038B00000D864FC6001813E03E35F521C0A063FAE
:1038C00080035D72111C913F0000404000003443B2
:1038D0004AD8124DFB2109402C616D8C9DF0323F7E
:1038E000E31A9FC9FE791A3F958098840B79943F1B
:1038F000B75F3E59315CED3EAEF36F97FDBA733F53
:10390000F6B2EDB435A2FE3F068195438B389E405A
:10391000C3F5285C8F425F40CDE9180108F000FE36
:103920004290FE49429809F02FFC0B9009F08CFB65
:10393000FB4AFC4BCDE90C0109F002F9CDE90E017F
:1039400008F0EEFD109008F057FC119009F07CFB98
:10395000F54AF64BCDE9120109F0F2F8CDE916016E
:103960002E9809F071FBF24AF24BCDE9120109F0F1
:1039700081FACDE91401DDE9162309F07BFACDE9DE
:10398000180108F0CDFD2D90339809F05DFBEA4A4F
:10399000EA4BCDE9000109F0D3F8E94AE94BCDE95A
:1039A000020109F05BFACDE90601339809F04CFBFE
:1039B000CDE90401DDE9062309F0C2F8E24AE34B50
:1039C000CDE9080108F0DEFDCDE90C01339809F0DE
:1039D0003BFBCDE90A01DDE90C2309F0B1F8DC4A33
:1039E000DC4BCDE90E0109F039FA0022DA4BCDE9C2
:1039F000100108F07BFE0022D84BCDE9120108F03F
:103A0000C1FD0022D44BCDE9140108F06FFE002265
:103A1000D34BCDE9160108F0B5FDCDE9180108F04A
:103A20007FFD2C90BD49429809F0AEFB0B9009F048
:103A30000BFBBB4ABB4BCDE90C0109F081F8CDE98A
:103A40000E0108F06DFD109008F06AF9119009F070
:103A5000FBFAC44AC44BCDE9120109F071F8CDE973
:103A600016012C9809F0F0FACDE91401DDE91623CE
:103A700008F088FDCDE9180108F052FD2B90A74908
:103A80002D9809F081FB099009F0DEFAA44AA54BB4
:103A9000CDE90A0109F054F8CDE90C0108F040FD28
:103AA0000F9008F0A9FB9D4911902B9809F06CFB31
:103AB000099009F0C9FA9A4A9A4BCDE90A0109F02E
:103AC0003FF8CDE90C0108F02BFD0F9008F094FBB6
:103AD0001090119909F0B6FC129007F061FF139055
:103AE00009F0B2FA8E4A8F4BCDE9140108F0FEFDC1
:103AF00000229E4BCDE9160109F022F8CDE918010C
:103B000008F00EFD2A904FF080412B9809F03CFB05
:103B10008249109009F038FB119009F095FA804A1B
:103B2000804BCDE9120109F00BF8CDE9140108F042
:103B3000F7FC179008F03AFC4FF0804119902B9851
:103B400009F022FB7549109009F01EFB119009F055
:103B50007BFA734A734BCDE9120108F0F1FFCDE90E
:103B6000140108F0DDFC179008F020FC189019995A
:103B700009F068FC29906949319809F005FB079024
:103B800009F062FA664A674BCDE9080108F0D8FFF0
:103B900000224FF08043CDE90A0108F0D1FFCDE9C2
:103BA0000C0108F0BDFC0E9008F026FB0F9009F008
:103BB0004BFACDE91201309809F046FACDE90E0131
:103BC000309809F041FA0022694BCDE90A0108F06A
:103BD000B7FFCDE90C01DDE90E2308F0B1FFCDE917
:103BE0001001DDE9122308F0ABFFCDE916014B49C6
:103BF000329809F0C9FA039009F026FA484A494B6D
:103C0000CDE9040108F09CFF00225A4BCDE90601E2
:103C100008F096FFCDE9080108F082FC0A9008F050
:103C2000EBFA0B9009F010FACDE90E01299809F092
:103C30000BFACDE90A01299809F006FA00224E4B49
:103C4000CDE9060108F07CFFCDE90801DDE90A2392
:103C500008F076FFCDE90C01DDE90E2308F070FFD6
:103C6000CDE912012D49329809F08EFA039009F03E
:103C7000EBF92B4A2B4BCDE9040108F061FF002240
:103C80004FF08043CDE9060108F05AFFCDE9080165
:103C900008F046FC0A9008F043F820490C9031984F
:103CA00009F072FA039009F0CFF91D4A1D4BCDE9D6
:103CB000040108F045FFCDE9060108F031FC089049
:103CC00008F09AFA0A904FF08140309909F0BAFB57
:103CD0000890299909F0B6FB09900A9909F0B2FBFE
:103CE0000B900C9909F0AEFB0C490E90319809F03D
:103CF0004BFA039009F0A8F9094A0A4BCDE90401EF
:103D000008F01EFFCDE9060108F00AFC089008F053
:103D100073FA0A904FF0804030992FE0000034434E
:103D20004AD8124DFB210940F94ECC7A3194733FA9
:103D30001FBAA0BE654E773FD61A4AED45B45D3F27
:103D4000BEA4315A4755433FB81E85EB51684740E2
:103D5000A69BC420B072354000004E4000003A409F
:103D600000003740F168E388B5F8643F00806640A2
:103D70000000F43F000010400000E03F09F062FB4B
:103D800009900A9909F05EFBFE490C90329809F0FF
:103D9000FBF9019009F058F9FB4AFC4BCDE902010F
:103DA00008F0CEFE00224FF08043CDE9040108F078
:103DB000C7FECDE9060108F0B3FB099008F01CFA34
:103DC0000A90299909F03EFB0B900C9909F0FAFC36
:103DD0000D900E9909F064F90F9009F035F9CDE9CD
:103DE0001001DDE9122309F045F8CDE91401DDE900
:103DF000162309F03FF8CDE9180108F091FB429035
:103E0000429809F021F9E04AE04BCDE9120108F0AF
:103E10006DFC0022DE4BCDE9140108F091FE00227A
:103E2000DC4BCDE9160108F08BFECDE9180108F056
:103E300077FB2890D3492A9809F0A6F9079009F052
:103E400003F9D14AD14BCDE9080108F079FECDE95B
:103E50000A0108F065FB0D9008F0A8FAC9490F9017
:103E6000379809F091F9079009F0EEF8C64AC74B68
:103E7000CDE9080108F064FECDE90A0108F050FB25
:103E80000D9008F093FA0E900F9909F0DBFABD49F6
:103E900011902A9809F078F9059009F0D5F8BA4AF6
:103EA000BA4BCDE9060108F04BFECDE9080108F058
:103EB00037FB0B9007F034FFB2490D90379809F0AB
:103EC00063F9059009F0C0F8AF4AB04BCDE906019F
:103ED00008F036FECDE9080108F022FB0B9007F050
:103EE0001FFF0C900D9909F0ADFA0F90AA4807F04A
:103EF00017FF0E900F9909F047F91090119909F0EA
:103F000061FC129007F0BEFC139009F09DF89E4AE8
:103F10009E4BCDE9140108F0E9FB00229C4BCDE952
:103F2000160108F00DFECDE9180108F0F9FA279006
:103F30009A49369809F086FA18904FF081403899DE
:103F400009F080FA9649159009F0AAFB1690289975
:103F500009F038FC1790189909F0A2F891491990C6
:103F600009F012F926904FF08141279809F06AFA7A
:103F70008C49189009F008F91990269909F090FBDE
:103F800025904FF08141279809F05CFA85491890F7
:103F900009F0FAF81990269909F082F824907F48E0
:103FA000369909F04FFA19904FF08140389909F08D
:103FB00049FA7C491790359809F044FA15902899E8
:103FC00009F06EF81690179909F06AF81890199987
:103FD00009F0F8FB23904FF4B461239802F0A4FE9B
:103FE00023900021239809F0F9F909D24FF081417B
:103FF000239809F0C9F86349199009F0E3FB08E038
:104000004FF08141239809F0BFF85E49199009F0FB
:10401000D9FB22905B49229809F0B6F8079009F085
:1040200013F8594A594BCDE9080108F089FDCDE94B
:104030000A0108F075FA0D9007F072FE51490F90D1
:104040002A9809F0A1F8059008F0FEFF4E4A4F4B60
:10405000CDE9060108F074FDCDE9080108F060FA29
:104060000B9007F05DFE47490D90379809F08CF8EA
:10407000059008F0E9FF444A444BCDE9060108F0F9
:104080005FFDCDE9080108F04BFA0B9007F048FE00
:104090000C900D9909F0D6F90E900F9909F0D2F90C
:1040A000384911902A9809F06FF8079008F0CCFF72
:1040B000354A364BCDE9080108F042FDCDE90A0149
:1040C00008F02EFA0D9008F097F82E490F903798C7
:1040D00009F05AF8079008F0B7FF2B4A2B4BCDE9AF
:1040E000080108F02DFDCDE90A0108F019FA0D903C
:1040F00008F082F80E900F9909F0A4F91090119928
:1041000008F0CEFF129007F0BDFB139008F09CFF63
:104110001D4A1E4BCDE9140108F0E8FA00221C4BA1
:10412000CDE9160108F00CFDCDE9180108F0F8F909
:1041300021901D48219909F045FB209011492098B4
:1041400009F022F8139008F07FFF0F4A0F4BCDE9DA
:10415000140108F0F5FCCDE9160108F0E1F9199019
:1041600008F024F91F901F99084609F06BF919907F
:104170001F9909F067F91E90DDE91E0109F062F947
:10418000199013E0000034434AD8124DFB21094036
:10419000008066400000104041ECCA3F00007042C1
:1041A000000034440000B4440000B4421F9909F0F8
:1041B00049F91D90FE49209809F010FA02D200201A
:1041C0000146B8E0FB49209809F008FA45D21D984D
:1041D00008F03AFF02460B46CDE91001F648F749D0
:1041E00008F084FACDE914011E9808F02DFF02466C
:1041F0000B46CDE90C01F248F24908F077FACDE917
:104200001001F149209808F0BFFF059008F01CFF4D
:10421000EE4AEF4BCDE9060108F092FCCDE908012A
:1042200008F07EF90A9008F0C1F80B9008F00CFF36
:1042300002460B46CDE90C01E648E74908F056FA7C
:10424000CDE90E01DDE9102308F014FECDE91201DD
:10425000DDE9142308F096F96DE0209808F0F4FEEB
:104260004FF06632DD4BCDE9140108F067FD43D213
:10427000209808F0E9FEDA4ADA4BCDE9000108F0AF
:104280005FFCCF4A5242D84BCDE9020108F07AF9DF
:10429000CDE90601209808F0D7FECDE90401DDE95B
:1042A000062308F04DFCD14AD14BCDE9080108F0B6
:1042B00069F9CDE90C01209808F0C6FECDE90A01A4
:1042C000DDE90C2308F03CFCC84ACA4BCDE90E01DD
:1042D00008F058F9CDE91201209808F0B5FECDE9B3
:1042E0001001DDE9122308F02BFC0022C24BCDE9BE
:1042F000140108F047F91EE0B349209808F044FF84
:104300000D9008F0A1FEB14AB14BCDE90E0108F0C5
:1043100017FCCDE9100108F003F9129008F046F8F7
:10432000139008F091FE02460B46CDE91401B34804
:10433000B34908F0DBF90022B24BCDE9160108F0D1
:10434000D5F9CDE9180108F0EBF81C901C992098DC
:1043500008F0A6FE1B900021229809F03FF97CD2BC
:104360009949219808F010FF039008F06DFE974AD4
:10437000974BCDE9040108F0E3FBCDE9060108F015
:10438000CFF8099007F038FF8F490B90379808F065
:10439000FBFE039008F058FE8C4A8D4BCDE90401DA
:1043A00008F0CEFBCDE9060108F0BAF8099007F055
:1043B000B7FC0A900B9909F045F883490D902A98AB
:1043C00008F0E2FE039008F03FFE804A804BCDE902
:1043D000040108F0B5FBCDE9060108F0A1F8099049
:1043E00007F00AFF78490B90219808F0CDFE019064
:1043F00008F02AFE754A764BCDE9020108F0A0FBD1
:10440000CDE9040108F08CF8079007F089FC6E49AB
:104410000990379808F0B8FE019008F015FE6B4A35
:104420006B4BCDE9020108F08BFBCDE9040108F0EC
:1044300077F8079007F0E0FE0890099909F002F874
:104440000A900B9909F0BEF90C900D9908F09CFEAA
:104450000E9007F017FA0F9000E01DE008F0F4FD51
:104460005A4A5B4BCDE9100108F040F90022664B37
:10447000CDE9120108F064FB0022634BCDE9140181
:1044800008F080F8CDE9160108F04AF84FF4B4714D
:10449000199002F049FCC7E04B49219808F074FEDE
:1044A000039008F0D1FD494A494BCDE9040108F0D9
:1044B00047FBCDE9060108F033F8099007F09CFEB0
:1044C00041490B90379808F05FFE039008F0BCFD5F
:1044D0003E4A3F4BCDE9040108F032FBCDE906012D
:1044E00008F01EF8099007F01BFC0A900B9908F0E1
:1044F000A9FF35490D902A9808F046FE039008F070
:10450000A3FD324A324BCDE9040108F019FBCDE995
:10451000060108F005F8099007F06EFE2A490B9095
:10452000219808F031FE019008F08EFD274A284BB3
:10453000CDE9020108F004FBCDE9040107F0F0FF2A
:10454000079007F0EDFB20490990379808F01CFE12
:10455000019008F079FD1D4A1D4BCDE9020108F0DC
:10456000EFFACDE9040107F0DBFF079007F044FE06
:104570000890099908F066FF0A900B9909F022F952
:104580000C900D9908F000FE0E9007F07BF90F904B
:1045900008F05AFD0D4A0E4BCDE9100108F0A6F8BF
:1045A0000022194BCDE9120108F0CAFA00222DE0D1
:1045B0000000AA420000A0403677F4BF5C8B163F93
:1045C000EC51B81E85EBB13F000034434AD8124D80
:1045D000FB210940CDCCCCCCCC0C4D406666E2BF73
:1045E0008D976E1283C0E63F7A9429C09A99999963
:1045F00099D95940993180C0001C9B401283C0CA90
:10460000A1C534C00020AC4000806640214BCDE9FC
:10461000140108F023FCCDE9160107F081FF4FF4E7
:10462000B471199002F080FB1A901B49259808F08C
:1046300009FF1A49C1F8E0011749249808F002FF60
:104640001649C1F8E4011A98C1F8EC011B9808F06A
:10465000FBFC0022124BCDE9180108F06FFB04D8D7
:1046600010490E48C0F8E81112E01B9808F0ECFC65
:1046700000220D4BCDE9180108F026FA04D20B49AF
:104680000648C0F8E81103E004491B98C1F8E801A6
:1046900043B000BD00E080400000C0419809002008
:1046A000004056400000B242004056C00000B2C276
:1046B00010B50446012C0DD04448007800F00100EC
:1046C00008B900F013F9002001F0AAFD00204049CC
:1046D000087010BD3F48007830B101281ED0022874
:1046E00044D003286BD159E03B49D1F8D8013B496C
:1046F00008F074FE0ED83849D1F8C401384908F0E2
:104700006DFF03D801203349087006E003203149CA
:10471000087002E002202F49087054E02B4800780E
:1047200000F0010008B900F0E1F82B49D1F8D801F8
:104730004FF0824108F052FF06D92749D1F8C40151
:10474000284908F04BFE08D8002001F069FD002040
:104750001F4908701F49087007E0012001F060FD43
:1047600001201B4908701B4908702CE0002001F053
:1047700057FD0020164908701448007800F0010029
:1047800008B100F031F811480078C0F3001008B10A
:1047900000F098F800200F49087014E0002001F0A4
:1047A0003FFD00200A4908700848007800F0010029
:1047B00008B900F09BF800200649087003E00020CB
:1047C0000449087000BF00BF00BF82E7AC000020B2
:1047D000AD000020B8000020980900200000A04093
:1047E0000000F0410000E04110B510231422D02158
:1047F000014801F0B7FE10BD044900202DE9F04149
:1048000000242C48C06810B9601EBDE8F0814FF448
:1048100088731422D021284801F0A4FE0446002306
:104820002922D021244801F09DFE044411231522A1
:10483000D021214801F096FE04441E4988684FF0BB
:10484000834108F0FFFD07464FF07E5108F0BAFFA4
:10485000064608F077FD85B22B461A22D02116486D
:1048600001F080FE044413494868144908F0AAFF87
:104870000746134908F0E6FD064608F063FD85B2D9
:104880002B461B22D0210C4801F06CFE04444FF44F
:1048900061631D22D021084801F064FE044445F202
:1048A00060431E22D021044801F05CFE04442046EF
:1048B000ABE70000F44800200449002000007440E9
:1048C0000000A04210B54FF488731422D02106488E
:1048D00001F048FE142000F053F910231422D021D7
:1048E000014801F03FFE10BD0449002010B54FF40F
:1048F00088731422D021024801F034FE10BD00005C
:104900000449002010B54FF48071024800F07DFD8D
:1049100010BD0000000801400120164988820020D7
:1049200008605A2088872D20A1F842001248486369
:10493000124888635A20C887A1F8400040070861E0
:104940000F4888600F4848604FF08240C8600E48AA
:1049500048620E480862002088623C20C885122008
:1049600088854FF4967048860E200886084888612E
:1049700070470000980900200000344200000743FF
:104980000000F0410000F242CDCC8C409A99F93FF2
:104990000000404010B5022000F0A8F8002864D0C4
:1049A0003248006820F002003049086000212F489A
:1049B0000838FDF794FE00212C480838FDF7F0FD7B
:1049C000022000F079F800202949087031E0002128
:1049D0002848274A127840F82210002026490870FB
:1049E0001EE02549097801EB8101214A1278114422
:1049F000224A32F8110008F0DDFC04461D481C4A2A
:104A0000127850F82210204608F04AFB1949184A3B
:104A1000127841F8220018480078401C16490870A6
:104A2000154800780A28DCDB11480078401C104942
:104A300008700F4800780528C9DB0E480068104947
:104A400008600C4840680F4908600A4880680E49B1
:104A500008600848C0680D490860064800690C49AC
:104A6000086000210B4800F035F810BD0824014013
:104A70001C010020644E00201D010020004E00207B
:104A80002001002024010020280100203001002006
:104A90002C0100200800024010B504460021054802
:104AA00000F018F80348001D04600121001F00F009
:104AB00011F810BD5804024000F0805111B10349B3
:104AC000086001E0024948607047000004040240A9
:104AD0000000024021B1026842F00102026004E0DD
:104AE00002684FF6FE731A400260704701460020CC
:104AF000002201F0805313B1054B1A6801E0054B09
:104B00001A6802EA01030BB1012000E0002070479F
:104B100000040240000002401AB103680B43036026
:104B200002E003688B430360704710B500220268FF
:104B300047F6F0739A430C6A8B6823430C6923434E
:104B40004C6923438C692343CC6923434C6A234338
:104B50008C6A23431A430260CB6843600B6883600E
:104B60004B68C36010BD0C2105E00C2100BF0A1E7C
:104B7000A1F10101FBD1021EA0F10100F5D17047A6
:104B800006E0482100BF0A1EA1F1010359B2FADA7A
:104B9000021EA0F1010358B2F3DA704710B51449B0
:104BA000D1F8C801134908F019FC15D8124800784B
:104BB000401C1149087008460078142817DB0020B3
:104BC00008700B48D0F8F40120F0806000F180609C
:104BD0000749C1F8F4010AE00020074908700448B9
:104BE000D0F8F40120F080600149C1F8F40110BD53
:104BF0009809002000007041CC00002010B56C48DE
:104C000090F8AF01012863D100206A4908806A4802
:104C10000088401C6849088008460088052804DA96
:104C20006348D0F8B4016549086063480088B0F56E
:104C3000167F42DD0020604908805D48D0F8B4113D
:104C40005E48006808F0BEFD04464FF03F4108F0A2
:104C5000C5FB09D25648D0F8F40120F00200801CB0
:104C60005349C1F8F40107E05148D0F8F40120F0AD
:104C700002004F49C1F8F4014D48D0F8B4114F4833
:104C8000006808F09FFD04464FF07E5108F0A6FC36
:104C90000BD34748D0F8B4114848006808F092FD9B
:104CA0000446474908F09AFB08D24148D0F8F4017D
:104CB00020F020003E49C1F8F40177E03C48D0F8EC
:104CC000F40120F0200020303949C1F8F4016DE0F2
:104CD000374890F8AF01022863D100203649088098
:104CE00034480088401C334908800846008805285D
:104CF00004DA2F48D0F8B401304908602D48008804
:104D0000B0F5167F52DD00202A4908802848D0F8E7
:104D1000B4112A48006808F055FD04464FF07C5154
:104D200008F05CFC09D22248D0F8F40120F002001F
:104D3000801C1F49C1F8F40107E01D48D0F8F401B8
:104D400020F002001A49C1F8F4011948D0F8B41152
:104D50001A48006808F036FD04464FF07E5108F00E
:104D60003DFC0BD31248D0F8B4111448006808F089
:104D700029FD0446124908F031FB08D20C48D0F84E
:104D8000F40120F020000A49C1F8F4010EE00848BF
:104D9000D0F8F40120F0200020300549C1F8F401DA
:104DA00004E00020044908800249088010BD00008A
:104DB00098090020CA000020C8000020C40000207C
:104DC000000080BF70B54D4890F8AE01002864DD4A
:104DD0004A4A9169D2F8B80108F000FC0CD947485A
:104DE000D0F8B811464808F02DFB044643488169C5
:104DF000204608F0F3FB1DD80020424908704248C5
:104E00000078401C404908700846007807F048FECA
:104E1000044600223D4B07F091FF0BD200203A4997
:104E200008703648D0F8F40120F00100401C3349E6
:104E3000C1F8F40131498869354908F003FB04469B
:104E40002E48D0F8B811204608F0C8FB2AD82B49C4
:104E50008869304908F0F6FA04462848D0F8B811B5
:104E6000204608F0BBFA1DD826480078401C25498A
:104E7000087008460078642814DD00200870224974
:104E800008701E48D0F8F40120F001001B49C1F859
:104E9000F40100202049087004E00020194908703E
:104EA00019490870154890F8F40100F0010008B3A2
:104EB0001A480088401C1949088008460088B0F547
:104EC000966F1ADD0020088013480078401C1249B4
:104ED000087008460078082808DA0848D0F8F40175
:104EE00020F001000549C1F8F40106E009200A4953
:104EF000087002E000200949088070BD9809002070
:104F0000000080BFBC000020BD00002000002C403D
:104F10006666663F666666BFBE000020C000002071
:104F200010B53A49886B4FF0804108F0B9F8044653
:104F30003648D0F8B411204608F050FA14D234485C
:104F40000078401C324908700846007832285CDD41
:104F5000342008702D48D0F8F40120F00800083003
:104F60002A49C1F8F40150E02849486B4FF08041CC
:104F700008F028FC04462548D0F8B411204608F073
:104F80002DFB14D222480078401C214908700846A5
:104F90000078322839DD342008701C48D0F8F4013C
:104FA00020F00400001D1949C1F8F4012DE0174953
:104FB000886B4FF07E5108F005FC04461348D0F88A
:104FC000B411204608F00AFB1FD21049486B4FF07D
:104FD0007E5108F065F804460C48D0F8B41120461C
:104FE00008F0FCF911D20020094908700748D0F8F0
:104FF000F40120F004000549C1F8F4010846D0F896
:10500000F40120F00800C1F8F40110BD9809002057
:10501000C200002010B500F0E1F8352000F01EF8C5
:1050200000240AE00B4901EBC42000F01DF800BF8A
:1050300000F05AF80128FBD0641C502CF2D306482B
:1050400000F012F800BF00F04FF80128FBD000F08C
:1050500065F810BD00A0020800F007080149C8600B
:10506000704700000020024030B5044604254FF48C
:10507000302000F0BFF80546042D17D10C48006918
:1050800040F002000A49086108464461006940F0A6
:10509000400008614FF4302000F0ACF805460448A9
:1050A000006941F6FD71084001490861284630BD9C
:1050B0000020024004200B49C96801F0010109B138
:1050C00001200EE00749C96801F0040109B102207E
:1050D00007E00449C96801F0100109B1032000E0AC
:1050E000042070470020024004200B49C96801F0E9
:1050F000010109B101200EE00749C96801F004016E
:1051000009B1022007E00449C96801F0100109B1A2
:10511000032000E00420704700200240034800699B
:1051200040F0800001490861704700000020024003
:1051300070B504460D460426F00200F05BF8064602
:10514000042E11D10948006940F0010007490861A7
:105150002580F00200F04EF806460448006941F64A
:10516000FE71084001490861304670BD00200240D0
:1051700078B506460C46042500200090E80200F0B1
:1051800039F80546042D24D11348006940F0010088
:10519000114908613480E80200F02CF80546042D1E
:1051A00010D1B01C0090200C00990880E80200F09B
:1051B00021F805460848006941F6FE710840064995
:1051C000086106E00448006941F6FE7108400249A2
:1051D0000861284678BD00000020024002480349CB
:1051E000486003484860704723016745002002403B
:1051F000AB89EFCD00B502460423FFF75BFF034602
:1052000003E0FFF757FF0346521E012B01D1002A8E
:10521000F7D102B90523184600BD000010B500F013
:1052200073FF4FF4D0500849A1F8A80100F0D0FD59
:105230000549B1F8A81108430349A1F8A8010921BB
:105240000148A0F8AA1110BD980900202DE9F041ED
:10525000024600250026002000230024002791F8A4
:1052600003C00CF00F0591F803C00CF0100CBCF15A
:10527000000F03D091F802C04CEA050591F800C078
:10528000BCF1000F31D0146800202BE04FF0010C6E
:105290000CFA00F3B1F800C00CEA03069E4220D1DC
:1052A00083004FF00F0C0CFA03F7BC4305FA03FC24
:1052B0004CEA040491F803C0BCF1280F06D14FF06A
:1052C000010C0CFA00FCC2F814C00AE091F803C00B
:1052D000BCF1480F05D14FF0010C0CFA00FCC2F8EC
:1052E00010C0401C0828D1D31460B1F800C0BCF134
:1052F000FF0F34DD546800202EE000F1080C4FF061
:10530000010808FA0CF3B1F800C00CEA03069E424B
:1053100021D183004FF00F0C0CFA03F7BC4305FAC0
:1053200003FC4CEA040491F803C0BCF1280F05D13A
:1053300000F1080C08FA0CF8C2F8148091F803C0C8
:10534000BCF1480F07D100F1080C4FF0010808FA32
:105350000CF8C2F81080401C0828CED35460BDE879
:10536000F0810000F0B50A4600230024002100254A
:1053700000F00046B6F1004F02D11D4EF16901E088
:105380001B4E7168C0F3034583B200F44016B6F5B6
:10539000401F08D121F07061154E766826F07066C6
:1053A000134F7E6012E000F48016B6F5801F06D120
:1053B000032606FA05F4A14341F0706106E0460DAC
:1053C000360103FA06F6B14341F0706122B1460D91
:1053D000360103FA06F6314300F00046B6F1004FFD
:1053E00002D1034EF16101E0014E7160F0BD000099
:1053F000000001400246002093680B400BB10120E1
:1054000000E0002070474161704701617047000073
:1054100000487047C84600202DE9F84F83460F46E4
:105420000024002500266946232005F0A3F99DF8F5
:10543000000004436946222005F09CF9200204B2D2
:105440009DF80000044369462B2005F093F99DF870
:105450000000054369462A2005F08CF9280205B2B0
:105460009DF80000054369462D2005F083F99DF85D
:105470000000064369462C2005F07CF9300206B294
:105480009DF8000006436946182005F073F99DF861
:105490000000382813D1304607F074FF80462846B4
:1054A00007F070FF8146204607F06CFF82464246B7
:1054B0004946FDF74FFF38600020BDE8F88F4FF0F8
:1054C000FF30FAE72DE9F04F91B04FF0000AB549EF
:1054D000D1F8E80107F0B8FD0446B34AB34B07F032
:1054E0002DFC7DD8AF49D1F8EC01B14908F06AF93B
:1054F000B0490E9007F048FE834607F0A5FD06462A
:10550000AD4AAE4B07F01CFB044607F009F8814694
:1055100006F006FC8046A349D1F8E801A54907F04A
:1055200033FE834607F090FD0646A34AA34B07F0DF
:1055300007FB044606F0F4FF814606F037FF4146BC
:105540000F9006F0BFFA8246504607F07DFD804678
:10555000994A9A4B07F0CAF806460022984B07F082
:10556000EFFA044606F0DCFF82468E49D1F8EC01E2
:1055700007F06AFD04460022914B07F0A5FA7DD89A
:105580008848816A504608F029F879D28D495046FA
:1055900008F024F874D28348816A504608F012F962
:1055A00084490E9007F0F0FD0F9007F04DFD064680
:1055B000814A824B07F0C4FA044606F0B1FF8346E5
:1055C00006F01AFE81467748416A484607F03AFFDE
:1055D00080467448016A404608F000F805D800E0AB
:1055E000DBE0504611B0BDE8F08F6E48816A50464E
:1055F00008F0E8F86F49029007F0C6FD039007F045
:1056000023FD6D4A6D4BCDE9040107F099FACDE910
:10561000060106F085FF089006F0EEFD834661481E
:10562000416A584607F00EFF09905E48016A0998E2
:1056300007F0AAFD0A9006F0B3F90B9007F004FDFD
:105640005D4A5E4BCDE90C0107F050F8064600229A
:105650005B4B07F075FA04460D465549504607F076
:105660001FFD064607F0F0FC22462B46CDE90E0151
:1056700007F000FC804606F053FFB3E705E0FFE7C4
:105680004849888F07F096FEACE74648816A49484A
:1056900007F006FD0446514607F0A0FF78D24A49BC
:1056A000504607F09BFE73D23E4A516A106A07F0DB
:1056B0006BFD51460F903F4808F084F80D90394833
:1056C000816A0D9807F0ECFC83463A4907F05CFDCF
:1056D0000E9007F0B9FC0646374A384B07F030FA0F
:1056E000044606F01DFF814606F086FD80460F99B0
:1056F00007F074FF01D8504674E72A48816A504683
:1057000008F060F82B49019007F03EFD834607F052
:105710009BFC294A294BCDE9020107F011FACDE99A
:10572000040106F0FDFE814606F066FD07901D4867
:10573000416A079807F086FE08901A48016A08989F
:1057400007F022FD804606F02BF9099007F07CFC5B
:10575000194A1A4BCDE90A0106F0C8FF0646002295
:10576000174B07F0EDF904460D461149504608F075
:1057700029F8064607F068FC22462B46CDE90C01C5
:1057800006F000FFCDE90E0106F0CAFE2AE7FFE7AA
:105790000449888F07F00EFE24E70249888F07F03E
:1057A00009FE1FE7980900209A9999999999B93F9C
:1057B0000000B442000034434AD8124DFB21094096
:1057C00000806640000040400000314338B5044688
:1057D00000256B463422D0213F4800F0D1FD05461C
:1057E00015B14FF0FF3038BDBDF8000000F48070F7
:1057F00088B1207820F00100401C2070207820F033
:1058000002002070207820F004002070207820F022
:105810000800207030E0207820F001002070BDF8F2
:10582000000000F0800028B1207820F00200801CE9
:10583000207003E0207820F002002070BDF8000006
:1058400000F0400028B1207820F00400001D2070F6
:1058500003E0207820F004002070BDF8000000F084
:10586000180028B1207820F008000830207003E0EC
:10587000207820F008002070BDF8000000F004003F
:1058800028B1207820F010001030207003E020783C
:1058900020F010002070BDF8000000F0020028B1D8
:1058A000207820F020002030207003E0207820F0C5
:1058B00020002070BDF8000000F0010028B1207821
:1058C00020F040004030207003E0207820F04000BD
:1058D0002070002087E70000044900202DE9F843EC
:1058E000044600256B463D22D0210D4800F048FDBE
:1058F00005468DB9BDF9000007F044FD8046094911
:1059000007F0A0FD07464FF0834107F03DFC064637
:10591000054907F039FC20602846BDE8F8830000FF
:1059200004490020DC80BB3F00007A4410B500240D
:10593000694800F0C7F904446748001FFFF7CEFF2D
:1059400004446548083000F0E9F804446348FFF770
:105950003DFF04445CB90020614908706148D0F8FB
:10596000F40120F000405F49C1F8F4011AE05C48FE
:1059700001780078401C5A4A1070052912DD052074
:10598000114608705748D0F8F40120F0004000F1AB
:1059900000405449C1F8F40100215248C0F8D01128
:1059A000C0F8CC114D480078C0F3401058B94B48AE
:1059B0000078C0F3801030B94A49D1F8D0014A4983
:1059C00007F00CFD18D80020484908804848008896
:1059D000401C4749088008460088142829DB00201D
:1059E00008804048D0F8F40120F0005000F1005049
:1059F0003C49C1F8F4011CE03A49D1F8D0013D49D5
:105A000007F0ECFD15D80020394908803748008898
:105A1000401C3649088008460088642809DB0020BD
:105A200008803048D0F8F40120F000502D49C1F82A
:105A3000F4012C4890F8AE01002844D12949D1F84E
:105A4000D0012D4907F0CAFC19D800202B49088045
:105A50002B480088401C2A49088008460088B0F579
:105A6000167F30DB002008801E48D0F8F40120F0BB
:105A7000805000F180501B49C1F8F40123E019491E
:105A8000D1F8D0011F4907F0A9FD17D800201C4903
:105A900008801A480088401C184908800846008879
:105AA000B0F5967F0FDB002008800E48D0F8F40197
:105AB00020F080500B49C1F8F40104E000200F49A8
:105AC00008800F4908800749D1F8D00100F01CF880
:105AD0000449C1F8D40110BD680B0020AC000020BF
:105AE000AE000020980900200000B041B400002062
:105AF000B60000200000BC410000C441B2000020FC
:105B0000B00000200000D44110B504460248C1682E
:105B10002046884710BD0000F44800202DE9FE4FC4
:105B200004464FF0000A02AB4022D021484800F062
:105B300027FC8246BAF1000F23D1BDF9080007F017
:105B400021FC0746434907F0ABFD0546BDF90800B7
:105B500007F018FC0746404907F074FC0646294642
:105B600007F012FB81463D49484607F037FC09D84B
:105B700049463B4807F066FC05463A4907F090FA6B
:105B8000206062E03549484607F028FD0ED23249D0
:105B9000484607F023FC09D84946334807F052FC31
:105BA0000546324907F07CFA20604EE02A49484613
:105BB00007F014FD18D22E49484607F00FFC13D801
:105BC000484607F041FA07462A4A2B4B06F0B8FF31
:105BD00005464FF00042294B06F0D4FCCDE9000108
:105BE00006F09EFC206030E02149484607F0F6FCB4
:105BF0000ED22349484607F0F1FB09D8494621480F
:105C000007F020FC0546204907F04AFA20601CE016
:105C10001B49484607F0E2FC0ED21C49484607F0F3
:105C2000DDFB09D849461A4807F00CFC054619491E
:105C300007F036FA206008E04946174807F002FCF2
:105C40000546164907F02CFA20605046BDE8FE8F45
:105C50000449002000AAAA46000020419A999940D0
:105C6000B0031CC19358B44213F271C0E9A6764246
:105C7000CDCC644164CC5D4BC88700C0E9A64640EA
:105C80003333B3418885A2BFDB7906420000E4418B
:105C9000D34D62BF1D5AC9414F1EB6BEDD24EC4034
:105CA00010B5002440210648FFF7A4FB044360061A
:105CB000040E80210248FFF79DFB0443204610BDDF
:105CC000001401402DE9F843044600256B463A22B2
:105CD000D0210C4800F054FB054685B9BDF9000001
:105CE00007F050FB8046084907F0ACFB0746074920
:105CF00007F0A8FB0646064907F046FA206028464A
:105D0000BDE8F883044900200000E040DBE0443EA9
:105D100000007A44F0B50346144620466FF00105B2
:105D2000DE1703EB9676B610A3EB86062EB9642633
:105D300093FBF6F706FB173636B94FF4C87693FB9C
:105D4000F6F706FB17360EB94FF0FF35032906DAD2
:105D5000012901D1002200E01F2210441BE0072985
:105D60000BDC0A4601EBD27677104E1EC6EB061608
:105D700007EB46062E4430440DE005F1D606A1F1AE
:105D80000807C7EB071706EB4707CA1F02EBD276D7
:105D900007EB66063044F0BD70B507490748006858
:105DA00007F050FB0546064907F04CFB0446054941
:105DB00007F0EAF970BD000033335340280100209A
:105DC000BE9F4E4100002047004870479048002089
:105DD00010B500244FF400710A48FFF70BFB044391
:105DE0006006040E4FF480710648FFF703FB04437E
:105DF0006006040E80210348FFF7FCFA04432046A6
:105E000010BD00000018014070B50949094800683C
:105E100007F018FB06464FF08B4107F0B5F9054631
:105E2000054907F0CFFC0446044907F0ADF970BD01
:105E30000000044220010020000025430000304102
:105E40000146C1EBC100024A02EB8000007E7047B0
:105E50001C4900200146C1EBC100024A02EB800050
:105E6000807E70471C49002070B5074907480068CC
:105E700007F0E8FA0546064907F0E4FA0446054942
:105E800007F082F970BD0000333353402401002035
:105E9000BE9F4E410000204770B50949094800687F
:105EA00007F0D0FA06464FF08B4107F06DF9054632
:105EB000054907F087FC0446044907F065F970BD01
:105EC0000000044230010020000025430000304162
:105ED00070B509490948006807F0B4FA06464FF062
:105EE0008B4107F051F90546054907F06BFC044664
:105EF000044907F049F970BD000004422C0100205C
:105F00000000254300003041F8B5044600266B46EA
:105F1000002292210F4800F033FA0646BEB99DF8E0
:105F20000150BDF80000000200B20090BDF8000072
:105F300000F47F4000B20090BDF9000028430090BB
:105F4000BDF90000C11700EB116109122180304634
:105F5000F8BD0000784E00202DE9FC4705460E46AE
:105F600017469846DDE90A9A002400200090019027
:105F70004FF480716348FFF746FA4FF400716148AF
:105F8000FFF743FA80215F48FFF73DFA0A20FEF74A
:105F9000EAFD00BF5BE04FF480715A48FFF735FA25
:105FA0000A20FEF7E0FD182C18DA40215548FFF7CB
:105FB00021FA012841D12046E11704EB5171C910A3
:105FC000A4EBC102012191406A4602EBE40212787F
:105FD00011436A4602EBE40211702EE01C2C10DA29
:105FE00040214848FFF706FA012826D19DF8030012
:105FF000A4F1180101228A401043C0B28DF80300B9
:106000001BE0342C19DA40213E48FFF7F3F9012850
:1060100013D1201DC11700EB5171C910A0EBC102B3
:10602000012191406B46221D03EBE20212781143DD
:10603000CAB2211D03EBE1010A704FF480713148AF
:10604000FFF7E1F90A20FEF78EFD601CC4B2342C84
:10605000A1DB4FF400712B48FFF7D5F99DF8000044
:1060600000F00F009DF80010C1F3021101EB810157
:1060700000EB410028809DF8010000F00F009DF822
:106080000110C1F3021101EB810100EB41003080EE
:106090009DF8020000F00F009DF80210C1F30111FD
:1060A00001EB810100EB410038809DF8040000F015
:1060B0000F009DF80410C1F3011101EB810100EB09
:1060C0004100A8F800009DF8050000F00F009DF8C1
:1060D0000510C1F3001101EB810100EB4100A9F8AB
:1060E00000009DF8060000F00F009DF80610090959
:1060F00001EB810100EB410000F2DA70AAF8000028
:10610000BDE8FC870010014008B50121402003F0E4
:1061100047FA8020ADF8000004208DF8030002202B
:106120008DF8020069460A48FFF790F84FF4807036
:10613000ADF8000069460648FFF788F84FF4007094
:10614000ADF8000069460248FFF780F808BD00007E
:106150000018014018B9054A12880A8004E0012895
:1061600002D10A88014B1A8070470000CE0000203F
:106170001748184908601848486018488860184847
:10618000C86018480861184848611848886118486C
:10619000C861184808624862174888621748C86290
:1061A0001748086317484863174888631748C86347
:1061B00010480864164848640E488864C864154846
:1061C0000865154848651548C8650A480866704757
:1061D000A596000890480020AF960008C9960008D0
:1061E000A59E0008D19D0008E59C000831A6000886
:1061F000BDA000085561000881A30008A9A20008FD
:1062000089A10008E9A1000849A2000815A3000817
:10621000299900080DA700082DA70008C1970008BC
:1062200010B50446012C04D181020548FFF7EDF8B2
:1062300004E04FF480610248FFF7E5F810BD00006C
:106240000018014008B50121402003F0A9F94FF4DE
:106250008060ADF8000010208DF8030002208DF85A
:10626000020069460448FEF7F1FF4FF480610248DE
:10627000FFF7C9F808BD00000018014070B50446DA
:106280000025A18A2069FFF7BEF821896068FFF721
:10629000BCF80120FEF774FCA18A2069FFF7B5F86D
:1062A0000320FEF76DFC21896068FFF7A3F8012841
:1062B00000D10125A18A2069FFF7A5F80120FEF78A
:1062C0005FFC284670BD70B504460D46A18A206962
:1062D000FFF799F80120FEF753FC21896068FFF76A
:1062E00094F800202870072620E0A18A2069FFF793
:1062F0008AF80120FEF744FCA18A2069FFF785F89F
:106300000320FEF73DFC21896068FFF773F8012840
:1063100003D12978B04001432970A18A2069FFF791
:1063200072F80220FEF72CFC701E46B2002EDCDA5A
:1063300070BD38B504460121206803F031F9012110
:10634000E06803F02DF92089ADF8000014208DF8E5
:10635000030003208DF8020069466068FEF776FFAF
:1063600021896068FFF751F8A08AADF800006946FE
:106370002069FEF76BFFA18A2069FFF746F838BD58
:106380002DE9F84380460E4617461C46002500209E
:10639000208006F0FE06404600F0ADF8314640464B
:1063A00000F03EF84046FFF769FF00B16D1E394628
:1063B000404600F035F84046FFF760FF00B16D1E23
:1063C00046F00106404600F096F83146404600F09F
:1063D00027F84046FFF752FF00B16D1E6946404660
:1063E000FFF771FF20889DF8001008432080404689
:1063F00000F049F869464046FFF765FF20889DF8A0
:1064000000104FF47F4202EA0121084320804046F9
:1064100000F055F8404600F086F82846BDE8F883BD
:106420002DE9F04104460E460127072527E0A18A01
:106430002069FEF7E8FF0120FEF7A2FB46FA05F00F
:1064400000F0010020B121896068FEF7DEFF03E063
:1064500021896068FEF7D7FF0120FEF791FBA18A32
:106460002069FEF7D2FF0520FEF78AFBA18A20698A
:10647000FEF7C9FF0120FEF783FB681E45B2002D21
:10648000D5DABDE8F08110B50446A18A2069FEF78F
:10649000BAFF21896068FEF7B6FF0120FEF770FBA6
:1064A000A18A2069FEF7B1FF0520FEF769FBA18AEA
:1064B0002069FEF7A8FF0120FEF762FB10BD10B5B2
:1064C0000446A18A2069FEF79EFF21896068FEF7D5
:1064D0009CFF0120FEF754FBA18A2069FEF795FF7F
:1064E0000520FEF74DFBA18A2069FEF78CFF0120F5
:1064F000FEF746FB10BD10B5044621896068FEF723
:1065000084FF0220FEF73CFBA18A2069FEF77DFF95
:106510000220FEF735FB21896068FEF774FF022038
:10652000FEF72EFB10BD10B50446A18A2069FEF7C8
:106530006AFF0120FEF724FB21896068FEF763FFF4
:106540000120FEF71DFBA18A2069FEF75EFF0220F5
:10655000FEF716FB21896068FEF757FF0120FEF762
:106560000FFB10BD2DE9F04180460E4617461D4633
:10657000002406F0FE064046FFF7BDFF31464046C8
:10658000FFF74EFF4046FFF779FE00B1641E394623
:106590004046FFF745FF4046FFF770FE00B1641E1E
:1065A000E9B24046FFF73CFF4046FFF767FE00B107
:1065B000641E290A4046FFF733FF4046FFF75EFEA0
:1065C00000B1641E4046FFF7AEFF2046BDE8F081F3
:1065D0002DE9F04180460D4616461F46002405F081
:1065E000FE054046FFF787FF29464046FFF718FFA4
:1065F0004046FFF743FE00B1641E31464046FFF7B8
:106600000FFF4046FFF73AFE00B1641E3946404690
:10661000FFF706FF4046FFF731FE00B1641E40461B
:10662000FFF781FF2046BDE8F08100004AF6AA206E
:1066300001490860704700000030004000211E48FA
:1066400080F8AD11806CFF2802D11B48816431E0D5
:10665000194890F8480000F0F000202803D11748AE
:106660001749086026E0144890F8480000F0F00050
:10667000102803D11348124908601BE00E4890F817
:10668000480000F0F000402803D10F480C49086092
:1066900010E0094890F8480000F0F000802803D18D
:1066A0000A480749086005E0002103488164D0F8E2
:1066B000F01101657047000098090020952B000833
:1066C00094000020A16C0008E96B00084129000833
:1066D0002DE9FE4F05460C46DFF8D491DFF8D4A132
:1066E000DFF8D4B14946284606F0ACFE07467348A9
:1066F0000168484606F0A6FE80467148016840469B
:1067000006F0CEFF0646394606F0CAFC6D49086021
:106710006A4800686C4908606C4801686C4806F07B
:1067200091FE02906B480168484606F08BFE01908E
:1067300069480168484606F085FE00906748016890
:10674000009806F0ADFF8046019907F03BF8074638
:10675000029906F0A5FC0646514606F0A1FC6049E8
:1067600008605A480168484606F06CFE06465948DB
:106770000168304606F094FF5A49086053480168A2
:10678000484606F05FFE064653480168304606F06C
:1067900087FF5549086051464C48006806F080FC68
:1067A0005249086059464E48006806F079FC064692
:1067B00031464B48006806F0E7FC4D4908605946F1
:1067C0004748006806F06CFC0646314646480068BB
:1067D00006F0DAFC474908603A480168204606F0AE
:1067E000F1FF074642480168384606F02BFE064690
:1067F00034480168304606F053FC3149086031489E
:106800000168204606F0DEFF07463A480168384630
:1068100006F018FE06462C480168304606F040FC9B
:1068200026490860324801684FF07E5006F0CAFFE2
:1068300006462B480168304606F004FE27490860EA
:106840002B4801684FF07E5006F0BCFF06462548F5
:106850000168304606F0F6FD1E49086025480168CB
:10686000254806F0EFFD07461D480168384606F04A
:10687000E9FD06461C480168304606F011FC164941
:1068800008601C4801681C4806F0DCFD07461548F6
:106890000168384606F0D6FD0646144801683046C1
:1068A00006F0FEFB0949086005480068BDE8FE8F58
:1068B0000AD7A33C0AD7233C00002041E000002077
:1068C000DC000020D4000020D800002000010020BF
:1068D00017B7D139F8000020FC000020F400002098
:1068E000E4000020E8000020EC000020F000002080
:1068F0000401002008010020000080BF10B50948F5
:10690000007838B901200749087002210648FEF7CF
:106910007AFD06E000200349087002210248FEF7D4
:1069200074FD10BD100100200018014008B50121C0
:10693000402002F035FE0220ADF8000010208DF856
:10694000030002208DF8020069460448FEF77EFC31
:1069500002210248FEF759FD08BD00000018014061
:1069600010B502210148FEF750FD10BD001801408E
:1069700010B502210148FEF746FD10BD0018014088
:10698000F8B569460F2003F0F5FE0EE069460F20CA
:1069900003F0F0FE9DF80000692800D106E0002415
:1069A00001E0601CC4B2322CFBDBEFE700BF00212A
:1069B000112004F013FE7021102004F00FFE0121BD
:1069C000122004F00BFE11E0002000906946122016
:1069D00003F0D0FE9DF8000000F0010000B906E0D1
:1069E000002401E0601CC4B2322CFBDBECE700BFEA
:1069F0000021012004F0F2FD20210B2004F0EEFD27
:106A000000210D2004F0EAFD00210E2004F0E6FD37
:106A10004321102004F0E2FD4221112004F0DEFDAC
:106A20007421122004F0DAFD8C21132004F0D6FD2D
:106A30000021142004F0D2FD0021152004F0CEFD29
:106A40000021162004F0CAFDC421172004F0C6FD61
:106A50001021582004F0C2FD3821182004F0BEFD9A
:106A60003821192004F0BAFD002400203C490860B8
:106A700037E00020009069461E2003F07BFE9DF861
:106A8000000000F0020002281DD1002569462320E5
:106A900003F070FE9DF8000005436946222003F0D4
:106AA00069FE280205B29DF800000543284606F05D
:106AB00069FC06462A480168304606F0F1FA284982
:106AC0000860601CC4B2052C0BDD204606F072FC89
:106AD000064631462248006806F056FB2049086009
:106AE00000E0C6E700BF002437E0002000906946C0
:106AF0001E2003F03FFE9DF8000000F00200022877
:106B00001DD100256946232003F034FE9DF80000C6
:106B100005436946222003F02DFE280205B29DF8A8
:106B200000000543284606F02DFC06460C48016887
:106B3000304606F0B5FA0A490860601CC4B21E2C43
:106B40000BDD204606F036FC064631460448006858
:106B500006F01AFB0249086000E0C6E700BFF8BD76
:106B6000D000002008B5002400BFFFF7DFFE24E0BE
:106B7000601CC4B21148C06C28B9062C16DD002474
:106B8000FFF7BCFE12E00D48C06C012802D1FFF7F0
:106B9000EFFE0BE00948C06C022805D1022C05DB92
:106BA0000024FFF7ABFE01E0FFF7DAFEFFF73EFD42
:106BB0006A4600210A2001F0C9F9D9E798090020A6
:106BC00010B54FF400410248FEF71FFC10BD000055
:106BD0000008014010B54FF400410248FEF713FCD5
:106BE00010BD00000008014070B52A4890F8480028
:106BF00000F0F000402805D1264890F8480000F049
:106C00000F0018B124482549086070BD00202149B3
:106C100081F8AC01486B4FF07E5106F041FA044612
:106C20001C49B1F8420006F0C5FB0546214606F0B6
:106C3000D5FB08D21749486B4FF07E5106F030FA69
:106C40001449086520E01349886B4FF07E5106F027
:106C5000B9FD04460F49B1F8420006F0ABFB05460A
:106C6000214606F0BBFC08D20A49886B4FF07E51E2
:106C700006F0A8FD0749086506E00649B1F842009C
:106C800006F098FB034908650121024880F8AD1120
:106C900000BFBAE7980900203D6600089400002074
:106CA00010B51E4890F8480000F0F000102803D0FE
:106CB0001B481C49086010BD0020184981F8AC0130
:106CC000084690F8480018280CD10121134880F894
:106CD000AD110146486B4FF0804106F0E1F90F49D4
:106CE000086518E00D4890F8480014280CD10121DF
:106CF0000A4880F8AD110146886B4FF0804106F0DC
:106D000061FD0649086506E00021044880F8AD11E0
:106D1000D0F8F011016500BFCDE700009809002010
:106D20003D660008940000202DE9F04F89B08246AE
:106D30000C464FF0000BD9460021504606F04EFCA1
:106D40002FD8504606F080F9074605F053FA05465D
:106D500005F060FE8146504606F076F9CDE9000167
:106D600005F048FA05460E46504606F06DF907460E
:106D70002A46334606F07EF8CDE9040199FBF4F08B
:106D800004FB1095284605F074FECDE90201DDE90B
:106D9000042305F0F7FBCDE9060105F0C1FB8346AE
:106DA00056E02AF0004B584606F04EF9074605F02B
:106DB00021FA054605F02EFE814699FBF4F004FB0E
:106DC0001099584606F040F9CDE9000105F012FA95
:106DD000CDE90201584606F037F90746DDE90223FE
:106DE00006F048F805460E46484605F042FE2A469B
:106DF0003346CDE9040105F0C5FB00221346CDE979
:106E0000060105F0CBFD02D14FF0000B20E020463B
:106E100006F0B8FA06463146584606F0B5F905467A
:106E200006F074FA00F10109504606F00DF921F060
:106E30000048074609FB04F005F01BFE3A464346AE
:106E4000CDE9060106F016F8054605F069FB834614
:106E5000584609B0BDE8F08F08B5002000F06EF884
:106E600002F0F0FA5CE02F4A2F49002000F08CF885
:106E700000283AD12B4800782C49898A884202D0D0
:106E800028480078D0B9002029490880294908807D
:106E9000254802882849234802F0C4F8254908807B
:106EA00008460088002836DD1E48007898B3224A3C
:106EB00008460188002000F0BFF82CE01C4801883B
:106EC0000088401C1A4A108047F23050814222DB71
:106ED000FFF776FE6A460021642001F037F8FFF7DD
:106EE00079FE00201249088015E0114801880088C9
:106EF000401C0F4A108047F2305081420BDBFFF7F5
:106F00005FFE6A460021642001F020F8FFF762FE70
:106F10000020074908806A460021012001F016F888
:106F2000A1E700009C450020840000209809002073
:106F300086000020820000207044002010B5044626
:106F400014B1012C14D109E004F042F80A480B49AD
:106F500008600B480968C1F860020AE004F038F8DC
:106F600008480649486006484968C1F8600200E0E0
:106F700000BF00BF10BD00003849002014010020F0
:106F8000994A00089C4B00202DE9F04104460E462A
:106F90009046284850F824000079AB2842D1254873
:106FA00050F824004179234850F824004079401CCF
:106FB000204A52F824205071062938DB56201D49FA
:106FC00051F82410087100201A4951F82410487112
:106FD000184850F82400008830800020154951F8E6
:106FE000241008803188134A52F82420901DFCF7A1
:106FF00091F90746DFB900250EE00E4850F824004D
:10700000801D405D08F80500FF210A4850F8240063
:10701000801D4155681C85B23088A842EDDC0020F7
:10702000BDE8F0810020034951F8241048714FF069
:10703000FF30F5E7140100202DE9F04105460E462A
:107040009046002406E000BF00BF00BF00BF00BFA5
:10705000601C84B24CF250308442F4DB002406E021
:1070600000BF00BF00BF00BF00BF601C84B24CF275
:1070700050308442F4DB002409E018F8041015486D
:1070800050F8250000F599700155601C84B2B44297
:10709000F3DB104951F8251001F599703146FCF7E2
:1070A00039F907460B4850F8250000F599708755C7
:1070B0003A0A084850F8250000F59970711C4254AE
:1070C000B21C90B2034A52F82520D2F860128847C9
:1070D000BDE8F0811401002010B503F06BFF00241F
:1070E00011E00221204600F013F90020C4EBC40196
:1070F000064A02EB81010876C4EBC40102EB810170
:107100008876601CC4B2012CEBDB10BD1C4900204A
:1071100008B5002400BF00F075F9EFE0784890F85A
:10712000AD0100287ED0764890F8F401C0F34010FD
:10713000002877D1724890F8F401C0F300100028BD
:10714000F7D16F4890F8F40100F001000028F0D169
:107150006B4890F8F401C0F340000028E9D168487A
:10716000D0F8F401C0F340700028E2D16448D0F8B0
:10717000F401C0F380600028DBD1614890F8AC01D5
:10718000012807D15E4908694FF0804105F0FCFFF6
:10719000044600E000245B48007820B1012854D068
:1071A00002287CD16CE0564AD2F8B411106D06F07A
:1071B00009FB064652480169304606F00FFA12D222
:1071C00002214F4880F8B0114F4801780078401CE8
:1071D0004D4A1070C82937DD02204A490870002046
:1071E0001146087030E046480169484806F02AF91F
:1071F0000646434AD2F8B411106D06F0E3FA07468A
:10720000314606F0EBF814D201213D4880F8B01168
:107210003D4801780078401C3B4A1070C82913DDB6
:10722000012000E050E03749087000201146087046
:107230000AE0FFF751FF0020324908703249087018
:1072400000212F4880F8B0113DE02D4AD2F8B4114A
:10725000106D06F0B7FA0646214606F0BFF905D9CB
:10726000274890F8F401C0F3800028B1FFF734FFFD
:1072700000202449087002E0002000F0DBF822E042
:107280001F4A116DD2F8B40106F09CFA0646214659
:1072900006F0A4F907D91A4890F8F40100E00CE0D0
:1072A000C0F3C00028B1FFF717FF00201549087090
:1072B00002E0002000F0E4F805E0FFF70DFF0020F9
:1072C0001049087000BF08E0FFF706FF00200D49D5
:1072D000087000210A4880F8B0110020FEF7BAFDBE
:1072E000074981F8AE010020FEF7AAFD044981F8A4
:1072F000AF016A460021012000F028FE0EE70000E1
:10730000980900208800002089000020000080BF2C
:1073100070B504460D46012D0DD1C4EBC4020D4BD2
:1073200003EB82021189C4EBC40203EB82025068B2
:10733000FEF76BF80CE0C4EBC402064B03EB8202D1
:107340001189C4EBC40203EB82025068FEF75BF8BC
:1073500070BD00001C49002070B504460D46012D8B
:107360000DD1C4EBC4020E4B03EB8202918AC4EB35
:10737000C40203EB82021069FEF747F80EE0022D0B
:107380000CD1C4EBC402064B03EB8202918AC4EB1E
:10739000C40203EB82021069FEF735F870BD0000ED
:1073A0001C49002008B50121202002F0F9F84FF413
:1073B0004040ADF8000010208DF8030003208DF848
:1073C000020069460D48FDF741FF4FF400410B48AC
:1073D000FEF719F809480A4948604FF4004008814F
:1073E00020200860054808614FF4804088822020F2
:1073F000C86000200876887608BD000000140140AF
:107400001C49002010B5FFF7CDFF03F083FC10BD31
:1074100008B500BF0CE0FDF7D5FCFDF781FDFDF7D9
:10742000EDFBFDF7BBFB6A460021052000F08EFD59
:10743000F1E7000010B50446012C1CDC0E48007872
:10744000A04207D1C4EBC4000C4901EB8000007ED0
:10745000012810D0FFF740FE0120C4EBC401074A09
:1074600002EB810108760448047001210078FFF7DF
:1074700073FF03F08DFD10BD0C0100201C4900209E
:1074800010B50446012C1CDC0E480078A04207D140
:10749000C4EBC4000C4901EB8000007E022810D030
:1074A000FFF71AFE0220C4EBC401074A02EB810178
:1074B00008760448047002210078FFF74DFF03F0BE
:1074C00067FD10BD0C0100201C49002008B54FF4D9
:1074D000A06000F065F81D208DF8000000208DF8F8
:1074E000010001208DF802008DF80300684600F0CD
:1074F0001FF80B208DF8000000208DF801000220FD
:107500008DF8020001208DF80300684600F010F8A5
:1075100034208DF8000001208DF8010000208DF846
:10752000020001208DF80300684600F001F808BD54
:1075300070B5002100230F22C47804B3154C2468D1
:1075400004F4E064C4F5E064210AC1F10403CA4014
:10755000447804FA03F184781440214309010E4C65
:107560000678A155047804F01F050124AC40057885
:107570006D11AD0005F1E025C5F8004109E0047882
:1075800004F01F050124AC40044D0678761145F83F
:10759000264070BD0CED00E000E400E080E100E07A
:1075A00002490143024A1160704700000000FA05D9
:1075B0000CED00E07047000010B50348006810B102
:1075C00001480068804710BD1000002070B50446D7
:1075D00000F082F800202B4908702B4908702B49D5
:1075E00008702B4908602B4908602B4908702B490B
:1075F00008702B4908702B4908602B4908602B49FB
:1076000008602B48006858B12A48056845B12848E9
:10761000066803E0761E002028602D1D002EF9D19B
:10762000002025490860254908602549086025494A
:1076300008602549086025490860254908602549F2
:10764000087000F0BDFE00F0EBFE204600F07CFF6D
:10765000208800B170BD204600F094FF208800B162
:10766000F8E7204600F040FD208800B1F2E7204610
:1076700001F066FA208800B1ECE7FFF79BFF00BF3E
:10768000E8E70000240000202C0000203C0000203F
:10769000580000205C0000202D0000202E0000205B
:1076A0002F0000203000002034000020380000208F
:1076B000C0D90008BCD90008040000200800002040
:1076C0000C000020100000201400002018000020F2
:1076D0001C00002046000020064800680649096892
:1076E00000EB8100054908600846006820F00700AB
:1076F00008607047BCD90008C0D9000860000020AD
:1077000010B500242C480078012800D010BD00BF1F
:10771000FAF770FD044600BF2848007828B900BF7A
:107720002046FAF76BFD00BFF0E724480078401EC2
:107730002249087008460078002805DD00BF204671
:10774000FAF75CFD00BFE1E71D480078002805DD81
:1077500000BF2046FAF752FD00BFD7E700F01CFE3D
:10776000184908700846007800EB4000164951F8A7
:1077700020001649086008460068154909688842D3
:1077800005D100BF2046FAF739FD00BFBEE70F481C
:107790000068406C401C0D49096848640D48006849
:1077A000401C0C490860FAF7BDFD00BF2046FAF7FF
:1077B00025FD00BF00BFA9E72C0000202400002009
:1077C0003C0000202E000020B00700205C000020BC
:1077D000580000204000002010B500241E4800780A
:1077E000002800DD10BD1D480078002800DDF9E705
:1077F00000BFFAF7FFFC044600BF00F0CDFD1849BA
:1078000008700846007800EB4000164951F8200047
:10781000154908600846006814490968884205D17E
:1078200000BF2046FAF7EAFC00BFDBE70E4800681D
:10783000406C401C0C49096848640D480068401CB5
:107840000B490860FAF769FD00BF2046FAF7D6FC3D
:1078500000BF00BFC6E70000240000203C0000205D
:107860002E000020B00700205C00002058000020FF
:107870004000002010B5044612480078E8B900F036
:107880008BFD1149087008460078104908700E48B1
:10789000007800EB40000E4951F820000D490860C7
:1078A000084600680C490860012006490870FAF78C
:1078B00023FD43F69920208002E045F68A6020806F
:1078C00010BD00002C0000202E0000202D00002004
:1078D000B00700205C000020580000202DE9FF4F79
:1078E00085B004469346DDE91985159F139E002057
:1078F000029056480078002805DD47F24A1028809B
:1079000009B0BDE8F08F1CB947F2AD102880F7E749
:10791000BBF1000F03D147F24F102880F0E71EB9EA
:1079200046F62F602880EBE749480068874203D27B
:1079300046F630602880E3E71498B84203D346F651
:1079400031602880DCE71298202803D346F27320A8
:107950002880D5E712981F2806D13E48844203D0DC
:1079600046F273202880CBE7204600F017FE002067
:10797000288008F0010088B108F0020070B1B2461A
:107980000020049007E00020CAF800000AF1040A71
:107990000498401C04900498B842F4D3149806EB61
:1079A00080000390CDE9007832465846039B089941
:1079B00000F022FA8246129884F82300C4F800A04E
:1079C00018986060A4F824804FF0000908E00021B6
:1079D00004F1380040F8291009F1010000F0FF0916
:1079E000B9F1000FF3D0204600F03AF800BF00BF15
:1079F000FAF700FC029000BFFBF742FC00BF94F8CE
:107A0000230000F0E9FC204600F052FD12480088F7
:107A1000401C1149088011480078012809D000BF96
:107A2000FBF748FC00BF0298FAF7E8FB00BF00BF75
:107A300066E700BFFBF73EFC00BF0298FAF7DEFBEB
:107A400000BF00BFFFF7C8FE00BF59E724000020B9
:107A5000ECD9000848070020440000202C0000203A
:107A600010B504460348006818B12046014909686A
:107A7000884710BD0400002070B504460D4600265E
:107A800044480078002803DD47F24E10288070BD7E
:107A90004148844203D147F24C102880F7E79CB953
:107AA00000BF00BFFAF7A6FB064600BFFBF7E8FBE6
:107AB00000BF3A48046800BFFBF7FCFB00BF30463C
:107AC000FAF79CFB00BF00BF00BF00BFFAF792FBB4
:107AD000064600BFFBF7D4FB00BF94F8220008283D
