:020000040800F2
:102000009855002041220008492200084B22000870
:102010004D2200084F220008512200080000000055
:102020000000000000000000000000005322000833
:1020300055220008000000004F230008AD8700086B
:102040005B2200085B2200085B2200085B2200087C
:102050005B2200085B2200085B2200085B2200086C
:102060005B2200085B2200085B220008C5490008CB
:102070005B2200085B2200085B2200085B2200084C
:102080005B2200085B2200085B2200085B2200083C
:102090005B2200085B2200085B2200085B2200082C
:1020A0005B2200085B2200085B2200085B2200081C
:1020B0005B2200085DB800085B2200085B22000874
:1020C0005B2200085B2200085B2200085B220008FC
:1020D0005B2200085B2200085B2200085B220008EC
:1020E0005B2200085B2200085B2200085B220008DC
:1020F0005B2200085B2200085B2200085B220008CC
:102100005B2200085B2200085B2200085B220008BB
:1021100089BD00085B2200085B2200085B220008E2
:102120005B2200085B2200085B2200085B2200089B
:1021300000F002F800F05AF80AA090E8000C82447F
:102140008344AAF10107DA4501D100F04FF8AFF25C
:10215000090EBAE80F0013F0010F18BFFB1A43F085
:1021600001031847E0C5000000C600000A444FF014
:10217000000C10F8013B13F0070408BF10F8014BE6
:102180001D1108BF10F8015B641E05D010F8016B2B
:10219000641E01F8016BF9D113F0080F1EBF10F88F
:1021A000014BAD1C0C1B09D16D1E58BF01F801CBB2
:1021B000FAD505E014F8016B01F8016B6D1EF9D535
:1021C0009142D6D37047000000230024002500264A
:1021D000103A28BF78C1FBD8520728BF30C148BF8A
:1021E0000B6070471FB51FBD10B510BD00F05EF845
:1021F0001146FFF7F7FF0AF077FC00F07CF803B414
:10220000FFF7F2FF03BC00F07FF8000072B67047E2
:1022100062B67047EFF3108072B6704780F3108893
:10222000704730BF704720BF7047B0FA80F07047EA
:1022300090FAA0F0B0FA80F0704790FAA0F07047E2
:102240000948804709480047FEE7FEE7FEE7FEE74A
:10225000FEE7FEE7FEE7FEE7FEE7FEE70448054986
:10226000054A064B704700008DB700083121000871
:10227000984F002098550020985100209851002038
:1022800070477047704710B500F008F8006810BD3F
:1022900010B5044600F002F8046010BD0048704715
:1022A000384F002000487047384F00207546FFF730
:1022B000F9FFAE4605006946534620F00700854603
:1022C00018B020B5FFF7CAFFBDE820404FF0000668
:1022D0004FF000074FF000084FF0000B21F007010E
:1022E000AC46ACE8C009ACE8C009ACE8C009ACE851
:1022F000C0098D46704710B50446AFF300802046F4
:10230000BDE81040FFF77BBF01491820ABBEFEE7D8
:1023100026000200704700001D484FF0FF010170C9
:10232000002080F309881B48016881F308881A4857
:102330004FF08051016062B6FEE717484FF08051C0
:102340000160704714484FF080510160704772B6C9
:10235000EFF3098028B1203880E8F00F0F490968B1
:10236000086000B50E4880475DF804EB0D480E4943
:102370000A78027009480D490A680260106890E8FE
:10238000F00F203080F309884EF0F40E62B67047EB
:1023900022ED00E06400002004ED00E05C0000207D
:1023A0002D86000830000020310000206000002051
:1023B00010B502210F4800F0F5F800210E4802F098
:1023C000A1FB32200C490839C86001210A4802F0FB
:1023D00099FB0121074800F0F3F80648083000682F
:1023E00040F002000349083108600121014800F073
:1023F00086F910BD002401400800024000B591B0EC
:102400000121480207F0F8FD0121082007F0F4FD42
:102410000121102007F0F0FD4FF4004007F0C0FD4F
:102420000120ADF8400000208DF8430010A9584865
:1024300002F09AFF0220ADF8400000208DF8430022
:1024400010A9534802F090FF0120ADF84000002091
:102450008DF8430010A94F4802F086FF0820ADF820
:10246000400000208DF8430010A94A4802F07CFF8C
:102470000420ADF8400000208DF8430010A9454825
:1024800002F072FF0121084607F096FD42480090D5
:1024900042480190002002903220039000200490D6
:1024A0008020059040000690800007900020089052
:1024B0004FF40050099000200A906946384802F015
:1024C0004CFB0121364802F01DFB01220221344859
:1024D00002F03AFB00200B9001208DF830008DF8BF
:1024E00031004FF460200D9000200E9005208DF8F3
:1024F0003C000BA928484C3800F078F8072301224B
:10250000082125484C3800F099F8072302220921B8
:1025100021484C3800F092F8072303220A211E4874
:102520004C3800F08BF8072304220C211A484C3851
:1025300000F084F8072305220D2117484C3800F0DD
:102540007DF8012114484C3800F03AF80121124876
:102550004C3800F02AF810484C3800F0CBF800BF97
:102560000D484C3800F037F80028F9D10A484C38AB
:1025700000F0D0F800BF08484C3800F02CF80028D4
:10258000F9D1012104484C3800F0B9F811B000BD70
:10259000000C0140001001404C240140A84E0020D6
:1025A00008000240CA430260704721B1826842F0CD
:1025B0000102826003E0826822F0010282607047BB
:1025C00021B1826842F48072826003E0826822F462
:1025D000807282607047014600208A6802F004021F
:1025E0000AB1012000E000207047000030B502462B
:1025F0000020002350680F4C20400D790C6844EAFD
:1026000005242043506090680B4C2040D1E90254CF
:102610002C434D7944EA450420439060D06A20F46D
:1026200070000C7C641EE4B2234340EA0350D06285
:1026300030BD0000FFFEF0FFFDF7F1FFF0B50446EE
:102640000D4600200021092D11DDE068A5F10A06E4
:1026500006EB4607072606FA07F18843A5F10A06A6
:1026600006EB460603FA06F10843E0600CE0206939
:1026700005EB4507072606FA07F1884305EB4506F3
:1026800003FA06F108432061072A0FDA606B561E31
:1026900006EB86071F2606FA07F18843561E06EB4F
:1026A000860605FA06F10843606322E00D2A0FDA78
:1026B000206BD61F06EB86071F2606FA07F1884314
:1026C000D61F06EB860605FA06F10843206310E0E4
:1026D000E06AA2F10D0606EB86071F2606FA07F14F
:1026E0008843A2F10D0606EB860605FA06F10843BB
:1026F000E062F0BD816841F008018160704721B15E
:10270000826842F4A002826003E0826822F4A002A0
:1027100082607047816841F0040181607047000069
:1027200053485449086054484860544888605448A5
:10273000C860544808615448486154488861544806
:10274000C8615448086254484862544888625448F2
:10275000C8625448086354484863544888635448DE
:10276000C8655448086654484866544888665448C2
:10277000C866544808675448C1F884005348C1F8F3
:1027800088005348C1F898005248C1F89C0052484C
:10279000C1F8A0005148C1F8AC005148C1F8B000E0
:1027A0005048C1F8B4005048C1F8B8004F48C1F8CB
:1027B000BC004F48C1F8C0004E48C1F8C4004E48A4
:1027C000C1F8C8004D48C1F8CC004D48C1F8D00050
:1027D0004C48C1F8DC004C48C1F8E0004B48C1F857
:1027E000E4004B48C1F8E8004A48C1F8EC004A4808
:1027F000C1F844014948C1F848014948C1F85001AD
:102800004848C1F854014848C1F864014748C1F834
:1028100068014748C1F86C014648C1F87001464854
:10282000C1F874014548C1F878014548C1F88C01E8
:102830004448C1F890014448C1F894014348C1F8A4
:1028400098014348C1F89C014248C1F8A0014248A0
:10285000C1F8A4014148C1F8A8014148C1F8BC0130
:102860004048C1F8C0014048C1F8C40170470000A9
:1028700035A100087047002051B0000871B0000871
:10288000D5B10008F5B1000859A10008E5A4000879
:1028900079A1000889A10008C19E0008D19E000806
:1028A000A9A30008B9A3000841A2000851A200088A
:1028B00029AE000851AD000831AC000891AC000809
:1028C000F1AC0008B1AD000875AB000851A40008D8
:1028D000E9A100083DA4000899A10008F9AA000890
:1028E00015AB0008E1A70008FDA70008F5A6000841
:1028F00011A7000889AE0008A5AE000825A60008AB
:1029000041A60008C1A10008619F0008119F0008AE
:10291000799F0008E19E000855A50008C9AA000893
:1029200019A5000845A9000885A90008A1A9000863
:1029300019AA000835AA0008B5AB0008D1AB0008F9
:102940004DAF000819AF000801A90008CDA8000884
:102950008DA50008A9A500087DAF000899AF000863
:1029600081A40008BDA6000815B0000870B50024B9
:10297000304890F84C0000F0F000802805D12D4838
:1029800090F84C0000F00F0030B100202A49088078
:102990002A482B49086070BD0020264981F8B00103
:1029A0000021244880F8B11123480088401C2249A6
:1029B000088008460088B0F5967F00DAEBE7002033
:1029C0001D4908801B4890F8F801C0F3401058BB1F
:1029D000184890F8F801C0F3001028BB1548D0F84B
:1029E000B81118480BF06EFD0546124801682846DC
:1029F0000BF0D6F90446144920460BF06FFB07D2C2
:102A0000124920460BF06AFC02D20A48046002E038
:102A10000020084908600748D0F8FC0120F00100B8
:102A2000401C0449C1F8FC0100210248C16400BFF8
:102A3000B1E70000B0090020A8000020C16700082D
:102A4000980000200000B44200002041000020C196
:102A50001CB5002400BF00F027F821E069460020E3
:102A600002F068FD48B90F48016800980BF098F92A
:102A70000C49C1F8B80100240DE0142C02DA601CE6
:102A800084B208E00748D0F8F80120F010001030B8
:102A90000449C1F8F80101AA0021022005F00EFE48
:102AA000DCE70000B009002008B508F025FC04F0C0
:102AB00029F86946182008F0C9FB9DF8000038285D
:102AC00001D1002008BD4FF0FF30FBE708B500BF83
:102AD0000BE000F0B5FC02F083FD0449C1F8F401FD
:102AE0006A4600211E2005F0E9FDF2E7B00900204A
:102AF00010B5204890F84C00282803D01E481F49E4
:102B0000086010BD00201B4981F8B001486B4FF0F0
:102B10007E510BF045F904461648816D20460BF0B6
:102B2000DDFB08D21349486B4FF07E510BF038F9AA
:102B30001049486518E00F49886B4FF07E510BF043
:102B4000C1FC04460B48816D20460BF0C7FA08D241
:102B50000849886B4FF07E510BF0B4FC054948657D
:102B600002E00448816D41650121024880F8B111FD
:102B700000BFC6E7B0090020252C00089C000020FB
:102B800010B50C4890F84C00252803D00A480B4992
:102B9000086010BD0020074981F8B001888F0BF054
:102BA00089FA044948650121024880F8B11100BF43
:102BB000EFE70000B0090020252C00089C00002051
:102BC00010B5144890F84C0000F0F000202818D1FF
:102BD0001048D0F8F801C0F3807068B90D48D0F8FB
:102BE000F801C0F3006038B909F012FA00F082FA77
:102BF0000948006880470BE00021064880F8B111C1
:102C000006E00648064908600021024880F8B11134
:102C100010BD0000B00900209C000020C167000822
:102C20009800002000211F4880F8B11190F84C0056
:102C3000242803D11C481D49086032E0194890F847
:102C40004C00252803D11A481849086029E0154886
:102C500090F84C00282806D1164814490860002135
:102C60001048C1651DE00F4890F84C00212803D1A1
:102C700011480E49086014E00A4890F84C002228D8
:102C800003D10E48094908600BE0064890F84C0053
:102C9000202803D10A480549086002E009480A498A
:102CA00008607047B0090020F12F00089C00002048
:102CB000812B0008F12A0008CD2C0008E52E000821
:102CC000592F0008C16700089800002010B57C4803
:102CD00090F84C00212808D000207A4908707A49E1
:102CE00008807A487A49086010BD0020744981F84C
:102CF000B0017448007805287ED2DFE800F0032D8B
:102D00006581B80073496E484165012180F8B111B1
:102D1000014608696F490BF043F804466848D0F84B
:102D2000B81120460BF0DAFA15D8654801696948F0
:102D30000BF0C8FB04466248D0F8B81120460BF0EF
:102D4000CDF908D80120644908705E490870002157
:102D50005B4880F8B111B0E00121594880F8B11109
:102D60005D49097801EB8101490001F13C000BF05C
:102D700089F953494865486D58490BF0AFFA0AD8AC
:102D800001205549087003204E49087000214C4825
:102D900080F8B11117E04A49486D4FF07E510BF0B1
:102DA00091FB04464648D0F8B81120460BF096F93E
:102DB00009D20220434908700020434908800021BD
:102DC0003F4880F8B11178E000213D4880F8B1110A
:102DD0003D4801880088401C3B4A108042F6E06074
:102DE00081420CDB00201146088001203549087023
:102DF00039480078401C00E053E0374908705CE037
:102E000001212F4880F8B1113349097801EB810184
:102E10004900C1F178000BF035F929494865486D42
:102E20002F490BF05BF909D801202B49087025497F
:102E300008700021224880F8B11117E02049486D40
:102E40004FF07E510AF0ACFF04461D48D0F8B8118F
:102E500020460BF043FA09D804201A4908700020D4
:102E6000194908800021164880F8B11125E0002199
:102E7000134880F8B111144801880088401C124A98
:102E8000108042F6E06081420ADB00201146088093
:102E900003200C49087010480078401C0E49087047
:102EA0000BE0002007490870074908800A490870AC
:102EB0000021034880F8B11100BF00BF00BF13E735
:102EC000B0090020AA000020AC000020252C00083A
:102ED0009C00002000007042AE0000200000F44280
:102EE0000000684210B5174890F84C00222803D023
:102EF00015481649086010BD0020124981F8B0013C
:102F0000D1F8B80112490BF0DDFA044611490BF073
:102F1000E5F908D20B49886B4FF080410BF0D2FAEB
:102F20000849486507E00749486B4FF080410AF0BF
:102F300037FF044948650121024880F8B11100BFFC
:102F4000D9E70000B0090020252C00089C000020D3
:102F50000000B442CDCCCC3D10B5224890F84C00D6
:102F6000202803D020482149086010BD01201D49B8
:102F700081F8B001886B4FF07E510BF0A3FA044644
:102F80001848D0F8F41120460BF0A8F808D81549D5
:102F9000886B4FF07E510BF095FA124948651AE0A4
:102FA0001049486B4FF07E510AF0FAFE04460D4876
:102FB000D0F8F41120460BF091F908D80949486B74
:102FC0004FF07E510AF0ECFE0649486503E00548E3
:102FD000D0F8F41141650121024880F8B11100BF19
:102FE000C3E70000B0090020252C00089C00002049
:102FF00010B50C4890F84C00242803D00A480B491F
:10300000086010BD0020074981F8B001888F0BF0DF
:1030100051F8044948650121024880F8B11100BF08
:10302000EFE70000B0090020252C00089C000020DC
:1030300010B501214FF0C05006F0CEFF012006F080
:10304000D5FA002000F042F8002000F02BF800F044
:103050001FF8002006F0CAFA10BD10B5042000F0D9
:1030600027F84AF6AA21884201D1002010BD4FF06E
:10307000FF30FBE710B5012006F0B8FA4AF6AA21A6
:10308000042000F029F8002006F0B0FA10BD00007E
:103090000348008840F001000149088070470000A3
:1030A000346C0040014908607047000088860D427A
:1030B00008B501460020009003480090009808449D
:1030C00000900098008808BD006C0040014908602D
:1030D0007047000000860D4208B500220092044AA5
:1030E0000092009A02440092009A116008BD00000C
:1030F000006C00400E4890F84C00242817D00C4873
:1031000090F84C00252809D10948D0F8F801C0F3FF
:10311000007060B920210648C16408E00448D0F876
:10312000F801C0F3007010B125210148C164704757
:10313000B009002070B5044600250C4920460BF06C
:1031400001F806460A490BF0BDF905464FF07E51DD
:1031500028460BF0C3F801D84FF07E5505492846A4
:103160000AF0BCFF00D8034D284670BDF7E4213EAD
:10317000666666400AD7233C70B50024002503F03C
:10318000EFF8184818490861001588820820C860BF
:1031900014484860C014088108200860084603F0FD
:1031A00056F900F02DF802F009FE05464DB90F481A
:1031B0000F4908600F4848600F4888600F48C86092
:1031C00009E00A480A4908600A4848600A488860D5
:1031D0000A48C86000BF00BF01F026FB0446204635
:1031E00070BD0000000C0140AC4900203333534057
:1031F0009C490020333383401283C03E35310008A0
:1032000008B50121202006F0F7FE4020ADF80000AF
:1032100004208DF8030002208DF80200694605485D
:1032200002F0A2F88020ADF800006946014802F0E3
:103230009BF808BD0014014001460846044A126884
:10324000904203D9024A1268801A00E000207047B9
:103250007800002070B5002500BFFEF7DBFF0546B3
:1032600000BF0648046800BF2846FEF7D7FF00BF2E
:103270002046FFF7E1FF0646304670BD7C00002087
:1032800070B50025FFF7E6FF044600BFFEF7C2FF5A
:10329000054600BF00200449086000BF2846FEF72D
:1032A000BDFF00BF204670BD7C00002000B509486E
:1032B0000088401C074908800748008818B900F0BA
:1032C00039F80649086004480088401C0249088013
:1032D00000BD00006C0000206E0000207000002087
:1032E00000B50F480088401E0D4A10801046008827
:1032F000A0B900F01FF80B4A1060104600680A4A97
:103300001268811A09480068884201D207480160A2
:1033100007480068884201D20548016000BD0000EE
:103320006E00002074000020700000207C0000204F
:10333000800000200148406870470000001000E055
:1033400030B502460B46002100244FF6FF7000BF47
:1033500012E0555C684000240AE000F0010525B148
:1033600040104AF20105684000E04010651CECB2D4
:10337000082CF2DB4D1CA9B29942EADB30BD0000FB
:103380002DE9F74F82B08946144648460AF0DCFC26
:103390000746224A224B0AF053FA054609F012FF6B
:1033A0008146204920460AF0CDFE82460AF0CCFC38
:1033B00007461A4A1A4B0AF043FA054609F002FF7B
:1033C00004461948016802980BF07CF882460AF01E
:1033D000BBFC0746154A164B0AF032FA054609F0BF
:1033E000F1FE02902146484609F092F900900AF059
:1033F000ABFC05460F4A104B0AF022FA07460022A2
:103400000E4B09F011FF824609F0DCFE0190DDE968
:10341000011003F01FFA05B0BDE8F08FD5CC5A0AB1
:1034200048FB0F3F000080BFD8000020EC51B81EC1
:1034300085EB713FD3DEE00B93A94C4000805640F2
:1034400000B5C3B0002042900021419140913F91CE
:103450003E913D913C913B913A9139913891379110
:1034600036913591349133913291319130912F9140
:103470002E912D912C912B912A9129912891279170
:1034800026912591249123912291219120911F91A0
:103490001E911D911C911B911A91FE48B0F8641069
:1034A0003E91B0F866103D91B0F868103C91DDE9AE
:1034B0003C213E9802F0BCFC409040F26C7141917E
:1034C00029E04FF4C871419890FBF1F201FB120022
:1034D00010B94FF4B77118E04198C217199000EB7A
:1034E000927082101998A0EB820060B96421419813
:1034F00090FBF1F201FB120010B14FF4B77104E040
:1035000040F26D1101E040F26D113F9801443F918E
:103510004198401C41903E9941988842D1DBDDE9B9
:103520003F1001443F91DB484168389181683791F1
:10353000C1683691B0F86A103B91B0F86C103A91BE
:10354000B0F86E10399139980AF09CFD35903A9890
:103550000AF00FF9CDE9160135980AF0F5FB0022C3
:10356000CD4BCDE9120109F013FFCDE91401DDE9DE
:10357000162309F059FECDE9180109F023FE359014
:103580003B980AF0F6F8CDE9140135980AF0DCFB17
:103590000022C14BCDE9100109F0FAFECDE912017C
:1035A000DDE9142309F040FE0022BC4BCDE91601F1
:1035B00009F0EEFECDE9180109F004FE35903F98C0
:1035C000401C0AF05FFD3490B54936980AF05CFC67
:1035D0000F900AF0B9FBCDE9120135980AF0B4FB5F
:1035E0004FF08042AF4BCDE90E0109F01DFECDE951
:1035F0001001DDE912230AF0BDFACDE91601349875
:103600000AF0A2FBCDE91401DDE9162309F00CFE56
:10361000CDE9180109F0D6FD3490A34934980AF099
:1036200051FFA24919900AF02FFC339033980AF009
:103630008BFB9F4A9F4BCDE90E010AF001F99E4A90
:103640009E4BCDE9100109F0EFFDCDE9140133984F
:103650000AF07AFBCDE91201DDE914230AF0F0F853
:10366000974A984BCDE9160109F0DEFDCDE9180126
:1036700009F0A8FD32904FF4B471329803F016FCB3
:10368000329033980AF060FB8F4A904BCDE90E01DF
:103690000AF0D6F88E4A894B373BCDE910010AF083
:1036A0005DFACDE9140133980AF04EFBCDE9120121
:1036B000DDE914230AF0C4F8864A874BCDE91601E8
:1036C00009F0B2FDCDE9180109F07CFD3190339885
:1036D0000AF03AFB814A824BCDE90E010AF0B0F8BC
:1036E000804A814BCDE9100109F09EFDCDE914011E
:1036F00033980AF029FBCDE91201DDE914230AF021
:103700009FF87A4A7A4BCDE916010AF027FACDE9FB
:10371000180109F057FD3090764831990AF012FDF2
:1037200075490A900AF0B0FB0B900AF00DFB734A42
:10373000734BCDE90C010AF083F8CDE90E0109F0D5
:1037400041FD109009F0AAFB11900AF0FDFA6D4AB4
:103750006D4BCDE912010AF073F8CDE916013398EB
:103760000AF0F2FA694A6A4BCDE908010AF068F8F2
:10377000684A694BCDE90A010AF0F0F9CDE90E017A
:103780004FF0804031990AF0DDFC5B4904900AF06B
:103790007BFB05900AF0D8FA584A594BCDE906014F
:1037A0000AF04EF8CDE9080109F00CFD0A9009F085
:1037B00075FB0B900AF0C8FACDE90C01DDE90E2388
:1037C0000AF03EF8CDE9120133980AF0BDFA534AE7
:1037D000534BCDE902010AF033F8524A524BCDE97E
:1037E000040109F021FDCDE9080133980AF0ACFA93
:1037F000CDE90601DDE908230AF022F84B4A4C4BDB
:10380000CDE90A010AF0AAF9CDE90E013A49319849
:103810000AF03AFB05900AF097FA384A384BCDE99E
:1038200006010AF00DF8CDE9080109F0CBFC0A9079
:1038300009F034FB0B900AF087FACDE90C01DDE9C1
:103840000E2309F0FDFFCDE91001DDE9122309F097
:10385000EBFCCDE91401DDE9162309F0E5FCCDE927
:10386000180109F0AFFC2F902F9932980AF098FABE
:103870002E9033980AF068FA2E4A2F4BCDE91401A6
:1038800009F0DEFF2D4A2E4BCDE916010AF066F94C
:1038900058E00000B009002000004E400000384011
:1038A0000000C041D56C424164A1154A00AD0E47ED
:1038B000C0AB8A15DADE333F2F8672A21894E1403E
:1038C00046CEC29E768771400CDB60F25025243FC5
:1038D0002AC6F99BC91F0C3C7758764000D864FC77
:1038E0006001813E03E35F521C0A063F80035D7264
:1038F000111C913F00004040000034434AD8124D53
:10390000FB2109402C616D8C9DF0323FE31A9FC969
:10391000FE791A3F958098840B79943FB75F3E59A2
:10392000315CED3EAEF36F97FDBA733FF6B2EDB486
:1039300035A2FE3F068195438B389E40C3F5285C37
:103940008F425F40CDE9180109F03CFC4290FE49EE
:1039500042980AF099FA0B900AF0F6F9FB4AFC4BF0
:10396000CDE90C0109F06CFFCDE90E0109F02AFC4C
:10397000109009F093FA11900AF0E6F9F54AF64B27
:10398000CDE9120109F05CFFCDE916012E980AF08D
:10399000DBF9F24AF24BCDE912010AF0EBF8CDE97E
:1039A0001401DDE916230AF0E5F8CDE9180109F064
:1039B00009FC2D9033980AF0C7F9EA4AEA4BCDE9A1
:1039C000000109F03DFFE94AE94BCDE902010AF0A7
:1039D000C5F8CDE9060133980AF0B6F9CDE904013E
:1039E000DDE9062309F02CFFE24AE34BCDE90801AB
:1039F00009F01AFCCDE90C0133980AF0A5F9CDE9DC
:103A00000A01DDE90C2309F01BFFDC4ADC4BCDE9A0
:103A10000E010AF0A3F80022DA4BCDE9100109F0FB
:103A2000B7FC0022D84BCDE9120109F0FDFB0022C2
:103A3000D44BCDE9140109F0ABFC0022D34BCDE906
:103A4000160109F0F1FBCDE9180109F0BBFB2C9040
:103A5000BD4942980AF018FA0B900AF075F9BB4A72
:103A6000BB4BCDE90C0109F0EBFECDE90E0109F0ED
:103A7000A9FB109008F07AFF11900AF065F9C44A8A
:103A8000C44BCDE9120109F0DBFECDE916012C98FB
:103A90000AF05AF9CDE91401DDE9162309F0C4FB57
:103AA000CDE9180109F08EFB2B90A7492D980AF05B
:103AB000EBF909900AF048F9A44AA54BCDE90A01AF
:103AC00009F0BEFECDE90C0109F07CFB0F9009F076
:103AD000E5F99D4911902B980AF0D6F909900AF062
:103AE00033F99A4A9A4BCDE90A0109F0A9FECDE9CA
:103AF0000C0109F067FB0F9009F0D0F910901199B3
:103B00000AF020FB129008F071FD13900AF01CF9E6
:103B10008E4A8F4BCDE9140109F03AFC00229E4BEE
:103B2000CDE9160109F08CFECDE9180109F04AFB38
:103B30002A904FF080412B980AF0A6F98249109004
:103B40000AF0A2F911900AF0FFF8804A804BCDE903
:103B5000120109F075FECDE9140109F033FB17904D
:103B600009F076FA4FF0804119902B980AF08CF901
:103B7000754910900AF088F911900AF0E5F8734A37
:103B8000734BCDE9120109F05BFECDE9140109F098
:103B900019FB179009F05CFA189019990AF0D2FAFB
:103BA0002990694931980AF06FF907900AF0CCF82A
:103BB000664A674BCDE9080109F042FE00224FF04A
:103BC0008043CDE90A0109F03BFECDE90C0109F083
:103BD000F9FA0E9009F062F90F900AF0B5F8CDE904
:103BE000120130980AF0B0F8CDE90E0130980AF0D1
:103BF000ABF80022694BCDE90A0109F021FECDE9BD
:103C00000C01DDE90E2309F01BFECDE91001DDE911
:103C1000122309F015FECDE916014B4932980AF03E
:103C200033F903900AF090F8484A494BCDE9040172
:103C300009F006FE00225A4BCDE9060109F000FE0C
:103C4000CDE9080109F0BEFA0A9009F027F90B90B6
:103C50000AF07AF8CDE90E0129980AF075F8CDE955
:103C60000A0129980AF070F800224E4BCDE90601AE
:103C700009F0E6FDCDE90801DDE90A2309F0E0FDE0
:103C8000CDE90C01DDE90E2309F0DAFDCDE91201E1
:103C90002D4932980AF0F8F803900AF055F82B4AAB
:103CA0002B4BCDE9040109F0CBFD00224FF08043FE
:103CB000CDE9060109F0C4FDCDE9080109F082FA59
:103CC0000A9008F053FE20490C9031980AF0DCF875
:103CD00003900AF039F81D4A1D4BCDE9040109F0A3
:103CE000AFFDCDE9060109F06DFA089009F0D6F8AC
:103CF0000A904FF0814030990AF024FA08902999EF
:103D00000AF020FA09900A990AF01CFA0B900C9913
:103D10000AF018FA0C490E9031980AF0B5F80390A1
:103D20000AF012F8094A0A4BCDE9040109F088FDAE
:103D3000CDE9060109F046FA089009F0AFF80A90BB
:103D40004FF0804030992FE0000034434AD8124DA4
:103D5000FB210940F94ECC7A3194733F1FBAA0BEC3
:103D6000654E773FD61A4AED45B45D3FBEA4315A41
:103D70004755433FB81E85EB51684740A69BC4207A
:103D8000B072354000004E4000003A40000037401D
:103D9000F168E388B5F8643F008066400000F43FB6
:103DA000000010400000E03F0AF0CCF909900A99A9
:103DB0000AF0C8F9FE490C9032980AF065F80190B3
:103DC00009F0C2FFFB4AFC4BCDE9020109F038FDC6
:103DD00000224FF08043CDE9040109F031FDCDE927
:103DE000060109F0EFF9099009F058F80A902999AD
:103DF0000AF0A8F90B900C990AF064FB0D900E994B
:103E000009F0CEFF0F9009F09FFFCDE91001DDE929
:103E1000122309F0AFFECDE91401DDE9162309F004
:103E2000A9FECDE9180109F0CDF94290429809F0B8
:103E30008BFFE04AE04BCDE9120109F0A9FA00221C
:103E4000DE4BCDE9140109F0FBFC0022DC4BCDE98F
:103E5000160109F0F5FCCDE9180109F0B3F9289035
:103E6000D3492A980AF010F8079009F06DFFD14A5B
:103E7000D14BCDE9080109F0E3FCCDE90A0109F0D5
:103E8000A1F90D9009F0E4F8C9490F90379809F0AD
:103E9000FBFF079009F058FFC64AC74BCDE9080160
:103EA00009F0CEFCCDE90A0109F08CF90D9009F07A
:103EB000CFF80E900F990AF045F9BD4911902A9854
:103EC00009F0E2FF059009F03FFFBA4ABA4BCDE98D
:103ED000060109F0B5FCCDE9080109F073F90B9072
:103EE00008F044FDB2490D90379809F0CDFF0590D8
:103EF00009F02AFFAF4AB04BCDE9060109F0A0FC5A
:103F0000CDE9080109F05EF90B9008F02FFD0C9047
:103F10000D990AF017F90F90AA4808F027FD0E90A6
:103F20000F9909F0B1FF109011990AF0CBFA129095
:103F300008F0CEFA139009F007FF9E4A9E4BCDE998
:103F4000140109F025FA00229C4BCDE9160109F075
:103F500077FCCDE9180109F035F927909A49369890
:103F60000AF0F0F818904FF0814038990AF0EAF81A
:103F7000964915900AF014FA169028990AF0A2FAB8
:103F80001790189909F00CFF9149199009F07CFFDE
:103F900026904FF0814127980AF0D4F88C49189068
:103FA00009F072FF199026990AF0FAF925904FF05E
:103FB000814127980AF0C6F88549189009F064FFF6
:103FC0001990269909F0ECFE24907F4836990AF062
:103FD000B9F819904FF0814038990AF0B3F87C494C
:103FE000179035980AF0AEF81590289909F0D8FE88
:103FF0001690179909F0D4FE189019990AF062FAF0
:1040000023904FF4B461239802F050FF23900021D5
:1040100023980AF063F809D24FF08141239809F000
:1040200033FF634919900AF04DFA08E04FF08141DF
:10403000239809F029FF5E4919900AF043FA22906B
:104040005B49229809F020FF079009F07DFE594A4C
:10405000594BCDE9080109F0F3FBCDE90A0109F05C
:10406000B1F80D9008F082FC51490F902A9809F0A0
:104070000BFF059009F068FE4E4A4F4BCDE9060153
:1040800009F0DEFBCDE9080109F09CF80B9008F07F
:104090006DFC47490D90379809F0F6FE059009F040
:1040A00053FE444A444BCDE9060109F0C9FBCDE972
:1040B000080109F087F80B9008F058FC0C900D9956
:1040C0000AF040F80E900F990AF03CF83849119028
:1040D0002A9809F0D9FE079009F036FE354A364B8A
:1040E000CDE9080109F0ACFBCDE90A0109F06AF855
:1040F0000D9008F0D3FE2E490F90379809F0C4FEBA
:10410000079009F021FE2B4A2B4BCDE9080109F05D
:1041100097FBCDE90A0109F055F80D9008F0BEFEB5
:104120000E900F990AF00EF81090119909F038FED0
:10413000129008F0CDF9139009F006FE1D4A1E4BAF
:10414000CDE9140109F024F900221C4BCDE9160138
:1041500009F076FBCDE9180109F034F821901D48EB
:1041600021990AF0AFF920901149209809F08CFEAE
:10417000139009F0E9FD0F4A0F4BCDE9140109F046
:104180005FFBCDE9160109F01DF8199008F060FFFA
:104190001F901F99084609F0D5FF19901F9909F043
:1041A000D1FF1E90DDE91E0109F0CCFF199013E04C
:1041B000000034434AD8124DFB210940008066407C
:1041C0000000104041ECCA3F00007042000034443F
:1041D0000000B4440000B4421F9909F0B3FF1D90E1
:1041E000FE4920980AF07AF802D200200146B8E091
:1041F000FB4920980AF072F845D21D9809F0A4FDF9
:1042000002460B46CDE91001F648F74909F0C0F81F
:10421000CDE914011E9809F097FD02460B46CDE941
:104220000C01F248F24909F0B3F8CDE91001F14967
:10423000209809F029FE059009F086FDEE4AEF4B23
:10424000CDE9060109F0FCFACDE9080108F0BAFF52
:104250000A9008F0FDFE0B9009F076FD02460B4631
:10426000CDE90C01E648E74909F092F8CDE90E01E5
:10427000DDE9102309F07EFCCDE91201DDE914230C
:1042800008F0D2FF6DE0209809F05EFD4FF0663235
:10429000DD4BCDE9140109F0D1FB43D2209809F0A0
:1042A00053FDDA4ADA4BCDE9000109F0C9FACF4AE9
:1042B0005242D84BCDE9020108F0B6FFCDE9060124
:1042C000209809F041FDCDE90401DDE9062309F05C
:1042D000B7FAD14AD14BCDE9080108F0A5FFCDE9E5
:1042E0000C01209809F030FDCDE90A01DDE90C232D
:1042F00009F0A6FAC84ACA4BCDE90E0108F094FFAE
:10430000CDE91201209809F01FFDCDE91001DDE98A
:10431000122309F095FA0022C24BCDE9140108F0EE
:1043200083FF1EE0B349209809F0AEFD0D9009F01F
:104330000BFDB14AB14BCDE90E0109F081FACDE98F
:10434000100108F03FFF129008F082FE139009F070
:10435000FBFC02460B46CDE91401B348B34909F012
:1043600017F80022B24BCDE9160109F011F8CDE99A
:10437000180108F027FF1C901C99209809F010FDE7
:104380001B900021229809F0A9FF7CD2994921981D
:1043900009F07AFD039009F0D7FC974A974BCDE9D5
:1043A000040109F04DFACDE9060108F00BFF099070
:1043B00008F074FD8F490B90379809F065FD039064
:1043C00009F0C2FC8C4A8D4BCDE9040109F038FAA2
:1043D000CDE9060108F0F6FE099008F0C7FA0A9048
:1043E0000B9909F0AFFE83490D902A9809F04CFD16
:1043F000039009F0A9FC804A804BCDE9040109F043
:104400001FFACDE9060108F0DDFE099008F046FD2F
:1044100078490B90219809F037FD019009F094FC40
:10442000754A764BCDE9020109F00AFACDE904019B
:1044300008F0C8FE079008F099FA6E49099037987D
:1044400009F022FD019009F07FFC6B4A6B4BCDE92E
:10445000020109F0F5F9CDE9040108F0B3FE079077
:1044600008F01CFD0890099909F06CFE0A900B9960
:104470000AF028F80C900D9909F006FD0E9008F04E
:1044800027F80F9000E01DE009F05EFC5A4A5B4BF4
:10449000CDE9100108F07CFF0022664BCDE9120146
:1044A00009F0CEF90022634BCDE9140108F0BCFEFF
:1044B000CDE9160108F086FE4FF4B471199002F0B0
:1044C000F5FCC7E04B49219809F0DEFC039009F0A8
:1044D0003BFC494A494BCDE9040109F0B1F9CDE96A
:1044E000060108F06FFE099008F0D8FC41490B90D6
:1044F000379809F0C9FC039009F026FC3E4A3F4B6F
:10450000CDE9040109F09CF9CDE9060108F05AFE55
:10451000099008F02BFA0A900B9909F013FE35491F
:104520000D902A9809F0B0FC039009F00DFC324A76
:10453000324BCDE9040109F083F9CDE9060108F019
:1045400041FE099008F0AAFC2A490B90219809F035
:104550009BFC019009F0F8FB274A284BCDE90201AA
:1045600009F06EF9CDE9040108F02CFE079008F07F
:10457000FDF920490990379809F086FC019009F06F
:10458000E3FB1D4A1D4BCDE9020109F059F9CDE9C4
:10459000040108F017FE079008F080FC08900999C4
:1045A00009F0D0FD0A900B9909F08CFF0C900D9941
:1045B00009F06AFC0E9007F08BFF0F9009F0C4FB26
:1045C0000D4A0E4BCDE9100108F0E2FE0022194B16
:1045D000CDE9120109F034F900222DE00000AA42D1
:1045E0000000A0403677F4BF5C8B163FEC51B81E3C
:1045F00085EBB13F000034434AD8124DFB210940FE
:10460000CDCCCCCCCC0C4D406666E2BF8D976E1203
:1046100083C0E63F7A9429C09A99999999D95940CB
:10462000993180C0001C9B401283C0CAA1C534C010
:104630000020AC4000806640214BCDE9140109F018
:104640008DFACDE9160108F0BDFD4FF4B471199053
:1046500002F02CFC1A901B49259809F073FD1A49A9
:10466000C1F8E4011749249809F06CFD1649C1F816
:10467000E8011A98C1F8F0011B9809F065FB0022C7
:10468000124BCDE9180109F0D9F904D810490E48A8
:10469000C0F8EC1112E01B9809F056FB00220D4BFC
:1046A000CDE9180109F090F804D20B490648C0F88A
:1046B000EC1103E004491B98C1F8EC0143B000BDC4
:1046C00000E080400000C041B0090020004056409A
:1046D0000000B242004056C00000B2C210B504460D
:1046E000012C0DD04448007800F0010008B900F01A
:1046F00013F9002001F022FE00204049087010BD8F
:104700003F48007830B101281ED0022844D0032849
:104710006BD159E03B49D1F8DC013B4909F0DEFCA3
:104720000ED83849D1F8C801384909F0D7FD03D867
:1047300001203349087006E003203149087002E087
:1047400002202F49087054E02B48007800F0010047
:1047500008B900F0E1F82B49D1F8DC014FF08241B3
:1047600009F0BCFD06D92749D1F8C801284909F04C
:10477000B5FC08D8002001F0E1FD00201F490870B9
:104780001F49087007E0012001F0D8FD01201B49F6
:1047900008701B4908702CE0002001F0CFFD0020BC
:1047A000164908701448007800F0010008B100F0C4
:1047B00031F811480078C0F3001008B100F098F803
:1047C00000200F49087014E0002001F0B7FD002020
:1047D0000A4908700848007800F0010008B900F0A4
:1047E0009BF800200649087003E000200449087087
:1047F00000BF00BF00BF82E7B0000020B100002072
:10480000BC000020B00900200000A0400000F041E2
:104810000000E04110B510231422D021014801F01E
:104820002FFF10BDAC4900202DE9F04100242C4899
:10483000C06810B9601EBDE8F0814FF4887314227F
:10484000D021284801F01CFF044600232922D02152
:10485000244801F015FF044411231522D0212148DA
:1048600001F00EFF04441E4988684FF0834109F0AF
:1048700069FC07464FF07E5109F024FE064609F018
:10488000E1FB85B22B461A22D021164801F0F8FE32
:10489000044413494868144909F014FE07461349B3
:1048A00009F050FC064609F0CDFB85B22B461B22D1
:1048B000D0210C4801F0E4FE04444FF461631D2252
:1048C000D021084801F0DCFE044445F260431E227A
:1048D000D021044801F0D4FE04442046ABE7000098
:1048E0009C490020AC490020000074400000A04218
:1048F00010B54FF488731422D021064801F0C0FE91
:10490000142000F055F910231422D021014801F0A1
:10491000B7FE10BDAC49002010B54FF488731422C7
:10492000D021024801F0ACFE10BD0000AC490020CF
:1049300010B54FF48071024800F0F5FD10BD000085
:104940000008014001201749888200200860A1F872
:1049500044005A2088872D20A1F84200124848635D
:10496000124888635A20C887A1F8400040070861B0
:104970000F4888600F4848604FF08240C8600E487A
:1049800048620E480862002088623C20C8851220D8
:1049900088854FF4967048860E20088608488861FE
:1049A00070470000B00900200000344200000743B7
:1049B0000000F0410000F242CDCC8C409A99F93FC2
:1049C0000000404010B5022000F0A8F8002864D094
:1049D0003248006820F002003049086000212F486A
:1049E0000838FDF78CFE00212C480838FDF7E8FD5B
:1049F000022000F079F800202949087031E00021F8
:104A00002848274A127840F82210002026490870CA
:104A10001EE02549097801EB8101214A12781144F1
:104A2000224A32F8110009F045FB04461D481C4A91
:104A3000127850F82210204609F0B2F91949184AA4
:104A4000127841F8220018480078401C1649087076
:104A5000154800780A28DCDB11480078401C104912
:104A600008700F4800780528C9DB0E480068104917
:104A700008600C4840680F4908600A4880680E4981
:104A800008600848C0680D490860064800690C497C
:104A9000086000210B4800F035F810BD08240140E3
:104AA000240100200C4F002025010020A84E0020EA
:104AB000280100202C0100203001002038010020B6
:104AC000340100200800024010B5044600210548CA
:104AD00000F018F80348001D04600121001F00F0D9
:104AE00011F810BD5804024000F0805111B1034983
:104AF000086001E002494860704700000404024079
:104B00000000024021B1026842F00102026004E0AC
:104B100002684FF6FE731A4002607047014600209B
:104B2000002201F0805313B1054B1A6801E0054BD8
:104B30001A6802EA01030BB1012000E0002070476F
:104B400000040240000002401AB103680B430360F6
:104B500002E003688B430360704710B500220268CF
:104B600047F6F0739A430C6A8B6823430C6923431E
:104B70004C6923438C692343CC6923434C6A234308
:104B80008C6A23431A430260CB6843600B688360DE
:104B90004B68C36010BD0C2105E00C2100BF0A1E4C
:104BA000A1F10101FBD1021EA0F10100F5D1704776
:104BB00006E0482100BF0A1EA1F1010359B2FADA4A
:104BC000021EA0F1010358B2F3DA704710B5144980
:104BD000D1F8CC01134909F081FA15D812480078B0
:104BE000401C1149087008460078142817DB002083
:104BF00008700B48D0F8F80120F0806000F1806068
:104C00000749C1F8F8010AE0002007490870044884
:104C1000D0F8F80120F080600149C1F8F80110BD1A
:104C2000B009002000007041D20000203EB5A54828
:104C300090F8B30101287DD10020A3490880A34842
:104C40000088401CA149088008460088052804DA2D
:104C50009C48D0F8B8019E4908609C480088B0F58F
:104C6000167F45DD0020994908809648D0F8B81194
:104C70009748006809F026FC04464FF03F4109F0D0
:104C80002DFA09D28F48D0F8F80120F00200801CDC
:104C90008C49C1F8F80107E08A48D0F8F80120F003
:104CA00002008849C1F8F8018648D0F8B811884850
:104CB000006809F007FC04464FF07E5109F00EFB36
:104CC0000BD38048D0F8B8118148006809F0FAFB8E
:104CD0000446804909F002FA0BD27A48D0F8F8016C
:104CE00020F020007749C1F8F80100207A490880B7
:104CF000E7E07448D0F8F80120F020002030714936
:104D0000C1F8F80174480088012817D102A80021D1
:104D100048F204130A46CDE9001002216F4802F060
:104D2000E7FDBDF808000028E2D102AB0022042113
:104D30006A4800E01FE002F0B7FFC2E06648008862
:104D40000028D5D15F48D0F8F801C0F340700028A2
:104D5000CED10120604908805A48D0F8F80120F0EF
:104D600020005849C1F8F80102AB002201215B483C
:104D700002F09AFFA5E0534890F8B30102287CD1D5
:104D800000205249088050480088401C4E49088045
:104D900008460088052804DA4A48D0F8B8014C498A
:104DA000086049480088B0F5167F45DD0020464977
:104DB00008804448D0F8B8114548006809F082FBE3
:104DC00004464FF07C5109F089FA09D23D48D0F8E9
:104DD000F80120F00200801C3A49C1F8F80107E010
:104DE0003848D0F8F80120F002003649C1F8F8013F
:104DF0003448D0F8B8113648006809F063FB04461F
:104E00004FF07E5109F06AFA0BD32E48D0F8B81152
:104E10002F48006809F056FB04462E4909F05EF958
:104E20000BD22848D0F8F80120F020002549C1F81D
:104E3000F80100202849088043E02248D0F8F80112
:104E400020F0200020301F49C1F8F80122480088D6
:104E5000012816D102A8002148F204130A46CDE920
:104E6000001002211D4802F043FDBDF8080010BBF0
:104E700002AB00220421194800E01DE002F014FFFB
:104E80001FE015480088B0B90E48D0F8F801C0F30B
:104E9000407080B90120104908800A48D0F8F80114
:104EA00020F020000749C1F8F80102AB00220121DF
:104EB0000A4802F0F9FE04E0002004490880024993
:104EC00008803EBDB0090020CE000020CC000020AC
:104ED000C8000020000080BFD0000020E84400206F
:104EE00070B54D4890F8B201002864DD4A4A9169D6
:104EF000D2F8BC0109F0F2F90CD94748D0F8BC113E
:104F0000464809F01FF9044643488169204609F0E4
:104F1000E5F91DD800204249087042480078401C3D
:104F2000404908700846007808F03AFC0446002220
:104F30003D4B08F083FD0BD200203A4908703648FB
:104F4000D0F8F80120F00100401C3349C1F8F80105
:104F500031498869354909F0F5F804462E48D0F8FA
:104F6000BC11204609F0BAF92AD82B498869304982
:104F700009F0E8F804462848D0F8BC11204609F0AA
:104F8000ADF81DD826480078401C25490870084611
:104F90000078642814DD00200870224908701E483B
:104FA000D0F8F80120F001001B49C1F8F8010020F9
:104FB0002049087004E00020194908701949087058
:104FC000154890F8F80100F0010008B31A4800886D
:104FD000401C1949088008460088B0F5966F1ADD14
:104FE0000020088013480078401C124908700846C9
:104FF0000078082808DA0848D0F8F80120F0010005
:105000000549C1F8F80106E009200A49087002E0E4
:1050100000200949088070BDB0090020000080BF51
:10502000C0000020C100002000002C406666663FE2
:10503000666666BFC2000020C400002010B53A4971
:10504000886B4FF0804108F0ABFE04463648D0F83C
:10505000B811204609F042F814D234480078401CB8
:10506000324908700846007832285CDD3420087028
:105070002D48D0F8F80120F0080008302A49C1F87E
:10508000F80150E02849486B4FF0804109F01AFAC6
:1050900004462548D0F8B811204609F01FF914D26B
:1050A00022480078401C21490870084600783228C0
:1050B00039DD342008701C48D0F8F80120F00400D5
:1050C000001D1949C1F8F8012DE01749886B4FF010
:1050D0007E5109F0F7F904461348D0F8B81120467C
:1050E00009F0FCF81FD21049486B4FF07E5108F0D0
:1050F00057FE04460C48D0F8B811204608F0EEFFE1
:1051000011D20020094908700748D0F8F80120F0B2
:1051100004000549C1F8F8010846D0F8F80120F06C
:105120000800C1F8F80110BDB0090020C600002039
:1051300010B500F0E1F8352000F01EF800240AE078
:105140000B4901EBC42000F01DF800BF00F05AF835
:105150000128FBD0641C502CF2D3064800F012F852
:1051600000BF00F04FF80128FBD000F065F810BD3B
:1051700000A0020800F007080149C860704700005D
:105180000020024030B5044604254FF4302000F0E2
:10519000BFF80546042D17D10C48006940F0020005
:1051A0000A49086108464461006940F0400008610E
:1051B0004FF4302000F0ACF805460448006941F691
:1051C000FD71084001490861284630BD00200240B9
:1051D00004200B49C96801F0010109B101200EE06A
:1051E0000749C96801F0040109B1022007E0044938
:1051F000C96801F0100109B1032000E004207047E4
:105200000020024004200B49C96801F0010109B1E6
:1052100001200EE00749C96801F0040109B102202C
:1052200007E00449C96801F0100109B1032000E05A
:1052300004207047002002400348006940F08000CD
:1052400001490861704700000020024070B5044623
:105250000D460426F00200F05BF80646042E11D13C
:105260000948006940F00100074908612580F00203
:1052700000F04EF806460448006941F6FE71084009
:1052800001490861304670BD0020024078B50646ED
:105290000C46042500200090E80200F039F805468D
:1052A000042D24D11348006940F001001149086120
:1052B0003480E80200F02CF80546042D10D1B01C13
:1052C0000090200C00990880E80200F021F80546C3
:1052D0000848006941F6FE7108400649086106E089
:1052E0000448006941F6FE710840024908612846F9
:1052F00078BD00000020024002480349486003488E
:10530000486070472301674500200240AB89EFCD1C
:1053100000B502460423FFF75BFF034603E0FFF7F7
:1053200057FF0346521E012B01D1002AF7D102B9C3
:105330000523184600BD000010B500F073FF4FF4C0
:10534000E8500849A1F8AC0100F0D0FD0549B1F8DA
:10535000AC1108430349A1F8AC0109210148A0F8A8
:10536000AE1110BDB00900202DE9F0410246002524
:105370000026002000230024002791F803C00CF031
:105380000F0591F803C00CF0100CBCF1000F03D016
:1053900091F802C04CEA050591F800C0BCF1000F7D
:1053A00031D0146800202BE04FF0010C0CFA00F310
:1053B000B1F800C00CEA03069E4220D183004FF0F2
:1053C0000F0C0CFA03F7BC4305FA03FC4CEA040487
:1053D00091F803C0BCF1280F06D14FF0010C0CFA74
:1053E00000FCC2F814C00AE091F803C0BCF1480FF9
:1053F00005D14FF0010C0CFA00FCC2F810C0401CA3
:105400000828D1D31460B1F800C0BCF1FF0F34DD1F
:10541000546800202EE000F1080C4FF0010808FA53
:105420000CF3B1F800C00CEA03069E4221D18300C0
:105430004FF00F0C0CFA03F7BC4305FA03FC4CEADF
:10544000040491F803C0BCF1280F05D100F1080C49
:1054500008FA0CF8C2F8148091F803C0BCF1480FA8
:1054600007D100F1080C4FF0010808FA0CF8C2F857
:105470001080401C0828CED35460BDE8F0810000A5
:10548000F0B50A46002300240021002500F0004664
:10549000B6F1004F02D11D4EF16901E01B4E71685B
:1054A000C0F3034583B200F44016B6F5401F08D19F
:1054B00021F07061154E766826F07066134F7E609D
:1054C00012E000F48016B6F5801F06D1032606FA16
:1054D00005F4A14341F0706106E0460D360103FA80
:1054E00006F6B14341F0706122B1460D360103FA70
:1054F00006F6314300F00046B6F1004F02D1034EEC
:10550000F16101E0014E7160F0BD0000000001405A
:105510000246002093680B400BB1012000E0002000
:105520007047416170470161704700000048704753
:10553000704700202DE9F84F83460F4600240025D0
:1055400000266946232005F081FE9DF800000443F3
:105550006946222005F07AFE200204B29DF8000080
:10556000044369462B2005F071FE9DF800000543B9
:1055700069462A2005F06AFE280205B29DF800005F
:10558000054369462D2005F061FE9DF800000643A5
:1055900069462C2005F05AFE300206B29DF8000044
:1055A00006436946182005F051FE9DF80000382892
:1055B00013D1304608F066FD8046284608F062FDAB
:1055C0008146204608F05EFD824642464946FDF788
:1055D000D7FE38600020BDE8F88F4FF0FF30FAE7C3
:1055E0002DE9F04F91B04FF0000AB549D1F8EC0128
:1055F00008F0AAFB0446B34AB34B08F01FFA7DD863
:10560000AF49D1F8F001B14908F05CFFB0490E9004
:1056100008F03AFC834608F097FB0646AD4AAE4BCD
:1056200008F00EF9044607F0CDFD814607F09EF91B
:105630008046A349D1F8EC01A54908F025FC834632
:1056400008F082FB0646A34AA34B08F0F9F804468B
:1056500007F0B8FD814607F0FBFC41460F9007F0CC
:1056600057F88246504608F06FFB8046994A9A4B9D
:1056700007F08EFE06460022984B08F0E1F804463B
:1056800007F0A0FD82468E49D1F8F00108F05CFBDE
:1056900004460022914B08F097F87DD88848816A2B
:1056A000504608F01BFE79D28D49504608F016FE90
:1056B00074D28348816A504608F004FF84490E90F2
:1056C00008F0E2FB0F9008F03FFB0646814A824B50
:1056D00008F0B6F8044607F075FD834607F0DEFBD8
:1056E00081467748416A484608F02CFD8046744858
:1056F000016A404608F0F2FD05D800E0DBE05046C4
:1057000011B0BDE8F08F6E48816A504608F0DAFEAD
:105710006F49029008F0B8FB039008F015FB6D4A42
:105720006D4BCDE9040108F08BF8CDE9060107F0D7
:1057300049FD089007F0B2FB83466148416A58462C
:1057400008F000FD09905E48016A099808F09CFB8A
:105750000A9006F04BFF0B9008F0F6FA5D4A5E4B9C
:10576000CDE90C0107F014FE064600225B4B08F061
:1057700067F804460D465549504608F011FB0646A9
:1057800008F0E2FA22462B46CDE90E0108F0F2F9C4
:10579000804607F017FDB3E705E0FFE74849888F2B
:1057A00008F088FCACE74648816A494808F0F8FAF6
:1057B0000446514608F092FD78D24A49504608F016
:1057C0008DFC73D23E4A516A106A08F05DFB514667
:1057D0000F903F4808F076FE0D903948816A0D9889
:1057E00008F0DEFA83463A4908F04EFB0E9008F0C6
:1057F000ABFA0646374A384B08F022F8044607F061
:10580000E1FC814607F04AFB80460F9908F066FDEF
:1058100001D8504674E72A48816A504608F052FE83
:105820002B49019008F030FB834608F08DFA294A95
:10583000294BCDE9020108F003F8CDE9040107F096
:10584000C1FC814607F02AFB07901D48416A079872
:1058500008F078FC08901A48016A089808F014FBD0
:10586000804606F0C3FE099008F06EFA194A1A4BFA
:10587000CDE90A0107F08CFD06460022174B07F020
:10588000DFFF04460D461149504608F01BFE064650
:1058900008F05AFA22462B46CDE90C0107F0C4FC69
:1058A000CDE90E0107F08EFC2AE7FFE70449888F57
:1058B00008F000FC24E70249888F08F0FBFB1FE793
:1058C000B00900209A9999999999B93F0000B4427A
:1058D000000034434AD8124DFB2109400080664045
:1058E000000040400000314338B5044600256B46B7
:1058F0003422D0213F4800F0D1FD054615B14FF0CC
:10590000FF3038BDBDF8000000F4807088B1207809
:1059100020F00100401C2070207820F00200207050
:10592000207820F004002070207820F008002070FB
:1059300030E0207820F001002070BDF8000000F079
:10594000800028B1207820F00200801C207003E045
:10595000207820F002002070BDF8000000F0400028
:1059600028B1207820F00400001D207003E020788A
:1059700020F004002070BDF8000000F0180028B1ED
:10598000207820F008000830207003E0207820F014
:1059900008002070BDF8000000F0040028B1207855
:1059A00020F010001030207003E0207820F010006C
:1059B0002070BDF8000000F0020028B1207820F02F
:1059C00020002030207003E0207820F0200020709C
:1059D000BDF8000000F0010028B1207820F0400060
:1059E0004030207003E0207820F04000207000203C
:1059F00087E70000AC4900202DE9F8430446002564
:105A00006B463D22D0210D4800F048FD05468DB97A
:105A1000BDF9000008F036FB8046094908F092FB0A
:105A200007464FF0834108F02FFA0646054908F073
:105A30002BFA20602846BDE8F8830000AC4900201E
:105A4000DC80BB3F00007A4410B50024694800F0B8
:105A5000C7F904446748001FFFF7CEFF04446548B8
:105A6000083000F0E9F804446348FFF73DFF0444C0
:105A70005CB90020614908706148D0F8F80120F055
:105A800000405F49C1F8F8011AE05C4801780078ED
:105A9000401C5A4A1070052912DD05201146087075
:105AA0005748D0F8F80120F0004000F10040544978
:105AB000C1F8F80100215248C0F8D411C0F8D01143
:105AC0004D480078C0F3401058B94B480078C0F3F7
:105AD000801030B94A49D1F8D4014A4908F0FEFA99
:105AE00018D800204849088048480088401C474989
:105AF000088008460088142829DB002008804048D8
:105B0000D0F8F80120F0005000F100503C49C1F8F5
:105B1000F8011CE03A49D1F8D4013D4908F0DEFB18
:105B200015D800203949088037480088401C36497C
:105B3000088008460088642809DB00200880304877
:105B4000D0F8F80120F000502D49C1F8F8012C4898
:105B500090F8B201002844D12949D1F8D4012D4947
:105B600008F0BCFA19D800202B4908802B4800887F
:105B7000401C2A49088008460088B0F5167F30DBB3
:105B8000002008801E48D0F8F80120F0805000F175
:105B900080501B49C1F8F80123E01949D1F8D4011C
:105BA0001F4908F09BFB17D800201C4908801A48A1
:105BB0000088401C1849088008460088B0F5967F88
:105BC0000FDB002008800E48D0F8F80120F080504C
:105BD0000B49C1F8F80104E000200F4908800F4983
:105BE00008800749D1F8D40100F01CF80449C1F835
:105BF000D80110BD840B0020B0000020B2000020AE
:105C0000B00900200000B041B8000020BA00002018
:105C10000000BC410000C441B6000020B4000020D8
:105C20000000D44110B504460248C16820468847A8
:105C300010BD00009C4900202DE9FE4F04464FF0A6
:105C4000000A02AB4022D021484800F027FC8246DF
:105C5000BAF1000F23D1BDF9080008F013FA074686
:105C6000434908F09DFB0546BDF9080008F00AFA13
:105C70000746404908F066FA0646294608F004F946
:105C800081463D49484608F029FA09D849463B482B
:105C900008F058FA05463A4908F082F8206062E0B8
:105CA0003549484608F01AFB0ED23249484608F0FA
:105CB00015FA09D84946334808F044FA05463249EE
:105CC00008F06EF820604EE02A49484608F006FBCE
:105CD00018D22E49484608F001FA13D8484608F071
:105CE00033F807462A4A2B4B07F0AAFD05464FF02A
:105CF0000042294B07F098FACDE9000107F062FA5B
:105D0000206030E02149484608F0E8FA0ED22349E5
:105D1000484608F0E3F909D84946214808F012FA44
:105D20000546204908F03CF820601CE01B49484625
:105D300008F0D4FA0ED21C49484608F0CFF909D829
:105D400049461A4808F0FEF90546194908F028F8AE
:105D5000206008E04946174808F0F4F9054616495E
:105D600008F01EF820605046BDE8FE8FAC490020C8
:105D700000AAAA46000020419A999940B0031CC18C
:105D80009358B44213F271C0E9A67642CDCC644177
:105D900064CC5D4BC88700C0E9A646403333B341AD
:105DA0008885A2BFDB7906420000E441D34D62BF83
:105DB0001D5AC9414F1EB6BEDD24EC4010B500246B
:105DC00040210648FFF7A4FB04436006040E80212F
:105DD0000248FFF79DFB0443204610BD001401401C
:105DE0002DE9F843044600256B463A22D0210C48A1
:105DF00000F054FB054685B9BDF9000008F042F9F2
:105E00008046084908F09EF90746074908F09AF9C4
:105E10000646064908F038F820602846BDE8F883B1
:105E2000AC4900200000E040DBE0443E00007A4442
:105E3000F0B50346144620466FF00105DE1703EB6C
:105E40009676B610A3EB86062EB9642693FBF6F77A
:105E500006FB173636B94FF4C87693FBF6F706FB08
:105E600017360EB94FF0FF35032906DA012901D1A3
:105E7000002200E01F2210441BE007290BDC0A4629
:105E800001EBD27677104E1EC6EB061607EB4606E0
:105E90002E4430440DE005F1D606A1F10807C7EB0A
:105EA000071706EB4707CA1F02EBD27607EB660619
:105EB0003044F0BD70B507490748006808F042F962
:105EC0000546064908F03EF90446054907F0DCFF9F
:105ED00070BD00003333534030010020BE9F4E415F
:105EE00000002047004870473849002010B50024C2
:105EF0004FF400710A48FFF70BFB04436006040EE1
:105F00004FF480710648FFF703FB04436006040E5C
:105F100080210348FFF7FCFA0443204610BD00002F
:105F20000018014070B509490948006808F00AF9ED
:105F300006464FF08B4107F0A7FF0546054908F0DC
:105F4000C1FA0446044907F09FFF70BD00000442F7
:105F50002801002000002543000030410146C1EB2C
:105F6000C100024A02EB8000007E7047C449002055
:105F70000146C1EBC100024A02EB8000807E7047FF
:105F8000C449002070B507490748006808F0DAF8EE
:105F90000546064908F0D6F80446054907F074FF9F
:105FA00070BD0000333353402C010020BE9F4E4192
:105FB0000000204770B509490948006808F0C2F898
:105FC00006464FF08B4107F05FFF0546054908F094
:105FD00079FA0446044907F057FF70BD00000442F7
:105FE00038010020000025430000304170B5094908
:105FF0000948006808F0A6F806464FF08B4107F004
:1060000043FF0546054908F05DFA0446044907F0D8
:106010003BFF70BD00000442340100200000254316
:1060200000003041F8B5044600266B46002292215C
:106030000F4800F033FA0646BEB99DF80150BDF88E
:106040000000000200B20090BDF8000000F47F40A4
:1060500000B20090BDF9000028430090BDF9000097
:10606000C11700EB1161091221803046F8BD000014
:10607000204F00202DE9FC4705460E46174698465E
:10608000DDE90A9A00240020009001904FF480710D
:106090006348FFF746FA4FF400716148FFF743FA8F
:1060A00080215F48FFF73DFA0A20FEF774FD00BF2C
:1060B0005BE04FF480715A48FFF735FA0A20FEF78B
:1060C0006AFD182C18DA40215548FFF721FA0128FB
:1060D00041D12046E11704EB5171C910A4EBC10274
:1060E000012191406A4602EBE402127811436A46AC
:1060F00002EBE40211702EE01C2C10DA402148481B
:10610000FFF706FA012826D19DF80300A4F1180133
:1061100001228A401043C0B28DF803001BE0342CEA
:1061200019DA40213E48FFF7F3F9012813D1201D69
:10613000C11700EB5171C910A0EBC10201219140C0
:106140006B46221D03EBE20212781143CAB2211DF5
:1061500003EBE1010A704FF480713148FFF7E1F978
:106160000A20FEF718FD601CC4B2342CA1DB4FF4EA
:1061700000712B48FFF7D5F99DF8000000F00F00E3
:106180009DF80010C1F3021101EB810100EB410009
:1061900028809DF8010000F00F009DF80110C1F368
:1061A000021101EB810100EB410030809DF80200FB
:1061B00000F00F009DF80210C1F3011101EB810105
:1061C00000EB410038809DF8040000F00F009DF8BE
:1061D0000410C1F3011101EB810100EB4100A8F8AB
:1061E00000009DF8050000F00F009DF80510C1F3B8
:1061F000001101EB810100EB4100A9F800009DF8BE
:10620000060000F00F009DF80610090901EB81015E
:1062100000EB410000F2DA70AAF80000BDE8FC874C
:106220000010014008B50121402003F0E5FE802068
:10623000ADF8000004208DF8030002208DF8020064
:1062400069460A48FFF790F84FF48070ADF80000F7
:1062500069460648FFF788F84FF40070ADF8000073
:1062600069460248FFF780F808BD000000180140A9
:1062700018B9054A12880A8004E0012802D10A8868
:10628000014B1A8070470000D400002017481849BD
:10629000086018484860184888601848C86018485E
:1062A000086118484861184888611848C86118484A
:1062B00008624862174888621748C862174808632E
:1062C00017484863174888631748C863104808642C
:1062D000164848640E488864C8641548086515481F
:1062E00048651548C8650A480866704745A1000812
:1062F000384900204FA1000869A100087DA90008C5
:1063000071A8000885A7000809B1000895AB00082E
:106310007162000859AE000881AD000861AC000848
:10632000C1AC000821AD0008EDAD0008C9A300080C
:10633000E5B1000805B2000861A2000810B50446E6
:10634000012C04D181020548FFF7EDF804E04FF479
:1063500080610248FFF7E5F810BD00000018014019
:1063600008B50121402003F047FE4FF48060ADF8EE
:10637000000010208DF8030002208DF8020069460D
:106380000448FEF7F1FF4FF480610248FFF7C9F8B7
:1063900008BD00000018014070B504460025A18A20
:1063A0002069FFF7BEF821896068FFF7BCF801207B
:1063B000FEF7FEFBA18A2069FFF7B5F80320FEF780
:1063C000F7FB21896068FFF7A3F8012800D10125B8
:1063D000A18A2069FFF7A5F80120FEF7E9FB28460E
:1063E00070BD70B504460D46A18A2069FFF799F883
:1063F0000120FEF7DDFB21896068FFF794F800209B
:106400002870072620E0A18A2069FFF78AF801207A
:10641000FEF7CEFBA18A2069FFF785F80320FEF77F
:10642000C7FB21896068FFF773F8012803D1297839
:10643000B04001432970A18A2069FFF772F8022059
:10644000FEF7B6FB701E46B2002EDCDA70BD38B522
:1064500004460121206803F0CFFD0121E06803F02C
:10646000CBFD2089ADF8000014208DF80300032037
:106470008DF8020069466068FEF776FF2189606842
:10648000FFF751F8A08AADF8000069462069FEF7D1
:106490006BFFA18A2069FFF746F838BD2DE9F84364
:1064A00080460E4617461C4600250020208006F038
:1064B000FE06404600F0ADF83146404600F03EF89A
:1064C0004046FFF769FF00B16D1E3946404600F0B7
:1064D00035F84046FFF760FF00B16D1E46F001063B
:1064E000404600F096F83146404600F027F8404616
:1064F000FFF752FF00B16D1E69464046FFF771FF7E
:1065000020889DF8001008432080404600F049F89C
:1065100069464046FFF765FF20889DF800104FF45C
:106520007F4202EA012108432080404600F055F8EE
:10653000404600F086F82846BDE8F8832DE9F04192
:1065400004460E460127072527E0A18A2069FEF7A9
:10655000E8FF0120FEF72CFB46FA05F000F00100F1
:1065600020B121896068FEF7DEFF03E021896068C1
:10657000FEF7D7FF0120FEF71BFBA18A2069FEF77B
:10658000D2FF0520FEF714FBA18A2069FEF7C9FFA0
:106590000120FEF70DFB681E45B2002DD5DABDE8DF
:1065A000F08110B50446A18A2069FEF7BAFF21895F
:1065B0006068FEF7B6FF0120FEF7FAFAA18A2069AB
:1065C000FEF7B1FF0520FEF7F3FAA18A2069FEF776
:1065D000A8FF0120FEF7ECFA10BD10B50446A18A11
:1065E0002069FEF79EFF21896068FEF79CFF01206D
:1065F000FEF7DEFAA18A2069FEF795FF0520FEF777
:10660000D7FAA18A2069FEF78CFF0120FEF7D0FAA5
:1066100010BD10B5044621896068FEF784FF022092
:10662000FEF7C6FAA18A2069FEF77DFF0220FEF779
:10663000BFFA21896068FEF774FF0220FEF7B8FAFE
:1066400010BD10B50446A18A2069FEF76AFF01203B
:10665000FEF7AEFA21896068FEF763FF0120FEF7BE
:10666000A7FAA18A2069FEF75EFF0220FEF7A0FAD2
:1066700021896068FEF757FF0120FEF799FA10BDE7
:106680002DE9F04180460E4617461D46002406F0CF
:10669000FE064046FFF7BDFF31464046FFF74EFF7E
:1066A0004046FFF779FE00B1641E39464046FFF7C9
:1066B00045FF4046FFF770FE00B1641EE9B2404658
:1066C000FFF73CFF4046FFF767FE00B1641E290A52
:1066D0004046FFF733FF4046FFF75EFE00B1641E01
:1066E0004046FFF7AEFF2046BDE8F0812DE9F041BE
:1066F00080460D4616461F46002405F0FE0540461E
:10670000FFF787FF29464046FFF718FF4046FFF78F
:1067100043FE00B1641E31464046FFF70FFF40467E
:10672000FFF73AFE00B1641E39464046FFF706FF08
:106730004046FFF731FE00B1641E4046FFF781FF7F
:106740002046BDE8F08110B5012003F0EDFC00BF4C
:10675000612003F0CBFC0028FAD045F2555000F040
:1067600029F8042000F01AF84FF47A6000F01CF8C1
:1067700000F00CF800F002F810BD00004CF6CC4020
:106780000149086070470000003000404AF6AA2026
:10679000014908607047000000300040014948602E
:1067A00070470000003000400149886070470000D9
:1067B0000030004001490860704700000030004090
:1067C00000211E4880F8B111C06CFF2802D11B487F
:1067D000C16431E0194890F84C0000F0F000202826
:1067E00003D117481749086026E0144890F84C0078
:1067F00000F0F000102803D11348124908601BE094
:106800000E4890F84C0000F0F000402803D10F48EB
:106810000C49086010E0094890F84C0000F0F000C6
:10682000802803D10A480749086005E00021034891
:10683000C164D0F8F411416570470000B009002030
:10684000C12B000898000020256E00086D6D00081F
:106850006D2900082DE9FE4F05460C46DFF8D4915E
:10686000DFF8D4A1DFF8D4B14946284607F06AFC26
:10687000074673480168484607F064FC8046714843
:106880000168404607F08CFD0646394607F088FA55
:106890006D4908606A4800686C4908606C48016886
:1068A0006C4807F04FFC02906B480168484607F0BF
:1068B00049FC019069480168484607F043FC009094
:1068C00067480168009807F06BFD8046019907F062
:1068D000F9FD0746029907F063FA0646514607F0AC
:1068E0005FFA604908605A480168484607F02AFC88
:1068F000064659480168304607F052FD5A4908607B
:1069000053480168484607F01DFC06465348016895
:10691000304607F045FD5549086051464C4800682F
:1069200007F03EFA5249086059464E48006807F0A1
:1069300037FA064631464B48006807F0A5FA4D493C
:10694000086059464748006807F02AFA064631466B
:106950004648006807F098FA474908603A480168D5
:10696000204607F0AFFD074642480168384607F069
:10697000E9FB064634480168304607F011FA314910
:10698000086031480168204607F09CFD07463A48F8
:106990000168384607F0D6FB06462C4801683046A9
:1069A00007F0FEF926490860324801684FF07E5032
:1069B00007F088FD06462B480168304607F0C2FB09
:1069C000274908602B4801684FF07E5007F07AFD98
:1069D000064625480168304607F0B4FB1E490860AA
:1069E00025480168254807F0ADFB07461D480168AA
:1069F000384607F0A7FB06461C480168304607F0FA
:106A0000CFF9164908601C4801681C4807F09AFB3A
:106A1000074615480168384607F094FB06461448B7
:106A20000168304607F0BCF909490860054800686C
:106A3000BDE8FE8F0AD7A33C0AD7233C00002041C3
:106A4000E8000020E4000020DC000020E00000203E
:106A50000801002017B7D1390001002004010020EF
:106A6000FC000020EC000020F0000020F4000020DA
:106A7000F80000200C01002010010020000080BF61
:106A800010B50948007838B901200749087002217B
:106A90000648FEF746FD06E0002003490870022183
:106AA0000248FEF740FD10BD1A0100200018014009
:106AB00008B50121402003F09FFA0220ADF8000044
:106AC00010208DF8030002208DF80200694604486A
:106AD000FEF74AFC02210248FEF725FD08BD000032
:106AE0000018014010B502210148FEF71CFD10BD41
:106AF0000018014010B502210148FEF712FD10BD3B
:106B000000180140F8B569460F2004F09FFB0EE025
:106B100069460F2004F09AFB9DF80000692800D117
:106B200006E0002401E0601CC4B2322CFBDBEFE77E
:106B300000BF0021112005F077FB7021102005F027
:106B400073FB0121122005F06FFB11E00020009083
:106B50006946122004F07AFB9DF8000000F0010065
:106B600000B906E0002401E0601CC4B2322CFBDB5B
:106B7000ECE700BF0021012005F056FB20210B208F
:106B800005F052FB00210D2005F04EFB00210E20E8
:106B900005F04AFB4321102005F046FB422111205D
:106BA00005F042FB7421122005F03EFB8C211320DE
:106BB00005F03AFB0021142005F036FB00211520DA
:106BC00005F032FB0021162005F02EFBC421172012
:106BD00005F02AFB1021582005F026FB382118204B
:106BE00005F022FB3821192005F01EFB00240020AF
:106BF0003C49086037E00020009069461E2004F000
:106C000025FB9DF8000000F0020002281DD10025A0
:106C10006946232004F01AFB9DF8000005436946ED
:106C2000222004F013FB280205B29DF80000054362
:106C3000284607F027FA06462A480168304607F03A
:106C4000AFF828490860601CC4B2052C0BDD204653
:106C500007F030FA064631462248006807F014F97A
:106C60002049086000E0C6E700BF002437E00020AC
:106C7000009069461E2004F0E9FA9DF8000000F03B
:106C8000020002281DD100256946232004F0DEFA07
:106C90009DF8000005436946222004F0D7FA280237
:106CA00005B29DF800000543284607F0EBF90646BB
:106CB0000C480168304607F073F80A490860601C08
:106CC000C4B21E2C0BDD204607F0F4F9064631460F
:106CD0000448006807F0D8F80249086000E0C6E7F9
:106CE00000BFF8BDD800002008B5002400BFFFF7A2
:106CF000DFFE24E0601CC4B21148006D28B9062CE8
:106D000016DD0024FFF7BCFE12E00D48006D0128DF
:106D100002D1FFF7EFFE0BE00948006D022805D114
:106D2000022C05DB0024FFF7ABFE01E0FFF7DAFEE3
:106D3000FFF72CFD6A4600210A2001F0BFFCD9E7CD
:106D4000B009002010B54FF400410248FEF7EBFBFC
:106D500010BD00000008014010B54FF4004102488A
:106D6000FEF7DFFB10BD00000008014070B52A48A7
:106D700090F84C0000F0F000402805D1264890F82B
:106D80004C0000F00F0018B124482549086070BD80
:106D90000020214981F8B001486B4FF07E5106F088
:106DA000FFFF04461C49B1F8420007F083F905468D
:106DB000214607F093F908D21749486B4FF07E51EE
:106DC00006F0EEFF1449486520E01349886B4FF048
:106DD0007E5107F077FB04460F49B1F8420007F0F7
:106DE00069F90546214607F079FA08D20A49886B05
:106DF0004FF07E5107F066FB0749486506E00649FB
:106E0000B1F8420007F056F90349486501210248EC
:106E100080F8B11100BFBAE7B0090020C1670008CF
:106E20009800002010B51E4890F84C0000F0F000CB
:106E3000102803D01B481C49086010BD00201849C9
:106E400081F8B001084690F84C0018280CD10121B7
:106E5000134880F8B1110146486B4FF0804106F0AD
:106E60009FFF0F49486518E00D4890F84C00142822
:106E70000CD101210A4880F8B1110146886B4FF00E
:106E8000804107F01FFB0649486506E000210448E1
:106E900080F8B111D0F8F411416500BFCDE70000D2
:106EA000B0090020C1670008980000202DE9F04FCC
:106EB00089B082460C464FF0000BD946002150465F
:106EC00007F00CFA2FD8504606F03EFF074605F0B3
:106ED000E3FF054606F0F0FB8146504606F034FF1E
:106EE000CDE9000105F0D8FF05460E46504606F0F4
:106EF0002BFF07462A46334606F03CFECDE9040147
:106F000099FBF4F004FB1095284606F032FCCDE91D
:106F10000201DDE9042306F087F9CDE9060106F058
:106F200051F9834656E02AF0004B584606F00CFF14
:106F3000074605F0B1FF054606F0BEFB814699FB0A
:106F4000F4F004FB1099584606F0FEFECDE900016E
:106F500005F0A2FFCDE90201584606F0F5FE07460E
:106F6000DDE9022306F006FE05460E46484606F019
:106F700000FC2A463346CDE9040106F055F900220B
:106F80001346CDE9060106F05BFB02D14FF0000B82
:106F900020E0204607F076F806463146584606F0CF
:106FA00073FF054607F032F800F10109504606F07C
:106FB000CBFE21F00048074609FB04F006F0D9FBA0
:106FC0003A464346CDE9060106F0D4FD054606F0F3
:106FD000F9F88346584609B0BDE8F08F08B500209F
:106FE00000F06EF802F05AFF5CE02F4A2F490020B3
:106FF00000F08CF800283AD12B4800782C49898A77
:10700000884202D028480078D0B900202949088059
:1070100029490880254802882849234802F02EFD86
:107020002549088008460088002836DD1E4800787B
:1070300098B3224A08460188002000F0BFF82CE0EF
:107040001C4801880088401C1A4A108047F23050C2
:10705000814222DBFFF776FE6A460021642001F0C0
:107060002DFBFFF779FE00201249088015E011483A
:1070700001880088401C0F4A108047F2305081423E
:107080000BDBFFF75FFE6A460021642001F016FB70
:10709000FFF762FE0020074908806A4600210120B0
:1070A00001F00CFBA1E7000044460020880000200E
:1070B000B00900208A00002086000020184500202A
:1070C00010B5044614B1012C14D109E004F0A6FD5A
:1070D0000A480B4908600B480968C1F860020AE0D9
:1070E00004F09CFD08480649486006484968C1F814
:1070F000600200E000BF00BF10BD0000E0490020BA
:107100001C010020C94A0008444C00202DE9F04130
:1071100004460E469046284850F824000079AB28D3
:1071200042D1254850F824004179234850F82400E2
:107130004079401C204A52F824205071062938DB3F
:1071400056201D4951F82410087100201A4951F8A1
:1071500024104871184850F824000088308000201E
:10716000154951F8241008803188134A52F8242018
:10717000901DFCF7E5F80746DFB900250EE00E4844
:1071800050F82400801D405D08F80500FF210A48E2
:1071900050F82400801D4155681C85B23088A842F3
:1071A000EDDC0020BDE8F0810020034951F82410F7
:1071B00048714FF0FF30F5E71C0100202DE9F04148
:1071C00005460E469046002406E000BF00BF00BF03
:1071D00000BF00BF601C84B24CF250308442F4DB2C
:1071E000002406E000BF00BF00BF00BF00BF601C5E
:1071F00084B24CF250308442F4DB002409E018F8E9
:107200000410154850F8250000F599700155601CD0
:1072100084B2B442F3DB104951F8251001F599709E
:107220003146FCF78DF807460B4850F8250000F56D
:10723000997087553A0A084850F8250000F599706A
:10724000711C4254B21C90B2034A52F82520D2F865
:1072500060128847BDE8F0811C01002010B504F0E1
:10726000CBFC002411E00221204600F089F9002027
:10727000C4EBC401064A02EB81010876C4EBC401E9
:1072800002EB81018876601CC4B2012CEBDB10BDDF
:10729000C44900200EB5002400BF00F011FA5FE1E0
:1072A000B04890F8B10100287ED0AE4890F8F801BF
:1072B000C0F34010002877D1AA4890F8F801C0F335
:1072C00000100028F7D1A74890F8F80100F001005D
:1072D0000028F0D1A34890F8F801C0F3400000283E
:1072E000E9D1A048D0F8F801C0F340700028E2D1FD
:1072F0009C48D0F8F801C0F380600028DBD19948A1
:1073000090F8B001012807D1964908694FF08041F3
:1073100006F0BAFD044600E000249348007820B14E
:1073200001287DD002287AD19CE08E4AD2F8B8118B
:10733000506D07F0C7F806468A480169304606F0E6
:10734000CDFF12D20221874880F8B4118748017816
:107350000078401C854A1070C8295EDD02208249F1
:10736000087000201146087057E07E480169804887
:1073700006F0E8FE06467B4AD2F8B811506D07F0D9
:10738000A1F80746314606F0A9FE14D2012175483E
:1073900080F8B411754801780078401C734A107069
:1073A000C8293ADD012000E087E06F49087000201D
:1073B0001146087031E0FFF751FF00206A4908705C
:1073C0006A4908700021674880F8B41102A848F2A1
:1073D00004130A46CDE900100221664800F088FA3D
:1073E000BDF8080028B902AB00220421614800F072
:1073F0005BFC02A8002148F204130A46CDE9001004
:1074000002215D4800F074FABDF8080028B902AB0B
:1074100000220421584800F047FC4DE000E043E022
:10742000504AD2F8B811506D07F04CF80646214684
:1074300006F054FF05D94B4890F8F801C0F38000DE
:1074400038B1FFF70BFF0020474908704B4908800F
:1074500007E0002000F04CF948480088401C4749EC
:10746000088029E03F4A516DD2F8B80107F02AF8A8
:107470000646214606F032FF05D93A4890F8F80151
:10748000C0F3C00038B1FFF7E9FE002036490870AC
:107490003A49088007E0002000F050F9374800889A
:1074A000401C3649088007E0FFF7D8FE00202E492F
:1074B00008703249088000BF33E0FFF7CFFE00209C
:1074C000294908700021274880F8B41100202B4971
:1074D000088002A8002148F204130A46CDE90010F2
:1074E0000221244800F004FABDF8080028B902ABD4
:1074F000002204211F4800F0D7FB02A8002148F217
:1075000004130A46CDE9001002211B4800F0F0F9EF
:10751000BDF8080028B902AB00220421164800F08B
:10752000C3FB16480088B0F5FA6F08DD0020134948
:10753000088002AB002201210F4800F0B5FB0020BB
:10754000FEF716FD074981F8B2010020FEF706FD9F
:10755000044981F8B30102AA0021012001F0AEF82C
:107560009EE60000B00900208C0000208D00002065
:10757000000080BFE8440020004500208E0000206D
:1075800070B504460D46012D0DD1C4EBC4020D4B60
:1075900003EB82021189C4EBC40203EB8202506840
:1075A000FDF7C1FF0CE0C4EBC402064B03EB820203
:1075B0001189C4EBC40203EB82025068FDF7B1FFEE
:1075C00070BD0000C449002070B504460D46012D71
:1075D0001FD12148B0F8440068B9C4EBC4021F4B66
:1075E00003EB8202918AC4EBC40203EB82021069AE
:1075F000FDF799FF2EE0C4EBC402184B03EB8202A7
:10760000918AC4EBC40203EB82021069FDF789FF83
:1076100020E0022D1ED11048B0F8440068B9C4EB38
:10762000C4020E4B03EB8202918AC4EBC40203EB4B
:1076300082021069FDF775FF0CE0C4EBC402074B32
:1076400003EB8202918AC4EBC40203EB820210694D
:10765000FDF769FF70BD0000B0090020C44900209B
:1076600008B50121202002F0C7FC4FF44040ADF8DE
:10767000000010208DF8030003208DF802006946F9
:107680000D48FDF771FE4FF400410B48FDF749FF2F
:1076900009480A4948604FF40040088120200860EA
:1076A000054808614FF4804088822020C86000208F
:1076B0000876887608BD000000140140C449002007
:1076C00010B5FFF7CDFF04F091F810BD08B500BF6D
:1076D0000CE0FDF705FCFDF7B1FCFDF7A7FAFDF79F
:1076E00075FA6A460021052000F0E8FFF1E7000086
:1076F00010B50446012C1CDC0E480078A04207D1CE
:10770000C4EBC4000C4901EB8000007E012810D0BE
:10771000FFF7A4FD0120C4EBC401074A02EB81017D
:1077200008760448047001210078FFF74DFF04F04B
:1077300051FA10BD14010020C449002010B50446C0
:10774000012C1CDC0E480078A04207D1C4EBC40019
:107750000C4901EB8000007E022810D0FFF77EFD6F
:107760000220C4EBC401074A02EB810108760448F9
:10777000047002210078FFF727FF04F02BFA10BDF8
:1077800014010020C449002008B54FF4A06000F0A7
:1077900065F81D208DF8000000208DF80100012003
:1077A0008DF802008DF80300684600F01FF80B20EA
:1077B0008DF8000000208DF8010002208DF80200F5
:1077C00001208DF80300684600F010F834208DF891
:1077D000000001208DF8010000208DF8020001203A
:1077E0008DF80300684600F001F808BD70B500216F
:1077F00000230F22C47804B3154C246804F4E06419
:10780000C4F5E064210AC1F10403CA40447804FAD3
:1078100003F184781440214309010E4C0678A155E8
:10782000047804F01F050124AC4005786D11AD000B
:1078300005F1E025C5F8004109E0047804F01F05D2
:107840000124AC40044D0678761145F8264070BD01
:107850000CED00E000E400E080E100E002490143BB
:10786000024A1160704700000000FA050CED00E0CC
:10787000704700002DE9F0410446884616461D4633
:10788000002718480078002804DD42F6E1602880CF
:10789000BDE8F0811CB945F6C3502880F8E700BF69
:1078A00000BFFAF7B7FC074600BFFBF7FFFC00BFBD
:1078B0000D482060266100206061201D01F057F90D
:1078C0000A480088401C0949088000BFFBF708FDF2
:1078D00000BF3846FAF7A2FC00BF00BF0020288096
:1078E00000BFD5E724000020464C41472E00002071
:1078F0002DE9FF4F8BB0054689469846DDE91864AF
:1079000000200290E4480078002806DD46F2AE1020
:10791000208000200FB0BDE8F08F25B945F6C35098
:1079200020800020F6E748F20101A8EB010088451D
:1079300036D01ADC40F20111A8EB010088452BD0AB
:107940000CDCB8F1010F23D0B8F1020F21D0B8F14F
:10795000040F1FD0B8F1080F2AD11CE001281CD059
:1079600003281BD0072823D119E0B0F5807F1BD056
:1079700006DC012815D0032814D0072818D112E0FE
:10798000A0F2011088B1022810D0062810D10EE014
:1079900000BF00BF00BF00BF00BF00BF00BF00BFEF
:1079A00000BF00BF00BF00BF00BF00BF00BF04E0BA
:1079B00045F6256020800020ACE700BFB749286865
:1079C000884204D045F6C45020800020A2E708F485
:1079D000807010B14FF0010A01E04FF0000A0EB1C3
:1079E0000020306008F00F0B00BF00BFFAF712FC58
:1079F000029000BFFBF75AFC00BFBBF1040F03D09D
:107A0000BBF1080F70D152E0286900EA09074F4521
:107A100018D1BAF1010F02D12869B8432861A048F2
:107A2000006807640EB16869306000BFFBF758FC5E
:107A300000BF0298FAF7F2FB00BF00BF00202080D1
:107A4000384667E708F4004068B100BFFBF748FC20
:107A500000BF0298FAF7E2FB00BF00BF46F2B01089
:107A60002080002056E78F48007800280DDD00BFF9
:107A7000FBF736FC00BF0298FAF7D0FB00BF00BF4F
:107A800046F663502080002044E70D9843464A465E
:107A90002946009003A800F0C1FE00BFFBF720FCC0
:107AA00000BF0298FAF7BAFB00BF00BF60E0286988
:107AB00000EA0907CFB1BAF1010F02D12869B84332
:107AC00028617748006807640EB16869306000BFBC
:107AD000FBF706FC00BF0298FAF7A0FB00BF00BF4F
