:020000040800F2
:102000009055002021220008292200082B220008D8
:102010002D2200082F2200083122000800000000B5
:102020000000000000000000000000003322000853
:1020300035220008000000002F230008C986000890
:102040003B2200083B2200083B2200083B220008FC
:102050003B2200083B2200083B2200083B220008EC
:102060003B2200083B2200083B220008954900085B
:102070003B2200083B2200083B2200083B220008CC
:102080003B2200083B2200083B2200083B220008BC
:102090003B2200083B2200083B2200083B220008AC
:1020A0003B2200083B2200083B2200083B2200089C
:1020B0003B220008F9B600083B2200083B2200083A
:1020C0003B2200083B2200083B2200083B2200087C
:1020D0003B2200083B2200083B2200083B2200086C
:1020E0003B2200083B2200083B2200083B2200085C
:1020F0003B2200083B2200083B2200083B2200084C
:102100003B2200083B2200083B2200083B2200083B
:10211000B1BA00083B2200083B2200083B2200081D
:102120003B2200083B2200083B2200083B2200081B
:1021300000F002F800F04AF80AA090E8000C82448F
:102140008344AAF10107DA4501D100F03FF8AFF26C
:10215000090EBAE80F0013F0010F18BFFB1A43F085
:1021600001031847A8C20000C8C200000A4410F8C2
:10217000014B14F00F0508BF10F8015B240908BFDC
:1021800010F8014B6D1E05D010F8013B6D1E01F8D3
:10219000013BF9D1641E03D0641E01F8015BFBD141
:1021A0009142E4D37047000000230024002500265C
:1021B000103A28BF78C1FBD8520728BF30C148BFAA
:1021C0000B6070471FB51FBD10B510BD00F05EF865
:1021D0001146FFF7F7FF0AF01BFB00F07CF803B491
:1021E000FFF7F2FF03BC00F07FF8000072B6704703
:1021F00062B67047EFF3108072B6704780F31088B4
:10220000704730BF704720BF7047B0FA80F070470A
:1022100090FAA0F0B0FA80F0704790FAA0F0704702
:102220000948804709480047FEE7FEE7FEE7FEE76A
:10223000FEE7FEE7FEE7FEE7FEE7FEE704480549A6
:10224000054A064B7047000029B6000831210008F6
:10225000904F002090550020905100209051002078
:1022600070477047704710B500F008F8006810BD5F
:1022700010B5044600F002F8046010BD0048704735
:10228000304F002000487047304F00207546FFF760
:10229000F9FFAE4605006946534620F00700854623
:1022A00018B020B5FFF7CAFFBDE820404FF0000688
:1022B0004FF000074FF000084FF0000B21F007012E
:1022C000AC46ACE8C009ACE8C009ACE8C009ACE871
:1022D000C0098D46704710B50446AFF30080204614
:1022E000BDE81040FFF77BBF01491820ABBEFEE7F9
:1022F00026000200704700001D484FF0FF010170EA
:10230000002080F309881B48016881F308881A4877
:102310004FF08051016062B6FEE717484FF08051E0
:102320000160704714484FF080510160704772B6E9
:10233000EFF3098028B1203880E8F00F0F490968D1
:10234000086000B50E4880475DF804EB0D480E4963
:102350000A78027009480D490A680260106890E81E
:10236000F00F203080F309884EF0F40E62B670470B
:1023700022ED00E06400002004ED00E05C0000209D
:102380004985000830000020310000206000002056
:1023900010B502210F4800F0F5F800210E4802F0B8
:1023A00099FB32200C490839C86001210A4802F023
:1023B00091FB0121074800F0F3F806480830006857
:1023C00040F002000349083108600121014800F093
:1023D00086F910BD002401400800024000B591B00C
:1023E0000121480207F096FD0121082007F092FD27
:1023F0000121102007F08EFD4FF4004007F05EFD34
:102400000120ADF8400000208DF8430010A9584885
:1024100002F092FF0220ADF8400000208DF843004A
:1024200010A9534802F088FF0120ADF840000020B9
:102430008DF8430010A94F4802F07EFF0820ADF848
:10244000400000208DF8430010A94A4802F074FFB4
:102450000420ADF8400000208DF8430010A9454845
:1024600002F06AFF0121084607F034FD424800905F
:1024700042480190002002903220039000200490F6
:102480008020059040000690800007900020089072
:102490004FF40050099000200A906946384802F035
:1024A00044FB0121364802F015FB01220221344889
:1024B00002F032FB00200B9001208DF830008DF8E7
:1024C00031004FF460200D9000200E9005208DF813
:1024D0003C000BA928484C3800F078F8072301226B
:1024E000082125484C3800F099F8072302220921D9
:1024F00021484C3800F092F8072303220A211E4895
:102500004C3800F08BF8072304220C211A484C3871
:1025100000F084F8072305220D2117484C3800F0FD
:102520007DF8012114484C3800F03AF80121124896
:102530004C3800F02AF810484C3800F0CBF800BFB7
:102540000D484C3800F037F80028F9D10A484C38CB
:1025500000F0D0F800BF08484C3800F02CF80028F4
:10256000F9D1012104484C3800F0B9F811B000BD90
:10257000000C0140001001404C240140A04E0020FE
:1025800008000240CA430260704721B1826842F0ED
:102590000102826003E0826822F0010282607047DB
:1025A00021B1826842F48072826003E0826822F482
:1025B000807282607047014600208A6802F004023F
:1025C0000AB1012000E000207047000030B502464B
:1025D0000020002350680F4C20400D790C6844EA1D
:1025E00005242043506090680B4C2040D1E90254F0
:1025F0002C434D7944EA450420439060D06A20F48E
:1026000070000C7C641EE4B2234340EA0350D062A5
:1026100030BD0000FFFEF0FFFDF7F1FFF0B504460E
:102620000D4600200021092D11DDE068A5F10A0604
:1026300006EB4607072606FA07F18843A5F10A06C6
:1026400006EB460603FA06F10843E0600CE0206959
:1026500005EB4507072606FA07F1884305EB450613
:1026600003FA06F108432061072A0FDA606B561E51
:1026700006EB86071F2606FA07F18843561E06EB6F
:10268000860605FA06F10843606322E00D2A0FDA98
:10269000206BD61F06EB86071F2606FA07F1884334
:1026A000D61F06EB860605FA06F10843206310E004
:1026B000E06AA2F10D0606EB86071F2606FA07F16F
:1026C0008843A2F10D0606EB860605FA06F10843DB
:1026D000E062F0BD816841F008018160704721B17E
:1026E000826842F4A002826003E0826822F4A002C1
:1026F00082607047816841F004018160704700008A
:1027000051485249086052484860524888605248CF
:10271000C86052480861524848615248886152482E
:10272000C86152480862524848625248886252481A
:10273000C862524808635248486352488863524806
:10274000C8655248086652484866524888665248EA
:10275000C866524808675248C1F884005148C1F819
:1027600088005148C1F898005048C1F89C00504872
:10277000C1F8A0004F48C1F8AC004F48C1F8B00004
:102780004E48C1F8B4004E48C1F8B8004D48C1F8F1
:10279000BC004D48C1F8C0004C48C1F8C4004C48CA
:1027A000C1F8C8004B48C1F8CC004B48C1F8D00074
:1027B0004A48C1F8DC004A48C1F8E0004948C1F87D
:1027C000E4004948C1F8E8004848C1F8EC0048482E
:1027D000C1F844014748C1F848014748C1F85001D1
:1027E0004648C1F864014648C1F868014548C1F847
:1027F0006C014548C1F870014448C1F8740144486F
:10280000C1F878014348C1F88C014348C1F89001F0
:102810004248C1F894014248C1F898014148C1F8C2
:102820009C014148C1F8A0014048C1F8A4014048BA
:10283000C1F8A8013F48C1F8BC013F48C1F8C00138
:102840003E48C1F8C401704709A00008684700204D
:10285000EDAE00080DAF000871B0000891B000089F
:102860002DA00008B9A300084DA000085DA0000835
:10287000DD9D0008ED9D00087DA200088DA20008E6
:1028800015A1000825A10008C5AC0008EDAB0008A3
:10289000CDAA00082DAB00088DAB00084DAC000898
:1028A00011AA000825A30008BDA0000811A3000874
:1028B0006DA0000895A90008B1A90008B5A60008F8
:1028C000D1A60008C9A50008E5A5000825AD0008A7
:1028D00041AD0008F9A4000815A5000895A000085E
:1028E0007D9E00082D9E0008959E0008FD9D000815
:1028F00029A4000865A90008EDA3000821A8000884
:102900003DA80008B5A80008D1A8000851AA0008F1
:102910006DAA0008E9AD0008B5AD0008D5A700080C
:10292000A1A7000861A400087DA4000819AE000852
:1029300035AE000855A3000891A50008B1AE000807
:1029400070B50024304890F8480000F0F00080286E
:1029500005D12D4890F8480000F00F0030B100205C
:102960002A4908802A482B49086070BD0020264962
:1029700081F8AC010021244880F8AD11234800887B
:10298000401C2249088008460088B0F5967F00DA8E
:10299000EBE700201D4908801B4890F8F401C0F3C4
:1029A000401058BB184890F8F401C0F3001028BB41
:1029B0001548D0F8B41118480BF0E8FB054612484A
:1029C000016828460BF050F80446144920460BF0E5
:1029D000E9F907D2124920460BF0E4FA02D20A487C
:1029E000046002E00020084908600748D0F8F801B8
:1029F00020F00100401C0449C1F8F8010021024800
:102A0000816400BFB1E70000B0090020A8000020E9
:102A100029670008980000200000B442000020410F
:102A2000000020C11CB5002400BF00F027F821E001
:102A30006946002002F066FD48B90F480168009819
:102A40000BF012F80C49C1F8B40100240DE0142C6D
:102A500002DA601C84B208E00748D0F8F40120F0E4
:102A6000100010300449C1F8F40101AA002102202D
:102A700005F0B2FDDCE70000B009002008B508F061
:102A800089FB03F0F3FF6946182008F02DFB9DF841
:102A90000000382801D1002008BD4FF0FF30FBE7CF
:102AA00008B500BF0BE000F0B5FC02F081FD044961
:102AB000C1F8F0016A4600211E2005F08DFDF2E705
:102AC000B009002010B5204890F84800282803D00D
:102AD0001E481F49086010BD00201B4981F8AC0149
:102AE000486B4FF07E510AF0BFFF04461648416D17
:102AF00020460BF057FA08D21349486B4FF07E512D
:102B00000AF0B2FF1049086518E00F49886B4FF0D2
:102B10007E510BF03BFB04460B48416D20460BF009
:102B200041F908D20849886B4FF07E510BF02EFB1B
:102B30000549086502E00448416D0165012102482C
:102B400080F8AD1100BFC6E7B0090020F92B0008DE
:102B50009C00002010B50C4890F84800252803D0B0
:102B60000A480B49086010BD0020074981F8AC01F4
:102B7000888F0BF003F9044908650121024880F8A9
:102B8000AD1100BFEFE70000B0090020F92B0008ED
:102B90009C00002010B5144890F8480000F0F000A8
:102BA000202818D11048D0F8F401C0F3807068B91B
:102BB0000D48D0F8F401C0F3006038B909F0BCF852
:102BC00000F082FA0948006880470BE000210648BF
:102BD00080F8AD1106E00648064908600021024869
:102BE00080F8AD1110BD0000B00900209C0000204D
:102BF000296700089800002000211F4880F8AD11C7
:102C000090F84800242803D11C481D49086032E090
:102C1000194890F84800252803D11A481849086037
:102C200029E0154890F84800282806D1164814498C
:102C300008600021104881651DE00F4890F84800A9
:102C4000212803D111480E49086014E00A4890F881
:102C50004800222803D10E48094908600BE00648C5
:102C600090F84800202803D10A480549086002E08E
:102C700009480A4908607047B0090020C52F0008BC
:102C80009C000020552B0008C52A0008A12C000834
:102C9000B92E00082D2F0008296700089800002091
:102CA00010B57C4890F84800212808D000207A49C7
:102CB00008707A4908807A487A49086010BD002077
:102CC000744981F8AC017448007805287ED2DFE8A9
:102CD00000F0032D6581B80073496E48016501213C
:102CE00080F8AD11014608696F490AF0BDFE04463F
:102CF0006848D0F8B41120460BF054F915D865484F
:102D0000016969480BF042FA04466248D0F8B411F0
:102D100020460BF047F808D80120644908705E4946
:102D2000087000215B4880F8AD11B0E001215948DE
:102D300080F8AD115D49097801EB8101490001F18D
:102D40003C000BF003F853490865086D58490BF037
:102D500029F90AD801205549087003204E49087006
:102D600000214C4880F8AD1117E04A49086D4FF03A
:102D70007E510BF00BFA04464648D0F8B4112046B9
:102D80000BF010F809D20220434908700020434993
:102D9000088000213F4880F8AD1178E000213D48CF
:102DA00080F8AD113D4801880088401C3B4A1080E6
:102DB00042F6E06081420CDB0020114608800120D1
:102DC0003549087039480078401C00E053E0374925
:102DD00008705CE001212F4880F8AD113349097873
:102DE00001EB81014900C1F178000AF0AFFF2949E8
:102DF0000865086D2F490AF0D5FF09D801202B4935
:102E00000870254908700021224880F8AD1117E0AC
:102E10002049086D4FF07E510AF026FE04461D48F9
:102E2000D0F8B41120460BF0BDF809D804201A4997
:102E300008700020194908800021164880F8AD115B
:102E400025E00021134880F8AD111448018800885E
:102E5000401C124A108042F6E06081420ADB0020EA
:102E60001146088003200C49087010480078401C67
:102E70000E4908700BE000200749087007490880D8
:102E80000A4908700021034880F8AD1100BF00BF57
:102E900000BF13E7B0090020AA000020AC0000200A
:102EA000F92B00089C00002000007042AE000020BA
:102EB0000000F4420000684210B5174890F848003E
:102EC000222803D015481649086010BD0020124979
:102ED00081F8AC01D1F8B40112490BF057F904465E
:102EE00011490BF05FF808D20B49886B4FF0804115
:102EF0000BF04CF90849086507E00749486B4FF0AB
:102F000080410AF0B1FD044908650121024880F8BA
:102F1000AD1100BFD9E70000B0090020F92B00086F
:102F20009C0000200000B442CDCCCC3D10B522481E
:102F300090F84800202803D020482149086010BD9F
:102F400001201D4981F8AC01886B4FF07E510BF0D8
:102F50001DF904461848D0F8F01120460AF022FF67
:102F600008D81549886B4FF07E510BF00FF91249C4
:102F700008651AE01049486B4FF07E510AF074FD65
:102F800004460D48D0F8F01120460BF00BF808D895
:102F90000949486B4FF07E510AF066FD0649086505
:102FA00003E00548D0F8F01101650121024880F8DE
:102FB000AD1100BFC3E70000B0090020F92B0008E5
:102FC0009C00002010B50C4890F84800242803D03D
:102FD0000A480B49086010BD0020074981F8AC0180
:102FE000888F0AF0CBFE044908650121024880F869
:102FF000AD1100BFEFE70000B0090020F92B000879
:103000009C00002010B501214FF0C05006F072FF67
:10301000012006F079FA002000F042F8002000F0CC
:103020002BF800F01FF8002006F06EFA10BD10B566
:10303000042000F027F84AF6AA21884201D1002096
:1030400010BD4FF0FF30FBE710B5012006F05CFA31
:103050004AF6AA21042000F029F8002006F054FACC
:1030600010BD00000348008840F0010001490880BD
:1030700070470000346C0040014908607047000050
:1030800088860D4208B50146002000900348009054
:103090000098084400900098008808BD006C00402B
:1030A000014908607047000000860D4208B5002203
:1030B0000092044A0092009A02440092009A116021
:1030C00008BD0000006C00400E4890F8480024281D
:1030D00017D00C4890F84800252809D10948D0F8A5
:1030E000F401C0F3007060B920210648816408E053
:1030F0000448D0F8F401C0F3007010B12521014854
:1031000081647047B009002070B5044600250C4961
:1031100020460AF07BFE06460A490BF037F80546C2
:103120004FF07E5128460AF03DFF01D84FF07E5502
:10313000054928460AF036FE00D8034D284670BDE2
:10314000F7E4213E666666400AD7233C70B500244A
:10315000002503F0EDF81848184908610015888229
:103160000820C86014484860C0140881082008601E
:10317000084603F054F900F02DF802F007FE05466A
:103180004DB90F480F4908600F4848600F488860E4
:103190000F48C86009E00A480A4908600A484860C0
:1031A0000A4888600A48C86000BF00BF01F026FBDB
:1031B0000446204670BD0000000C0140A4490020D8
:1031C0003333534094490020333383401283C03E4D
:1031D0000931000808B50121202006F09BFE40209F
:1031E000ADF8000004208DF8030002208DF80200E5
:1031F0006946054802F0A0F88020ADF80000694655
:10320000014802F099F808BD001401400146084643
:10321000044A1268904203D9024A1268801A00E0F8
:10322000002070477800002070B5002500BFFEF731
:10323000E1FF054600BF0648046800BF2846FEF7C8
:10324000DDFF00BF2046FFF7E1FF0646304670BDB8
:103250007C00002070B50025FFF7E6FF044600BFA4
:10326000FEF7C8FF054600BF00200449086000BF04
:103270002846FEF7C3FF00BF204670BD7C0000203B
:1032800000B509480088401C0749088007480088A5
:1032900018B900F039F80649086004480088401C55
:1032A0000249088000BD00006C0000206E00002074
:1032B0007000002000B50F480088401E0D4A1080A5
:1032C00010460088A0B900F01FF80B4A10601046A5
:1032D00000680A4A1268811A09480068884201D2C7
:1032E0000748016007480068884201D2054801602C
:1032F00000BD00006E00002074000020700000205F
:103300007C000020800000200148406870470000D9
:10331000001000E030B502460B46002100244FF6B5
:10332000FF7000BF12E0555C684000240AE000F026
:10333000010525B140104AF20105684000E0401047
:10334000651CECB2082CF2DB4D1CA9B29942EADBF9
:1033500030BD00002DE9F74F82B08946144648463B
:103360000AF056FB0746224A224B0AF0CDF80546E2
:1033700009F0BAFD8146204920460AF047FD824601
:103380000AF046FB07461A4A1A4B0AF0BDF80546F2
:1033900009F0AAFD04461948016802980AF0F6FEF1
:1033A00082460AF035FB0746154A164B0AF0ACF880
:1033B000054609F099FD02902146484609F03CF87F
:1033C00000900AF025FB05460F4A104B0AF09CF8C6
:1033D000074600220E4B09F0B9FD824609F084FD34
:1033E0000190DDE9011003F0E9F905B0BDE8F08FC7
:1033F000D5CC5A0A48FB0F3F000080BFD800002000
:10340000EC51B81E85EB713FD3DEE00B93A94C4025
:103410000080564000B5C3B0002042900021419189
:1034200040913F913E913D913C913B913A91399130
:103430003891379136913591349133913291319160
:1034400030912F912E912D912C912B912A91299190
:1034500028912791269125912491239122912191C0
:1034600020911F911E911D911C911B911A91FE4854
:10347000B0F860103E91B0F862103D91B0F8641061
:103480003C91DDE93C213E9802F0BAFC409040F2CC
:103490006C71419129E04FF4C871419890FBF1F2B1
:1034A00001FB120010B94FF4B77118E04198C21730
:1034B000199000EB927082101998A0EB820060B90D
:1034C0006421419890FBF1F201FB120010B14FF41E
:1034D000B77104E040F26D1101E040F26D113F98C8
:1034E00001443F914198401C41903E994198884247
:1034F000D1DBDDE93F1001443F91DB484168389161
:1035000081683791C1683691B0F866103B91B0F888
:1035100068103A91B0F86A10399139980AF016FC9F
:1035200035903A9809F089FFCDE9160135980AF0EF
:103530006FFA0022CD4BCDE9120109F0BBFDCDE9B8
:103540001401DDE9162309F001FDCDE9180109F0A8
:10355000CBFC35903B9809F070FFCDE9140135980C
:103560000AF056FA0022C14BCDE9100109F0A2FD84
:10357000CDE91201DDE9142309F0E8FC0022BC4B7F
:10358000CDE9160109F096FDCDE9180109F0ACFC72
:1035900035903F98401C0AF0D9FB3490B5493698D5
:1035A0000AF0D6FA0F900AF033FACDE912013598F5
:1035B0000AF02EFA4FF08042AF4BCDE90E0109F030
:1035C000C5FCCDE91001DDE912230AF037F9CDE998
:1035D000160134980AF01CFACDE91401DDE916232E
:1035E00009F0B4FCCDE9180109F07EFC3490A34940
:1035F00034980AF0CBFDA24919900AF0A9FA339049
:1036000033980AF005FA9F4A9F4BCDE90E0109F065
:103610007BFF9E4A9E4BCDE9100109F097FCCDE956
:10362000140133980AF0F4F9CDE91201DDE914230D
:1036300009F06AFF974A984BCDE9160109F086FC1C
:10364000CDE9180109F050FC32904FF4B471329872
:1036500003F0E0FB329033980AF0DAF98F4A904B8E
:10366000CDE90E0109F050FF8E4A894B373BCDE979
:1036700010010AF0D7F8CDE9140133980AF0C8F91F
:10368000CDE91201DDE9142309F03EFF864A874B9C
:10369000CDE9160109F05AFCCDE9180109F024FC26
:1036A000319033980AF0B4F9814A824BCDE90E018A
:1036B00009F02AFF804A814BCDE9100109F046FC50
:1036C000CDE9140133980AF0A3F9CDE91201DDE93F
:1036D000142309F019FF7A4A7A4BCDE916010AF052
:1036E000A1F8CDE9180109F0FFFB30907648319937
:1036F0000AF08CFB75490A900AF02AFA0B900AF03E
:1037000087F9734A734BCDE90C0109F0FDFECDE951
:103710000E0109F0E9FB109009F052FA11900AF03D
:1037200077F96D4A6D4BCDE9120109F0EDFECDE957
:10373000160133980AF06CF9694A6A4BCDE9080121
:1037400009F0E2FE684A694BCDE90A010AF06AF81D
:10375000CDE90E014FF0804031990AF057FB5B49EB
:1037600004900AF0F5F905900AF052F9584A594BBD
:10377000CDE9060109F0C8FECDE9080109F0B4FB66
:103780000A9009F01DFA0B900AF042F9CDE90C01FC
:10379000DDE90E2309F0B8FECDE9120133980AF0F5
:1037A00037F9534A534BCDE9020109F0ADFE524AB5
:1037B000524BCDE9040109F0C9FBCDE9080133986A
:1037C0000AF026F9CDE90601DDE9082309F09CFE9F
:1037D0004B4A4C4BCDE90A010AF024F8CDE90E0121
:1037E0003A4931980AF0B4F905900AF011F9384ACB
:1037F000384BCDE9060109F087FECDE9080109F053
:1038000073FB0A9009F0DCF90B900AF001F9CDE99D
:103810000C01DDE90E2309F077FECDE91001DDE9A9
:10382000122309F093FBCDE91401DDE9162309F019
:103830008DFBCDE9180109F057FB2F902F99329895
:103840000AF012F92E9033980AF0E2F82E4A2F4B24
:10385000CDE9140109F058FE2D4A2E4BCDE9160191
:1038600009F0E0FF58E00000B009002000004E40E1
:10387000000038400000C041D56C424164A1154AA7
:1038800000AD0E47C0AB8A15DADE333F2F8672A239
:103890001894E14046CEC29E768771400CDB60F200
:1038A0005025243F2AC6F99BC91F0C3C7758764007
:1038B00000D864FC6001813E03E35F521C0A063FAE
:1038C00080035D72111C913F0000404000003443B2
:1038D0004AD8124DFB2109402C616D8C9DF0323F7E
:1038E000E31A9FC9FE791A3F958098840B79943F1B
:1038F000B75F3E59315CED3EAEF36F97FDBA733F53
:10390000F6B2EDB435A2FE3F068195438B389E405A
:10391000C3F5285C8F425F40CDE9180109F0E4FA55
:103920004290FE4942980AF013F90B900AF070F8A1
:10393000FB4AFC4BCDE90C0109F0E6FDCDE90E0197
:1039400009F0D2FA109009F03BF911900AF060F8F2
:10395000F54AF64BCDE9120109F0D6FDCDE9160185
:103960002E980AF055F8F24AF24BCDE9120109F00F
:1039700065FFCDE91401DDE9162309F05FFFCDE90C
:10398000180109F0B1FA2D9033980AF041F8EA4A8B
:10399000EA4BCDE9000109F0B7FDE94AE94BCDE971
:1039A000020109F03FFFCDE9060133980AF030F833
:1039B000CDE90401DDE9062309F0A6FDE24AE34B67
:1039C000CDE9080109F0C2FACDE90C0133980AF0FB
:1039D0001FF8CDE90A01DDE90C2309F095FDDC4A69
:1039E000DC4BCDE90E0109F01DFF0022DA4BCDE9D9
:1039F000100109F05FFB0022D84BCDE9120109F05C
:103A0000A5FA0022D44BCDE9140109F053FB0022A2
:103A1000D34BCDE9160109F099FACDE9180109F067
:103A200063FA2C90BD4942980AF092F80B9009F085
:103A3000EFFFBB4ABB4BCDE90C0109F065FDCDE9B9
:103A40000E0109F051FA109008F024FE119009F0CF
:103A5000DFFFC44AC44BCDE9120109F055FDCDE9A1
:103A600016012C9809F0D4FFCDE91401DDE91623E5
:103A700009F06CFACDE9180109F036FA2B90A74944
:103A80002D980AF065F8099009F0C2FFA44AA54BE9
:103A9000CDE90A0109F038FDCDE90C0109F024FA5D
:103AA0000F9009F08DF89D4911902B980AF050F86D
:103AB000099009F0ADFF9A4A9A4BCDE90A0109F045
:103AC00023FDCDE90C0109F00FFA0F9009F078F809
:103AD000109011990AF09AF9129008F01BFC1390BB
:103AE00009F096FF8E4A8F4BCDE9140109F0E2FAF6
:103AF00000229E4BCDE9160109F006FDCDE9180123
:103B000009F0F2F92A904FF080412B980AF020F842
:103B1000824910900AF01CF8119009F079FF804A50
:103B2000804BCDE9120109F0EFFCCDE9140109F059
:103B3000DBF9179009F01EF94FF0804119902B988E
:103B40000AF006F8754910900AF002F8119009F091
:103B50005FFF734A734BCDE9120109F0D5FCCDE943
:103B6000140109F0C1F9179009F004F91890199996
:103B70000AF04CF929906949319809F0E9FF07905A
:103B800009F046FF664A674BCDE9080109F0BCFC25
:103B900000224FF08043CDE90A0109F0B5FCCDE9E0
:103BA0000C0109F0A1F90E9009F00AF80F9009F044
:103BB0002FFFCDE91201309809F02AFFCDE90E015F
:103BC000309809F025FF0022694BCDE90A0109F080
:103BD0009BFCCDE90C01DDE90E2309F095FCCDE954
:103BE0001001DDE9122309F08FFCCDE916014B49E4
:103BF000329809F0ADFF039009F00AFF484A494B9B
:103C0000CDE9040109F080FC00225A4BCDE9060100
:103C100009F07AFCCDE9080109F066F90A9008F08C
:103C2000CFFF0B9009F0F4FECDE90E01299809F0C1
:103C3000EFFECDE90A01299809F0EAFE00224E4B79
:103C4000CDE9060109F060FCCDE90801DDE90A23B0
:103C500009F05AFCCDE90C01DDE90E2309F054FC12
:103C6000CDE912012D49329809F072FF039009F055
:103C7000CFFE2B4A2B4BCDE9040109F045FC002275
:103C80004FF08043CDE9060109F03EFCCDE9080183
:103C900009F02AF90A9008F0FDFC20490C903198AF
:103CA00009F056FF039009F0B3FE1D4A1D4BCDE904
:103CB000040109F029FCCDE9060109F015F9089085
:103CC00008F07EFF0A904FF0814030990AF09EF88C
:103CD000089029990AF09AF809900A990AF096F83A
:103CE0000B900C990AF092F80C490E90319809F05B
:103CF0002FFF039009F08CFE094A0A4BCDE904011D
:103D000009F002FCCDE9060109F0EEF8089008F090
:103D100057FF0A904FF0804030992FE00000344365
:103D20004AD8124DFB210940F94ECC7A3194733FA9
:103D30001FBAA0BE654E773FD61A4AED45B45D3F27
:103D4000BEA4315A4755433FB81E85EB51684740E2
:103D5000A69BC420B072354000004E4000003A409F
:103D600000003740F168E388B5F8643F00806640A2
:103D70000000F43F000010400000E03F0AF046F869
:103D800009900A990AF042F8FE490C90329809F01D
:103D9000DFFE019009F03CFEFB4AFC4BCDE902013D
:103DA00009F0B2FB00224FF08043CDE9040109F095
:103DB000ABFBCDE9060109F097F8099008F000FF88
:103DC0000A9029990AF022F80B900C990AF0DEF972
:103DD0000D900E9909F048FE0F9009F019FECDE9FB
:103DE0001001DDE9122309F029FDCDE91401DDE917
:103DF000162309F023FDCDE9180109F075F842906A
:103E0000429809F005FEE04AE04BCDE9120109F0C5
:103E100051F90022DE4BCDE9140109F075FB0022B7
:103E2000DC4BCDE9160109F06FFBCDE9180109F073
:103E30005BF82890D3492A9809F08AFE079009F088
:103E4000E7FDD14AD14BCDE9080109F05DFBCDE991
:103E50000A0109F049F80D9008F08CFFC9490F904C
:103E6000379809F075FE079009F0D2FDC64AC74B96
:103E7000CDE9080109F048FBCDE90A0109F034F861
:103E80000D9008F077FF0E900F9909F0BFFFBD4924
:103E900011902A9809F05CFE059009F0B9FDBA4A24
:103EA000BA4BCDE9060109F02FFBCDE9080109F075
:103EB0001BF80B9008F0EEFBB2490D90379809F013
:103EC00047FE059009F0A4FDAF4AB04BCDE90601CD
:103ED00009F01AFBCDE9080109F006F80B9008F08B
:103EE000D9FB0C900D9909F091FF0F90AA4808F0AA
:103EF000D1FB0E900F9909F02BFE109011990AF04A
:103F000045F9129008F078F9139009F081FD9E4A66
:103F10009E4BCDE9140109F0CDF800229C4BCDE970
:103F2000160109F0F1FACDE9180108F0DDFF27903C
:103F30009A49369809F06AFF18904FF081403899F5
:103F400009F064FF964915900AF08EF816902899AA
:103F50000AF01CF91790189909F086FD91491990FB
:103F600009F0F6FD26904FF08141279809F04EFFA9
:103F70008C49189009F0ECFD199026990AF074F814
:103F800025904FF08141279809F040FF854918900E
:103F900009F0DEFD1990269909F066FD24907F480E
:103FA000369909F033FF19904FF08140389909F0A4
:103FB0002DFF7C491790359809F028FF1590289916
:103FC00009F052FD1690179909F04EFD18901999B5
:103FD0000AF0DCF823904FF4B461239802F01AFF42
:103FE00023900021239809F0DDFE09D24FF0814192
:103FF000239809F0ADFD634919900AF0C7F808E06D
:104000004FF08141239809F0A3FD5E4919900AF011
:10401000BDF822905B49229809F09AFD079009F0BB
:10402000F7FC594A594BCDE9080109F06DFACDE981
:104030000A0108F059FF0D9008F02CFB51490F9030
:104040002A9809F085FD059009F0E2FC4E4A4F4B95
:10405000CDE9060109F058FACDE9080108F044FF5E
:104060000B9008F017FB47490D90379809F070FD49
:10407000059009F0CDFC444A444BCDE9060109F016
:1040800043FACDE9080108F02FFF0B9008F002FB7E
:104090000C900D9909F0BAFE0E900F9909F0B6FE3A
:1040A000384911902A9809F053FD079009F0B0FCA7
:1040B000354A364BCDE9080109F026FACDE90A0167
:1040C00008F012FF0D9008F07BFD2E490F903798F5
:1040D00009F03EFD079009F09BFC2B4A2B4BCDE9E4
:1040E000080109F011FACDE90A0108F0FDFE0D9072
:1040F00008F066FD0E900F9909F088FE1090119956
:1041000009F0B2FC129008F077F8139009F080FCE7
:104110001D4A1E4BCDE9140108F0CCFF00221C4BB8
:10412000CDE9160109F0F0F9CDE9180108F0DCFE3F
:1041300021901D4821990AF029F8209011492098D2
:1041400009F006FD139009F063FC0F4A0F4BCDE90F
:10415000140109F0D9F9CDE9160108F0C5FE19904E
:1041600008F008FE1F901F99084609F04FFE1990AD
:104170001F9909F04BFE1E90DDE91E0109F046FE75
:10418000199013E0000034434AD8124DFB21094036
:10419000008066400000104041ECCA3F00007042C1
:1041A000000034440000B4440000B4421F9909F0F8
:1041B0002DFE1D90FE49209809F0F4FE02D2002049
:1041C0000146B8E0FB49209809F0ECFE45D21D9865
:1041D00009F01EFC02460B46CDE91001F648F749EE
:1041E00008F068FFCDE914011E9809F011FC0246A1
:1041F0000B46CDE90C01F248F24908F05BFFCDE92E
:104200001001F149209809F0A3FC059009F000FC89
:10421000EE4AEF4BCDE9060109F076F9CDE9080148
:1042200008F062FE0A9008F0A5FD0B9009F0F0FB83
:1042300002460B46CDE90C01E648E74908F03AFF93
:10424000CDE90E01DDE9102309F0F8FACDE91201FC
:10425000DDE9142308F07AFE6DE0209809F0D8FB20
:104260004FF06632DD4BCDE9140109F04BFA43D231
:10427000209809F0CDFBDA4ADA4BCDE9000109F0CC
:1042800043F9CF4A5242D84BCDE9020108F05EFE15
:10429000CDE90601209809F0BBFBCDE90401DDE979
:1042A000062309F031F9D14AD14BCDE9080108F0D4
:1042B0004DFECDE90C01209809F0AAFBCDE90A01D9
:1042C000DDE90C2309F020F9C84ACA4BCDE90E01FB
:1042D00008F03CFECDE91201209809F099FBCDE9E8
:1042E0001001DDE9122309F00FF90022C24BCDE9DC
:1042F000140108F02BFE1EE0B349209809F028FCB9
:104300000D9009F085FBB14AB14BCDE90E0109F0E2
:10431000FBF8CDE9100108F0E7FD129008F02AFD46
:10432000139009F075FB02460B46CDE91401B34822
:10433000B34908F0BFFE0022B24BCDE9160108F0E8
:10434000B9FECDE9180108F0CFFD1C901C9920980A
:1043500009F08AFB1B900021229809F023FE7CD2F1
:104360009949219809F0F4FB039009F051FB974A11
:10437000974BCDE9040109F0C7F8CDE9060108F033
:10438000B3FD099008F01CFC8F490B90379809F099
:10439000DFFB039009F03CFB8C4A8D4BCDE9040117
:1043A00009F0B2F8CDE9060108F09EFD099008F089
:1043B00071F90A900B9909F029FD83490D902A980B
:1043C00009F0C6FB039009F023FB804A804BCDE93E
:1043D000040109F099F8CDE9060108F085FD09907E
:1043E00008F0EEFB78490B90219809F0B1FB0190A1
:1043F00009F00EFB754A764BCDE9020109F084F80D
:10440000CDE9040108F070FD079008F043F96E490A
:104410000990379809F09CFB019009F0F9FA6B4A72
:104420006B4BCDE9020109F06FF8CDE9040108F00A
:104430005BFD079008F0C4FB0890099909F0E6FCC1
:104440000A900B9909F0A2FE0C900D9909F080FBDF
:104450000E9007F0D1FE0F9000E01DE009F0D8FAB1
:104460005A4A5B4BCDE9100108F024FE0022664B4E
:10447000CDE9120109F048F80022634BCDE914019F
:1044800008F064FDCDE9160108F02EFD4FF4B4717B
:10449000199002F0BFFCC7E04B49219809F058FB86
:1044A000039009F0B5FA494A494BCDE9040109F0F6
:1044B0002BF8CDE9060108F017FD099008F080FB04
:1044C00041490B90379809F043FB039009F0A0FA9B
:1044D0003E4A3F4BCDE9040109F016F8CDE906014B
:1044E00008F002FD099008F0D5F80A900B9909F040
:1044F0008DFC35490D902A9809F02AFB039009F0AC
:1045000087FA324A324BCDE9040108F0FDFFCDE9CC
:10451000060108F0E9FC099008F052FB2A490B90CB
:10452000219809F015FB019009F072FA274A284BEF
:10453000CDE9020108F0E8FFCDE9040108F0D4FC60
:10454000079008F0A7F820490990379809F000FB78
:10455000019009F05DFA1D4A1D4BCDE9020108F0FA
:10456000D3FFCDE9040108F0BFFC079008F028FB59
:104570000890099909F04AFC0A900B9909F006FE87
:104580000C900D9909F0E4FA0E9007F035FE0F90AB
:1045900009F03EFA0D4A0E4BCDE9100108F08AFDF4
:1045A0000022194BCDE9120108F0AEFF00222DE0E8
:1045B0000000AA420000A0403677F4BF5C8B163F93
:1045C000EC51B81E85EBB13F000034434AD8124D80
:1045D000FB210940CDCCCCCCCC0C4D406666E2BF73
:1045E0008D976E1283C0E63F7A9429C09A99999963
:1045F00099D95940993180C0001C9B401283C0CA90
:10460000A1C534C00020AC4000806640214BCDE9FC
:10461000140109F007F9CDE9160108F065FC4FF423
:10462000B471199002F0F6FB1A901B49259809F015
:10463000EDFB1A49C1F8E0011749249809F0E6FB9F
:104640001649C1F8E4011A98C1F8EC011B9809F069
:10465000DFF90022124BCDE9180109F053F804D814
:1046600010490E48C0F8E81112E01B9809F0D0F983
:1046700000220D4BCDE9180108F00AFF04D20B49C6
:104680000648C0F8E81103E004491B98C1F8E801A6
:1046900043B000BD00E080400000C041B0090020F0
:1046A000004056400000B242004056C00000B2C276
:1046B00010B50446012C0DD04448007800F00100EC
:1046C00008B900F013F9002001F020FE0020404955
:1046D000087010BD3F48007830B101281ED0022874
:1046E00044D003286BD159E03B49D1F8D8013B496C
:1046F00009F058FB0ED83849D1F8C401384909F0FF
:1047000051FC03D801203349087006E003203149E9
:10471000087002E002202F49087054E02B4800780E
:1047200000F0010008B900F0E1F82B49D1F8D801F8
:104730004FF0824109F036FC06D92749D1F8C4016F
:10474000284909F02FFB08D8002001F0DFFD0020E8
:104750001F4908701F49087007E0012001F0D6FDCD
:1047600001201B4908701B4908702CE0002001F053
:10477000CDFD0020164908701448007800F00100B3
:1047800008B100F031F811480078C0F3001008B10A
:1047900000F098F800200F49087014E0002001F0A4
:1047A000B5FD00200A4908700848007800F00100B3
:1047B00008B900F09BF800200649087003E00020CB
:1047C0000449087000BF00BF00BF82E7B0000020AE
:1047D000B1000020BC000020B00900200000A04073
:1047E0000000F0410000E04110B510231422D02158
:1047F000014801F02DFF10BDA44900202DE9F04132
:1048000000242C48C06810B9601EBDE8F0814FF448
:1048100088731422D021284801F01AFF044600238F
:104820002922D021244801F013FF0444112315222A
:10483000D021214801F00CFF04441E4988684FF044
:10484000834109F0E3FA07464FF07E5109F09EFCE0
:10485000064609F05BFA85B22B461A22D02116488B
:1048600001F0F6FE044413494868144909F08EFC2F
:104870000746134909F0CAFA064609F047FA85B215
:104880002B461B22D0210C4801F0E2FE04444FF4D9
:1048900061631D22D021084801F0DAFE044445F28C
:1048A00060431E22D021044801F0D2FE0444204679
:1048B000ABE7000094490020A449002000007440A8
:1048C0000000A04210B54FF488731422D02106488E
:1048D00001F0BEFE142000F053F910231422D02161
:1048E000014801F0B5FE10BDA449002010B54FF4F9
:1048F00088731422D021024801F0AAFE10BD0000E6
:10490000A449002010B54FF48071024800F0F3FD77
:1049100010BD0000000801400120164988820020D7
:1049200008605A2088872D20A1F842001248486369
:10493000124888635A20C887A1F8400040070861E0
:104940000F4888600F4848604FF08240C8600E48AA
:1049500048620E480862002088623C20C885122008
:1049600088854FF4967048860E200886084888612E
:1049700070470000B00900200000344200000743E7
:104980000000F0410000F242CDCC8C409A99F93FF2
:104990000000404010B5022000F0A8F8002864D0C4
:1049A0003248006820F002003049086000212F489A
:1049B0000838FDF794FE00212C480838FDF7F0FD7B
:1049C000022000F079F800202949087031E0002128
:1049D0002848274A127840F82210002026490870FB
:1049E0001EE02549097801EB8101214A1278114422
:1049F000224A32F8110009F0C1F904461D481C4A48
:104A0000127850F82210204609F02EF81949184A59
:104A1000127841F8220018480078401C16490870A6
:104A2000154800780A28DCDB11480078401C104942
:104A300008700F4800780528C9DB0E480068104947
:104A400008600C4840680F4908600A4880680E49B1
:104A500008600848C0680D490860064800690C49AC
:104A6000086000210B4800F035F810BD0824014013
:104A700024010020044F002025010020A04E00202A
:104A8000280100202C0100203001002038010020E6
:104A9000340100200800024010B5044600210548FA
:104AA00000F018F80348001D04600121001F00F009
:104AB00011F810BD5804024000F0805111B10349B3
:104AC000086001E0024948607047000004040240A9
:104AD0000000024021B1026842F00102026004E0DD
:104AE00002684FF6FE731A400260704701460020CC
:104AF000002201F0805313B1054B1A6801E0054B09
:104B00001A6802EA01030BB1012000E0002070479F
:104B100000040240000002401AB103680B43036026
:104B200002E003688B430360704710B500220268FF
:104B300047F6F0739A430C6A8B6823430C6923434E
:104B40004C6923438C692343CC6923434C6A234338
:104B50008C6A23431A430260CB6843600B6883600E
:104B60004B68C36010BD0C2105E00C2100BF0A1E7C
:104B7000A1F10101FBD1021EA0F10100F5D17047A6
:104B800006E0482100BF0A1EA1F1010359B2FADA7A
:104B9000021EA0F1010358B2F3DA704710B51449B0
:104BA000D1F8C801134909F0FDF815D8124800786A
:104BB000401C1149087008460078142817DB0020B3
:104BC00008700B48D0F8F40120F0806000F180609C
:104BD0000749C1F8F4010AE00020074908700448B9
:104BE000D0F8F40120F080600149C1F8F40110BD53
:104BF000B009002000007041D20000203EB5A54859
:104C000090F8AF0101287DD10020A3490880A34876
:104C10000088401CA149088008460088052804DA5D
:104C20009C48D0F8B4019E4908609C480088B0F5C3
:104C3000167F45DD0020994908809648D0F8B411C8
:104C40009748006809F0A2FA04464FF03F4109F086
:104C5000A9F809D28F48D0F8F40120F00200801C96
:104C60008C49C1F8F40107E08A48D0F8F40120F03B
:104C700002008849C1F8F4018648D0F8B411884888
:104C8000006809F083FA04464FF07E5109F08AF972
:104C90000BD38048D0F8B4118148006809F076FA47
:104CA0000446804909F07EF80BD27A48D0F8F40126
:104CB00020F020007749C1F8F40100207A490880EB
:104CC000E7E07448D0F8F40120F02000203071496A
:104CD000C1F8F40174480088012817D102A8002106
:104CE00048F204130A46CDE9001002216F4802F091
:104CF0008DFDBDF808000028E2D102AB002204219E
:104D00006A4800E01FE002F05DFFC2E066480088EC
:104D10000028D5D15F48D0F8F401C0F340700028D6
:104D2000CED10120604908805A48D0F8F40120F023
:104D300020005849C1F8F40102AB002201215B4870
:104D400002F040FFA5E0534890F8AF0102287CD163
:104D500000205249088050480088401C4E49088075
:104D600008460088052804DA4A48D0F8B4014C49BE
:104D7000086049480088B0F5167F45DD00204649A7
:104D800008804448D0F8B4114548006809F0FEF99D
:104D900004464FF07C5109F005F909D23D48D0F89E
:104DA000F40120F00200801C3A49C1F8F40107E048
:104DB0003848D0F8F40120F002003649C1F8F40177
:104DC0003448D0F8B4113648006809F0DFF90446D9
:104DD0004FF07E5109F0E6F80BD32E48D0F8B4110D
:104DE0002F48006809F0D2F904462E4908F0DAFF8E
:104DF0000BD22848D0F8F40120F020002549C1F852
:104E0000F40100202849088043E02248D0F8F4014A
:104E100020F0200020301F49C1F8F401224800880A
:104E2000012816D102A8002148F204130A46CDE950
:104E3000001002211D4802F0E9FCBDF8080010BB7B
:104E400002AB00220421194800E01DE002F0BAFE86
:104E50001FE015480088B0B90E48D0F8F401C0F33F
:104E6000407080B90120104908800A48D0F8F40148
:104E700020F020000749C1F8F40102AB0022012113
:104E80000A4802F09FFE04E000200449088002491D
:104E900008803EBDB0090020CE000020CC000020DC
:104EA000C8000020000080BFD0000020E0440020A7
:104EB00070B54D4890F8AE01002864DD4A4A91690A
:104EC000D2F8B80109F06EF80CD94748D0F8B811FB
:104ED000464808F09BFF044643488169204609F094
:104EE00061F81DD800204249087042480078401CF3
:104EF000404908700846007808F0B6FA04460022D7
:104F00003D4B08F0FFFB0BD200203A4908703648B1
:104F1000D0F8F40120F00100401C3349C1F8F4013D
:104F200031498869354908F071FF04462E48D0F8A8
:104F3000B811204609F036F82AD82B49886930493B
:104F400008F064FF04462848D0F8B811204608F05D
:104F500029FF1DD826480078401C254908700846BE
:104F60000078642814DD00200870224908701E486B
:104F7000D0F8F40120F001001B49C1F8F401002031
:104F80002049087004E00020194908701949087088
:104F9000154890F8F40100F0010008B31A480088A1
:104FA000401C1949088008460088B0F5966F1ADD44
:104FB0000020088013480078401C124908700846F9
:104FC0000078082808DA0848D0F8F40120F0010039
:104FD0000549C1F8F40106E009200A49087002E019
:104FE00000200949088070BDB0090020000080BF82
:104FF000C0000020C100002000002C406666663F13
:10500000666666BFC2000020C400002010B53A49A1
:10501000886B4FF0804108F027FD04463648D0F8F1
:10502000B411204608F0BEFE14D234480078401C6B
:10503000324908700846007832285CDD3420087058
:105040002D48D0F8F40120F0080008302A49C1F8B2
:10505000F40150E02849486B4FF0804109F096F880
:1050600004462548D0F8B411204608F09BFF14D21E
:1050700022480078401C21490870084600783228F0
:1050800039DD342008701C48D0F8F40120F0040009
:10509000001D1949C1F8F4012DE01749886B4FF044
:1050A0007E5109F073F804461348D0F8B411204635
:1050B00008F078FF1FD21049486B4FF07E5108F07E
:1050C000D3FC04460C48D0F8B411204608F06AFE20
:1050D00011D20020094908700748D0F8F40120F0E7
:1050E00004000549C1F8F4010846D0F8F40120F0A5
:1050F0000800C1F8F40110BDB0090020C60000206E
:1051000010B500F0E1F8352000F01EF800240AE0A8
:105110000B4901EBC42000F01DF800BF00F05AF865
:105120000128FBD0641C502CF2D3064800F012F882
:1051300000BF00F04FF80128FBD000F065F810BD6B
:1051400000A0020800F007080149C860704700008D
:105150000020024030B5044604254FF4302000F012
:10516000BFF80546042D17D10C48006940F0020035
:105170000A49086108464461006940F0400008613E
:105180004FF4302000F0ACF805460448006941F6C1
:10519000FD71084001490861284630BD00200240E9
:1051A00004200B49C96801F0010109B101200EE09A
:1051B0000749C96801F0040109B1022007E0044968
:1051C000C96801F0100109B1032000E00420704714
:1051D0000020024004200B49C96801F0010109B117
:1051E00001200EE00749C96801F0040109B102205D
:1051F00007E00449C96801F0100109B1032000E08B
:1052000004207047002002400348006940F08000FD
:1052100001490861704700000020024070B5044653
:105220000D460426F00200F05BF80646042E11D16C
:105230000948006940F00100074908612580F00233
:1052400000F04EF806460448006941F6FE71084039
:1052500001490861304670BD0020024078B506461D
:105260000C46042500200090E80200F039F80546BD
:10527000042D24D11348006940F001001149086150
:105280003480E80200F02CF80546042D10D1B01C43
:105290000090200C00990880E80200F021F80546F3
:1052A0000848006941F6FE7108400649086106E0B9
:1052B0000448006941F6FE71084002490861284629
:1052C00078BD0000002002400248034948600348BE
:1052D000486070472301674500200240AB89EFCD4D
:1052E00000B502460423FFF75BFF034603E0FFF728
:1052F00057FF0346521E012B01D1002AF7D102B9F4
:105300000523184600BD000010B500F073FF4FF4F0
:10531000D0500849A1F8A80100F0D0FD0549B1F826
:10532000A81108430349A1F8A80109210148A0F8E0
:10533000AA1110BDB00900202DE9F0410246002558
:105340000026002000230024002791F803C00CF061
:105350000F0591F803C00CF0100CBCF1000F03D046
:1053600091F802C04CEA050591F800C0BCF1000FAD
:1053700031D0146800202BE04FF0010C0CFA00F340
:10538000B1F800C00CEA03069E4220D183004FF022
:105390000F0C0CFA03F7BC4305FA03FC4CEA0404B7
:1053A00091F803C0BCF1280F06D14FF0010C0CFAA4
:1053B00000FCC2F814C00AE091F803C0BCF1480F29
:1053C00005D14FF0010C0CFA00FCC2F810C0401CD3
:1053D0000828D1D31460B1F800C0BCF1FF0F34DD50
:1053E000546800202EE000F1080C4FF0010808FA84
:1053F0000CF3B1F800C00CEA03069E4221D18300F1
:105400004FF00F0C0CFA03F7BC4305FA03FC4CEA0F
:10541000040491F803C0BCF1280F05D100F1080C79
:1054200008FA0CF8C2F8148091F803C0BCF1480FD8
:1054300007D100F1080C4FF0010808FA0CF8C2F887
:105440001080401C0828CED35460BDE8F0810000D5
:10545000F0B50A46002300240021002500F0004694
:10546000B6F1004F02D11D4EF16901E01B4E71688B
:10547000C0F3034583B200F44016B6F5401F08D1CF
:1054800021F07061154E766826F07066134F7E60CD
:1054900012E000F48016B6F5801F06D1032606FA46
:1054A00005F4A14341F0706106E0460D360103FAB0
:1054B00006F6B14341F0706122B1460D360103FAA0
:1054C00006F6314300F00046B6F1004F02D1034E1C
:1054D000F16101E0014E7160F0BD0000000001408B
:1054E0000246002093680B400BB1012000E0002031
:1054F0007047416170470161704700000048704784
:10550000684700202DE9F84F83460F460024002508
:1055100000266946232005F0E7FD9DF800000443BE
:105520006946222005F0E0FD200204B29DF800004B
:10553000044369462B2005F0D7FD9DF80000054384
:1055400069462A2005F0D0FD280205B29DF800002A
:10555000054369462D2005F0C7FD9DF80000064370
:1055600069462C2005F0C0FD300206B29DF800000F
:1055700006436946182005F0B7FD9DF8000038285D
:1055800013D1304608F0E2FB8046284608F0DEFBE7
:105590008146204608F0DAFB824642464946FDF73E
:1055A000D9FE38600020BDE8F88F4FF0FF30FAE7F1
:1055B0002DE9F04F91B04FF0000AB549D1F8E8015C
:1055C00008F026FA0446B34AB34B08F09BF87DD89E
:1055D000AF49D1F8EC01B14908F0D8FDB0490E90BF
:1055E00008F0B6FA834608F013FA0646AD4AAE4B09
:1055F00007F08AFF044607F077FC814607F04AF877
:105600008046A349D1F8E801A54908F0A1FA8346EC
:1056100008F0FEF90646A34AA34B07F075FF0446BF
:1056200007F062FC814607F0A5FB41460F9006F0AB
:1056300003FF8246504608F0EBF98046994A9A4BA0
:1056400007F038FD06460022984B07F05DFF044640
:1056500007F04AFC82468E49D1F8EC0108F0D8F9EF
:1056600004460022914B07F013FF7DD88848816AD9
:10567000504608F097FC79D28D49504608F092FCCC
:1056800074D28348816A504608F080FD84490E90A8
:1056900008F05EFA0F9008F0BBF90646814A824B8B
:1056A00007F032FF044607F01FFC834607F088FA34
:1056B00081467748416A484608F0A8FB804674480E
:1056C000016A404608F06EFC05D800E0DBE0504679
:1056D00011B0BDE8F08F6E48816A504608F056FD63
:1056E0006F49029008F034FA039008F091F96D4A7E
:1056F0006D4BCDE9040107F007FFCDE9060107F086
:10570000F3FB089007F05CFA83466148416A58460B
:1057100008F07CFB09905E48016A099808F018FAC5
:105720000A9006F0F7FD0B9008F072F95D4A5E4BA7
:10573000CDE90C0107F0BEFC064600225B4B07F0EA
:10574000E3FE04460D465549504608F08DF90646DD
:1057500008F05EF922462B46CDE90E0108F06EF8FE
:10576000804607F0C1FBB3E705E0FFE74849888FB3
:1057700008F004FBACE74648816A494808F074F930
:105780000446514608F00EFC78D24A49504608F0CB
:1057900009FB73D23E4A516A106A08F0D9F95146A2
:1057A0000F903F4808F0F2FC0D903948816A0D983F
:1057B00008F05AF983463A4908F0CAF90E9008F001
:1057C00027F90646374A384B07F09EFE044607F095
:1057D0008BFB814607F0F4F980460F9908F0E2FB55
:1057E00001D8504674E72A48816A504608F0CEFC3A
:1057F0002B49019008F0ACF9834608F009F9294AD1
:10580000294BCDE9020107F07FFECDE9040107F045
:105810006BFB814607F0D4F907901D48416A079851
:1058200008F0F4FA08901A48016A089808F090F90C
:10583000804606F06FFD099008F0EAF8194A1A4B05
:10584000CDE90A0107F036FC06460022174B07F0A7
:105850005BFE04460D461149504608F097FC06468B
:1058600008F0D6F822462B46CDE90C0107F06EFB76
:10587000CDE90E0107F038FB2AE7FFE70449888FDE
:1058800008F07CFA24E70249888F08F077FA1FE7CE
:10589000B00900209A9999999999B93F0000B442AA
:1058A000000034434AD8124DFB2109400080664075
:1058B000000040400000314338B5044600256B46E7
:1058C0003422D0213F4800F0D1FD054615B14FF0FC
:1058D000FF3038BDBDF8000000F4807088B120783A
:1058E00020F00100401C2070207820F00200207081
:1058F000207820F004002070207820F0080020702C
:1059000030E0207820F001002070BDF8000000F0A9
:10591000800028B1207820F00200801C207003E075
:10592000207820F002002070BDF8000000F0400058
:1059300028B1207820F00400001D207003E02078BA
:1059400020F004002070BDF8000000F0180028B11D
:10595000207820F008000830207003E0207820F044
:1059600008002070BDF8000000F0040028B1207885
:1059700020F010001030207003E0207820F010009C
:105980002070BDF8000000F0020028B1207820F05F
:1059900020002030207003E0207820F020002070CC
:1059A000BDF8000000F0010028B1207820F0400090
:1059B0004030207003E0207820F04000207000206C
:1059C00087E70000A44900202DE9F843044600259C
:1059D0006B463D22D0210D4800F048FD05468DB9AB
:1059E000BDF9000008F0B2F98046094908F00EFA46
:1059F00007464FF0834108F0ABF80646054908F02A
:105A0000A7F820602846BDE8F8830000A4490020DC
:105A1000DC80BB3F00007A4410B50024694800F0E8
:105A2000C7F904446748001FFFF7CEFF04446548E8
:105A3000083000F0E9F804446348FFF73DFF0444F0
:105A40005CB90020614908706148D0F8F40120F089
:105A500000405F49C1F8F4011AE05C480178007821
:105A6000401C5A4A1070052912DD052011460870A5
:105A70005748D0F8F40120F0004000F100405449AC
:105A8000C1F8F40100215248C0F8D011C0F8CC117F
:105A90004D480078C0F3401058B94B480078C0F327
:105AA000801030B94A49D1F8D0014A4908F07AF952
:105AB00018D800204849088048480088401C4749B9
:105AC000088008460088142829DB00200880404808
:105AD000D0F8F40120F0005000F100503C49C1F82A
:105AE000F4011CE03A49D1F8D0013D4908F05AFAD6
:105AF00015D800203949088037480088401C3649AD
:105B0000088008460088642809DB002008803048A7
:105B1000D0F8F40120F000502D49C1F8F4012C48D0
:105B200090F8AE01002844D12949D1F8D0012D497F
:105B300008F038F919D800202B4908802B48008834
:105B4000401C2A49088008460088B0F5167F30DBE3
:105B5000002008801E48D0F8F40120F0805000F1A9
:105B600080501B49C1F8F40123E01949D1F8D00154
:105B70001F4908F017FA17D800201C4908801A4856
:105B80000088401C1849088008460088B0F5967FB8
:105B90000FDB002008800E48D0F8F40120F0805080
:105BA0000B49C1F8F40104E000200F4908800F49B7
:105BB00008800749D1F8D00100F01CF80449C1F869
:105BC000D40110BD800B0020B0000020B2000020E6
:105BD000B00900200000B041B8000020BA00002049
:105BE0000000BC410000C441B6000020B400002009
:105BF0000000D44110B504460248C16820468847D9
:105C000010BD0000944900202DE9FE4F04464FF0DE
:105C1000000A02AB4022D021484800F027FC82460F
:105C2000BAF1000F23D1BDF9080008F08FF807463C
:105C3000434908F019FA0546BDF9080008F086F84E
:105C40000746404908F0E2F80646294607F080FF7B
:105C500081463D49484608F0A5F809D849463B48E1
:105C600008F0D4F805463A4907F0FEFE206062E0ED
:105C70003549484608F096F90ED23249484608F0B0
:105C800091F809D84946334808F0C0F8054632492A
:105C900007F0EAFE20604EE02A49484608F082F903
:105CA00018D22E49484608F07DF813D8484607F028
:105CB000AFFE07462A4A2B4B07F026FC05464FF05D
:105CC0000042294B07F042F9CDE9000107F00CF939
:105CD000206030E02149484608F064F90ED223499B
:105CE000484608F05FF809D84946214808F08EF880
:105CF0000546204907F0B8FE20601CE01B494846D5
:105D000008F050F90ED21C49484608F04BF809D863
:105D100049461A4808F07AF80546194907F0A4FEE2
:105D2000206008E04946174808F070F80546164913
:105D300007F09AFE20605046BDE8FE8FA44900207F
:105D400000AAAA46000020419A999940B0031CC1BC
:105D50009358B44213F271C0E9A67642CDCC6441A7
:105D600064CC5D4BC88700C0E9A646403333B341DD
:105D70008885A2BFDB7906420000E441D34D62BFB3
:105D80001D5AC9414F1EB6BEDD24EC4010B500249B
:105D900040210648FFF7A4FB04436006040E80215F
:105DA0000248FFF79DFB0443204610BD001401404C
:105DB0002DE9F843044600256B463A22D0210C48D1
:105DC00000F054FB054685B9BDF9000007F0BEFFA1
:105DD0008046084908F01AF80746074908F016F8FF
:105DE0000646064907F0B4FE20602846BDE8F88361
:105DF000A44900200000E040DBE0443E00007A447B
:105E0000F0B50346144620466FF00105DE1703EB9C
:105E10009676B610A3EB86062EB9642693FBF6F7AA
:105E200006FB173636B94FF4C87693FBF6F706FB38
:105E300017360EB94FF0FF35032906DA012901D1D3
:105E4000002200E01F2210441BE007290BDC0A4659
:105E500001EBD27677104E1EC6EB061607EB460610
:105E60002E4430440DE005F1D606A1F10807C7EB3A
:105E7000071706EB4707CA1F02EBD27607EB660649
:105E80003044F0BD70B507490748006807F0BEFF11
:105E90000546064907F0BAFF0446054907F058FED3
:105EA00070BD00003333534030010020BE9F4E418F
:105EB00000002047004870473049002010B50024FA
:105EC0004FF400710A48FFF70BFB04436006040E11
:105ED0004FF480710648FFF703FB04436006040E8D
:105EE00080210348FFF7FCFA0443204610BD000060
:105EF0000018014070B509490948006807F086FF9D
:105F000006464FF08B4107F023FE0546054908F091
:105F10003DF90446044907F01BFE70BD0000044231
:105F20002801002000002543000030410146C1EB5C
:105F3000C100024A02EB8000007E7047BC4900208D
:105F40000146C1EBC100024A02EB8000807E70472F
:105F5000BC49002070B507490748006807F056FFA4
:105F60000546064907F052FF0446054907F0F0FDD3
:105F700070BD0000333353402C010020BE9F4E41C2
:105F80000000204770B509490948006807F03EFF46
:105F900006464FF08B4107F0DBFD0546054908F04A
:105FA000F5F80446044907F0D3FD70BD0000044233
:105FB00038010020000025430000304170B5094938
:105FC0000948006807F022FF06464FF08B4107F0B2
:105FD000BFFD0546054908F0D9F80446044907F015
:105FE000B7FD70BD000004423401002000002543CD
:105FF00000003041F8B5044600266B46002292218D
:106000000F4800F033FA0646BEB99DF80150BDF8BE
:106010000000000200B20090BDF8000000F47F40D4
:1060200000B20090BDF9000028430090BDF90000C7
:10603000C11700EB1161091221803046F8BD000044
:10604000184F00202DE9FC4705460E461746984696
:10605000DDE90A9A00240020009001904FF480713D
:106060006348FFF746FA4FF400716148FFF743FABF
:1060700080215F48FFF73DFA0A20FEF774FD00BF5C
:106080005BE04FF480715A48FFF735FA0A20FEF7BB
:106090006AFD182C18DA40215548FFF721FA01282B
:1060A00041D12046E11704EB5171C910A4EBC102A4
:1060B000012191406A4602EBE402127811436A46DC
:1060C00002EBE40211702EE01C2C10DA402148484B
:1060D000FFF706FA012826D19DF80300A4F1180164
:1060E00001228A401043C0B28DF803001BE0342C1B
:1060F00019DA40213E48FFF7F3F9012813D1201D9A
:10610000C11700EB5171C910A0EBC10201219140F0
:106110006B46221D03EBE20212781143CAB2211D25
:1061200003EBE1010A704FF480713148FFF7E1F9A8
:106130000A20FEF718FD601CC4B2342CA1DB4FF41A
:1061400000712B48FFF7D5F99DF8000000F00F0013
:106150009DF80010C1F3021101EB810100EB410039
:1061600028809DF8010000F00F009DF80110C1F398
:10617000021101EB810100EB410030809DF802002B
:1061800000F00F009DF80210C1F3011101EB810135
:1061900000EB410038809DF8040000F00F009DF8EE
:1061A0000410C1F3011101EB810100EB4100A8F8DB
:1061B00000009DF8050000F00F009DF80510C1F3E8
:1061C000001101EB810100EB4100A9F800009DF8EE
:1061D000060000F00F009DF80610090901EB81018F
:1061E00000EB410000F2DA70AAF80000BDE8FC877D
:1061F0000010014008B50121402003F08BFE8020F3
:10620000ADF8000004208DF8030002208DF8020094
:1062100069460A48FFF790F84FF48070ADF8000027
:1062200069460648FFF788F84FF40070ADF80000A3
:1062300069460248FFF780F808BD000000180140D9
:1062400018B9054A12880A8004E0012802D10A8898
:10625000014B1A8070470000D400002017481849ED
:10626000086018484860184888601848C86018488E
:10627000086118484861184888611848C86118487A
:1062800008624862174888621748C862174808635E
:1062900017484863174888631748C863104808645C
:1062A000164848640E488864C8641548086515484F
:1062B00048651548C8650A480866704719A000086F
:1062C0003049002023A000083DA0000819A80008BC
:1062D00045A7000859A60008A5AF000831AA000884
:1062E00041620008F5AC00081DAC0008FDAA0008DA
:1062F0005DAB0008BDAB000889AC00089DA200089A
:1063000081B00008A1B0000835A1000810B504460E
:10631000012C04D181020548FFF7EDF804E04FF4A9
:1063200080610248FFF7E5F810BD00000018014049
:1063300008B50121402003F0EDFD4FF48060ADF879
:10634000000010208DF8030002208DF8020069463D
:106350000448FEF7F1FF4FF480610248FFF7C9F8E7
:1063600008BD00000018014070B504460025A18A50
:106370002069FFF7BEF821896068FFF7BCF80120AB
:10638000FEF7FEFBA18A2069FFF7B5F80320FEF7B0
:10639000F7FB21896068FFF7A3F8012800D10125E8
:1063A000A18A2069FFF7A5F80120FEF7E9FB28463E
:1063B00070BD70B504460D46A18A2069FFF799F8B3
:1063C0000120FEF7DDFB21896068FFF794F80020CB
:1063D0002870072620E0A18A2069FFF78AF80120AB
:1063E000FEF7CEFBA18A2069FFF785F80320FEF7B0
:1063F000C7FB21896068FFF773F8012803D129786A
:10640000B04001432970A18A2069FFF772F8022089
:10641000FEF7B6FB701E46B2002EDCDA70BD38B552
:1064200004460121206803F075FD0121E06803F0B6
:1064300071FD2089ADF8000014208DF803000320C1
:106440008DF8020069466068FEF776FF2189606872
:10645000FFF751F8A08AADF8000069462069FEF701
:106460006BFFA18A2069FFF746F838BD2DE9F84394
:1064700080460E4617461C4600250020208006F068
:10648000FE06404600F0ADF83146404600F03EF8CA
:106490004046FFF769FF00B16D1E3946404600F0E7
:1064A00035F84046FFF760FF00B16D1E46F001066B
:1064B000404600F096F83146404600F027F8404646
:1064C000FFF752FF00B16D1E69464046FFF771FFAE
:1064D00020889DF8001008432080404600F049F8CD
:1064E00069464046FFF765FF20889DF800104FF48D
:1064F0007F4202EA012108432080404600F055F81F
:10650000404600F086F82846BDE8F8832DE9F041C2
:1065100004460E460127072527E0A18A2069FEF7D9
:10652000E8FF0120FEF72CFB46FA05F000F0010021
:1065300020B121896068FEF7DEFF03E021896068F1
:10654000FEF7D7FF0120FEF71BFBA18A2069FEF7AB
:10655000D2FF0520FEF714FBA18A2069FEF7C9FFD0
:106560000120FEF70DFB681E45B2002DD5DABDE80F
:10657000F08110B50446A18A2069FEF7BAFF21898F
:106580006068FEF7B6FF0120FEF7FAFAA18A2069DB
:10659000FEF7B1FF0520FEF7F3FAA18A2069FEF7A6
:1065A000A8FF0120FEF7ECFA10BD10B50446A18A41
:1065B0002069FEF79EFF21896068FEF79CFF01209D
:1065C000FEF7DEFAA18A2069FEF795FF0520FEF7A7
:1065D000D7FAA18A2069FEF78CFF0120FEF7D0FAD6
:1065E00010BD10B5044621896068FEF784FF0220C3
:1065F000FEF7C6FAA18A2069FEF77DFF0220FEF7AA
:10660000BFFA21896068FEF774FF0220FEF7B8FA2E
:1066100010BD10B50446A18A2069FEF76AFF01206B
:10662000FEF7AEFA21896068FEF763FF0120FEF7EE
:10663000A7FAA18A2069FEF75EFF0220FEF7A0FA02
:1066400021896068FEF757FF0120FEF799FA10BD17
:106650002DE9F04180460E4617461D46002406F0FF
:10666000FE064046FFF7BDFF31464046FFF74EFFAE
:106670004046FFF779FE00B1641E39464046FFF7F9
:1066800045FF4046FFF770FE00B1641EE9B2404688
:10669000FFF73CFF4046FFF767FE00B1641E290A82
:1066A0004046FFF733FF4046FFF75EFE00B1641E31
:1066B0004046FFF7AEFF2046BDE8F0812DE9F041EE
:1066C00080460D4616461F46002405F0FE0540464E
:1066D000FFF787FF29464046FFF718FF4046FFF7C0
:1066E00043FE00B1641E31464046FFF70FFF4046AF
:1066F000FFF73AFE00B1641E39464046FFF706FF39
:106700004046FFF731FE00B1641E4046FFF781FFAF
:106710002046BDE8F08100004AF6AA200149086041
:10672000704700000030004000211E4880F8AD1185
:10673000806CFF2802D11B48816431E0194890F831
:10674000480000F0F000202803D1174817490860DE
:1067500026E0144890F8480000F0F000102803D11B
:106760001348124908601BE00E4890F8480000F0FA
:10677000F000402803D10F480C49086010E0094898
:1067800090F8480000F0F000802803D10A4807493B
:10679000086005E0002103488164D0F8F01101652C
:1067A00070470000B0090020952B000898000020D9
:1067B0008D6D0008D56C0008412900082DE9FE4FB9
:1067C00005460C46DFF8D491DFF8D4A1DFF8D4B148
:1067D0004946284607F01AFB0746734801684846B1
:1067E00007F014FB804671480168404607F03CFC06
:1067F0000646394607F038F96D4908606A4800686E
:106800006C4908606C4801686C4807F0FFFA029018
:106810006B480168484607F0F9FA01906948016839
:10682000484607F0F3FA009067480168009807F0BF
:106830001BFC8046019907F0A9FC0746029907F066
:1068400013F90646514607F00FF9604908605A48A7
:106850000168484607F0DAFA0646594801683046AA
:1068600007F002FC5A49086053480168484607F09F
:10687000CDFA064653480168304607F0F5FB554906
:10688000086051464C48006807F0EEF8524908602D
:1068900059464E48006807F0E7F8064631464B482F
:1068A000006807F055F94D490860594647480068A7
:1068B00007F0DAF8064631464648006807F048F91E
:1068C000474908603A480168204607F05FFC0746E0
:1068D00042480168384607F099FA0646344801688C
:1068E000304607F0C1F83149086031480168204658
:1068F00007F04CFC07463A480168384607F086FA2C
:1069000006462C480168304607F0AEF82649086074
:10691000324801684FF07E5007F038FC06462B489D
:106920000168304607F072FA274908602B48016871
:106930004FF07E5007F02AFC064625480168304695
:1069400007F064FA1E49086025480168254807F0E9
:106950005DFA07461D480168384607F057FA0646B3
:106960001C480168304607F07FF8164908601C484B
:1069700001681C4807F04AFA07461548016838467E
:1069800007F044FA064614480168304607F06CF8F0
:106990000949086005480068BDE8FE8F0AD7A33C96
:1069A0000AD7233C00002041E8000020E40000203A
:1069B000DC000020E00000200801002017B7D139DA
:1069C0000001002004010020FC000020EC00002059
:1069D000F0000020F4000020F80000200C0100204E
:1069E00010010020000080BF10B50948007838B9B8
:1069F00001200749087002210648FEF77AFD06E0EB
:106A000000200349087002210248FEF774FD10BD02
:106A1000180100200018014008B50121402003F0B2
:106A200079FA0220ADF8000010208DF80300022052
:106A30008DF8020069460448FEF77EFC02210248F8
:106A4000FEF759FD08BD00000018014010B50221F5
:106A50000148FEF750FD10BD0018014010B502219D
:106A60000148FEF746FD10BD00180140F8B5694623
:106A70000F2004F039FB0EE069460F2004F034FBD0
:106A80009DF80000692800D106E0002401E0601CA8
:106A9000C4B2322CFBDBEFE700BF0021112005F070
:106AA00057FA7021102005F053FA0121122005F049
:106AB0004FFA11E0002000906946122004F014FB08
:106AC0009DF8000000F0010000B906E0002401E09C
:106AD000601CC4B2322CFBDBECE700BF00210120BC
:106AE00005F036FA20210B2005F032FA00210D20A6
:106AF00005F02EFA00210E2005F02AFA432110207D
:106B000005F026FA4221112005F022FA7421122004
:106B100005F01EFA8C21132005F01AFA002114202A
:106B200005F016FA0021152005F012FA00211620B2
:106B300005F00EFAC421172005F00AFA102158209A
:106B400005F006FA3821182005F002FA382119203C
:106B500005F0FEF9002400203C49086037E00020E1
:106B6000009069461E2004F0BFFA9DF8000000F076
:106B7000020002281DD100256946232004F0B4FA42
:106B80009DF8000005436946222004F0ADFA280272
:106B900005B29DF800000543284607F0D7F80646E1
:106BA0002A480168304606F05FFF28490860601CEB
:106BB000C4B2052C0BDD204607F0E0F8064631464E
:106BC0002248006806F0C4FF2049086000E0C6E7DC
:106BD00000BF002437E00020009069461E2004F02A
:106BE00083FA9DF8000000F0020002281DD1002564
:106BF0006946232004F078FA9DF8000005436946B1
:106C0000222004F071FA280205B29DF80000054325
:106C1000284607F09BF806460C480168304606F007
:106C200023FF0A490860601CC4B21E2C0BDD2046FD
:106C300007F0A4F8064631460448006806F088FFCD
:106C40000249086000E0C6E700BFF8BDD800002098
:106C500008B5002400BFFFF7DFFE24E0601CC4B2CB
:106C60001148C06C28B9062C16DD0024FFF7BCFEC5
:106C700012E00D48C06C012802D1FFF7EFFE0BE0D7
:106C80000948C06C022805D1022C05DB0024FFF75F
:106C9000ABFE01E0FFF7DAFEFFF73EFD6A4600219A
:106CA0000A2001F099FCD9E7B009002010B54FF493
:106CB00000410248FEF71FFC10BD00000008014023
:106CC00010B54FF400410248FEF713FC10BD000060
:106CD0000008014070B52A4890F8480000F0F00024
:106CE000402805D1264890F8480000F00F0018B160
:106CF00024482549086070BD0020214981F8AC0175
:106D0000486B4FF07E5106F0AFFE04461C49B1F8C7
:106D1000420007F033F80546214607F043F808D251
:106D20001749486B4FF07E5106F09EFE14490865E6
:106D300020E01349886B4FF07E5107F027FA044694
:106D40000F49B1F8420007F019F80546214607F04F
:106D500029F908D20A49886B4FF07E5107F016FADC
:106D60000749086506E00649B1F8420007F006F851
:106D7000034908650121024880F8AD1100BFBAE758
:106D8000B0090020296700089800002010B51E48AF
:106D900090F8480000F0F000102803D01B481C4970
:106DA000086010BD0020184981F8AC01084690F831
:106DB000480018280CD10121134880F8AD11014674
:106DC000486B4FF0804106F04FFE0F49086518E010
:106DD0000D4890F8480014280CD101210A4880F889
:106DE000AD110146886B4FF0804107F0CFF906499D
:106DF000086506E00021044880F8AD11D0F8F011D4
:106E0000016500BFCDE70000B00900202967000838
:106E1000980000202DE9F04F89B082460C464FF0D3
:106E2000000BD9460021504607F0BCF82FD8504639
:106E300006F0EEFD074605F0C1FE054606F0CEFA67
:106E40008146504606F0E4FDCDE9000105F0B6FEAE
:106E500005460E46504606F0DBFD07462A463346F9
:106E600006F0ECFCCDE9040199FBF4F004FB10956D
:106E7000284606F0E2FACDE90201DDE9042306F036
:106E800065F8CDE9060106F02FF8834656E02AF0B2
:106E9000004B584606F0BCFD074605F08FFE054640
:106EA00006F09CFA814699FBF4F004FB10995846D1
:106EB00006F0AEFDCDE9000105F080FECDE902014E
:106EC000584606F0A5FD0746DDE9022306F0B6FCAC
:106ED00005460E46484606F0B0FA2A463346CDE946
:106EE000040106F033F800221346CDE9060106F04E
:106EF00039FA02D14FF0000B20E0204606F026FFC1
:106F000006463146584606F023FE054606F0E2FEE8
:106F100000F10109504606F07BFD21F000480746CC
:106F200009FB04F006F089FA3A464346CDE906012A
:106F300006F084FC054605F0D7FF8346584609B0A5
:106F4000BDE8F08F08B5002000F06EF802F034FFC5
:106F50005CE02F4A2F49002000F08CF800283AD13D
:106F60002B4800782C49898A884202D0284800782A
:106F7000D0B900202949088029490880254802887D
:106F80002849234802F008FD254908800846008862
:106F9000002836DD1E48007898B3224A084601884A
:106FA000002000F0BFF82CE01C4801880088401C3D
:106FB0001A4A108047F23050814222DBFFF776FEFA
:106FC0006A460021642001F007FBFFF779FE0020EC
:106FD0001249088015E0114801880088401C0F4ABA
:106FE000108047F2305081420BDBFFF75FFE6A46AC
:106FF0000021642001F0F0FAFFF762FE002007494B
:1070000008806A460021012001F0E6FAA1E70000AD
:107010003C46002088000020B00900208A000020A3
:10702000860000201045002010B5044614B1012C44
:1070300014D109E004F086FC0A480B4908600B48AB
:107040000968C1F860020AE004F07CFC08480649BF
:10705000486006484968C1F8600200E000BF00BF10
:1070600010BD0000D84900201C010020994A0008EA
:107070003C4C00202DE9F04104460E46904628483D
:1070800050F824000079AB2842D1254850F824005C
:107090004179234850F824004079401C204A52F896
:1070A00024205071062938DB56201D4951F8241040
:1070B000087100201A4951F824104871184850F8F6
:1070C0002400008830800020154951F824100880E1
:1070D0003188134A52F82420901DFCF71BF907460B
:1070E000DFB900250EE00E4850F82400801D405DF9
:1070F00008F80500FF210A4850F82400801D41557A
:10710000681C85B23088A842EDDC0020BDE8F08123
:107110000020034951F8241048714FF0FF30F5E783
:107120001C0100202DE9F04105460E469046002442
:1071300006E000BF00BF00BF00BF00BF601C84B2FC
:107140004CF250308442F4DB002406E000BF00BF64
:1071500000BF00BF00BF601C84B24CF250308442BC
:10716000F4DB002409E018F80410154850F8250055
:1071700000F599700155601C84B2B442F3DB1049EC
:1071800051F8251001F599703146FCF7C3F8074610
:107190000B4850F8250000F5997087553A0A0848C1
:1071A00050F8250000F59970711C4254B21C90B241
:1071B000034A52F82520D2F860128847BDE8F081D2
:1071C0001C01002010B504F0AFFB002411E00221E7
:1071D000204600F089F90020C4EBC401064A02EB06
:1071E00081010876C4EBC40102EB81018876601C42
:1071F000C4B2012CEBDB10BDBC4900200EB500244D
:1072000000BF00F0EBF95FE1B04890F8AD01002855
:107210007ED0AE4890F8F401C0F34010002877D13A
:10722000AA4890F8F401C0F300100028F7D1A7484D
:1072300090F8F40100F001000028F0D1A34890F884
:10724000F401C0F340000028E9D1A048D0F8F401CF
:10725000C0F340700028E2D19C48D0F8F401C0F39C
:1072600080600028DBD1994890F8AC01012807D153
:10727000964908694FF0804106F06AFC044600E038
:1072800000249348007820B101287DD002287AD1CB
:107290009CE08E4AD2F8B411106D06F077FF0646D6
:1072A0008A480169304606F07DFE12D202218748E5
:1072B00080F8B011874801780078401C854A10702A
:1072C000C8295EDD0220824908700020114608703E
:1072D00057E07E480169804806F098FD06467B4AE3
:1072E000D2F8B411106D06F051FF0746314606F092
:1072F00059FD14D20121754880F8B0117548017804
:107300000078401C734A1070C8293ADD012000E063
:1073100087E06F49087000201146087031E0FFF7E0
:1073200051FF00206A4908706A49087000216748C7
:1073300080F8B01102A848F204130A46CDE9001003
:107340000221664800F062FABDF8080028B902ABD5
:1073500000220421614800F035FC02A8002148F217
:1073600004130A46CDE9001002215D4800F04EFAF0
:10737000BDF8080028B902AB00220421584800F0EB
:1073800021FC4DE000E043E0504AD2F8B411106D0A
:1073900006F0FCFE0646214606F004FE05D94B48E1
:1073A00090F8F401C0F3800038B1FFF70BFF002024
:1073B000474908704B49088007E0002000F026F993
:1073C00048480088401C4749088029E03F4A116D21
:1073D000D2F8B40106F0DAFE0646214606F0E2FDD8
:1073E00005D93A4890F8F401C0F3C00038B1FFF76E
:1073F000E9FE0020364908703A49088007E000207D
:1074000000F02AF937480088401C3649088007E018
:10741000FFF7D8FE00202E4908703249088000BFCF
:1074200033E0FFF7CFFE00202949087000212748EC
:1074300080F8B01100202B49088002A8002148F2F2
:1074400004130A46CDE900100221244800F0DEF9B9
:10745000BDF8080028B902AB002204211F4800F043
:10746000B1FB02A8002148F204130A46CDE900103E
:1074700002211B4800F0CAF9BDF8080028B902AB88
:1074800000220421164800F09DFB16480088B0F544
:10749000FA6F08DD00201349088002AB00220121A9
:1074A0000F4800F08FFB0020FEF74AFD074981F8E6
:1074B000AE010020FEF73AFD044981F8AF0102AAAF
:1074C0000021012001F088F89EE60000B0090020AC
:1074D0008C0000208D000020000080BFE0440020D0
:1074E000F84400208E00002070B504460D46012DA2
:1074F0000DD1C4EBC4020D4B03EB82021189C4EB26
:10750000C40203EB82025068FDF7F5FF0CE0C4EB08
:10751000C402064B03EB82021189C4EBC40203EBE5
:1075200082025068FDF7E5FF70BD0000BC490020F5
:1075300070B504460D46012D0DD1C4EBC4020E4BAF
:1075400003EB8202918AC4EBC40203EB820210694E
:10755000FDF7D1FF0EE0022D0CD1C4EBC402064BA7
:1075600003EB8202918AC4EBC40203EB820210692E
:10757000FDF7BFFF70BD0000BC49002008B5012128
:10758000202002F0C7FC4FF44040ADF8000010206E
:107590008DF8030003208DF8020069460D48FDF7C1
:1075A000CBFE4FF400410B48FDF7A3FF09480A4901
:1075B00048604FF4004008812020086005480861B9
:1075C0004FF4804088822020C860002008768876AA
:1075D00008BD000000140140BC49002010B5FFF7B1
:1075E000CDFF04F051F810BD08B500BF0CE0FDF769
:1075F0005FFCFDF70BFDFDF701FBFDF7CFFA6A46D7
:107600000021052000F0E8FFF1E7000010B5044676
:10761000012C1CDC0E480078A04207D1C4EBC4004A
:107620000C4901EB8000007E012810D0FFF7CAFD55
:107630000120C4EBC401074A02EB8101087604482B
:10764000047001210078FFF773FF04F05BF910BDAF
:1076500014010020BC49002010B50446012C1CDC9C
:107660000E480078A04207D1C4EBC4000C4901EBDE
:107670008000007E022810D0FFF7A4FD0220C4EB9A
:10768000C401074A02EB8101087604480470022114
:107690000078FFF74DFF04F035F910BD140100200C
:1076A000BC49002008B54FF4A06000F065F81D202B
:1076B0008DF8000000208DF8010001208DF80200F7
:1076C0008DF80300684600F01FF80B208DF80000CD
:1076D00000208DF8010002208DF8020001208DF8B5
:1076E0000300684600F010F834208DF800000120F7
:1076F0008DF8010000208DF8020001208DF80300B4
:10770000684600F001F808BD70B5002100230F2283
:10771000C47804B3154C246804F4E064C4F5E06450
:10772000210AC1F10403CA40447804FA03F18478C1
:107730001440214309010E4C0678A155047804F049
:107740001F050124AC4005786D11AD0005F1E02561
:10775000C5F8004109E0047804F01F050124AC409D
:10776000044D0678761145F8264070BD0CED00E01A
:1077700000E400E080E100E002490143024A1160B8
:10778000704700000000FA050CED00E070470000B3
:107790002DE9F0410446884616461D460027184844
:1077A0000078002804DD42F6E1602880BDE8F08121
:1077B0001CB945F6C3502880F8E700BF00BFFAF7B0
:1077C00019FD074600BFFBF75BFD00BF0D482060B9
:1077D000266100206061201D01F057F90A480088E9
:1077E000401C0949088000BFFBF764FD00BF384614
:1077F000FAF704FD00BF00BF0020288000BFD5E7D6
:1078000024000020464C41472E0000202DE9FF4F68
:107810008BB0054689469846DDE918640020029041
:10782000E4480078002806DD46F2AE1020800020F3
:107830000FB0BDE8F08F25B945F6C3502080002079
:10784000F6E748F20101A8EB0100884536D01ADCC2
:1078500040F20111A8EB010088452BD00CDCB8F1F7
:10786000010F23D0B8F1020F21D0B8F1040F1FD0BF
:10787000B8F1080F2AD11CE001281CD003281BD026
:10788000072823D119E0B0F5807F1BD006DC012842
:1078900015D0032814D0072818D112E0A0F2011047
:1078A00088B1022810D0062810D10EE000BF00BF1A
:1078B00000BF00BF00BF00BF00BF00BF00BF00BFD0
:1078C00000BF00BF00BF00BF00BF04E045F6256059
:1078D00020800020ACE700BFB7492868884204D068
:1078E00045F6C45020800020A2E708F4807010B153
:1078F0004FF0010A01E04FF0000A0EB100203060A5
:1079000008F00F0B00BF00BFFAF774FC029000BF35
:10791000FBF7B6FC00BFBBF1040F03D0BBF1080FAF
:1079200070D152E0286900EA09074F4518D1BAF131
:10793000010F02D12869B8432861A0480068076494
:107940000EB16869306000BFFBF7B4FC00BF02985D
:10795000FAF754FC00BF00BF00202080384667E7DC
:1079600008F4004068B100BFFBF7A4FC00BF029818
:10797000FAF744FC00BF00BF46F2B01020800020A0
:1079800056E78F48007800280DDD00BFFBF792FC1A
:1079900000BF0298FAF732FC00BF00BF46F6635002
:1079A0002080002044E70D9843464A46294600902F
:1079B00003A800F0C1FE00BFFBF77CFC00BF0298EB
:1079C000FAF71CFC00BF00BF60E0286900EA090765
:1079D000CFB1BAF1010F02D12869B84328617748C5
:1079E000006807640EB16869306000BFFBF762FC95
:1079F00000BF0298FAF702FC00BF00BF0020208001
:107A0000384615E734E008F4004068B100BFFBF7E2
:107A100051FC00BF0298FAF7F1FB00BF00BF46F22D
:107A2000B0102080002003E76548007800280DDDB5
:107A300000BFFBF73FFC00BF0298FAF7DFFB00BF77
:107A400000BF46F6635020800020F1E60D984346C3
:107A50004A462946009003A800F06EFE00BFFBF7DF
:107A600029FC00BF0298FAF7C9FB00BF00BF0DE078
:107A700000BFFBF71FFC00BF0298FAF7BFFB00BF77
:107A800000BF45F6256020800020D1E600BF00F051
:107A9000E9F900BF00BFFAF7ADFB029000BFFBF7AA
:107AA000EFFB00BF4548006890F8210030B1012885
:107AB0000CD002282CD003283CD119E01EB13F483D
:107AC0000068806A30600020208040E01EB13B48A2
:107AD0000068806A306000BFFBF7ECFB00BF0298D3
